{
	"data": {
		"bytecode": {
			"linkReferences": {},
			"object": "608060405234801561001057600080fd5b50610a79806100206000396000f3fe608060405234801561001057600080fd5b506004361061002b5760003560e01c8063cc02ffa214610030575b600080fd5b61004a6004803603810190610045919061063e565b61004c565b005b600082905060008173ffffffffffffffffffffffffffffffffffffffff1663b63e6ac3846040518263ffffffff1660e01b815260040161008c9190610868565b60c06040518083038186803b1580156100a457600080fd5b505afa1580156100b8573d6000803e3d6000fd5b505050506040513d601f19601f820116820180604052508101906100dc91906106f4565b905060008160400151905060008260600151905060008360800151905060008460a001519050600085600001519050600086602001519050600082905060008173ffffffffffffffffffffffffffffffffffffffff1663c55a19c8846040518263ffffffff1660e01b81526004016101549190610868565b60206040518083038186803b15801561016c57600080fd5b505afa158015610180573d6000803e3d6000fd5b505050506040513d601f19601f820116820180604052508101906101a49190610611565b90508173ffffffffffffffffffffffffffffffffffffffff16638bbf41bf846040518263ffffffff1660e01b81526004016101df9190610868565b60206040518083038186803b1580156101f757600080fd5b505afa15801561020b573d6000803e3d6000fd5b505050506040513d601f19601f8201168201806040525081019061022f91906106c7565b156103c85760008273ffffffffffffffffffffffffffffffffffffffff166303abdd6d856040518263ffffffff1660e01b815260040161026f9190610868565b60006040518083038186803b15801561028757600080fd5b505afa15801561029b573d6000803e3d6000fd5b505050506040513d6000823e3d601f19601f820116820180604052508101906102c4919061067e565b90506000816000815181106102dc576102db610976565b5b602002602001015160000151905060008473ffffffffffffffffffffffffffffffffffffffff1663208b0f6587846040518363ffffffff1660e01b8152600401610327929190610883565b60206040518083038186803b15801561033f57600080fd5b505afa158015610353573d6000803e3d6000fd5b505050506040513d601f19601f820116820180604052508101906103779190610721565b90507f3893e27ad3095f57fc8d735a5fd1691210ca20259b00620883a2f766ae698a7d8f8f8d8d8d8d8a89896040516103b8999897969594939291906107db565b60405180910390a150505061040c565b7fbf177d73296b084de4e49a751b666288d8e65dcefe1cf9f4e47d081aec6587248c8c8a8a8a8a87604051610403979695949392919061076c565b60405180910390a15b505050505050505050505050565b600061042d610428846108d1565b6108ac565b905080838252602082019050828560408602820111156104505761044f6109de565b5b60005b8581101561048057816104668882610597565b845260208401935060408301925050600181019050610453565b5050509392505050565b600081359050610499816109fe565b92915050565b6000815190506104ae816109fe565b92915050565b600082601f8301126104c9576104c86109d4565b5b81516104d984826020860161041a565b91505092915050565b6000815190506104f181610a15565b92915050565b600060c0828403121561050d5761050c6109d9565b5b61051760c06108ac565b905060006105278482850161049f565b600083015250602061053b848285016105fc565b602083015250604061054f8482850161049f565b6040830152506060610563848285016105fc565b60608301525060806105778482850161049f565b60808301525060a061058b8482850161049f565b60a08301525092915050565b6000604082840312156105ad576105ac6109d9565b5b6105b760406108ac565b905060006105c78482850161049f565b60008301525060206105db848285016105fc565b60208301525092915050565b6000813590506105f681610a2c565b92915050565b60008151905061060b81610a2c565b92915050565b600060208284031215610627576106266109e8565b5b60006106358482850161049f565b91505092915050565b60008060408385031215610655576106546109e8565b5b60006106638582860161048a565b9250506020610674858286016105e7565b9150509250929050565b600060208284031215610694576106936109e8565b5b600082015167ffffffffffffffff8111156106b2576106b16109e3565b5b6106be848285016104b4565b91505092915050565b6000602082840312156106dd576106dc6109e8565b5b60006106eb848285016104e2565b91505092915050565b600060c0828403121561070a576107096109e8565b5b6000610718848285016104f7565b91505092915050565b600060208284031215610737576107366109e8565b5b6000610745848285016105fc565b91505092915050565b610757816108fd565b82525050565b6107668161093b565b82525050565b600060e082019050610781600083018a61074e565b61078e602083018961075d565b61079b604083018861074e565b6107a8606083018761075d565b6107b5608083018661074e565b6107c260a083018561074e565b6107cf60c083018461074e565b98975050505050505050565b6000610120820190506107f1600083018c61074e565b6107fe602083018b61075d565b61080b604083018a61074e565b610818606083018961075d565b610825608083018861074e565b61083260a083018761074e565b61083f60c083018661074e565b61084c60e083018561074e565b61085a61010083018461075d565b9a9950505050505050505050565b600060208201905061087d600083018461075d565b92915050565b6000604082019050610898600083018561075d565b6108a5602083018461074e565b9392505050565b60006108b66108c7565b90506108c28282610945565b919050565b6000604051905090565b600067ffffffffffffffff8211156108ec576108eb6109a5565b5b602082029050602081019050919050565b60006109088261091b565b9050919050565b60008115159050919050565b600073ffffffffffffffffffffffffffffffffffffffff82169050919050565b6000819050919050565b61094e826109ed565b810181811067ffffffffffffffff8211171561096d5761096c6109a5565b5b80604052505050565b7f4e487b7100000000000000000000000000000000000000000000000000000000600052603260045260246000fd5b7f4e487b7100000000000000000000000000000000000000000000000000000000600052604160045260246000fd5b600080fd5b600080fd5b600080fd5b600080fd5b600080fd5b6000601f19601f8301169050919050565b610a07816108fd565b8114610a1257600080fd5b50565b610a1e8161090f565b8114610a2957600080fd5b50565b610a358161093b565b8114610a4057600080fd5b5056fea26469706673582212200ecb341fce579a902105c58875172aea7cf8e6ad16b5e015ea06cd953090ad2e64736f6c63430008070033",
			"opcodes": "PUSH1 0x80 PUSH1 0x40 MSTORE CALLVALUE DUP1 ISZERO PUSH2 0x10 JUMPI PUSH1 0x0 DUP1 REVERT JUMPDEST POP PUSH2 0xA79 DUP1 PUSH2 0x20 PUSH1 0x0 CODECOPY PUSH1 0x0 RETURN INVALID PUSH1 0x80 PUSH1 0x40 MSTORE CALLVALUE DUP1 ISZERO PUSH2 0x10 JUMPI PUSH1 0x0 DUP1 REVERT JUMPDEST POP PUSH1 0x4 CALLDATASIZE LT PUSH2 0x2B JUMPI PUSH1 0x0 CALLDATALOAD PUSH1 0xE0 SHR DUP1 PUSH4 0xCC02FFA2 EQ PUSH2 0x30 JUMPI JUMPDEST PUSH1 0x0 DUP1 REVERT JUMPDEST PUSH2 0x4A PUSH1 0x4 DUP1 CALLDATASIZE SUB DUP2 ADD SWAP1 PUSH2 0x45 SWAP2 SWAP1 PUSH2 0x63E JUMP JUMPDEST PUSH2 0x4C JUMP JUMPDEST STOP JUMPDEST PUSH1 0x0 DUP3 SWAP1 POP PUSH1 0x0 DUP2 PUSH20 0xFFFFFFFFFFFFFFFFFFFFFFFFFFFFFFFFFFFFFFFF AND PUSH4 0xB63E6AC3 DUP5 PUSH1 0x40 MLOAD DUP3 PUSH4 0xFFFFFFFF AND PUSH1 0xE0 SHL DUP2 MSTORE PUSH1 0x4 ADD PUSH2 0x8C SWAP2 SWAP1 PUSH2 0x868 JUMP JUMPDEST PUSH1 0xC0 PUSH1 0x40 MLOAD DUP1 DUP4 SUB DUP2 DUP7 DUP1 EXTCODESIZE ISZERO DUP1 ISZERO PUSH2 0xA4 JUMPI PUSH1 0x0 DUP1 REVERT JUMPDEST POP GAS STATICCALL ISZERO DUP1 ISZERO PUSH2 0xB8 JUMPI RETURNDATASIZE PUSH1 0x0 DUP1 RETURNDATACOPY RETURNDATASIZE PUSH1 0x0 REVERT JUMPDEST POP POP POP POP PUSH1 0x40 MLOAD RETURNDATASIZE PUSH1 0x1F NOT PUSH1 0x1F DUP3 ADD AND DUP3 ADD DUP1 PUSH1 0x40 MSTORE POP DUP2 ADD SWAP1 PUSH2 0xDC SWAP2 SWAP1 PUSH2 0x6F4 JUMP JUMPDEST SWAP1 POP PUSH1 0x0 DUP2 PUSH1 0x40 ADD MLOAD SWAP1 POP PUSH1 0x0 DUP3 PUSH1 0x60 ADD MLOAD SWAP1 POP PUSH1 0x0 DUP4 PUSH1 0x80 ADD MLOAD SWAP1 POP PUSH1 0x0 DUP5 PUSH1 0xA0 ADD MLOAD SWAP1 POP PUSH1 0x0 DUP6 PUSH1 0x0 ADD MLOAD SWAP1 POP PUSH1 0x0 DUP7 PUSH1 0x20 ADD MLOAD SWAP1 POP PUSH1 0x0 DUP3 SWAP1 POP PUSH1 0x0 DUP2 PUSH20 0xFFFFFFFFFFFFFFFFFFFFFFFFFFFFFFFFFFFFFFFF AND PUSH4 0xC55A19C8 DUP5 PUSH1 0x40 MLOAD DUP3 PUSH4 0xFFFFFFFF AND PUSH1 0xE0 SHL DUP2 MSTORE PUSH1 0x4 ADD PUSH2 0x154 SWAP2 SWAP1 PUSH2 0x868 JUMP JUMPDEST PUSH1 0x20 PUSH1 0x40 MLOAD DUP1 DUP4 SUB DUP2 DUP7 DUP1 EXTCODESIZE ISZERO DUP1 ISZERO PUSH2 0x16C JUMPI PUSH1 0x0 DUP1 REVERT JUMPDEST POP GAS STATICCALL ISZERO DUP1 ISZERO PUSH2 0x180 JUMPI RETURNDATASIZE PUSH1 0x0 DUP1 RETURNDATACOPY RETURNDATASIZE PUSH1 0x0 REVERT JUMPDEST POP POP POP POP PUSH1 0x40 MLOAD RETURNDATASIZE PUSH1 0x1F NOT PUSH1 0x1F DUP3 ADD AND DUP3 ADD DUP1 PUSH1 0x40 MSTORE POP DUP2 ADD SWAP1 PUSH2 0x1A4 SWAP2 SWAP1 PUSH2 0x611 JUMP JUMPDEST SWAP1 POP DUP2 PUSH20 0xFFFFFFFFFFFFFFFFFFFFFFFFFFFFFFFFFFFFFFFF AND PUSH4 0x8BBF41BF DUP5 PUSH1 0x40 MLOAD DUP3 PUSH4 0xFFFFFFFF AND PUSH1 0xE0 SHL DUP2 MSTORE PUSH1 0x4 ADD PUSH2 0x1DF SWAP2 SWAP1 PUSH2 0x868 JUMP JUMPDEST PUSH1 0x20 PUSH1 0x40 MLOAD DUP1 DUP4 SUB DUP2 DUP7 DUP1 EXTCODESIZE ISZERO DUP1 ISZERO PUSH2 0x1F7 JUMPI PUSH1 0x0 DUP1 REVERT JUMPDEST POP GAS STATICCALL ISZERO DUP1 ISZERO PUSH2 0x20B JUMPI RETURNDATASIZE PUSH1 0x0 DUP1 RETURNDATACOPY RETURNDATASIZE PUSH1 0x0 REVERT JUMPDEST POP POP POP POP PUSH1 0x40 MLOAD RETURNDATASIZE PUSH1 0x1F NOT PUSH1 0x1F DUP3 ADD AND DUP3 ADD DUP1 PUSH1 0x40 MSTORE POP DUP2 ADD SWAP1 PUSH2 0x22F SWAP2 SWAP1 PUSH2 0x6C7 JUMP JUMPDEST ISZERO PUSH2 0x3C8 JUMPI PUSH1 0x0 DUP3 PUSH20 0xFFFFFFFFFFFFFFFFFFFFFFFFFFFFFFFFFFFFFFFF AND PUSH4 0x3ABDD6D DUP6 PUSH1 0x40 MLOAD DUP3 PUSH4 0xFFFFFFFF AND PUSH1 0xE0 SHL DUP2 MSTORE PUSH1 0x4 ADD PUSH2 0x26F SWAP2 SWAP1 PUSH2 0x868 JUMP JUMPDEST PUSH1 0x0 PUSH1 0x40 MLOAD DUP1 DUP4 SUB DUP2 DUP7 DUP1 EXTCODESIZE ISZERO DUP1 ISZERO PUSH2 0x287 JUMPI PUSH1 0x0 DUP1 REVERT JUMPDEST POP GAS STATICCALL ISZERO DUP1 ISZERO PUSH2 0x29B JUMPI RETURNDATASIZE PUSH1 0x0 DUP1 RETURNDATACOPY RETURNDATASIZE PUSH1 0x0 REVERT JUMPDEST POP POP POP POP PUSH1 0x40 MLOAD RETURNDATASIZE PUSH1 0x0 DUP3 RETURNDATACOPY RETURNDATASIZE PUSH1 0x1F NOT PUSH1 0x1F DUP3 ADD AND DUP3 ADD DUP1 PUSH1 0x40 MSTORE POP DUP2 ADD SWAP1 PUSH2 0x2C4 SWAP2 SWAP1 PUSH2 0x67E JUMP JUMPDEST SWAP1 POP PUSH1 0x0 DUP2 PUSH1 0x0 DUP2 MLOAD DUP2 LT PUSH2 0x2DC JUMPI PUSH2 0x2DB PUSH2 0x976 JUMP JUMPDEST JUMPDEST PUSH1 0x20 MUL PUSH1 0x20 ADD ADD MLOAD PUSH1 0x0 ADD MLOAD SWAP1 POP PUSH1 0x0 DUP5 PUSH20 0xFFFFFFFFFFFFFFFFFFFFFFFFFFFFFFFFFFFFFFFF AND PUSH4 0x208B0F65 DUP8 DUP5 PUSH1 0x40 MLOAD DUP4 PUSH4 0xFFFFFFFF AND PUSH1 0xE0 SHL DUP2 MSTORE PUSH1 0x4 ADD PUSH2 0x327 SWAP3 SWAP2 SWAP1 PUSH2 0x883 JUMP JUMPDEST PUSH1 0x20 PUSH1 0x40 MLOAD DUP1 DUP4 SUB DUP2 DUP7 DUP1 EXTCODESIZE ISZERO DUP1 ISZERO PUSH2 0x33F JUMPI PUSH1 0x0 DUP1 REVERT JUMPDEST POP GAS STATICCALL ISZERO DUP1 ISZERO PUSH2 0x353 JUMPI RETURNDATASIZE PUSH1 0x0 DUP1 RETURNDATACOPY RETURNDATASIZE PUSH1 0x0 REVERT JUMPDEST POP POP POP POP PUSH1 0x40 MLOAD RETURNDATASIZE PUSH1 0x1F NOT PUSH1 0x1F DUP3 ADD AND DUP3 ADD DUP1 PUSH1 0x40 MSTORE POP DUP2 ADD SWAP1 PUSH2 0x377 SWAP2 SWAP1 PUSH2 0x721 JUMP JUMPDEST SWAP1 POP PUSH32 0x3893E27AD3095F57FC8D735A5FD1691210CA20259B00620883A2F766AE698A7D DUP16 DUP16 DUP14 DUP14 DUP14 DUP14 DUP11 DUP10 DUP10 PUSH1 0x40 MLOAD PUSH2 0x3B8 SWAP10 SWAP9 SWAP8 SWAP7 SWAP6 SWAP5 SWAP4 SWAP3 SWAP2 SWAP1 PUSH2 0x7DB JUMP JUMPDEST PUSH1 0x40 MLOAD DUP1 SWAP2 SUB SWAP1 LOG1 POP POP POP PUSH2 0x40C JUMP JUMPDEST PUSH32 0xBF177D73296B084DE4E49A751B666288D8E65DCEFE1CF9F4E47D081AEC658724 DUP13 DUP13 DUP11 DUP11 DUP11 DUP11 DUP8 PUSH1 0x40 MLOAD PUSH2 0x403 SWAP8 SWAP7 SWAP6 SWAP5 SWAP4 SWAP3 SWAP2 SWAP1 PUSH2 0x76C JUMP JUMPDEST PUSH1 0x40 MLOAD DUP1 SWAP2 SUB SWAP1 LOG1 JUMPDEST POP POP POP POP POP POP POP POP POP POP POP POP JUMP JUMPDEST PUSH1 0x0 PUSH2 0x42D PUSH2 0x428 DUP5 PUSH2 0x8D1 JUMP JUMPDEST PUSH2 0x8AC JUMP JUMPDEST SWAP1 POP DUP1 DUP4 DUP3 MSTORE PUSH1 0x20 DUP3 ADD SWAP1 POP DUP3 DUP6 PUSH1 0x40 DUP7 MUL DUP3 ADD GT ISZERO PUSH2 0x450 JUMPI PUSH2 0x44F PUSH2 0x9DE JUMP JUMPDEST JUMPDEST PUSH1 0x0 JUMPDEST DUP6 DUP2 LT ISZERO PUSH2 0x480 JUMPI DUP2 PUSH2 0x466 DUP9 DUP3 PUSH2 0x597 JUMP JUMPDEST DUP5 MSTORE PUSH1 0x20 DUP5 ADD SWAP4 POP PUSH1 0x40 DUP4 ADD SWAP3 POP POP PUSH1 0x1 DUP2 ADD SWAP1 POP PUSH2 0x453 JUMP JUMPDEST POP POP POP SWAP4 SWAP3 POP POP POP JUMP JUMPDEST PUSH1 0x0 DUP2 CALLDATALOAD SWAP1 POP PUSH2 0x499 DUP2 PUSH2 0x9FE JUMP JUMPDEST SWAP3 SWAP2 POP POP JUMP JUMPDEST PUSH1 0x0 DUP2 MLOAD SWAP1 POP PUSH2 0x4AE DUP2 PUSH2 0x9FE JUMP JUMPDEST SWAP3 SWAP2 POP POP JUMP JUMPDEST PUSH1 0x0 DUP3 PUSH1 0x1F DUP4 ADD SLT PUSH2 0x4C9 JUMPI PUSH2 0x4C8 PUSH2 0x9D4 JUMP JUMPDEST JUMPDEST DUP2 MLOAD PUSH2 0x4D9 DUP5 DUP3 PUSH1 0x20 DUP7 ADD PUSH2 0x41A JUMP JUMPDEST SWAP2 POP POP SWAP3 SWAP2 POP POP JUMP JUMPDEST PUSH1 0x0 DUP2 MLOAD SWAP1 POP PUSH2 0x4F1 DUP2 PUSH2 0xA15 JUMP JUMPDEST SWAP3 SWAP2 POP POP JUMP JUMPDEST PUSH1 0x0 PUSH1 0xC0 DUP3 DUP5 SUB SLT ISZERO PUSH2 0x50D JUMPI PUSH2 0x50C PUSH2 0x9D9 JUMP JUMPDEST JUMPDEST PUSH2 0x517 PUSH1 0xC0 PUSH2 0x8AC JUMP JUMPDEST SWAP1 POP PUSH1 0x0 PUSH2 0x527 DUP5 DUP3 DUP6 ADD PUSH2 0x49F JUMP JUMPDEST PUSH1 0x0 DUP4 ADD MSTORE POP PUSH1 0x20 PUSH2 0x53B DUP5 DUP3 DUP6 ADD PUSH2 0x5FC JUMP JUMPDEST PUSH1 0x20 DUP4 ADD MSTORE POP PUSH1 0x40 PUSH2 0x54F DUP5 DUP3 DUP6 ADD PUSH2 0x49F JUMP JUMPDEST PUSH1 0x40 DUP4 ADD MSTORE POP PUSH1 0x60 PUSH2 0x563 DUP5 DUP3 DUP6 ADD PUSH2 0x5FC JUMP JUMPDEST PUSH1 0x60 DUP4 ADD MSTORE POP PUSH1 0x80 PUSH2 0x577 DUP5 DUP3 DUP6 ADD PUSH2 0x49F JUMP JUMPDEST PUSH1 0x80 DUP4 ADD MSTORE POP PUSH1 0xA0 PUSH2 0x58B DUP5 DUP3 DUP6 ADD PUSH2 0x49F JUMP JUMPDEST PUSH1 0xA0 DUP4 ADD MSTORE POP SWAP3 SWAP2 POP POP JUMP JUMPDEST PUSH1 0x0 PUSH1 0x40 DUP3 DUP5 SUB SLT ISZERO PUSH2 0x5AD JUMPI PUSH2 0x5AC PUSH2 0x9D9 JUMP JUMPDEST JUMPDEST PUSH2 0x5B7 PUSH1 0x40 PUSH2 0x8AC JUMP JUMPDEST SWAP1 POP PUSH1 0x0 PUSH2 0x5C7 DUP5 DUP3 DUP6 ADD PUSH2 0x49F JUMP JUMPDEST PUSH1 0x0 DUP4 ADD MSTORE POP PUSH1 0x20 PUSH2 0x5DB DUP5 DUP3 DUP6 ADD PUSH2 0x5FC JUMP JUMPDEST PUSH1 0x20 DUP4 ADD MSTORE POP SWAP3 SWAP2 POP POP JUMP JUMPDEST PUSH1 0x0 DUP2 CALLDATALOAD SWAP1 POP PUSH2 0x5F6 DUP2 PUSH2 0xA2C JUMP JUMPDEST SWAP3 SWAP2 POP POP JUMP JUMPDEST PUSH1 0x0 DUP2 MLOAD SWAP1 POP PUSH2 0x60B DUP2 PUSH2 0xA2C JUMP JUMPDEST SWAP3 SWAP2 POP POP JUMP JUMPDEST PUSH1 0x0 PUSH1 0x20 DUP3 DUP5 SUB SLT ISZERO PUSH2 0x627 JUMPI PUSH2 0x626 PUSH2 0x9E8 JUMP JUMPDEST JUMPDEST PUSH1 0x0 PUSH2 0x635 DUP5 DUP3 DUP6 ADD PUSH2 0x49F JUMP JUMPDEST SWAP2 POP POP SWAP3 SWAP2 POP POP JUMP JUMPDEST PUSH1 0x0 DUP1 PUSH1 0x40 DUP4 DUP6 SUB SLT ISZERO PUSH2 0x655 JUMPI PUSH2 0x654 PUSH2 0x9E8 JUMP JUMPDEST JUMPDEST PUSH1 0x0 PUSH2 0x663 DUP6 DUP3 DUP7 ADD PUSH2 0x48A JUMP JUMPDEST SWAP3 POP POP PUSH1 0x20 PUSH2 0x674 DUP6 DUP3 DUP7 ADD PUSH2 0x5E7 JUMP JUMPDEST SWAP2 POP POP SWAP3 POP SWAP3 SWAP1 POP JUMP JUMPDEST PUSH1 0x0 PUSH1 0x20 DUP3 DUP5 SUB SLT ISZERO PUSH2 0x694 JUMPI PUSH2 0x693 PUSH2 0x9E8 JUMP JUMPDEST JUMPDEST PUSH1 0x0 DUP3 ADD MLOAD PUSH8 0xFFFFFFFFFFFFFFFF DUP2 GT ISZERO PUSH2 0x6B2 JUMPI PUSH2 0x6B1 PUSH2 0x9E3 JUMP JUMPDEST JUMPDEST PUSH2 0x6BE DUP5 DUP3 DUP6 ADD PUSH2 0x4B4 JUMP JUMPDEST SWAP2 POP POP SWAP3 SWAP2 POP POP JUMP JUMPDEST PUSH1 0x0 PUSH1 0x20 DUP3 DUP5 SUB SLT ISZERO PUSH2 0x6DD JUMPI PUSH2 0x6DC PUSH2 0x9E8 JUMP JUMPDEST JUMPDEST PUSH1 0x0 PUSH2 0x6EB DUP5 DUP3 DUP6 ADD PUSH2 0x4E2 JUMP JUMPDEST SWAP2 POP POP SWAP3 SWAP2 POP POP JUMP JUMPDEST PUSH1 0x0 PUSH1 0xC0 DUP3 DUP5 SUB SLT ISZERO PUSH2 0x70A JUMPI PUSH2 0x709 PUSH2 0x9E8 JUMP JUMPDEST JUMPDEST PUSH1 0x0 PUSH2 0x718 DUP5 DUP3 DUP6 ADD PUSH2 0x4F7 JUMP JUMPDEST SWAP2 POP POP SWAP3 SWAP2 POP POP JUMP JUMPDEST PUSH1 0x0 PUSH1 0x20 DUP3 DUP5 SUB SLT ISZERO PUSH2 0x737 JUMPI PUSH2 0x736 PUSH2 0x9E8 JUMP JUMPDEST JUMPDEST PUSH1 0x0 PUSH2 0x745 DUP5 DUP3 DUP6 ADD PUSH2 0x5FC JUMP JUMPDEST SWAP2 POP POP SWAP3 SWAP2 POP POP JUMP JUMPDEST PUSH2 0x757 DUP2 PUSH2 0x8FD JUMP JUMPDEST DUP3 MSTORE POP POP JUMP JUMPDEST PUSH2 0x766 DUP2 PUSH2 0x93B JUMP JUMPDEST DUP3 MSTORE POP POP JUMP JUMPDEST PUSH1 0x0 PUSH1 0xE0 DUP3 ADD SWAP1 POP PUSH2 0x781 PUSH1 0x0 DUP4 ADD DUP11 PUSH2 0x74E JUMP JUMPDEST PUSH2 0x78E PUSH1 0x20 DUP4 ADD DUP10 PUSH2 0x75D JUMP JUMPDEST PUSH2 0x79B PUSH1 0x40 DUP4 ADD DUP9 PUSH2 0x74E JUMP JUMPDEST PUSH2 0x7A8 PUSH1 0x60 DUP4 ADD DUP8 PUSH2 0x75D JUMP JUMPDEST PUSH2 0x7B5 PUSH1 0x80 DUP4 ADD DUP7 PUSH2 0x74E JUMP JUMPDEST PUSH2 0x7C2 PUSH1 0xA0 DUP4 ADD DUP6 PUSH2 0x74E JUMP JUMPDEST PUSH2 0x7CF PUSH1 0xC0 DUP4 ADD DUP5 PUSH2 0x74E JUMP JUMPDEST SWAP9 SWAP8 POP POP POP POP POP POP POP POP JUMP JUMPDEST PUSH1 0x0 PUSH2 0x120 DUP3 ADD SWAP1 POP PUSH2 0x7F1 PUSH1 0x0 DUP4 ADD DUP13 PUSH2 0x74E JUMP JUMPDEST PUSH2 0x7FE PUSH1 0x20 DUP4 ADD DUP12 PUSH2 0x75D JUMP JUMPDEST PUSH2 0x80B PUSH1 0x40 DUP4 ADD DUP11 PUSH2 0x74E JUMP JUMPDEST PUSH2 0x818 PUSH1 0x60 DUP4 ADD DUP10 PUSH2 0x75D JUMP JUMPDEST PUSH2 0x825 PUSH1 0x80 DUP4 ADD DUP9 PUSH2 0x74E JUMP JUMPDEST PUSH2 0x832 PUSH1 0xA0 DUP4 ADD DUP8 PUSH2 0x74E JUMP JUMPDEST PUSH2 0x83F PUSH1 0xC0 DUP4 ADD DUP7 PUSH2 0x74E JUMP JUMPDEST PUSH2 0x84C PUSH1 0xE0 DUP4 ADD DUP6 PUSH2 0x74E JUMP JUMPDEST PUSH2 0x85A PUSH2 0x100 DUP4 ADD DUP5 PUSH2 0x75D JUMP JUMPDEST SWAP11 SWAP10 POP POP POP POP POP POP POP POP POP POP JUMP JUMPDEST PUSH1 0x0 PUSH1 0x20 DUP3 ADD SWAP1 POP PUSH2 0x87D PUSH1 0x0 DUP4 ADD DUP5 PUSH2 0x75D JUMP JUMPDEST SWAP3 SWAP2 POP POP JUMP JUMPDEST PUSH1 0x0 PUSH1 0x40 DUP3 ADD SWAP1 POP PUSH2 0x898 PUSH1 0x0 DUP4 ADD DUP6 PUSH2 0x75D JUMP JUMPDEST PUSH2 0x8A5 PUSH1 0x20 DUP4 ADD DUP5 PUSH2 0x74E JUMP JUMPDEST SWAP4 SWAP3 POP POP POP JUMP JUMPDEST PUSH1 0x0 PUSH2 0x8B6 PUSH2 0x8C7 JUMP JUMPDEST SWAP1 POP PUSH2 0x8C2 DUP3 DUP3 PUSH2 0x945 JUMP JUMPDEST SWAP2 SWAP1 POP JUMP JUMPDEST PUSH1 0x0 PUSH1 0x40 MLOAD SWAP1 POP SWAP1 JUMP JUMPDEST PUSH1 0x0 PUSH8 0xFFFFFFFFFFFFFFFF DUP3 GT ISZERO PUSH2 0x8EC JUMPI PUSH2 0x8EB PUSH2 0x9A5 JUMP JUMPDEST JUMPDEST PUSH1 0x20 DUP3 MUL SWAP1 POP PUSH1 0x20 DUP2 ADD SWAP1 POP SWAP2 SWAP1 POP JUMP JUMPDEST PUSH1 0x0 PUSH2 0x908 DUP3 PUSH2 0x91B JUMP JUMPDEST SWAP1 POP SWAP2 SWAP1 POP JUMP JUMPDEST PUSH1 0x0 DUP2 ISZERO ISZERO SWAP1 POP SWAP2 SWAP1 POP JUMP JUMPDEST PUSH1 0x0 PUSH20 0xFFFFFFFFFFFFFFFFFFFFFFFFFFFFFFFFFFFFFFFF DUP3 AND SWAP1 POP SWAP2 SWAP1 POP JUMP JUMPDEST PUSH1 0x0 DUP2 SWAP1 POP SWAP2 SWAP1 POP JUMP JUMPDEST PUSH2 0x94E DUP3 PUSH2 0x9ED JUMP JUMPDEST DUP2 ADD DUP2 DUP2 LT PUSH8 0xFFFFFFFFFFFFFFFF DUP3 GT OR ISZERO PUSH2 0x96D JUMPI PUSH2 0x96C PUSH2 0x9A5 JUMP JUMPDEST JUMPDEST DUP1 PUSH1 0x40 MSTORE POP POP POP JUMP JUMPDEST PUSH32 0x4E487B7100000000000000000000000000000000000000000000000000000000 PUSH1 0x0 MSTORE PUSH1 0x32 PUSH1 0x4 MSTORE PUSH1 0x24 PUSH1 0x0 REVERT JUMPDEST PUSH32 0x4E487B7100000000000000000000000000000000000000000000000000000000 PUSH1 0x0 MSTORE PUSH1 0x41 PUSH1 0x4 MSTORE PUSH1 0x24 PUSH1 0x0 REVERT JUMPDEST PUSH1 0x0 DUP1 REVERT JUMPDEST PUSH1 0x0 DUP1 REVERT JUMPDEST PUSH1 0x0 DUP1 REVERT JUMPDEST PUSH1 0x0 DUP1 REVERT JUMPDEST PUSH1 0x0 DUP1 REVERT JUMPDEST PUSH1 0x0 PUSH1 0x1F NOT PUSH1 0x1F DUP4 ADD AND SWAP1 POP SWAP2 SWAP1 POP JUMP JUMPDEST PUSH2 0xA07 DUP2 PUSH2 0x8FD JUMP JUMPDEST DUP2 EQ PUSH2 0xA12 JUMPI PUSH1 0x0 DUP1 REVERT JUMPDEST POP JUMP JUMPDEST PUSH2 0xA1E DUP2 PUSH2 0x90F JUMP JUMPDEST DUP2 EQ PUSH2 0xA29 JUMPI PUSH1 0x0 DUP1 REVERT JUMPDEST POP JUMP JUMPDEST PUSH2 0xA35 DUP2 PUSH2 0x93B JUMP JUMPDEST DUP2 EQ PUSH2 0xA40 JUMPI PUSH1 0x0 DUP1 REVERT JUMPDEST POP JUMP INVALID LOG2 PUSH5 0x6970667358 0x22 SLT KECCAK256 0xE 0xCB CALLVALUE 0x1F 0xCE JUMPI SWAP11 SWAP1 0x21 SDIV 0xC5 DUP9 PUSH22 0x172AEA7CF8E6AD16B5E015EA06CD953090AD2E64736F PUSH13 0x63430008070033000000000000 "
		},
		"gasEstimates": {
			"creation": {
				"codeDepositCost": "536200",
				"executionCost": "568",
				"totalCost": "536768"
			},
			"external": {
				"onPostPayment(address,uint256)": "infinite"
			}
		},
		"methodIdentifiers": {
			"onPostPayment(address,uint256)": "cc02ffa2"
		}
	},
	"abi": [
		{
			"anonymous": false,
			"inputs": [
				{
					"indexed": false,
					"internalType": "address",
					"name": "receiptAddr",
					"type": "address"
				},
				{
					"indexed": false,
					"internalType": "uint256",
					"name": "receiptId",
					"type": "uint256"
				},
				{
					"indexed": false,
					"internalType": "address",
					"name": "receiptTokenAddr",
					"type": "address"
				},
				{
					"indexed": false,
					"internalType": "uint256",
					"name": "receiptTokenAmount",
					"type": "uint256"
				},
				{
					"indexed": false,
					"internalType": "address",
					"name": "payer",
					"type": "address"
				},
				{
					"indexed": false,
					"internalType": "address",
					"name": "payee",
					"type": "address"
				},
				{
					"indexed": false,
					"internalType": "address",
					"name": "paymentPreconditionAddr",
					"type": "address"
				}
			],
			"name": "DynamicPricePPAExecuted",
			"type": "event"
		},
		{
			"anonymous": false,
			"inputs": [
				{
					"indexed": false,
					"internalType": "address",
					"name": "receiptAddr",
					"type": "address"
				},
				{
					"indexed": false,
					"internalType": "uint256",
					"name": "receiptId",
					"type": "uint256"
				},
				{
					"indexed": false,
					"internalType": "address",
					"name": "receiptTokenAddr",
					"type": "address"
				},
				{
					"indexed": false,
					"internalType": "uint256",
					"name": "receiptTokenAmount",
					"type": "uint256"
				},
				{
					"indexed": false,
					"internalType": "address",
					"name": "payer",
					"type": "address"
				},
				{
					"indexed": false,
					"internalType": "address",
					"name": "payee",
					"type": "address"
				},
				{
					"indexed": false,
					"internalType": "address",
					"name": "paymentPreconditionAddr",
					"type": "address"
				},
				{
					"indexed": false,
					"internalType": "address",
					"name": "paymentRequestTokenAddr",
					"type": "address"
				},
				{
					"indexed": false,
					"internalType": "uint256",
					"name": "paymentRequestTokenPrice",
					"type": "uint256"
				}
			],
			"name": "StaticPricePPAExecuted",
			"type": "event"
		},
		{
			"inputs": [
				{
					"internalType": "address",
					"name": "receiptAddr",
					"type": "address"
				},
				{
					"internalType": "uint256",
					"name": "receiptId",
					"type": "uint256"
				}
			],
			"name": "onPostPayment",
			"outputs": [],
			"stateMutability": "nonpayable",
			"type": "function"
		}
	]
}