{
	"contracts/BillingRequest.sol": {
		"BillingRequest": {
			"abi": [
				{
					"inputs": [],
					"stateMutability": "nonpayable",
					"type": "constructor"
				},
				{
					"anonymous": false,
					"inputs": [
						{
							"indexed": true,
							"internalType": "address",
							"name": "owner",
							"type": "address"
						},
						{
							"indexed": true,
							"internalType": "address",
							"name": "approved",
							"type": "address"
						},
						{
							"indexed": true,
							"internalType": "uint256",
							"name": "tokenId",
							"type": "uint256"
						}
					],
					"name": "Approval",
					"type": "event"
				},
				{
					"anonymous": false,
					"inputs": [
						{
							"indexed": true,
							"internalType": "address",
							"name": "owner",
							"type": "address"
						},
						{
							"indexed": true,
							"internalType": "address",
							"name": "operator",
							"type": "address"
						},
						{
							"indexed": false,
							"internalType": "bool",
							"name": "approved",
							"type": "bool"
						}
					],
					"name": "ApprovalForAll",
					"type": "event"
				},
				{
					"anonymous": false,
					"inputs": [
						{
							"indexed": true,
							"internalType": "address",
							"name": "from",
							"type": "address"
						},
						{
							"indexed": true,
							"internalType": "address",
							"name": "to",
							"type": "address"
						},
						{
							"indexed": true,
							"internalType": "uint256",
							"name": "tokenId",
							"type": "uint256"
						}
					],
					"name": "Transfer",
					"type": "event"
				},
				{
					"inputs": [
						{
							"internalType": "address",
							"name": "to",
							"type": "address"
						},
						{
							"internalType": "uint256",
							"name": "tokenId",
							"type": "uint256"
						}
					],
					"name": "approve",
					"outputs": [],
					"stateMutability": "nonpayable",
					"type": "function"
				},
				{
					"inputs": [
						{
							"internalType": "address",
							"name": "owner",
							"type": "address"
						}
					],
					"name": "balanceOf",
					"outputs": [
						{
							"internalType": "uint256",
							"name": "",
							"type": "uint256"
						}
					],
					"stateMutability": "view",
					"type": "function"
				},
				{
					"inputs": [
						{
							"components": [
								{
									"internalType": "address",
									"name": "tokenAddr",
									"type": "address"
								},
								{
									"internalType": "uint256",
									"name": "tokenNumber",
									"type": "uint256"
								}
							],
							"internalType": "struct Billing.TokenPay[]",
							"name": "prices",
							"type": "tuple[]"
						},
						{
							"internalType": "address",
							"name": "payTo",
							"type": "address"
						}
					],
					"name": "create",
					"outputs": [
						{
							"internalType": "uint256",
							"name": "",
							"type": "uint256"
						}
					],
					"stateMutability": "nonpayable",
					"type": "function"
				},
				{
					"inputs": [
						{
							"components": [
								{
									"internalType": "address",
									"name": "tokenAddr",
									"type": "address"
								},
								{
									"internalType": "uint256",
									"name": "tokenNumber",
									"type": "uint256"
								}
							],
							"internalType": "struct Billing.TokenPay[]",
							"name": "prices",
							"type": "tuple[]"
						}
					],
					"name": "create",
					"outputs": [
						{
							"internalType": "uint256",
							"name": "",
							"type": "uint256"
						}
					],
					"stateMutability": "nonpayable",
					"type": "function"
				},
				{
					"inputs": [
						{
							"internalType": "uint256",
							"name": "tokenId",
							"type": "uint256"
						}
					],
					"name": "getApproved",
					"outputs": [
						{
							"internalType": "address",
							"name": "",
							"type": "address"
						}
					],
					"stateMutability": "view",
					"type": "function"
				},
				{
					"inputs": [
						{
							"internalType": "address",
							"name": "owner",
							"type": "address"
						},
						{
							"internalType": "address",
							"name": "operator",
							"type": "address"
						}
					],
					"name": "isApprovedForAll",
					"outputs": [
						{
							"internalType": "bool",
							"name": "",
							"type": "bool"
						}
					],
					"stateMutability": "view",
					"type": "function"
				},
				{
					"inputs": [],
					"name": "name",
					"outputs": [
						{
							"internalType": "string",
							"name": "",
							"type": "string"
						}
					],
					"stateMutability": "view",
					"type": "function"
				},
				{
					"inputs": [
						{
							"internalType": "uint256",
							"name": "tokenId",
							"type": "uint256"
						}
					],
					"name": "ownerOf",
					"outputs": [
						{
							"internalType": "address",
							"name": "",
							"type": "address"
						}
					],
					"stateMutability": "view",
					"type": "function"
				},
				{
					"inputs": [
						{
							"internalType": "address",
							"name": "from",
							"type": "address"
						},
						{
							"internalType": "address",
							"name": "to",
							"type": "address"
						},
						{
							"internalType": "uint256",
							"name": "tokenId",
							"type": "uint256"
						}
					],
					"name": "safeTransferFrom",
					"outputs": [],
					"stateMutability": "nonpayable",
					"type": "function"
				},
				{
					"inputs": [
						{
							"internalType": "address",
							"name": "from",
							"type": "address"
						},
						{
							"internalType": "address",
							"name": "to",
							"type": "address"
						},
						{
							"internalType": "uint256",
							"name": "tokenId",
							"type": "uint256"
						},
						{
							"internalType": "bytes",
							"name": "data",
							"type": "bytes"
						}
					],
					"name": "safeTransferFrom",
					"outputs": [],
					"stateMutability": "nonpayable",
					"type": "function"
				},
				{
					"inputs": [
						{
							"internalType": "address",
							"name": "operator",
							"type": "address"
						},
						{
							"internalType": "bool",
							"name": "approved",
							"type": "bool"
						}
					],
					"name": "setApprovalForAll",
					"outputs": [],
					"stateMutability": "nonpayable",
					"type": "function"
				},
				{
					"inputs": [
						{
							"internalType": "bytes4",
							"name": "interfaceId",
							"type": "bytes4"
						}
					],
					"name": "supportsInterface",
					"outputs": [
						{
							"internalType": "bool",
							"name": "",
							"type": "bool"
						}
					],
					"stateMutability": "view",
					"type": "function"
				},
				{
					"inputs": [],
					"name": "symbol",
					"outputs": [
						{
							"internalType": "string",
							"name": "",
							"type": "string"
						}
					],
					"stateMutability": "view",
					"type": "function"
				},
				{
					"inputs": [
						{
							"internalType": "uint256",
							"name": "tokenId",
							"type": "uint256"
						}
					],
					"name": "tokenURI",
					"outputs": [
						{
							"internalType": "string",
							"name": "",
							"type": "string"
						}
					],
					"stateMutability": "view",
					"type": "function"
				},
				{
					"inputs": [
						{
							"internalType": "address",
							"name": "from",
							"type": "address"
						},
						{
							"internalType": "address",
							"name": "to",
							"type": "address"
						},
						{
							"internalType": "uint256",
							"name": "tokenId",
							"type": "uint256"
						}
					],
					"name": "transferFrom",
					"outputs": [],
					"stateMutability": "nonpayable",
					"type": "function"
				}
			],
			"devdoc": {
				"kind": "dev",
				"methods": {
					"approve(address,uint256)": {
						"details": "See {IERC721-approve}."
					},
					"balanceOf(address)": {
						"details": "See {IERC721-balanceOf}."
					},
					"getApproved(uint256)": {
						"details": "See {IERC721-getApproved}."
					},
					"isApprovedForAll(address,address)": {
						"details": "See {IERC721-isApprovedForAll}."
					},
					"name()": {
						"details": "See {IERC721Metadata-name}."
					},
					"ownerOf(uint256)": {
						"details": "See {IERC721-ownerOf}."
					},
					"safeTransferFrom(address,address,uint256)": {
						"details": "See {IERC721-safeTransferFrom}."
					},
					"safeTransferFrom(address,address,uint256,bytes)": {
						"details": "See {IERC721-safeTransferFrom}."
					},
					"setApprovalForAll(address,bool)": {
						"details": "See {IERC721-setApprovalForAll}."
					},
					"supportsInterface(bytes4)": {
						"details": "See {IERC165-supportsInterface}."
					},
					"symbol()": {
						"details": "See {IERC721Metadata-symbol}."
					},
					"tokenURI(uint256)": {
						"details": "See {IERC721Metadata-tokenURI}."
					},
					"transferFrom(address,address,uint256)": {
						"details": "See {IERC721-transferFrom}."
					}
				},
				"version": 1
			},
			"evm": {
				"assembly": "    /* \"contracts/BillingRequest.sol\":187:736  contract BillingRequest is ERC721 {... */\n  mstore(0x40, 0x80)\n    /* \"contracts/BillingRequest.sol\":309:358  constructor() ERC721(\"Billing Request\", \"BRQ\") {} */\n  callvalue\n  dup1\n  iszero\n  tag_1\n  jumpi\n  0x00\n  dup1\n  revert\ntag_1:\n  pop\n    /* \"@openzeppelin/contracts/token/ERC721/ERC721.sol\":1390:1503  constructor(string memory name_, string memory symbol_) {... */\n  mload(0x40)\n  dup1\n  0x40\n  add\n  0x40\n  mstore\n  dup1\n  0x0f\n  dup2\n  mstore\n  0x20\n  add\n  0x42696c6c696e6720526571756573740000000000000000000000000000000000\n  dup2\n  mstore\n  pop\n  mload(0x40)\n  dup1\n  0x40\n  add\n  0x40\n  mstore\n  dup1\n  0x03\n  dup2\n  mstore\n  0x20\n  add\n  0x4252510000000000000000000000000000000000000000000000000000000000\n  dup2\n  mstore\n  pop\n    /* \"@openzeppelin/contracts/token/ERC721/ERC721.sol\":1464:1469  name_ */\n  dup2\n    /* \"@openzeppelin/contracts/token/ERC721/ERC721.sol\":1456:1461  _name */\n  0x00\n    /* \"@openzeppelin/contracts/token/ERC721/ERC721.sol\":1456:1469  _name = name_ */\n  swap1\n  dup1\n  mload\n  swap1\n  0x20\n  add\n  swap1\n  tag_5\n  swap3\n  swap2\n  swap1\n  tag_6\n  jump\t// in\ntag_5:\n  pop\n    /* \"@openzeppelin/contracts/token/ERC721/ERC721.sol\":1489:1496  symbol_ */\n  dup1\n    /* \"@openzeppelin/contracts/token/ERC721/ERC721.sol\":1479:1486  _symbol */\n  0x01\n    /* \"@openzeppelin/contracts/token/ERC721/ERC721.sol\":1479:1496  _symbol = symbol_ */\n  swap1\n  dup1\n  mload\n  swap1\n  0x20\n  add\n  swap1\n  tag_7\n  swap3\n  swap2\n  swap1\n  tag_6\n  jump\t// in\ntag_7:\n  pop\n    /* \"@openzeppelin/contracts/token/ERC721/ERC721.sol\":1390:1503  constructor(string memory name_, string memory symbol_) {... */\n  pop\n  pop\n    /* \"contracts/BillingRequest.sol\":187:736  contract BillingRequest is ERC721 {... */\n  jump(tag_9)\ntag_6:\n  dup3\n  dup1\n  sload\n  tag_10\n  swap1\n  tag_11\n  jump\t// in\ntag_10:\n  swap1\n  0x00\n  mstore\n  keccak256(0x00, 0x20)\n  swap1\n  0x1f\n  add\n  0x20\n  swap1\n  div\n  dup2\n  add\n  swap3\n  dup3\n  tag_13\n  jumpi\n  0x00\n  dup6\n  sstore\n  jump(tag_12)\ntag_13:\n  dup3\n  0x1f\n  lt\n  tag_14\n  jumpi\n  dup1\n  mload\n  not(0xff)\n  and\n  dup4\n  dup1\n  add\n  or\n  dup6\n  sstore\n  jump(tag_12)\ntag_14:\n  dup3\n  dup1\n  add\n  0x01\n  add\n  dup6\n  sstore\n  dup3\n  iszero\n  tag_12\n  jumpi\n  swap2\n  dup3\n  add\ntag_15:\n  dup3\n  dup2\n  gt\n  iszero\n  tag_16\n  jumpi\n  dup3\n  mload\n  dup3\n  sstore\n  swap2\n  0x20\n  add\n  swap2\n  swap1\n  0x01\n  add\n  swap1\n  jump(tag_15)\ntag_16:\ntag_12:\n  pop\n  swap1\n  pop\n  tag_17\n  swap2\n  swap1\n  tag_18\n  jump\t// in\ntag_17:\n  pop\n  swap1\n  jump\t// out\ntag_18:\ntag_19:\n  dup1\n  dup3\n  gt\n  iszero\n  tag_20\n  jumpi\n  0x00\n  dup2\n  0x00\n  swap1\n  sstore\n  pop\n  0x01\n  add\n  jump(tag_19)\ntag_20:\n  pop\n  swap1\n  jump\t// out\n    /* \"#utility.yul\":7:327   */\ntag_11:\n    /* \"#utility.yul\":51:57   */\n  0x00\n    /* \"#utility.yul\":88:89   */\n  0x02\n    /* \"#utility.yul\":82:86   */\n  dup3\n    /* \"#utility.yul\":78:90   */\n  div\n    /* \"#utility.yul\":68:90   */\n  swap1\n  pop\n    /* \"#utility.yul\":135:136   */\n  0x01\n    /* \"#utility.yul\":129:133   */\n  dup3\n    /* \"#utility.yul\":125:137   */\n  and\n    /* \"#utility.yul\":156:174   */\n  dup1\n    /* \"#utility.yul\":146:227   */\n  tag_23\n  jumpi\n    /* \"#utility.yul\":212:216   */\n  0x7f\n    /* \"#utility.yul\":204:210   */\n  dup3\n    /* \"#utility.yul\":200:217   */\n  and\n    /* \"#utility.yul\":190:217   */\n  swap2\n  pop\n    /* \"#utility.yul\":146:227   */\ntag_23:\n    /* \"#utility.yul\":274:276   */\n  0x20\n    /* \"#utility.yul\":266:272   */\n  dup3\n    /* \"#utility.yul\":263:277   */\n  lt\n    /* \"#utility.yul\":243:261   */\n  dup2\n    /* \"#utility.yul\":240:278   */\n  eq\n    /* \"#utility.yul\":237:321   */\n  iszero\n  tag_24\n  jumpi\n    /* \"#utility.yul\":293:311   */\n  tag_25\n  tag_26\n  jump\t// in\ntag_25:\n    /* \"#utility.yul\":237:321   */\ntag_24:\n    /* \"#utility.yul\":58:327   */\n  pop\n    /* \"#utility.yul\":7:327   */\n  swap2\n  swap1\n  pop\n  jump\t// out\n    /* \"#utility.yul\":333:513   */\ntag_26:\n    /* \"#utility.yul\":381:458   */\n  0x4e487b7100000000000000000000000000000000000000000000000000000000\n    /* \"#utility.yul\":378:379   */\n  0x00\n    /* \"#utility.yul\":371:459   */\n  mstore\n    /* \"#utility.yul\":478:482   */\n  0x22\n    /* \"#utility.yul\":475:476   */\n  0x04\n    /* \"#utility.yul\":468:483   */\n  mstore\n    /* \"#utility.yul\":502:506   */\n  0x24\n    /* \"#utility.yul\":499:500   */\n  0x00\n    /* \"#utility.yul\":492:507   */\n  revert\n    /* \"contracts/BillingRequest.sol\":187:736  contract BillingRequest is ERC721 {... */\ntag_9:\n  dataSize(sub_0)\n  dup1\n  dataOffset(sub_0)\n  0x00\n  codecopy\n  0x00\n  return\nstop\n\nsub_0: assembly {\n        /* \"contracts/BillingRequest.sol\":187:736  contract BillingRequest is ERC721 {... */\n      mstore(0x40, 0x80)\n      callvalue\n      dup1\n      iszero\n      tag_1\n      jumpi\n      0x00\n      dup1\n      revert\n    tag_1:\n      pop\n      jumpi(tag_2, lt(calldatasize, 0x04))\n      shr(0xe0, calldataload(0x00))\n      dup1\n      0x6352211e\n      gt\n      tag_18\n      jumpi\n      dup1\n      0xb21b89bd\n      gt\n      tag_19\n      jumpi\n      dup1\n      0xb21b89bd\n      eq\n      tag_14\n      jumpi\n      dup1\n      0xb88d4fde\n      eq\n      tag_15\n      jumpi\n      dup1\n      0xc87b56dd\n      eq\n      tag_16\n      jumpi\n      dup1\n      0xe985e9c5\n      eq\n      tag_17\n      jumpi\n      jump(tag_2)\n    tag_19:\n      dup1\n      0x6352211e\n      eq\n      tag_10\n      jumpi\n      dup1\n      0x70a08231\n      eq\n      tag_11\n      jumpi\n      dup1\n      0x95d89b41\n      eq\n      tag_12\n      jumpi\n      dup1\n      0xa22cb465\n      eq\n      tag_13\n      jumpi\n      jump(tag_2)\n    tag_18:\n      dup1\n      0x095ea7b3\n      gt\n      tag_20\n      jumpi\n      dup1\n      0x095ea7b3\n      eq\n      tag_6\n      jumpi\n      dup1\n      0x23b872dd\n      eq\n      tag_7\n      jumpi\n      dup1\n      0x42842e0e\n      eq\n      tag_8\n      jumpi\n      dup1\n      0x5b912b96\n      eq\n      tag_9\n      jumpi\n      jump(tag_2)\n    tag_20:\n      dup1\n      0x01ffc9a7\n      eq\n      tag_3\n      jumpi\n      dup1\n      0x06fdde03\n      eq\n      tag_4\n      jumpi\n      dup1\n      0x081812fc\n      eq\n      tag_5\n      jumpi\n    tag_2:\n      0x00\n      dup1\n      revert\n        /* \"@openzeppelin/contracts/token/ERC721/ERC721.sol\":1570:1870  function supportsInterface(bytes4 interfaceId) public view virtual override(ERC165, IERC165) returns (bool) {... */\n    tag_3:\n      tag_21\n      0x04\n      dup1\n      calldatasize\n      sub\n      dup2\n      add\n      swap1\n      tag_22\n      swap2\n      swap1\n      tag_23\n      jump\t// in\n    tag_22:\n      tag_24\n      jump\t// in\n    tag_21:\n      mload(0x40)\n      tag_25\n      swap2\n      swap1\n      tag_26\n      jump\t// in\n    tag_25:\n      mload(0x40)\n      dup1\n      swap2\n      sub\n      swap1\n      return\n        /* \"@openzeppelin/contracts/token/ERC721/ERC721.sol\":2470:2568  function name() public view virtual override returns (string memory) {... */\n    tag_4:\n      tag_27\n      tag_28\n      jump\t// in\n    tag_27:\n      mload(0x40)\n      tag_29\n      swap2\n      swap1\n      tag_30\n      jump\t// in\n    tag_29:\n      mload(0x40)\n      dup1\n      swap2\n      sub\n      swap1\n      return\n        /* \"@openzeppelin/contracts/token/ERC721/ERC721.sol\":3935:4102  function getApproved(uint256 tokenId) public view virtual override returns (address) {... */\n    tag_5:\n      tag_31\n      0x04\n      dup1\n      calldatasize\n      sub\n      dup2\n      add\n      swap1\n      tag_32\n      swap2\n      swap1\n      tag_33\n      jump\t// in\n    tag_32:\n      tag_34\n      jump\t// in\n    tag_31:\n      mload(0x40)\n      tag_35\n      swap2\n      swap1\n      tag_36\n      jump\t// in\n    tag_35:\n      mload(0x40)\n      dup1\n      swap2\n      sub\n      swap1\n      return\n        /* \"@openzeppelin/contracts/token/ERC721/ERC721.sol\":3467:3874  function approve(address to, uint256 tokenId) public virtual override {... */\n    tag_6:\n      tag_37\n      0x04\n      dup1\n      calldatasize\n      sub\n      dup2\n      add\n      swap1\n      tag_38\n      swap2\n      swap1\n      tag_39\n      jump\t// in\n    tag_38:\n      tag_40\n      jump\t// in\n    tag_37:\n      stop\n        /* \"@openzeppelin/contracts/token/ERC721/ERC721.sol\":4612:4939  function transferFrom(... */\n    tag_7:\n      tag_41\n      0x04\n      dup1\n      calldatasize\n      sub\n      dup2\n      add\n      swap1\n      tag_42\n      swap2\n      swap1\n      tag_43\n      jump\t// in\n    tag_42:\n      tag_44\n      jump\t// in\n    tag_41:\n      stop\n        /* \"@openzeppelin/contracts/token/ERC721/ERC721.sol\":5005:5184  function safeTransferFrom(... */\n    tag_8:\n      tag_45\n      0x04\n      dup1\n      calldatasize\n      sub\n      dup2\n      add\n      swap1\n      tag_46\n      swap2\n      swap1\n      tag_43\n      jump\t// in\n    tag_46:\n      tag_47\n      jump\t// in\n    tag_45:\n      stop\n        /* \"contracts/BillingRequest.sol\":364:593  function create(Billing.TokenPay[] memory prices, address payTo) public returns (uint256) {... */\n    tag_9:\n      tag_48\n      0x04\n      dup1\n      calldatasize\n      sub\n      dup2\n      add\n      swap1\n      tag_49\n      swap2\n      swap1\n      tag_50\n      jump\t// in\n    tag_49:\n      tag_51\n      jump\t// in\n    tag_48:\n      mload(0x40)\n      tag_52\n      swap2\n      swap1\n      tag_53\n      jump\t// in\n    tag_52:\n      mload(0x40)\n      dup1\n      swap2\n      sub\n      swap1\n      return\n        /* \"@openzeppelin/contracts/token/ERC721/ERC721.sol\":2190:2408  function ownerOf(uint256 tokenId) public view virtual override returns (address) {... */\n    tag_10:\n      tag_54\n      0x04\n      dup1\n      calldatasize\n      sub\n      dup2\n      add\n      swap1\n      tag_55\n      swap2\n      swap1\n      tag_33\n      jump\t// in\n    tag_55:\n      tag_56\n      jump\t// in\n    tag_54:\n      mload(0x40)\n      tag_57\n      swap2\n      swap1\n      tag_36\n      jump\t// in\n    tag_57:\n      mload(0x40)\n      dup1\n      swap2\n      sub\n      swap1\n      return\n        /* \"@openzeppelin/contracts/token/ERC721/ERC721.sol\":1929:2133  function balanceOf(address owner) public view virtual override returns (uint256) {... */\n    tag_11:\n      tag_58\n      0x04\n      dup1\n      calldatasize\n      sub\n      dup2\n      add\n      swap1\n      tag_59\n      swap2\n      swap1\n      tag_60\n      jump\t// in\n    tag_59:\n      tag_61\n      jump\t// in\n    tag_58:\n      mload(0x40)\n      tag_62\n      swap2\n      swap1\n      tag_53\n      jump\t// in\n    tag_62:\n      mload(0x40)\n      dup1\n      swap2\n      sub\n      swap1\n      return\n        /* \"@openzeppelin/contracts/token/ERC721/ERC721.sol\":2632:2734  function symbol() public view virtual override returns (string memory) {... */\n    tag_12:\n      tag_63\n      tag_64\n      jump\t// in\n    tag_63:\n      mload(0x40)\n      tag_65\n      swap2\n      swap1\n      tag_30\n      jump\t// in\n    tag_65:\n      mload(0x40)\n      dup1\n      swap2\n      sub\n      swap1\n      return\n        /* \"@openzeppelin/contracts/token/ERC721/ERC721.sol\":4169:4322  function setApprovalForAll(address operator, bool approved) public virtual override {... */\n    tag_13:\n      tag_66\n      0x04\n      dup1\n      calldatasize\n      sub\n      dup2\n      add\n      swap1\n      tag_67\n      swap2\n      swap1\n      tag_68\n      jump\t// in\n    tag_67:\n      tag_69\n      jump\t// in\n    tag_66:\n      stop\n        /* \"contracts/BillingRequest.sol\":599:725  function create(Billing.TokenPay[] memory prices) public returns (uint256) {... */\n    tag_14:\n      tag_70\n      0x04\n      dup1\n      calldatasize\n      sub\n      dup2\n      add\n      swap1\n      tag_71\n      swap2\n      swap1\n      tag_72\n      jump\t// in\n    tag_71:\n      tag_73\n      jump\t// in\n    tag_70:\n      mload(0x40)\n      tag_74\n      swap2\n      swap1\n      tag_53\n      jump\t// in\n    tag_74:\n      mload(0x40)\n      dup1\n      swap2\n      sub\n      swap1\n      return\n        /* \"@openzeppelin/contracts/token/ERC721/ERC721.sol\":5250:5565  function safeTransferFrom(... */\n    tag_15:\n      tag_75\n      0x04\n      dup1\n      calldatasize\n      sub\n      dup2\n      add\n      swap1\n      tag_76\n      swap2\n      swap1\n      tag_77\n      jump\t// in\n    tag_76:\n      tag_78\n      jump\t// in\n    tag_75:\n      stop\n        /* \"@openzeppelin/contracts/token/ERC721/ERC721.sol\":2800:3076  function tokenURI(uint256 tokenId) public view virtual override returns (string memory) {... */\n    tag_16:\n      tag_79\n      0x04\n      dup1\n      calldatasize\n      sub\n      dup2\n      add\n      swap1\n      tag_80\n      swap2\n      swap1\n      tag_33\n      jump\t// in\n    tag_80:\n      tag_81\n      jump\t// in\n    tag_79:\n      mload(0x40)\n      tag_82\n      swap2\n      swap1\n      tag_30\n      jump\t// in\n    tag_82:\n      mload(0x40)\n      dup1\n      swap2\n      sub\n      swap1\n      return\n        /* \"@openzeppelin/contracts/token/ERC721/ERC721.sol\":4388:4550  function isApprovedForAll(address owner, address operator) public view virtual override returns (bool) {... */\n    tag_17:\n      tag_83\n      0x04\n      dup1\n      calldatasize\n      sub\n      dup2\n      add\n      swap1\n      tag_84\n      swap2\n      swap1\n      tag_85\n      jump\t// in\n    tag_84:\n      tag_86\n      jump\t// in\n    tag_83:\n      mload(0x40)\n      tag_87\n      swap2\n      swap1\n      tag_26\n      jump\t// in\n    tag_87:\n      mload(0x40)\n      dup1\n      swap2\n      sub\n      swap1\n      return\n        /* \"@openzeppelin/contracts/token/ERC721/ERC721.sol\":1570:1870  function supportsInterface(bytes4 interfaceId) public view virtual override(ERC165, IERC165) returns (bool) {... */\n    tag_24:\n        /* \"@openzeppelin/contracts/token/ERC721/ERC721.sol\":1672:1676  bool */\n      0x00\n        /* \"@openzeppelin/contracts/token/ERC721/ERC721.sol\":1722:1747  type(IERC721).interfaceId */\n      0x80ac58cd00000000000000000000000000000000000000000000000000000000\n        /* \"@openzeppelin/contracts/token/ERC721/ERC721.sol\":1707:1747  interfaceId == type(IERC721).interfaceId */\n      not(0xffffffffffffffffffffffffffffffffffffffffffffffffffffffff)\n      and\n        /* \"@openzeppelin/contracts/token/ERC721/ERC721.sol\":1707:1718  interfaceId */\n      dup3\n        /* \"@openzeppelin/contracts/token/ERC721/ERC721.sol\":1707:1747  interfaceId == type(IERC721).interfaceId */\n      not(0xffffffffffffffffffffffffffffffffffffffffffffffffffffffff)\n      and\n      eq\n        /* \"@openzeppelin/contracts/token/ERC721/ERC721.sol\":1707:1811  interfaceId == type(IERC721).interfaceId ||... */\n      dup1\n      tag_89\n      jumpi\n      pop\n        /* \"@openzeppelin/contracts/token/ERC721/ERC721.sol\":1778:1811  type(IERC721Metadata).interfaceId */\n      0x5b5e139f00000000000000000000000000000000000000000000000000000000\n        /* \"@openzeppelin/contracts/token/ERC721/ERC721.sol\":1763:1811  interfaceId == type(IERC721Metadata).interfaceId */\n      not(0xffffffffffffffffffffffffffffffffffffffffffffffffffffffff)\n      and\n        /* \"@openzeppelin/contracts/token/ERC721/ERC721.sol\":1763:1774  interfaceId */\n      dup3\n        /* \"@openzeppelin/contracts/token/ERC721/ERC721.sol\":1763:1811  interfaceId == type(IERC721Metadata).interfaceId */\n      not(0xffffffffffffffffffffffffffffffffffffffffffffffffffffffff)\n      and\n      eq\n        /* \"@openzeppelin/contracts/token/ERC721/ERC721.sol\":1707:1811  interfaceId == type(IERC721).interfaceId ||... */\n    tag_89:\n        /* \"@openzeppelin/contracts/token/ERC721/ERC721.sol\":1707:1863  interfaceId == type(IERC721).interfaceId ||... */\n      dup1\n      tag_90\n      jumpi\n      pop\n        /* \"@openzeppelin/contracts/token/ERC721/ERC721.sol\":1827:1863  super.supportsInterface(interfaceId) */\n      tag_91\n        /* \"@openzeppelin/contracts/token/ERC721/ERC721.sol\":1851:1862  interfaceId */\n      dup3\n        /* \"@openzeppelin/contracts/token/ERC721/ERC721.sol\":1827:1850  super.supportsInterface */\n      tag_92\n        /* \"@openzeppelin/contracts/token/ERC721/ERC721.sol\":1827:1863  super.supportsInterface(interfaceId) */\n      jump\t// in\n    tag_91:\n        /* \"@openzeppelin/contracts/token/ERC721/ERC721.sol\":1707:1863  interfaceId == type(IERC721).interfaceId ||... */\n    tag_90:\n        /* \"@openzeppelin/contracts/token/ERC721/ERC721.sol\":1688:1863  return... */\n      swap1\n      pop\n        /* \"@openzeppelin/contracts/token/ERC721/ERC721.sol\":1570:1870  function supportsInterface(bytes4 interfaceId) public view virtual override(ERC165, IERC165) returns (bool) {... */\n      swap2\n      swap1\n      pop\n      jump\t// out\n        /* \"@openzeppelin/contracts/token/ERC721/ERC721.sol\":2470:2568  function name() public view virtual override returns (string memory) {... */\n    tag_28:\n        /* \"@openzeppelin/contracts/token/ERC721/ERC721.sol\":2524:2537  string memory */\n      0x60\n        /* \"@openzeppelin/contracts/token/ERC721/ERC721.sol\":2556:2561  _name */\n      0x00\n        /* \"@openzeppelin/contracts/token/ERC721/ERC721.sol\":2549:2561  return _name */\n      dup1\n      sload\n      tag_94\n      swap1\n      tag_95\n      jump\t// in\n    tag_94:\n      dup1\n      0x1f\n      add\n      0x20\n      dup1\n      swap2\n      div\n      mul\n      0x20\n      add\n      mload(0x40)\n      swap1\n      dup2\n      add\n      0x40\n      mstore\n      dup1\n      swap3\n      swap2\n      swap1\n      dup2\n      dup2\n      mstore\n      0x20\n      add\n      dup3\n      dup1\n      sload\n      tag_96\n      swap1\n      tag_95\n      jump\t// in\n    tag_96:\n      dup1\n      iszero\n      tag_97\n      jumpi\n      dup1\n      0x1f\n      lt\n      tag_98\n      jumpi\n      0x0100\n      dup1\n      dup4\n      sload\n      div\n      mul\n      dup4\n      mstore\n      swap2\n      0x20\n      add\n      swap2\n      jump(tag_97)\n    tag_98:\n      dup3\n      add\n      swap2\n      swap1\n      0x00\n      mstore\n      keccak256(0x00, 0x20)\n      swap1\n    tag_99:\n      dup2\n      sload\n      dup2\n      mstore\n      swap1\n      0x01\n      add\n      swap1\n      0x20\n      add\n      dup1\n      dup4\n      gt\n      tag_99\n      jumpi\n      dup3\n      swap1\n      sub\n      0x1f\n      and\n      dup3\n      add\n      swap2\n    tag_97:\n      pop\n      pop\n      pop\n      pop\n      pop\n      swap1\n      pop\n        /* \"@openzeppelin/contracts/token/ERC721/ERC721.sol\":2470:2568  function name() public view virtual override returns (string memory) {... */\n      swap1\n      jump\t// out\n        /* \"@openzeppelin/contracts/token/ERC721/ERC721.sol\":3935:4102  function getApproved(uint256 tokenId) public view virtual override returns (address) {... */\n    tag_34:\n        /* \"@openzeppelin/contracts/token/ERC721/ERC721.sol\":4011:4018  address */\n      0x00\n        /* \"@openzeppelin/contracts/token/ERC721/ERC721.sol\":4030:4053  _requireMinted(tokenId) */\n      tag_101\n        /* \"@openzeppelin/contracts/token/ERC721/ERC721.sol\":4045:4052  tokenId */\n      dup3\n        /* \"@openzeppelin/contracts/token/ERC721/ERC721.sol\":4030:4044  _requireMinted */\n      tag_102\n        /* \"@openzeppelin/contracts/token/ERC721/ERC721.sol\":4030:4053  _requireMinted(tokenId) */\n      jump\t// in\n    tag_101:\n        /* \"@openzeppelin/contracts/token/ERC721/ERC721.sol\":4071:4086  _tokenApprovals */\n      0x04\n        /* \"@openzeppelin/contracts/token/ERC721/ERC721.sol\":4071:4095  _tokenApprovals[tokenId] */\n      0x00\n        /* \"@openzeppelin/contracts/token/ERC721/ERC721.sol\":4087:4094  tokenId */\n      dup4\n        /* \"@openzeppelin/contracts/token/ERC721/ERC721.sol\":4071:4095  _tokenApprovals[tokenId] */\n      dup2\n      mstore\n      0x20\n      add\n      swap1\n      dup2\n      mstore\n      0x20\n      add\n      0x00\n      keccak256\n      0x00\n      swap1\n      sload\n      swap1\n      0x0100\n      exp\n      swap1\n      div\n      0xffffffffffffffffffffffffffffffffffffffff\n      and\n        /* \"@openzeppelin/contracts/token/ERC721/ERC721.sol\":4064:4095  return _tokenApprovals[tokenId] */\n      swap1\n      pop\n        /* \"@openzeppelin/contracts/token/ERC721/ERC721.sol\":3935:4102  function getApproved(uint256 tokenId) public view virtual override returns (address) {... */\n      swap2\n      swap1\n      pop\n      jump\t// out\n        /* \"@openzeppelin/contracts/token/ERC721/ERC721.sol\":3467:3874  function approve(address to, uint256 tokenId) public virtual override {... */\n    tag_40:\n        /* \"@openzeppelin/contracts/token/ERC721/ERC721.sol\":3547:3560  address owner */\n      0x00\n        /* \"@openzeppelin/contracts/token/ERC721/ERC721.sol\":3563:3586  ERC721.ownerOf(tokenId) */\n      tag_104\n        /* \"@openzeppelin/contracts/token/ERC721/ERC721.sol\":3578:3585  tokenId */\n      dup3\n        /* \"@openzeppelin/contracts/token/ERC721/ERC721.sol\":3563:3577  ERC721.ownerOf */\n      tag_56\n        /* \"@openzeppelin/contracts/token/ERC721/ERC721.sol\":3563:3586  ERC721.ownerOf(tokenId) */\n      jump\t// in\n    tag_104:\n        /* \"@openzeppelin/contracts/token/ERC721/ERC721.sol\":3547:3586  address owner = ERC721.ownerOf(tokenId) */\n      swap1\n      pop\n        /* \"@openzeppelin/contracts/token/ERC721/ERC721.sol\":3610:3615  owner */\n      dup1\n        /* \"@openzeppelin/contracts/token/ERC721/ERC721.sol\":3604:3615  to != owner */\n      0xffffffffffffffffffffffffffffffffffffffff\n      and\n        /* \"@openzeppelin/contracts/token/ERC721/ERC721.sol\":3604:3606  to */\n      dup4\n        /* \"@openzeppelin/contracts/token/ERC721/ERC721.sol\":3604:3615  to != owner */\n      0xffffffffffffffffffffffffffffffffffffffff\n      and\n      eq\n      iszero\n        /* \"@openzeppelin/contracts/token/ERC721/ERC721.sol\":3596:3653  require(to != owner, \"ERC721: approval to current owner\") */\n      tag_105\n      jumpi\n      mload(0x40)\n      0x08c379a000000000000000000000000000000000000000000000000000000000\n      dup2\n      mstore\n      0x04\n      add\n      tag_106\n      swap1\n      tag_107\n      jump\t// in\n    tag_106:\n      mload(0x40)\n      dup1\n      swap2\n      sub\n      swap1\n      revert\n    tag_105:\n        /* \"@openzeppelin/contracts/token/ERC721/ERC721.sol\":3701:3706  owner */\n      dup1\n        /* \"@openzeppelin/contracts/token/ERC721/ERC721.sol\":3685:3706  _msgSender() == owner */\n      0xffffffffffffffffffffffffffffffffffffffff\n      and\n        /* \"@openzeppelin/contracts/token/ERC721/ERC721.sol\":3685:3697  _msgSender() */\n      tag_108\n        /* \"@openzeppelin/contracts/token/ERC721/ERC721.sol\":3685:3695  _msgSender */\n      tag_109\n        /* \"@openzeppelin/contracts/token/ERC721/ERC721.sol\":3685:3697  _msgSender() */\n      jump\t// in\n    tag_108:\n        /* \"@openzeppelin/contracts/token/ERC721/ERC721.sol\":3685:3706  _msgSender() == owner */\n      0xffffffffffffffffffffffffffffffffffffffff\n      and\n      eq\n        /* \"@openzeppelin/contracts/token/ERC721/ERC721.sol\":3685:3747  _msgSender() == owner || isApprovedForAll(owner, _msgSender()) */\n      dup1\n      tag_110\n      jumpi\n      pop\n        /* \"@openzeppelin/contracts/token/ERC721/ERC721.sol\":3710:3747  isApprovedForAll(owner, _msgSender()) */\n      tag_111\n        /* \"@openzeppelin/contracts/token/ERC721/ERC721.sol\":3727:3732  owner */\n      dup2\n        /* \"@openzeppelin/contracts/token/ERC721/ERC721.sol\":3734:3746  _msgSender() */\n      tag_112\n        /* \"@openzeppelin/contracts/token/ERC721/ERC721.sol\":3734:3744  _msgSender */\n      tag_109\n        /* \"@openzeppelin/contracts/token/ERC721/ERC721.sol\":3734:3746  _msgSender() */\n      jump\t// in\n    tag_112:\n        /* \"@openzeppelin/contracts/token/ERC721/ERC721.sol\":3710:3726  isApprovedForAll */\n      tag_86\n        /* \"@openzeppelin/contracts/token/ERC721/ERC721.sol\":3710:3747  isApprovedForAll(owner, _msgSender()) */\n      jump\t// in\n    tag_111:\n        /* \"@openzeppelin/contracts/token/ERC721/ERC721.sol\":3685:3747  _msgSender() == owner || isApprovedForAll(owner, _msgSender()) */\n    tag_110:\n        /* \"@openzeppelin/contracts/token/ERC721/ERC721.sol\":3664:3835  require(... */\n      tag_113\n      jumpi\n      mload(0x40)\n      0x08c379a000000000000000000000000000000000000000000000000000000000\n      dup2\n      mstore\n      0x04\n      add\n      tag_114\n      swap1\n      tag_115\n      jump\t// in\n    tag_114:\n      mload(0x40)\n      dup1\n      swap2\n      sub\n      swap1\n      revert\n    tag_113:\n        /* \"@openzeppelin/contracts/token/ERC721/ERC721.sol\":3846:3867  _approve(to, tokenId) */\n      tag_116\n        /* \"@openzeppelin/contracts/token/ERC721/ERC721.sol\":3855:3857  to */\n      dup4\n        /* \"@openzeppelin/contracts/token/ERC721/ERC721.sol\":3859:3866  tokenId */\n      dup4\n        /* \"@openzeppelin/contracts/token/ERC721/ERC721.sol\":3846:3854  _approve */\n      tag_117\n        /* \"@openzeppelin/contracts/token/ERC721/ERC721.sol\":3846:3867  _approve(to, tokenId) */\n      jump\t// in\n    tag_116:\n        /* \"@openzeppelin/contracts/token/ERC721/ERC721.sol\":3537:3874  {... */\n      pop\n        /* \"@openzeppelin/contracts/token/ERC721/ERC721.sol\":3467:3874  function approve(address to, uint256 tokenId) public virtual override {... */\n      pop\n      pop\n      jump\t// out\n        /* \"@openzeppelin/contracts/token/ERC721/ERC721.sol\":4612:4939  function transferFrom(... */\n    tag_44:\n        /* \"@openzeppelin/contracts/token/ERC721/ERC721.sol\":4801:4842  _isApprovedOrOwner(_msgSender(), tokenId) */\n      tag_119\n        /* \"@openzeppelin/contracts/token/ERC721/ERC721.sol\":4820:4832  _msgSender() */\n      tag_120\n        /* \"@openzeppelin/contracts/token/ERC721/ERC721.sol\":4820:4830  _msgSender */\n      tag_109\n        /* \"@openzeppelin/contracts/token/ERC721/ERC721.sol\":4820:4832  _msgSender() */\n      jump\t// in\n    tag_120:\n        /* \"@openzeppelin/contracts/token/ERC721/ERC721.sol\":4834:4841  tokenId */\n      dup3\n        /* \"@openzeppelin/contracts/token/ERC721/ERC721.sol\":4801:4819  _isApprovedOrOwner */\n      tag_121\n        /* \"@openzeppelin/contracts/token/ERC721/ERC721.sol\":4801:4842  _isApprovedOrOwner(_msgSender(), tokenId) */\n      jump\t// in\n    tag_119:\n        /* \"@openzeppelin/contracts/token/ERC721/ERC721.sol\":4793:4893  require(_isApprovedOrOwner(_msgSender(), tokenId), \"ERC721: caller is not token owner nor approved\") */\n      tag_122\n      jumpi\n      mload(0x40)\n      0x08c379a000000000000000000000000000000000000000000000000000000000\n      dup2\n      mstore\n      0x04\n      add\n      tag_123\n      swap1\n      tag_124\n      jump\t// in\n    tag_123:\n      mload(0x40)\n      dup1\n      swap2\n      sub\n      swap1\n      revert\n    tag_122:\n        /* \"@openzeppelin/contracts/token/ERC721/ERC721.sol\":4904:4932  _transfer(from, to, tokenId) */\n      tag_125\n        /* \"@openzeppelin/contracts/token/ERC721/ERC721.sol\":4914:4918  from */\n      dup4\n        /* \"@openzeppelin/contracts/token/ERC721/ERC721.sol\":4920:4922  to */\n      dup4\n        /* \"@openzeppelin/contracts/token/ERC721/ERC721.sol\":4924:4931  tokenId */\n      dup4\n        /* \"@openzeppelin/contracts/token/ERC721/ERC721.sol\":4904:4913  _transfer */\n      tag_126\n        /* \"@openzeppelin/contracts/token/ERC721/ERC721.sol\":4904:4932  _transfer(from, to, tokenId) */\n      jump\t// in\n    tag_125:\n        /* \"@openzeppelin/contracts/token/ERC721/ERC721.sol\":4612:4939  function transferFrom(... */\n      pop\n      pop\n      pop\n      jump\t// out\n        /* \"@openzeppelin/contracts/token/ERC721/ERC721.sol\":5005:5184  function safeTransferFrom(... */\n    tag_47:\n        /* \"@openzeppelin/contracts/token/ERC721/ERC721.sol\":5138:5177  safeTransferFrom(from, to, tokenId, \"\") */\n      tag_128\n        /* \"@openzeppelin/contracts/token/ERC721/ERC721.sol\":5155:5159  from */\n      dup4\n        /* \"@openzeppelin/contracts/token/ERC721/ERC721.sol\":5161:5163  to */\n      dup4\n        /* \"@openzeppelin/contracts/token/ERC721/ERC721.sol\":5165:5172  tokenId */\n      dup4\n        /* \"@openzeppelin/contracts/token/ERC721/ERC721.sol\":5138:5177  safeTransferFrom(from, to, tokenId, \"\") */\n      mload(0x40)\n      dup1\n      0x20\n      add\n      0x40\n      mstore\n      dup1\n      0x00\n      dup2\n      mstore\n      pop\n        /* \"@openzeppelin/contracts/token/ERC721/ERC721.sol\":5138:5154  safeTransferFrom */\n      tag_78\n        /* \"@openzeppelin/contracts/token/ERC721/ERC721.sol\":5138:5177  safeTransferFrom(from, to, tokenId, \"\") */\n      jump\t// in\n    tag_128:\n        /* \"@openzeppelin/contracts/token/ERC721/ERC721.sol\":5005:5184  function safeTransferFrom(... */\n      pop\n      pop\n      pop\n      jump\t// out\n        /* \"contracts/BillingRequest.sol\":364:593  function create(Billing.TokenPay[] memory prices, address payTo) public returns (uint256) {... */\n    tag_51:\n        /* \"contracts/BillingRequest.sol\":445:452  uint256 */\n      0x00\n        /* \"contracts/BillingRequest.sol\":464:479  uint256 tokenId */\n      dup1\n        /* \"contracts/BillingRequest.sol\":482:500  _tokenId.current() */\n      tag_130\n        /* \"contracts/BillingRequest.sol\":482:490  _tokenId */\n      0x06\n        /* \"contracts/BillingRequest.sol\":482:498  _tokenId.current */\n      tag_131\n        /* \"contracts/BillingRequest.sol\":482:500  _tokenId.current() */\n      jump\t// in\n    tag_130:\n        /* \"contracts/BillingRequest.sol\":464:500  uint256 tokenId = _tokenId.current() */\n      swap1\n      pop\n        /* \"contracts/BillingRequest.sol\":510:531  _mint(payTo, tokenId) */\n      tag_132\n        /* \"contracts/BillingRequest.sol\":516:521  payTo */\n      dup4\n        /* \"contracts/BillingRequest.sol\":523:530  tokenId */\n      dup3\n        /* \"contracts/BillingRequest.sol\":510:515  _mint */\n      tag_133\n        /* \"contracts/BillingRequest.sol\":510:531  _mint(payTo, tokenId) */\n      jump\t// in\n    tag_132:\n        /* \"contracts/BillingRequest.sol\":541:561  _tokenId.increment() */\n      tag_134\n        /* \"contracts/BillingRequest.sol\":541:549  _tokenId */\n      0x06\n        /* \"contracts/BillingRequest.sol\":541:559  _tokenId.increment */\n      tag_135\n        /* \"contracts/BillingRequest.sol\":541:561  _tokenId.increment() */\n      jump\t// in\n    tag_134:\n        /* \"contracts/BillingRequest.sol\":578:585  tokenId */\n      dup1\n        /* \"contracts/BillingRequest.sol\":571:585  return tokenId */\n      swap2\n      pop\n      pop\n        /* \"contracts/BillingRequest.sol\":364:593  function create(Billing.TokenPay[] memory prices, address payTo) public returns (uint256) {... */\n      swap3\n      swap2\n      pop\n      pop\n      jump\t// out\n        /* \"@openzeppelin/contracts/token/ERC721/ERC721.sol\":2190:2408  function ownerOf(uint256 tokenId) public view virtual override returns (address) {... */\n    tag_56:\n        /* \"@openzeppelin/contracts/token/ERC721/ERC721.sol\":2262:2269  address */\n      0x00\n        /* \"@openzeppelin/contracts/token/ERC721/ERC721.sol\":2281:2294  address owner */\n      dup1\n        /* \"@openzeppelin/contracts/token/ERC721/ERC721.sol\":2297:2304  _owners */\n      0x02\n        /* \"@openzeppelin/contracts/token/ERC721/ERC721.sol\":2297:2313  _owners[tokenId] */\n      0x00\n        /* \"@openzeppelin/contracts/token/ERC721/ERC721.sol\":2305:2312  tokenId */\n      dup5\n        /* \"@openzeppelin/contracts/token/ERC721/ERC721.sol\":2297:2313  _owners[tokenId] */\n      dup2\n      mstore\n      0x20\n      add\n      swap1\n      dup2\n      mstore\n      0x20\n      add\n      0x00\n      keccak256\n      0x00\n      swap1\n      sload\n      swap1\n      0x0100\n      exp\n      swap1\n      div\n      0xffffffffffffffffffffffffffffffffffffffff\n      and\n        /* \"@openzeppelin/contracts/token/ERC721/ERC721.sol\":2281:2313  address owner = _owners[tokenId] */\n      swap1\n      pop\n        /* \"@openzeppelin/contracts/token/ERC721/ERC721.sol\":2348:2349  0 */\n      0x00\n        /* \"@openzeppelin/contracts/token/ERC721/ERC721.sol\":2331:2350  owner != address(0) */\n      0xffffffffffffffffffffffffffffffffffffffff\n      and\n        /* \"@openzeppelin/contracts/token/ERC721/ERC721.sol\":2331:2336  owner */\n      dup2\n        /* \"@openzeppelin/contracts/token/ERC721/ERC721.sol\":2331:2350  owner != address(0) */\n      0xffffffffffffffffffffffffffffffffffffffff\n      and\n      eq\n      iszero\n        /* \"@openzeppelin/contracts/token/ERC721/ERC721.sol\":2323:2379  require(owner != address(0), \"ERC721: invalid token ID\") */\n      tag_137\n      jumpi\n      mload(0x40)\n      0x08c379a000000000000000000000000000000000000000000000000000000000\n      dup2\n      mstore\n      0x04\n      add\n      tag_138\n      swap1\n      tag_139\n      jump\t// in\n    tag_138:\n      mload(0x40)\n      dup1\n      swap2\n      sub\n      swap1\n      revert\n    tag_137:\n        /* \"@openzeppelin/contracts/token/ERC721/ERC721.sol\":2396:2401  owner */\n      dup1\n        /* \"@openzeppelin/contracts/token/ERC721/ERC721.sol\":2389:2401  return owner */\n      swap2\n      pop\n      pop\n        /* \"@openzeppelin/contracts/token/ERC721/ERC721.sol\":2190:2408  function ownerOf(uint256 tokenId) public view virtual override returns (address) {... */\n      swap2\n      swap1\n      pop\n      jump\t// out\n        /* \"@openzeppelin/contracts/token/ERC721/ERC721.sol\":1929:2133  function balanceOf(address owner) public view virtual override returns (uint256) {... */\n    tag_61:\n        /* \"@openzeppelin/contracts/token/ERC721/ERC721.sol\":2001:2008  uint256 */\n      0x00\n        /* \"@openzeppelin/contracts/token/ERC721/ERC721.sol\":2045:2046  0 */\n      dup1\n        /* \"@openzeppelin/contracts/token/ERC721/ERC721.sol\":2028:2047  owner != address(0) */\n      0xffffffffffffffffffffffffffffffffffffffff\n      and\n        /* \"@openzeppelin/contracts/token/ERC721/ERC721.sol\":2028:2033  owner */\n      dup3\n        /* \"@openzeppelin/contracts/token/ERC721/ERC721.sol\":2028:2047  owner != address(0) */\n      0xffffffffffffffffffffffffffffffffffffffff\n      and\n      eq\n      iszero\n        /* \"@openzeppelin/contracts/token/ERC721/ERC721.sol\":2020:2093  require(owner != address(0), \"ERC721: address zero is not a valid owner\") */\n      tag_141\n      jumpi\n      mload(0x40)\n      0x08c379a000000000000000000000000000000000000000000000000000000000\n      dup2\n      mstore\n      0x04\n      add\n      tag_142\n      swap1\n      tag_143\n      jump\t// in\n    tag_142:\n      mload(0x40)\n      dup1\n      swap2\n      sub\n      swap1\n      revert\n    tag_141:\n        /* \"@openzeppelin/contracts/token/ERC721/ERC721.sol\":2110:2119  _balances */\n      0x03\n        /* \"@openzeppelin/contracts/token/ERC721/ERC721.sol\":2110:2126  _balances[owner] */\n      0x00\n        /* \"@openzeppelin/contracts/token/ERC721/ERC721.sol\":2120:2125  owner */\n      dup4\n        /* \"@openzeppelin/contracts/token/ERC721/ERC721.sol\":2110:2126  _balances[owner] */\n      0xffffffffffffffffffffffffffffffffffffffff\n      and\n      0xffffffffffffffffffffffffffffffffffffffff\n      and\n      dup2\n      mstore\n      0x20\n      add\n      swap1\n      dup2\n      mstore\n      0x20\n      add\n      0x00\n      keccak256\n      sload\n        /* \"@openzeppelin/contracts/token/ERC721/ERC721.sol\":2103:2126  return _balances[owner] */\n      swap1\n      pop\n        /* \"@openzeppelin/contracts/token/ERC721/ERC721.sol\":1929:2133  function balanceOf(address owner) public view virtual override returns (uint256) {... */\n      swap2\n      swap1\n      pop\n      jump\t// out\n        /* \"@openzeppelin/contracts/token/ERC721/ERC721.sol\":2632:2734  function symbol() public view virtual override returns (string memory) {... */\n    tag_64:\n        /* \"@openzeppelin/contracts/token/ERC721/ERC721.sol\":2688:2701  string memory */\n      0x60\n        /* \"@openzeppelin/contracts/token/ERC721/ERC721.sol\":2720:2727  _symbol */\n      0x01\n        /* \"@openzeppelin/contracts/token/ERC721/ERC721.sol\":2713:2727  return _symbol */\n      dup1\n      sload\n      tag_145\n      swap1\n      tag_95\n      jump\t// in\n    tag_145:\n      dup1\n      0x1f\n      add\n      0x20\n      dup1\n      swap2\n      div\n      mul\n      0x20\n      add\n      mload(0x40)\n      swap1\n      dup2\n      add\n      0x40\n      mstore\n      dup1\n      swap3\n      swap2\n      swap1\n      dup2\n      dup2\n      mstore\n      0x20\n      add\n      dup3\n      dup1\n      sload\n      tag_146\n      swap1\n      tag_95\n      jump\t// in\n    tag_146:\n      dup1\n      iszero\n      tag_147\n      jumpi\n      dup1\n      0x1f\n      lt\n      tag_148\n      jumpi\n      0x0100\n      dup1\n      dup4\n      sload\n      div\n      mul\n      dup4\n      mstore\n      swap2\n      0x20\n      add\n      swap2\n      jump(tag_147)\n    tag_148:\n      dup3\n      add\n      swap2\n      swap1\n      0x00\n      mstore\n      keccak256(0x00, 0x20)\n      swap1\n    tag_149:\n      dup2\n      sload\n      dup2\n      mstore\n      swap1\n      0x01\n      add\n      swap1\n      0x20\n      add\n      dup1\n      dup4\n      gt\n      tag_149\n      jumpi\n      dup3\n      swap1\n      sub\n      0x1f\n      and\n      dup3\n      add\n      swap2\n    tag_147:\n      pop\n      pop\n      pop\n      pop\n      pop\n      swap1\n      pop\n        /* \"@openzeppelin/contracts/token/ERC721/ERC721.sol\":2632:2734  function symbol() public view virtual override returns (string memory) {... */\n      swap1\n      jump\t// out\n        /* \"@openzeppelin/contracts/token/ERC721/ERC721.sol\":4169:4322  function setApprovalForAll(address operator, bool approved) public virtual override {... */\n    tag_69:\n        /* \"@openzeppelin/contracts/token/ERC721/ERC721.sol\":4263:4315  _setApprovalForAll(_msgSender(), operator, approved) */\n      tag_151\n        /* \"@openzeppelin/contracts/token/ERC721/ERC721.sol\":4282:4294  _msgSender() */\n      tag_152\n        /* \"@openzeppelin/contracts/token/ERC721/ERC721.sol\":4282:4292  _msgSender */\n      tag_109\n        /* \"@openzeppelin/contracts/token/ERC721/ERC721.sol\":4282:4294  _msgSender() */\n      jump\t// in\n    tag_152:\n        /* \"@openzeppelin/contracts/token/ERC721/ERC721.sol\":4296:4304  operator */\n      dup4\n        /* \"@openzeppelin/contracts/token/ERC721/ERC721.sol\":4306:4314  approved */\n      dup4\n        /* \"@openzeppelin/contracts/token/ERC721/ERC721.sol\":4263:4281  _setApprovalForAll */\n      tag_153\n        /* \"@openzeppelin/contracts/token/ERC721/ERC721.sol\":4263:4315  _setApprovalForAll(_msgSender(), operator, approved) */\n      jump\t// in\n    tag_151:\n        /* \"@openzeppelin/contracts/token/ERC721/ERC721.sol\":4169:4322  function setApprovalForAll(address operator, bool approved) public virtual override {... */\n      pop\n      pop\n      jump\t// out\n        /* \"contracts/BillingRequest.sol\":599:725  function create(Billing.TokenPay[] memory prices) public returns (uint256) {... */\n    tag_73:\n        /* \"contracts/BillingRequest.sol\":665:672  uint256 */\n      0x00\n        /* \"contracts/BillingRequest.sol\":691:717  create(prices, msg.sender) */\n      tag_155\n        /* \"contracts/BillingRequest.sol\":698:704  prices */\n      dup3\n        /* \"contracts/BillingRequest.sol\":706:716  msg.sender */\n      caller\n        /* \"contracts/BillingRequest.sol\":691:697  create */\n      tag_51\n        /* \"contracts/BillingRequest.sol\":691:717  create(prices, msg.sender) */\n      jump\t// in\n    tag_155:\n        /* \"contracts/BillingRequest.sol\":684:717  return create(prices, msg.sender) */\n      swap1\n      pop\n        /* \"contracts/BillingRequest.sol\":599:725  function create(Billing.TokenPay[] memory prices) public returns (uint256) {... */\n      swap2\n      swap1\n      pop\n      jump\t// out\n        /* \"@openzeppelin/contracts/token/ERC721/ERC721.sol\":5250:5565  function safeTransferFrom(... */\n    tag_78:\n        /* \"@openzeppelin/contracts/token/ERC721/ERC721.sol\":5418:5459  _isApprovedOrOwner(_msgSender(), tokenId) */\n      tag_157\n        /* \"@openzeppelin/contracts/token/ERC721/ERC721.sol\":5437:5449  _msgSender() */\n      tag_158\n        /* \"@openzeppelin/contracts/token/ERC721/ERC721.sol\":5437:5447  _msgSender */\n      tag_109\n        /* \"@openzeppelin/contracts/token/ERC721/ERC721.sol\":5437:5449  _msgSender() */\n      jump\t// in\n    tag_158:\n        /* \"@openzeppelin/contracts/token/ERC721/ERC721.sol\":5451:5458  tokenId */\n      dup4\n        /* \"@openzeppelin/contracts/token/ERC721/ERC721.sol\":5418:5436  _isApprovedOrOwner */\n      tag_121\n        /* \"@openzeppelin/contracts/token/ERC721/ERC721.sol\":5418:5459  _isApprovedOrOwner(_msgSender(), tokenId) */\n      jump\t// in\n    tag_157:\n        /* \"@openzeppelin/contracts/token/ERC721/ERC721.sol\":5410:5510  require(_isApprovedOrOwner(_msgSender(), tokenId), \"ERC721: caller is not token owner nor approved\") */\n      tag_159\n      jumpi\n      mload(0x40)\n      0x08c379a000000000000000000000000000000000000000000000000000000000\n      dup2\n      mstore\n      0x04\n      add\n      tag_160\n      swap1\n      tag_124\n      jump\t// in\n    tag_160:\n      mload(0x40)\n      dup1\n      swap2\n      sub\n      swap1\n      revert\n    tag_159:\n        /* \"@openzeppelin/contracts/token/ERC721/ERC721.sol\":5520:5558  _safeTransfer(from, to, tokenId, data) */\n      tag_161\n        /* \"@openzeppelin/contracts/token/ERC721/ERC721.sol\":5534:5538  from */\n      dup5\n        /* \"@openzeppelin/contracts/token/ERC721/ERC721.sol\":5540:5542  to */\n      dup5\n        /* \"@openzeppelin/contracts/token/ERC721/ERC721.sol\":5544:5551  tokenId */\n      dup5\n        /* \"@openzeppelin/contracts/token/ERC721/ERC721.sol\":5553:5557  data */\n      dup5\n        /* \"@openzeppelin/contracts/token/ERC721/ERC721.sol\":5520:5533  _safeTransfer */\n      tag_162\n        /* \"@openzeppelin/contracts/token/ERC721/ERC721.sol\":5520:5558  _safeTransfer(from, to, tokenId, data) */\n      jump\t// in\n    tag_161:\n        /* \"@openzeppelin/contracts/token/ERC721/ERC721.sol\":5250:5565  function safeTransferFrom(... */\n      pop\n      pop\n      pop\n      pop\n      jump\t// out\n        /* \"@openzeppelin/contracts/token/ERC721/ERC721.sol\":2800:3076  function tokenURI(uint256 tokenId) public view virtual override returns (string memory) {... */\n    tag_81:\n        /* \"@openzeppelin/contracts/token/ERC721/ERC721.sol\":2873:2886  string memory */\n      0x60\n        /* \"@openzeppelin/contracts/token/ERC721/ERC721.sol\":2898:2921  _requireMinted(tokenId) */\n      tag_164\n        /* \"@openzeppelin/contracts/token/ERC721/ERC721.sol\":2913:2920  tokenId */\n      dup3\n        /* \"@openzeppelin/contracts/token/ERC721/ERC721.sol\":2898:2912  _requireMinted */\n      tag_102\n        /* \"@openzeppelin/contracts/token/ERC721/ERC721.sol\":2898:2921  _requireMinted(tokenId) */\n      jump\t// in\n    tag_164:\n        /* \"@openzeppelin/contracts/token/ERC721/ERC721.sol\":2932:2953  string memory baseURI */\n      0x00\n        /* \"@openzeppelin/contracts/token/ERC721/ERC721.sol\":2956:2966  _baseURI() */\n      tag_165\n        /* \"@openzeppelin/contracts/token/ERC721/ERC721.sol\":2956:2964  _baseURI */\n      tag_166\n        /* \"@openzeppelin/contracts/token/ERC721/ERC721.sol\":2956:2966  _baseURI() */\n      jump\t// in\n    tag_165:\n        /* \"@openzeppelin/contracts/token/ERC721/ERC721.sol\":2932:2966  string memory baseURI = _baseURI() */\n      swap1\n      pop\n        /* \"@openzeppelin/contracts/token/ERC721/ERC721.sol\":3007:3008  0 */\n      0x00\n        /* \"@openzeppelin/contracts/token/ERC721/ERC721.sol\":2989:2996  baseURI */\n      dup2\n        /* \"@openzeppelin/contracts/token/ERC721/ERC721.sol\":2983:3004  bytes(baseURI).length */\n      mload\n        /* \"@openzeppelin/contracts/token/ERC721/ERC721.sol\":2983:3008  bytes(baseURI).length > 0 */\n      gt\n        /* \"@openzeppelin/contracts/token/ERC721/ERC721.sol\":2983:3069  bytes(baseURI).length > 0 ? string(abi.encodePacked(baseURI, tokenId.toString())) : \"\" */\n      tag_167\n      jumpi\n      mload(0x40)\n      dup1\n      0x20\n      add\n      0x40\n      mstore\n      dup1\n      0x00\n      dup2\n      mstore\n      pop\n      jump(tag_168)\n    tag_167:\n        /* \"@openzeppelin/contracts/token/ERC721/ERC721.sol\":3035:3042  baseURI */\n      dup1\n        /* \"@openzeppelin/contracts/token/ERC721/ERC721.sol\":3044:3062  tokenId.toString() */\n      tag_169\n        /* \"@openzeppelin/contracts/token/ERC721/ERC721.sol\":3044:3051  tokenId */\n      dup5\n        /* \"@openzeppelin/contracts/token/ERC721/ERC721.sol\":3044:3060  tokenId.toString */\n      tag_170\n        /* \"@openzeppelin/contracts/token/ERC721/ERC721.sol\":3044:3062  tokenId.toString() */\n      jump\t// in\n    tag_169:\n        /* \"@openzeppelin/contracts/token/ERC721/ERC721.sol\":3018:3063  abi.encodePacked(baseURI, tokenId.toString()) */\n      add(0x20, mload(0x40))\n      tag_171\n      swap3\n      swap2\n      swap1\n      tag_172\n      jump\t// in\n    tag_171:\n      mload(0x40)\n      0x20\n      dup2\n      dup4\n      sub\n      sub\n      dup2\n      mstore\n      swap1\n      0x40\n      mstore\n        /* \"@openzeppelin/contracts/token/ERC721/ERC721.sol\":2983:3069  bytes(baseURI).length > 0 ? string(abi.encodePacked(baseURI, tokenId.toString())) : \"\" */\n    tag_168:\n        /* \"@openzeppelin/contracts/token/ERC721/ERC721.sol\":2976:3069  return bytes(baseURI).length > 0 ? string(abi.encodePacked(baseURI, tokenId.toString())) : \"\" */\n      swap2\n      pop\n      pop\n        /* \"@openzeppelin/contracts/token/ERC721/ERC721.sol\":2800:3076  function tokenURI(uint256 tokenId) public view virtual override returns (string memory) {... */\n      swap2\n      swap1\n      pop\n      jump\t// out\n        /* \"@openzeppelin/contracts/token/ERC721/ERC721.sol\":4388:4550  function isApprovedForAll(address owner, address operator) public view virtual override returns (bool) {... */\n    tag_86:\n        /* \"@openzeppelin/contracts/token/ERC721/ERC721.sol\":4485:4489  bool */\n      0x00\n        /* \"@openzeppelin/contracts/token/ERC721/ERC721.sol\":4508:4526  _operatorApprovals */\n      0x05\n        /* \"@openzeppelin/contracts/token/ERC721/ERC721.sol\":4508:4533  _operatorApprovals[owner] */\n      0x00\n        /* \"@openzeppelin/contracts/token/ERC721/ERC721.sol\":4527:4532  owner */\n      dup5\n        /* \"@openzeppelin/contracts/token/ERC721/ERC721.sol\":4508:4533  _operatorApprovals[owner] */\n      0xffffffffffffffffffffffffffffffffffffffff\n      and\n      0xffffffffffffffffffffffffffffffffffffffff\n      and\n      dup2\n      mstore\n      0x20\n      add\n      swap1\n      dup2\n      mstore\n      0x20\n      add\n      0x00\n      keccak256\n        /* \"@openzeppelin/contracts/token/ERC721/ERC721.sol\":4508:4543  _operatorApprovals[owner][operator] */\n      0x00\n        /* \"@openzeppelin/contracts/token/ERC721/ERC721.sol\":4534:4542  operator */\n      dup4\n        /* \"@openzeppelin/contracts/token/ERC721/ERC721.sol\":4508:4543  _operatorApprovals[owner][operator] */\n      0xffffffffffffffffffffffffffffffffffffffff\n      and\n      0xffffffffffffffffffffffffffffffffffffffff\n      and\n      dup2\n      mstore\n      0x20\n      add\n      swap1\n      dup2\n      mstore\n      0x20\n      add\n      0x00\n      keccak256\n      0x00\n      swap1\n      sload\n      swap1\n      0x0100\n      exp\n      swap1\n      div\n      0xff\n      and\n        /* \"@openzeppelin/contracts/token/ERC721/ERC721.sol\":4501:4543  return _operatorApprovals[owner][operator] */\n      swap1\n      pop\n        /* \"@openzeppelin/contracts/token/ERC721/ERC721.sol\":4388:4550  function isApprovedForAll(address owner, address operator) public view virtual override returns (bool) {... */\n      swap3\n      swap2\n      pop\n      pop\n      jump\t// out\n        /* \"@openzeppelin/contracts/utils/introspection/ERC165.sol\":829:984  function supportsInterface(bytes4 interfaceId) public view virtual override returns (bool) {... */\n    tag_92:\n        /* \"@openzeppelin/contracts/utils/introspection/ERC165.sol\":914:918  bool */\n      0x00\n        /* \"@openzeppelin/contracts/utils/introspection/ERC165.sol\":952:977  type(IERC165).interfaceId */\n      0x01ffc9a700000000000000000000000000000000000000000000000000000000\n        /* \"@openzeppelin/contracts/utils/introspection/ERC165.sol\":937:977  interfaceId == type(IERC165).interfaceId */\n      not(0xffffffffffffffffffffffffffffffffffffffffffffffffffffffff)\n      and\n        /* \"@openzeppelin/contracts/utils/introspection/ERC165.sol\":937:948  interfaceId */\n      dup3\n        /* \"@openzeppelin/contracts/utils/introspection/ERC165.sol\":937:977  interfaceId == type(IERC165).interfaceId */\n      not(0xffffffffffffffffffffffffffffffffffffffffffffffffffffffff)\n      and\n      eq\n        /* \"@openzeppelin/contracts/utils/introspection/ERC165.sol\":930:977  return interfaceId == type(IERC165).interfaceId */\n      swap1\n      pop\n        /* \"@openzeppelin/contracts/utils/introspection/ERC165.sol\":829:984  function supportsInterface(bytes4 interfaceId) public view virtual override returns (bool) {... */\n      swap2\n      swap1\n      pop\n      jump\t// out\n        /* \"@openzeppelin/contracts/token/ERC721/ERC721.sol\":11657:11790  function _requireMinted(uint256 tokenId) internal view virtual {... */\n    tag_102:\n        /* \"@openzeppelin/contracts/token/ERC721/ERC721.sol\":11738:11754  _exists(tokenId) */\n      tag_176\n        /* \"@openzeppelin/contracts/token/ERC721/ERC721.sol\":11746:11753  tokenId */\n      dup2\n        /* \"@openzeppelin/contracts/token/ERC721/ERC721.sol\":11738:11745  _exists */\n      tag_177\n        /* \"@openzeppelin/contracts/token/ERC721/ERC721.sol\":11738:11754  _exists(tokenId) */\n      jump\t// in\n    tag_176:\n        /* \"@openzeppelin/contracts/token/ERC721/ERC721.sol\":11730:11783  require(_exists(tokenId), \"ERC721: invalid token ID\") */\n      tag_178\n      jumpi\n      mload(0x40)\n      0x08c379a000000000000000000000000000000000000000000000000000000000\n      dup2\n      mstore\n      0x04\n      add\n      tag_179\n      swap1\n      tag_139\n      jump\t// in\n    tag_179:\n      mload(0x40)\n      dup1\n      swap2\n      sub\n      swap1\n      revert\n    tag_178:\n        /* \"@openzeppelin/contracts/token/ERC721/ERC721.sol\":11657:11790  function _requireMinted(uint256 tokenId) internal view virtual {... */\n      pop\n      jump\t// out\n        /* \"@openzeppelin/contracts/utils/Context.sol\":640:736  function _msgSender() internal view virtual returns (address) {... */\n    tag_109:\n        /* \"@openzeppelin/contracts/utils/Context.sol\":693:700  address */\n      0x00\n        /* \"@openzeppelin/contracts/utils/Context.sol\":719:729  msg.sender */\n      caller\n        /* \"@openzeppelin/contracts/utils/Context.sol\":712:729  return msg.sender */\n      swap1\n      pop\n        /* \"@openzeppelin/contracts/utils/Context.sol\":640:736  function _msgSender() internal view virtual returns (address) {... */\n      swap1\n      jump\t// out\n        /* \"@openzeppelin/contracts/token/ERC721/ERC721.sol\":10959:11130  function _approve(address to, uint256 tokenId) internal virtual {... */\n    tag_117:\n        /* \"@openzeppelin/contracts/token/ERC721/ERC721.sol\":11060:11062  to */\n      dup2\n        /* \"@openzeppelin/contracts/token/ERC721/ERC721.sol\":11033:11048  _tokenApprovals */\n      0x04\n        /* \"@openzeppelin/contracts/token/ERC721/ERC721.sol\":11033:11057  _tokenApprovals[tokenId] */\n      0x00\n        /* \"@openzeppelin/contracts/token/ERC721/ERC721.sol\":11049:11056  tokenId */\n      dup4\n        /* \"@openzeppelin/contracts/token/ERC721/ERC721.sol\":11033:11057  _tokenApprovals[tokenId] */\n      dup2\n      mstore\n      0x20\n      add\n      swap1\n      dup2\n      mstore\n      0x20\n      add\n      0x00\n      keccak256\n      0x00\n        /* \"@openzeppelin/contracts/token/ERC721/ERC721.sol\":11033:11062  _tokenApprovals[tokenId] = to */\n      0x0100\n      exp\n      dup2\n      sload\n      dup2\n      0xffffffffffffffffffffffffffffffffffffffff\n      mul\n      not\n      and\n      swap1\n      dup4\n      0xffffffffffffffffffffffffffffffffffffffff\n      and\n      mul\n      or\n      swap1\n      sstore\n      pop\n        /* \"@openzeppelin/contracts/token/ERC721/ERC721.sol\":11115:11122  tokenId */\n      dup1\n        /* \"@openzeppelin/contracts/token/ERC721/ERC721.sol\":11111:11113  to */\n      dup3\n        /* \"@openzeppelin/contracts/token/ERC721/ERC721.sol\":11077:11123  Approval(ERC721.ownerOf(tokenId), to, tokenId) */\n      0xffffffffffffffffffffffffffffffffffffffff\n      and\n        /* \"@openzeppelin/contracts/token/ERC721/ERC721.sol\":11086:11109  ERC721.ownerOf(tokenId) */\n      tag_182\n        /* \"@openzeppelin/contracts/token/ERC721/ERC721.sol\":11101:11108  tokenId */\n      dup4\n        /* \"@openzeppelin/contracts/token/ERC721/ERC721.sol\":11086:11100  ERC721.ownerOf */\n      tag_56\n        /* \"@openzeppelin/contracts/token/ERC721/ERC721.sol\":11086:11109  ERC721.ownerOf(tokenId) */\n      jump\t// in\n    tag_182:\n        /* \"@openzeppelin/contracts/token/ERC721/ERC721.sol\":11077:11123  Approval(ERC721.ownerOf(tokenId), to, tokenId) */\n      0xffffffffffffffffffffffffffffffffffffffff\n      and\n      0x8c5be1e5ebec7d5bd14f71427d1e84f3dd0314c0f7b2291e5b200ac8c7c3b925\n      mload(0x40)\n      mload(0x40)\n      dup1\n      swap2\n      sub\n      swap1\n      log4\n        /* \"@openzeppelin/contracts/token/ERC721/ERC721.sol\":10959:11130  function _approve(address to, uint256 tokenId) internal virtual {... */\n      pop\n      pop\n      jump\t// out\n        /* \"@openzeppelin/contracts/token/ERC721/ERC721.sol\":7317:7578  function _isApprovedOrOwner(address spender, uint256 tokenId) internal view virtual returns (bool) {... */\n    tag_121:\n        /* \"@openzeppelin/contracts/token/ERC721/ERC721.sol\":7410:7414  bool */\n      0x00\n        /* \"@openzeppelin/contracts/token/ERC721/ERC721.sol\":7426:7439  address owner */\n      dup1\n        /* \"@openzeppelin/contracts/token/ERC721/ERC721.sol\":7442:7465  ERC721.ownerOf(tokenId) */\n      tag_184\n        /* \"@openzeppelin/contracts/token/ERC721/ERC721.sol\":7457:7464  tokenId */\n      dup4\n        /* \"@openzeppelin/contracts/token/ERC721/ERC721.sol\":7442:7456  ERC721.ownerOf */\n      tag_56\n        /* \"@openzeppelin/contracts/token/ERC721/ERC721.sol\":7442:7465  ERC721.ownerOf(tokenId) */\n      jump\t// in\n    tag_184:\n        /* \"@openzeppelin/contracts/token/ERC721/ERC721.sol\":7426:7465  address owner = ERC721.ownerOf(tokenId) */\n      swap1\n      pop\n        /* \"@openzeppelin/contracts/token/ERC721/ERC721.sol\":7494:7499  owner */\n      dup1\n        /* \"@openzeppelin/contracts/token/ERC721/ERC721.sol\":7483:7499  spender == owner */\n      0xffffffffffffffffffffffffffffffffffffffff\n      and\n        /* \"@openzeppelin/contracts/token/ERC721/ERC721.sol\":7483:7490  spender */\n      dup5\n        /* \"@openzeppelin/contracts/token/ERC721/ERC721.sol\":7483:7499  spender == owner */\n      0xffffffffffffffffffffffffffffffffffffffff\n      and\n      eq\n        /* \"@openzeppelin/contracts/token/ERC721/ERC721.sol\":7483:7535  spender == owner || isApprovedForAll(owner, spender) */\n      dup1\n      tag_185\n      jumpi\n      pop\n        /* \"@openzeppelin/contracts/token/ERC721/ERC721.sol\":7503:7535  isApprovedForAll(owner, spender) */\n      tag_186\n        /* \"@openzeppelin/contracts/token/ERC721/ERC721.sol\":7520:7525  owner */\n      dup2\n        /* \"@openzeppelin/contracts/token/ERC721/ERC721.sol\":7527:7534  spender */\n      dup6\n        /* \"@openzeppelin/contracts/token/ERC721/ERC721.sol\":7503:7519  isApprovedForAll */\n      tag_86\n        /* \"@openzeppelin/contracts/token/ERC721/ERC721.sol\":7503:7535  isApprovedForAll(owner, spender) */\n      jump\t// in\n    tag_186:\n        /* \"@openzeppelin/contracts/token/ERC721/ERC721.sol\":7483:7535  spender == owner || isApprovedForAll(owner, spender) */\n    tag_185:\n        /* \"@openzeppelin/contracts/token/ERC721/ERC721.sol\":7483:7570  spender == owner || isApprovedForAll(owner, spender) || getApproved(tokenId) == spender */\n      dup1\n      tag_187\n      jumpi\n      pop\n        /* \"@openzeppelin/contracts/token/ERC721/ERC721.sol\":7563:7570  spender */\n      dup4\n        /* \"@openzeppelin/contracts/token/ERC721/ERC721.sol\":7539:7570  getApproved(tokenId) == spender */\n      0xffffffffffffffffffffffffffffffffffffffff\n      and\n        /* \"@openzeppelin/contracts/token/ERC721/ERC721.sol\":7539:7559  getApproved(tokenId) */\n      tag_188\n        /* \"@openzeppelin/contracts/token/ERC721/ERC721.sol\":7551:7558  tokenId */\n      dup5\n        /* \"@openzeppelin/contracts/token/ERC721/ERC721.sol\":7539:7550  getApproved */\n      tag_34\n        /* \"@openzeppelin/contracts/token/ERC721/ERC721.sol\":7539:7559  getApproved(tokenId) */\n      jump\t// in\n    tag_188:\n        /* \"@openzeppelin/contracts/token/ERC721/ERC721.sol\":7539:7570  getApproved(tokenId) == spender */\n      0xffffffffffffffffffffffffffffffffffffffff\n      and\n      eq\n        /* \"@openzeppelin/contracts/token/ERC721/ERC721.sol\":7483:7570  spender == owner || isApprovedForAll(owner, spender) || getApproved(tokenId) == spender */\n    tag_187:\n        /* \"@openzeppelin/contracts/token/ERC721/ERC721.sol\":7475:7571  return (spender == owner || isApprovedForAll(owner, spender) || getApproved(tokenId) == spender) */\n      swap2\n      pop\n      pop\n        /* \"@openzeppelin/contracts/token/ERC721/ERC721.sol\":7317:7578  function _isApprovedOrOwner(address spender, uint256 tokenId) internal view virtual returns (bool) {... */\n      swap3\n      swap2\n      pop\n      pop\n      jump\t// out\n        /* \"@openzeppelin/contracts/token/ERC721/ERC721.sol\":10242:10847  function _transfer(... */\n    tag_126:\n        /* \"@openzeppelin/contracts/token/ERC721/ERC721.sol\":10396:10400  from */\n      dup3\n        /* \"@openzeppelin/contracts/token/ERC721/ERC721.sol\":10369:10400  ERC721.ownerOf(tokenId) == from */\n      0xffffffffffffffffffffffffffffffffffffffff\n      and\n        /* \"@openzeppelin/contracts/token/ERC721/ERC721.sol\":10369:10392  ERC721.ownerOf(tokenId) */\n      tag_190\n        /* \"@openzeppelin/contracts/token/ERC721/ERC721.sol\":10384:10391  tokenId */\n      dup3\n        /* \"@openzeppelin/contracts/token/ERC721/ERC721.sol\":10369:10383  ERC721.ownerOf */\n      tag_56\n        /* \"@openzeppelin/contracts/token/ERC721/ERC721.sol\":10369:10392  ERC721.ownerOf(tokenId) */\n      jump\t// in\n    tag_190:\n        /* \"@openzeppelin/contracts/token/ERC721/ERC721.sol\":10369:10400  ERC721.ownerOf(tokenId) == from */\n      0xffffffffffffffffffffffffffffffffffffffff\n      and\n      eq\n        /* \"@openzeppelin/contracts/token/ERC721/ERC721.sol\":10361:10442  require(ERC721.ownerOf(tokenId) == from, \"ERC721: transfer from incorrect owner\") */\n      tag_191\n      jumpi\n      mload(0x40)\n      0x08c379a000000000000000000000000000000000000000000000000000000000\n      dup2\n      mstore\n      0x04\n      add\n      tag_192\n      swap1\n      tag_193\n      jump\t// in\n    tag_192:\n      mload(0x40)\n      dup1\n      swap2\n      sub\n      swap1\n      revert\n    tag_191:\n        /* \"@openzeppelin/contracts/token/ERC721/ERC721.sol\":10474:10475  0 */\n      0x00\n        /* \"@openzeppelin/contracts/token/ERC721/ERC721.sol\":10460:10476  to != address(0) */\n      0xffffffffffffffffffffffffffffffffffffffff\n      and\n        /* \"@openzeppelin/contracts/token/ERC721/ERC721.sol\":10460:10462  to */\n      dup3\n        /* \"@openzeppelin/contracts/token/ERC721/ERC721.sol\":10460:10476  to != address(0) */\n      0xffffffffffffffffffffffffffffffffffffffff\n      and\n      eq\n      iszero\n        /* \"@openzeppelin/contracts/token/ERC721/ERC721.sol\":10452:10517  require(to != address(0), \"ERC721: transfer to the zero address\") */\n      tag_194\n      jumpi\n      mload(0x40)\n      0x08c379a000000000000000000000000000000000000000000000000000000000\n      dup2\n      mstore\n      0x04\n      add\n      tag_195\n      swap1\n      tag_196\n      jump\t// in\n    tag_195:\n      mload(0x40)\n      dup1\n      swap2\n      sub\n      swap1\n      revert\n    tag_194:\n        /* \"@openzeppelin/contracts/token/ERC721/ERC721.sol\":10528:10567  _beforeTokenTransfer(from, to, tokenId) */\n      tag_197\n        /* \"@openzeppelin/contracts/token/ERC721/ERC721.sol\":10549:10553  from */\n      dup4\n        /* \"@openzeppelin/contracts/token/ERC721/ERC721.sol\":10555:10557  to */\n      dup4\n        /* \"@openzeppelin/contracts/token/ERC721/ERC721.sol\":10559:10566  tokenId */\n      dup4\n        /* \"@openzeppelin/contracts/token/ERC721/ERC721.sol\":10528:10548  _beforeTokenTransfer */\n      tag_198\n        /* \"@openzeppelin/contracts/token/ERC721/ERC721.sol\":10528:10567  _beforeTokenTransfer(from, to, tokenId) */\n      jump\t// in\n    tag_197:\n        /* \"@openzeppelin/contracts/token/ERC721/ERC721.sol\":10629:10658  _approve(address(0), tokenId) */\n      tag_199\n        /* \"@openzeppelin/contracts/token/ERC721/ERC721.sol\":10646:10647  0 */\n      0x00\n        /* \"@openzeppelin/contracts/token/ERC721/ERC721.sol\":10650:10657  tokenId */\n      dup3\n        /* \"@openzeppelin/contracts/token/ERC721/ERC721.sol\":10629:10637  _approve */\n      tag_117\n        /* \"@openzeppelin/contracts/token/ERC721/ERC721.sol\":10629:10658  _approve(address(0), tokenId) */\n      jump\t// in\n    tag_199:\n        /* \"@openzeppelin/contracts/token/ERC721/ERC721.sol\":10688:10689  1 */\n      0x01\n        /* \"@openzeppelin/contracts/token/ERC721/ERC721.sol\":10669:10678  _balances */\n      0x03\n        /* \"@openzeppelin/contracts/token/ERC721/ERC721.sol\":10669:10684  _balances[from] */\n      0x00\n        /* \"@openzeppelin/contracts/token/ERC721/ERC721.sol\":10679:10683  from */\n      dup6\n        /* \"@openzeppelin/contracts/token/ERC721/ERC721.sol\":10669:10684  _balances[from] */\n      0xffffffffffffffffffffffffffffffffffffffff\n      and\n      0xffffffffffffffffffffffffffffffffffffffff\n      and\n      dup2\n      mstore\n      0x20\n      add\n      swap1\n      dup2\n      mstore\n      0x20\n      add\n      0x00\n      keccak256\n      0x00\n        /* \"@openzeppelin/contracts/token/ERC721/ERC721.sol\":10669:10689  _balances[from] -= 1 */\n      dup3\n      dup3\n      sload\n      tag_200\n      swap2\n      swap1\n      tag_201\n      jump\t// in\n    tag_200:\n      swap3\n      pop\n      pop\n      dup2\n      swap1\n      sstore\n      pop\n        /* \"@openzeppelin/contracts/token/ERC721/ERC721.sol\":10716:10717  1 */\n      0x01\n        /* \"@openzeppelin/contracts/token/ERC721/ERC721.sol\":10699:10708  _balances */\n      0x03\n        /* \"@openzeppelin/contracts/token/ERC721/ERC721.sol\":10699:10712  _balances[to] */\n      0x00\n        /* \"@openzeppelin/contracts/token/ERC721/ERC721.sol\":10709:10711  to */\n      dup5\n        /* \"@openzeppelin/contracts/token/ERC721/ERC721.sol\":10699:10712  _balances[to] */\n      0xffffffffffffffffffffffffffffffffffffffff\n      and\n      0xffffffffffffffffffffffffffffffffffffffff\n      and\n      dup2\n      mstore\n      0x20\n      add\n      swap1\n      dup2\n      mstore\n      0x20\n      add\n      0x00\n      keccak256\n      0x00\n        /* \"@openzeppelin/contracts/token/ERC721/ERC721.sol\":10699:10717  _balances[to] += 1 */\n      dup3\n      dup3\n      sload\n      tag_202\n      swap2\n      swap1\n      tag_203\n      jump\t// in\n    tag_202:\n      swap3\n      pop\n      pop\n      dup2\n      swap1\n      sstore\n      pop\n        /* \"@openzeppelin/contracts/token/ERC721/ERC721.sol\":10746:10748  to */\n      dup2\n        /* \"@openzeppelin/contracts/token/ERC721/ERC721.sol\":10727:10734  _owners */\n      0x02\n        /* \"@openzeppelin/contracts/token/ERC721/ERC721.sol\":10727:10743  _owners[tokenId] */\n      0x00\n        /* \"@openzeppelin/contracts/token/ERC721/ERC721.sol\":10735:10742  tokenId */\n      dup4\n        /* \"@openzeppelin/contracts/token/ERC721/ERC721.sol\":10727:10743  _owners[tokenId] */\n      dup2\n      mstore\n      0x20\n      add\n      swap1\n      dup2\n      mstore\n      0x20\n      add\n      0x00\n      keccak256\n      0x00\n        /* \"@openzeppelin/contracts/token/ERC721/ERC721.sol\":10727:10748  _owners[tokenId] = to */\n      0x0100\n      exp\n      dup2\n      sload\n      dup2\n      0xffffffffffffffffffffffffffffffffffffffff\n      mul\n      not\n      and\n      swap1\n      dup4\n      0xffffffffffffffffffffffffffffffffffffffff\n      and\n      mul\n      or\n      swap1\n      sstore\n      pop\n        /* \"@openzeppelin/contracts/token/ERC721/ERC721.sol\":10783:10790  tokenId */\n      dup1\n        /* \"@openzeppelin/contracts/token/ERC721/ERC721.sol\":10779:10781  to */\n      dup3\n        /* \"@openzeppelin/contracts/token/ERC721/ERC721.sol\":10764:10791  Transfer(from, to, tokenId) */\n      0xffffffffffffffffffffffffffffffffffffffff\n      and\n        /* \"@openzeppelin/contracts/token/ERC721/ERC721.sol\":10773:10777  from */\n      dup5\n        /* \"@openzeppelin/contracts/token/ERC721/ERC721.sol\":10764:10791  Transfer(from, to, tokenId) */\n      0xffffffffffffffffffffffffffffffffffffffff\n      and\n      0xddf252ad1be2c89b69c2b068fc378daa952ba7f163c4a11628f55a4df523b3ef\n      mload(0x40)\n      mload(0x40)\n      dup1\n      swap2\n      sub\n      swap1\n      log4\n        /* \"@openzeppelin/contracts/token/ERC721/ERC721.sol\":10802:10840  _afterTokenTransfer(from, to, tokenId) */\n      tag_204\n        /* \"@openzeppelin/contracts/token/ERC721/ERC721.sol\":10822:10826  from */\n      dup4\n        /* \"@openzeppelin/contracts/token/ERC721/ERC721.sol\":10828:10830  to */\n      dup4\n        /* \"@openzeppelin/contracts/token/ERC721/ERC721.sol\":10832:10839  tokenId */\n      dup4\n        /* \"@openzeppelin/contracts/token/ERC721/ERC721.sol\":10802:10821  _afterTokenTransfer */\n      tag_205\n        /* \"@openzeppelin/contracts/token/ERC721/ERC721.sol\":10802:10840  _afterTokenTransfer(from, to, tokenId) */\n      jump\t// in\n    tag_204:\n        /* \"@openzeppelin/contracts/token/ERC721/ERC721.sol\":10242:10847  function _transfer(... */\n      pop\n      pop\n      pop\n      jump\t// out\n        /* \"@openzeppelin/contracts/utils/Counters.sol\":827:939  function current(Counter storage counter) internal view returns (uint256) {... */\n    tag_131:\n        /* \"@openzeppelin/contracts/utils/Counters.sol\":892:899  uint256 */\n      0x00\n        /* \"@openzeppelin/contracts/utils/Counters.sol\":918:925  counter */\n      dup2\n        /* \"@openzeppelin/contracts/utils/Counters.sol\":918:932  counter._value */\n      0x00\n      add\n      sload\n        /* \"@openzeppelin/contracts/utils/Counters.sol\":911:932  return counter._value */\n      swap1\n      pop\n        /* \"@openzeppelin/contracts/utils/Counters.sol\":827:939  function current(Counter storage counter) internal view returns (uint256) {... */\n      swap2\n      swap1\n      pop\n      jump\t// out\n        /* \"@openzeppelin/contracts/token/ERC721/ERC721.sol\":8868:9295  function _mint(address to, uint256 tokenId) internal virtual {... */\n    tag_133:\n        /* \"@openzeppelin/contracts/token/ERC721/ERC721.sol\":8961:8962  0 */\n      0x00\n        /* \"@openzeppelin/contracts/token/ERC721/ERC721.sol\":8947:8963  to != address(0) */\n      0xffffffffffffffffffffffffffffffffffffffff\n      and\n        /* \"@openzeppelin/contracts/token/ERC721/ERC721.sol\":8947:8949  to */\n      dup3\n        /* \"@openzeppelin/contracts/token/ERC721/ERC721.sol\":8947:8963  to != address(0) */\n      0xffffffffffffffffffffffffffffffffffffffff\n      and\n      eq\n      iszero\n        /* \"@openzeppelin/contracts/token/ERC721/ERC721.sol\":8939:9000  require(to != address(0), \"ERC721: mint to the zero address\") */\n      tag_208\n      jumpi\n      mload(0x40)\n      0x08c379a000000000000000000000000000000000000000000000000000000000\n      dup2\n      mstore\n      0x04\n      add\n      tag_209\n      swap1\n      tag_210\n      jump\t// in\n    tag_209:\n      mload(0x40)\n      dup1\n      swap2\n      sub\n      swap1\n      revert\n    tag_208:\n        /* \"@openzeppelin/contracts/token/ERC721/ERC721.sol\":9019:9035  _exists(tokenId) */\n      tag_211\n        /* \"@openzeppelin/contracts/token/ERC721/ERC721.sol\":9027:9034  tokenId */\n      dup2\n        /* \"@openzeppelin/contracts/token/ERC721/ERC721.sol\":9019:9026  _exists */\n      tag_177\n        /* \"@openzeppelin/contracts/token/ERC721/ERC721.sol\":9019:9035  _exists(tokenId) */\n      jump\t// in\n    tag_211:\n        /* \"@openzeppelin/contracts/token/ERC721/ERC721.sol\":9018:9035  !_exists(tokenId) */\n      iszero\n        /* \"@openzeppelin/contracts/token/ERC721/ERC721.sol\":9010:9068  require(!_exists(tokenId), \"ERC721: token already minted\") */\n      tag_212\n      jumpi\n      mload(0x40)\n      0x08c379a000000000000000000000000000000000000000000000000000000000\n      dup2\n      mstore\n      0x04\n      add\n      tag_213\n      swap1\n      tag_214\n      jump\t// in\n    tag_213:\n      mload(0x40)\n      dup1\n      swap2\n      sub\n      swap1\n      revert\n    tag_212:\n        /* \"@openzeppelin/contracts/token/ERC721/ERC721.sol\":9079:9124  _beforeTokenTransfer(address(0), to, tokenId) */\n      tag_215\n        /* \"@openzeppelin/contracts/token/ERC721/ERC721.sol\":9108:9109  0 */\n      0x00\n        /* \"@openzeppelin/contracts/token/ERC721/ERC721.sol\":9112:9114  to */\n      dup4\n        /* \"@openzeppelin/contracts/token/ERC721/ERC721.sol\":9116:9123  tokenId */\n      dup4\n        /* \"@openzeppelin/contracts/token/ERC721/ERC721.sol\":9079:9099  _beforeTokenTransfer */\n      tag_198\n        /* \"@openzeppelin/contracts/token/ERC721/ERC721.sol\":9079:9124  _beforeTokenTransfer(address(0), to, tokenId) */\n      jump\t// in\n    tag_215:\n        /* \"@openzeppelin/contracts/token/ERC721/ERC721.sol\":9152:9153  1 */\n      0x01\n        /* \"@openzeppelin/contracts/token/ERC721/ERC721.sol\":9135:9144  _balances */\n      0x03\n        /* \"@openzeppelin/contracts/token/ERC721/ERC721.sol\":9135:9148  _balances[to] */\n      0x00\n        /* \"@openzeppelin/contracts/token/ERC721/ERC721.sol\":9145:9147  to */\n      dup5\n        /* \"@openzeppelin/contracts/token/ERC721/ERC721.sol\":9135:9148  _balances[to] */\n      0xffffffffffffffffffffffffffffffffffffffff\n      and\n      0xffffffffffffffffffffffffffffffffffffffff\n      and\n      dup2\n      mstore\n      0x20\n      add\n      swap1\n      dup2\n      mstore\n      0x20\n      add\n      0x00\n      keccak256\n      0x00\n        /* \"@openzeppelin/contracts/token/ERC721/ERC721.sol\":9135:9153  _balances[to] += 1 */\n      dup3\n      dup3\n      sload\n      tag_216\n      swap2\n      swap1\n      tag_203\n      jump\t// in\n    tag_216:\n      swap3\n      pop\n      pop\n      dup2\n      swap1\n      sstore\n      pop\n        /* \"@openzeppelin/contracts/token/ERC721/ERC721.sol\":9182:9184  to */\n      dup2\n        /* \"@openzeppelin/contracts/token/ERC721/ERC721.sol\":9163:9170  _owners */\n      0x02\n        /* \"@openzeppelin/contracts/token/ERC721/ERC721.sol\":9163:9179  _owners[tokenId] */\n      0x00\n        /* \"@openzeppelin/contracts/token/ERC721/ERC721.sol\":9171:9178  tokenId */\n      dup4\n        /* \"@openzeppelin/contracts/token/ERC721/ERC721.sol\":9163:9179  _owners[tokenId] */\n      dup2\n      mstore\n      0x20\n      add\n      swap1\n      dup2\n      mstore\n      0x20\n      add\n      0x00\n      keccak256\n      0x00\n        /* \"@openzeppelin/contracts/token/ERC721/ERC721.sol\":9163:9184  _owners[tokenId] = to */\n      0x0100\n      exp\n      dup2\n      sload\n      dup2\n      0xffffffffffffffffffffffffffffffffffffffff\n      mul\n      not\n      and\n      swap1\n      dup4\n      0xffffffffffffffffffffffffffffffffffffffff\n      and\n      mul\n      or\n      swap1\n      sstore\n      pop\n        /* \"@openzeppelin/contracts/token/ERC721/ERC721.sol\":9225:9232  tokenId */\n      dup1\n        /* \"@openzeppelin/contracts/token/ERC721/ERC721.sol\":9221:9223  to */\n      dup3\n        /* \"@openzeppelin/contracts/token/ERC721/ERC721.sol\":9200:9233  Transfer(address(0), to, tokenId) */\n      0xffffffffffffffffffffffffffffffffffffffff\n      and\n        /* \"@openzeppelin/contracts/token/ERC721/ERC721.sol\":9217:9218  0 */\n      0x00\n        /* \"@openzeppelin/contracts/token/ERC721/ERC721.sol\":9200:9233  Transfer(address(0), to, tokenId) */\n      0xffffffffffffffffffffffffffffffffffffffff\n      and\n      0xddf252ad1be2c89b69c2b068fc378daa952ba7f163c4a11628f55a4df523b3ef\n      mload(0x40)\n      mload(0x40)\n      dup1\n      swap2\n      sub\n      swap1\n      log4\n        /* \"@openzeppelin/contracts/token/ERC721/ERC721.sol\":9244:9288  _afterTokenTransfer(address(0), to, tokenId) */\n      tag_217\n        /* \"@openzeppelin/contracts/token/ERC721/ERC721.sol\":9272:9273  0 */\n      0x00\n        /* \"@openzeppelin/contracts/token/ERC721/ERC721.sol\":9276:9278  to */\n      dup4\n        /* \"@openzeppelin/contracts/token/ERC721/ERC721.sol\":9280:9287  tokenId */\n      dup4\n        /* \"@openzeppelin/contracts/token/ERC721/ERC721.sol\":9244:9263  _afterTokenTransfer */\n      tag_205\n        /* \"@openzeppelin/contracts/token/ERC721/ERC721.sol\":9244:9288  _afterTokenTransfer(address(0), to, tokenId) */\n      jump\t// in\n    tag_217:\n        /* \"@openzeppelin/contracts/token/ERC721/ERC721.sol\":8868:9295  function _mint(address to, uint256 tokenId) internal virtual {... */\n      pop\n      pop\n      jump\t// out\n        /* \"@openzeppelin/contracts/utils/Counters.sol\":945:1068  function increment(Counter storage counter) internal {... */\n    tag_135:\n        /* \"@openzeppelin/contracts/utils/Counters.sol\":1050:1051  1 */\n      0x01\n        /* \"@openzeppelin/contracts/utils/Counters.sol\":1032:1039  counter */\n      dup2\n        /* \"@openzeppelin/contracts/utils/Counters.sol\":1032:1046  counter._value */\n      0x00\n      add\n      0x00\n        /* \"@openzeppelin/contracts/utils/Counters.sol\":1032:1051  counter._value += 1 */\n      dup3\n      dup3\n      sload\n      add\n      swap3\n      pop\n      pop\n      dup2\n      swap1\n      sstore\n      pop\n        /* \"@openzeppelin/contracts/utils/Counters.sol\":945:1068  function increment(Counter storage counter) internal {... */\n      pop\n      jump\t// out\n        /* \"@openzeppelin/contracts/token/ERC721/ERC721.sol\":11266:11573  function _setApprovalForAll(... */\n    tag_153:\n        /* \"@openzeppelin/contracts/token/ERC721/ERC721.sol\":11416:11424  operator */\n      dup2\n        /* \"@openzeppelin/contracts/token/ERC721/ERC721.sol\":11407:11424  owner != operator */\n      0xffffffffffffffffffffffffffffffffffffffff\n      and\n        /* \"@openzeppelin/contracts/token/ERC721/ERC721.sol\":11407:11412  owner */\n      dup4\n        /* \"@openzeppelin/contracts/token/ERC721/ERC721.sol\":11407:11424  owner != operator */\n      0xffffffffffffffffffffffffffffffffffffffff\n      and\n      eq\n      iszero\n        /* \"@openzeppelin/contracts/token/ERC721/ERC721.sol\":11399:11454  require(owner != operator, \"ERC721: approve to caller\") */\n      tag_220\n      jumpi\n      mload(0x40)\n      0x08c379a000000000000000000000000000000000000000000000000000000000\n      dup2\n      mstore\n      0x04\n      add\n      tag_221\n      swap1\n      tag_222\n      jump\t// in\n    tag_221:\n      mload(0x40)\n      dup1\n      swap2\n      sub\n      swap1\n      revert\n    tag_220:\n        /* \"@openzeppelin/contracts/token/ERC721/ERC721.sol\":11502:11510  approved */\n      dup1\n        /* \"@openzeppelin/contracts/token/ERC721/ERC721.sol\":11464:11482  _operatorApprovals */\n      0x05\n        /* \"@openzeppelin/contracts/token/ERC721/ERC721.sol\":11464:11489  _operatorApprovals[owner] */\n      0x00\n        /* \"@openzeppelin/contracts/token/ERC721/ERC721.sol\":11483:11488  owner */\n      dup6\n        /* \"@openzeppelin/contracts/token/ERC721/ERC721.sol\":11464:11489  _operatorApprovals[owner] */\n      0xffffffffffffffffffffffffffffffffffffffff\n      and\n      0xffffffffffffffffffffffffffffffffffffffff\n      and\n      dup2\n      mstore\n      0x20\n      add\n      swap1\n      dup2\n      mstore\n      0x20\n      add\n      0x00\n      keccak256\n        /* \"@openzeppelin/contracts/token/ERC721/ERC721.sol\":11464:11499  _operatorApprovals[owner][operator] */\n      0x00\n        /* \"@openzeppelin/contracts/token/ERC721/ERC721.sol\":11490:11498  operator */\n      dup5\n        /* \"@openzeppelin/contracts/token/ERC721/ERC721.sol\":11464:11499  _operatorApprovals[owner][operator] */\n      0xffffffffffffffffffffffffffffffffffffffff\n      and\n      0xffffffffffffffffffffffffffffffffffffffff\n      and\n      dup2\n      mstore\n      0x20\n      add\n      swap1\n      dup2\n      mstore\n      0x20\n      add\n      0x00\n      keccak256\n      0x00\n        /* \"@openzeppelin/contracts/token/ERC721/ERC721.sol\":11464:11510  _operatorApprovals[owner][operator] = approved */\n      0x0100\n      exp\n      dup2\n      sload\n      dup2\n      0xff\n      mul\n      not\n      and\n      swap1\n      dup4\n      iszero\n      iszero\n      mul\n      or\n      swap1\n      sstore\n      pop\n        /* \"@openzeppelin/contracts/token/ERC721/ERC721.sol\":11547:11555  operator */\n      dup2\n        /* \"@openzeppelin/contracts/token/ERC721/ERC721.sol\":11525:11566  ApprovalForAll(owner, operator, approved) */\n      0xffffffffffffffffffffffffffffffffffffffff\n      and\n        /* \"@openzeppelin/contracts/token/ERC721/ERC721.sol\":11540:11545  owner */\n      dup4\n        /* \"@openzeppelin/contracts/token/ERC721/ERC721.sol\":11525:11566  ApprovalForAll(owner, operator, approved) */\n      0xffffffffffffffffffffffffffffffffffffffff\n      and\n      0x17307eab39ab6107e8899845ad3d59bd9653f200f220920489ca2b5937696c31\n        /* \"@openzeppelin/contracts/token/ERC721/ERC721.sol\":11557:11565  approved */\n      dup4\n        /* \"@openzeppelin/contracts/token/ERC721/ERC721.sol\":11525:11566  ApprovalForAll(owner, operator, approved) */\n      mload(0x40)\n      tag_223\n      swap2\n      swap1\n      tag_26\n      jump\t// in\n    tag_223:\n      mload(0x40)\n      dup1\n      swap2\n      sub\n      swap1\n      log3\n        /* \"@openzeppelin/contracts/token/ERC721/ERC721.sol\":11266:11573  function _setApprovalForAll(... */\n      pop\n      pop\n      pop\n      jump\t// out\n        /* \"@openzeppelin/contracts/token/ERC721/ERC721.sol\":6426:6731  function _safeTransfer(... */\n    tag_162:\n        /* \"@openzeppelin/contracts/token/ERC721/ERC721.sol\":6576:6604  _transfer(from, to, tokenId) */\n      tag_225\n        /* \"@openzeppelin/contracts/token/ERC721/ERC721.sol\":6586:6590  from */\n      dup5\n        /* \"@openzeppelin/contracts/token/ERC721/ERC721.sol\":6592:6594  to */\n      dup5\n        /* \"@openzeppelin/contracts/token/ERC721/ERC721.sol\":6596:6603  tokenId */\n      dup5\n        /* \"@openzeppelin/contracts/token/ERC721/ERC721.sol\":6576:6585  _transfer */\n      tag_126\n        /* \"@openzeppelin/contracts/token/ERC721/ERC721.sol\":6576:6604  _transfer(from, to, tokenId) */\n      jump\t// in\n    tag_225:\n        /* \"@openzeppelin/contracts/token/ERC721/ERC721.sol\":6622:6669  _checkOnERC721Received(from, to, tokenId, data) */\n      tag_226\n        /* \"@openzeppelin/contracts/token/ERC721/ERC721.sol\":6645:6649  from */\n      dup5\n        /* \"@openzeppelin/contracts/token/ERC721/ERC721.sol\":6651:6653  to */\n      dup5\n        /* \"@openzeppelin/contracts/token/ERC721/ERC721.sol\":6655:6662  tokenId */\n      dup5\n        /* \"@openzeppelin/contracts/token/ERC721/ERC721.sol\":6664:6668  data */\n      dup5\n        /* \"@openzeppelin/contracts/token/ERC721/ERC721.sol\":6622:6644  _checkOnERC721Received */\n      tag_227\n        /* \"@openzeppelin/contracts/token/ERC721/ERC721.sol\":6622:6669  _checkOnERC721Received(from, to, tokenId, data) */\n      jump\t// in\n    tag_226:\n        /* \"@openzeppelin/contracts/token/ERC721/ERC721.sol\":6614:6724  require(_checkOnERC721Received(from, to, tokenId, data), \"ERC721: transfer to non ERC721Receiver implementer\") */\n      tag_228\n      jumpi\n      mload(0x40)\n      0x08c379a000000000000000000000000000000000000000000000000000000000\n      dup2\n      mstore\n      0x04\n      add\n      tag_229\n      swap1\n      tag_230\n      jump\t// in\n    tag_229:\n      mload(0x40)\n      dup1\n      swap2\n      sub\n      swap1\n      revert\n    tag_228:\n        /* \"@openzeppelin/contracts/token/ERC721/ERC721.sol\":6426:6731  function _safeTransfer(... */\n      pop\n      pop\n      pop\n      pop\n      jump\t// out\n        /* \"@openzeppelin/contracts/token/ERC721/ERC721.sol\":3318:3410  function _baseURI() internal view virtual returns (string memory) {... */\n    tag_166:\n        /* \"@openzeppelin/contracts/token/ERC721/ERC721.sol\":3369:3382  string memory */\n      0x60\n        /* \"@openzeppelin/contracts/token/ERC721/ERC721.sol\":3394:3403  return \"\" */\n      mload(0x40)\n      dup1\n      0x20\n      add\n      0x40\n      mstore\n      dup1\n      0x00\n      dup2\n      mstore\n      pop\n      swap1\n      pop\n        /* \"@openzeppelin/contracts/token/ERC721/ERC721.sol\":3318:3410  function _baseURI() internal view virtual returns (string memory) {... */\n      swap1\n      jump\t// out\n        /* \"@openzeppelin/contracts/utils/Strings.sol\":392:1095  function toString(uint256 value) internal pure returns (string memory) {... */\n    tag_170:\n        /* \"@openzeppelin/contracts/utils/Strings.sol\":448:461  string memory */\n      0x60\n        /* \"@openzeppelin/contracts/utils/Strings.sol\":674:675  0 */\n      0x00\n        /* \"@openzeppelin/contracts/utils/Strings.sol\":665:670  value */\n      dup3\n        /* \"@openzeppelin/contracts/utils/Strings.sol\":665:675  value == 0 */\n      eq\n        /* \"@openzeppelin/contracts/utils/Strings.sol\":661:712  if (value == 0) {... */\n      iszero\n      tag_233\n      jumpi\n        /* \"@openzeppelin/contracts/utils/Strings.sol\":691:701  return \"0\" */\n      mload(0x40)\n      dup1\n      0x40\n      add\n      0x40\n      mstore\n      dup1\n      0x01\n      dup2\n      mstore\n      0x20\n      add\n      0x3000000000000000000000000000000000000000000000000000000000000000\n      dup2\n      mstore\n      pop\n      swap1\n      pop\n      jump(tag_232)\n        /* \"@openzeppelin/contracts/utils/Strings.sol\":661:712  if (value == 0) {... */\n    tag_233:\n        /* \"@openzeppelin/contracts/utils/Strings.sol\":721:733  uint256 temp */\n      0x00\n        /* \"@openzeppelin/contracts/utils/Strings.sol\":736:741  value */\n      dup3\n        /* \"@openzeppelin/contracts/utils/Strings.sol\":721:741  uint256 temp = value */\n      swap1\n      pop\n        /* \"@openzeppelin/contracts/utils/Strings.sol\":751:765  uint256 digits */\n      0x00\n        /* \"@openzeppelin/contracts/utils/Strings.sol\":775:850  while (temp != 0) {... */\n    tag_234:\n        /* \"@openzeppelin/contracts/utils/Strings.sol\":790:791  0 */\n      0x00\n        /* \"@openzeppelin/contracts/utils/Strings.sol\":782:786  temp */\n      dup3\n        /* \"@openzeppelin/contracts/utils/Strings.sol\":782:791  temp != 0 */\n      eq\n        /* \"@openzeppelin/contracts/utils/Strings.sol\":775:850  while (temp != 0) {... */\n      tag_235\n      jumpi\n        /* \"@openzeppelin/contracts/utils/Strings.sol\":807:815  digits++ */\n      dup1\n      dup1\n      tag_236\n      swap1\n      tag_237\n      jump\t// in\n    tag_236:\n      swap2\n      pop\n      pop\n        /* \"@openzeppelin/contracts/utils/Strings.sol\":837:839  10 */\n      0x0a\n        /* \"@openzeppelin/contracts/utils/Strings.sol\":829:839  temp /= 10 */\n      dup3\n      tag_238\n      swap2\n      swap1\n      tag_239\n      jump\t// in\n    tag_238:\n      swap2\n      pop\n        /* \"@openzeppelin/contracts/utils/Strings.sol\":775:850  while (temp != 0) {... */\n      jump(tag_234)\n    tag_235:\n        /* \"@openzeppelin/contracts/utils/Strings.sol\":859:878  bytes memory buffer */\n      0x00\n        /* \"@openzeppelin/contracts/utils/Strings.sol\":891:897  digits */\n      dup2\n        /* \"@openzeppelin/contracts/utils/Strings.sol\":881:898  new bytes(digits) */\n      0xffffffffffffffff\n      dup2\n      gt\n      iszero\n      tag_240\n      jumpi\n      tag_241\n      tag_242\n      jump\t// in\n    tag_241:\n    tag_240:\n      mload(0x40)\n      swap1\n      dup1\n      dup3\n      mstore\n      dup1\n      0x1f\n      add\n      not(0x1f)\n      and\n      0x20\n      add\n      dup3\n      add\n      0x40\n      mstore\n      dup1\n      iszero\n      tag_243\n      jumpi\n      dup2\n      0x20\n      add\n      0x01\n      dup3\n      mul\n      dup1\n      calldatasize\n      dup4\n      calldatacopy\n      dup1\n      dup3\n      add\n      swap2\n      pop\n      pop\n      swap1\n      pop\n    tag_243:\n      pop\n        /* \"@openzeppelin/contracts/utils/Strings.sol\":859:898  bytes memory buffer = new bytes(digits) */\n      swap1\n      pop\n        /* \"@openzeppelin/contracts/utils/Strings.sol\":908:1058  while (value != 0) {... */\n    tag_244:\n        /* \"@openzeppelin/contracts/utils/Strings.sol\":924:925  0 */\n      0x00\n        /* \"@openzeppelin/contracts/utils/Strings.sol\":915:920  value */\n      dup6\n        /* \"@openzeppelin/contracts/utils/Strings.sol\":915:925  value != 0 */\n      eq\n        /* \"@openzeppelin/contracts/utils/Strings.sol\":908:1058  while (value != 0) {... */\n      tag_245\n      jumpi\n        /* \"@openzeppelin/contracts/utils/Strings.sol\":951:952  1 */\n      0x01\n        /* \"@openzeppelin/contracts/utils/Strings.sol\":941:952  digits -= 1 */\n      dup3\n      tag_246\n      swap2\n      swap1\n      tag_201\n      jump\t// in\n    tag_246:\n      swap2\n      pop\n        /* \"@openzeppelin/contracts/utils/Strings.sol\":1017:1019  10 */\n      0x0a\n        /* \"@openzeppelin/contracts/utils/Strings.sol\":1009:1014  value */\n      dup6\n        /* \"@openzeppelin/contracts/utils/Strings.sol\":1009:1019  value % 10 */\n      tag_247\n      swap2\n      swap1\n      tag_248\n      jump\t// in\n    tag_247:\n        /* \"@openzeppelin/contracts/utils/Strings.sol\":996:998  48 */\n      0x30\n        /* \"@openzeppelin/contracts/utils/Strings.sol\":996:1020  48 + uint256(value % 10) */\n      tag_249\n      swap2\n      swap1\n      tag_203\n      jump\t// in\n    tag_249:\n        /* \"@openzeppelin/contracts/utils/Strings.sol\":983:1022  bytes1(uint8(48 + uint256(value % 10))) */\n      0xf8\n      shl\n        /* \"@openzeppelin/contracts/utils/Strings.sol\":966:972  buffer */\n      dup2\n        /* \"@openzeppelin/contracts/utils/Strings.sol\":973:979  digits */\n      dup4\n        /* \"@openzeppelin/contracts/utils/Strings.sol\":966:980  buffer[digits] */\n      dup2\n      mload\n      dup2\n      lt\n      tag_250\n      jumpi\n      tag_251\n      tag_252\n      jump\t// in\n    tag_251:\n    tag_250:\n      0x20\n      add\n      add\n        /* \"@openzeppelin/contracts/utils/Strings.sol\":966:1022  buffer[digits] = bytes1(uint8(48 + uint256(value % 10))) */\n      swap1\n      not(0xffffffffffffffffffffffffffffffffffffffffffffffffffffffffffffff)\n      and\n      swap1\n      dup2\n      0x00\n      byte\n      swap1\n      mstore8\n      pop\n        /* \"@openzeppelin/contracts/utils/Strings.sol\":1045:1047  10 */\n      0x0a\n        /* \"@openzeppelin/contracts/utils/Strings.sol\":1036:1047  value /= 10 */\n      dup6\n      tag_253\n      swap2\n      swap1\n      tag_239\n      jump\t// in\n    tag_253:\n      swap5\n      pop\n        /* \"@openzeppelin/contracts/utils/Strings.sol\":908:1058  while (value != 0) {... */\n      jump(tag_244)\n    tag_245:\n        /* \"@openzeppelin/contracts/utils/Strings.sol\":1081:1087  buffer */\n      dup1\n        /* \"@openzeppelin/contracts/utils/Strings.sol\":1067:1088  return string(buffer) */\n      swap4\n      pop\n      pop\n      pop\n      pop\n        /* \"@openzeppelin/contracts/utils/Strings.sol\":392:1095  function toString(uint256 value) internal pure returns (string memory) {... */\n    tag_232:\n      swap2\n      swap1\n      pop\n      jump\t// out\n        /* \"@openzeppelin/contracts/token/ERC721/ERC721.sol\":7034:7159  function _exists(uint256 tokenId) internal view virtual returns (bool) {... */\n    tag_177:\n        /* \"@openzeppelin/contracts/token/ERC721/ERC721.sol\":7099:7103  bool */\n      0x00\n        /* \"@openzeppelin/contracts/token/ERC721/ERC721.sol\":7150:7151  0 */\n      dup1\n        /* \"@openzeppelin/contracts/token/ERC721/ERC721.sol\":7122:7152  _owners[tokenId] != address(0) */\n      0xffffffffffffffffffffffffffffffffffffffff\n      and\n        /* \"@openzeppelin/contracts/token/ERC721/ERC721.sol\":7122:7129  _owners */\n      0x02\n        /* \"@openzeppelin/contracts/token/ERC721/ERC721.sol\":7122:7138  _owners[tokenId] */\n      0x00\n        /* \"@openzeppelin/contracts/token/ERC721/ERC721.sol\":7130:7137  tokenId */\n      dup5\n        /* \"@openzeppelin/contracts/token/ERC721/ERC721.sol\":7122:7138  _owners[tokenId] */\n      dup2\n      mstore\n      0x20\n      add\n      swap1\n      dup2\n      mstore\n      0x20\n      add\n      0x00\n      keccak256\n      0x00\n      swap1\n      sload\n      swap1\n      0x0100\n      exp\n      swap1\n      div\n      0xffffffffffffffffffffffffffffffffffffffff\n      and\n        /* \"@openzeppelin/contracts/token/ERC721/ERC721.sol\":7122:7152  _owners[tokenId] != address(0) */\n      0xffffffffffffffffffffffffffffffffffffffff\n      and\n      eq\n      iszero\n        /* \"@openzeppelin/contracts/token/ERC721/ERC721.sol\":7115:7152  return _owners[tokenId] != address(0) */\n      swap1\n      pop\n        /* \"@openzeppelin/contracts/token/ERC721/ERC721.sol\":7034:7159  function _exists(uint256 tokenId) internal view virtual returns (bool) {... */\n      swap2\n      swap1\n      pop\n      jump\t// out\n        /* \"@openzeppelin/contracts/token/ERC721/ERC721.sol\":13729:13851  function _beforeTokenTransfer(... */\n    tag_198:\n      pop\n      pop\n      pop\n      jump\t// out\n        /* \"@openzeppelin/contracts/token/ERC721/ERC721.sol\":14223:14344  function _afterTokenTransfer(... */\n    tag_205:\n      pop\n      pop\n      pop\n      jump\t// out\n        /* \"@openzeppelin/contracts/token/ERC721/ERC721.sol\":12342:13173  function _checkOnERC721Received(... */\n    tag_227:\n        /* \"@openzeppelin/contracts/token/ERC721/ERC721.sol\":12491:12495  bool */\n      0x00\n        /* \"@openzeppelin/contracts/token/ERC721/ERC721.sol\":12511:12526  to.isContract() */\n      tag_258\n        /* \"@openzeppelin/contracts/token/ERC721/ERC721.sol\":12511:12513  to */\n      dup5\n        /* \"@openzeppelin/contracts/token/ERC721/ERC721.sol\":12511:12524  to.isContract */\n      0xffffffffffffffffffffffffffffffffffffffff\n      and\n      tag_259\n        /* \"@openzeppelin/contracts/token/ERC721/ERC721.sol\":12511:12526  to.isContract() */\n      jump\t// in\n    tag_258:\n        /* \"@openzeppelin/contracts/token/ERC721/ERC721.sol\":12507:13167  if (to.isContract()) {... */\n      iszero\n      tag_260\n      jumpi\n        /* \"@openzeppelin/contracts/token/ERC721/ERC721.sol\":12562:12564  to */\n      dup4\n        /* \"@openzeppelin/contracts/token/ERC721/ERC721.sol\":12546:12582  IERC721Receiver(to).onERC721Received */\n      0xffffffffffffffffffffffffffffffffffffffff\n      and\n      0x150b7a02\n        /* \"@openzeppelin/contracts/token/ERC721/ERC721.sol\":12583:12595  _msgSender() */\n      tag_261\n        /* \"@openzeppelin/contracts/token/ERC721/ERC721.sol\":12583:12593  _msgSender */\n      tag_109\n        /* \"@openzeppelin/contracts/token/ERC721/ERC721.sol\":12583:12595  _msgSender() */\n      jump\t// in\n    tag_261:\n        /* \"@openzeppelin/contracts/token/ERC721/ERC721.sol\":12597:12601  from */\n      dup8\n        /* \"@openzeppelin/contracts/token/ERC721/ERC721.sol\":12603:12610  tokenId */\n      dup7\n        /* \"@openzeppelin/contracts/token/ERC721/ERC721.sol\":12612:12616  data */\n      dup7\n        /* \"@openzeppelin/contracts/token/ERC721/ERC721.sol\":12546:12617  IERC721Receiver(to).onERC721Received(_msgSender(), from, tokenId, data) */\n      mload(0x40)\n      dup6\n      0xffffffff\n      and\n      0xe0\n      shl\n      dup2\n      mstore\n      0x04\n      add\n      tag_262\n      swap5\n      swap4\n      swap3\n      swap2\n      swap1\n      tag_263\n      jump\t// in\n    tag_262:\n      0x20\n      mload(0x40)\n      dup1\n      dup4\n      sub\n      dup2\n      0x00\n      dup8\n      dup1\n      extcodesize\n      iszero\n      dup1\n      iszero\n      tag_264\n      jumpi\n      0x00\n      dup1\n      revert\n    tag_264:\n      pop\n      gas\n      call\n      swap3\n      pop\n      pop\n      pop\n      dup1\n      iszero\n      tag_265\n      jumpi\n      pop\n      mload(0x40)\n      returndatasize\n      not(0x1f)\n      0x1f\n      dup3\n      add\n      and\n      dup3\n      add\n      dup1\n      0x40\n      mstore\n      pop\n      dup2\n      add\n      swap1\n      tag_266\n      swap2\n      swap1\n      tag_267\n      jump\t// in\n    tag_266:\n      0x01\n    tag_265:\n        /* \"@openzeppelin/contracts/token/ERC721/ERC721.sol\":12542:13115  try IERC721Receiver(to).onERC721Received(_msgSender(), from, tokenId, data) returns (bytes4 retval) {... */\n      tag_268\n      jumpi\n      returndatasize\n      dup1\n      0x00\n      dup2\n      eq\n      tag_273\n      jumpi\n      mload(0x40)\n      swap2\n      pop\n      and(add(returndatasize, 0x3f), not(0x1f))\n      dup3\n      add\n      0x40\n      mstore\n      returndatasize\n      dup3\n      mstore\n      returndatasize\n      0x00\n      0x20\n      dup5\n      add\n      returndatacopy\n      jump(tag_272)\n    tag_273:\n      0x60\n      swap2\n      pop\n    tag_272:\n      pop\n        /* \"@openzeppelin/contracts/token/ERC721/ERC721.sol\":12801:12802  0 */\n      0x00\n        /* \"@openzeppelin/contracts/token/ERC721/ERC721.sol\":12784:12790  reason */\n      dup2\n        /* \"@openzeppelin/contracts/token/ERC721/ERC721.sol\":12784:12797  reason.length */\n      mload\n        /* \"@openzeppelin/contracts/token/ERC721/ERC721.sol\":12784:12802  reason.length == 0 */\n      eq\n        /* \"@openzeppelin/contracts/token/ERC721/ERC721.sol\":12780:13101  if (reason.length == 0) {... */\n      iszero\n      tag_274\n      jumpi\n        /* \"@openzeppelin/contracts/token/ERC721/ERC721.sol\":12826:12886  revert(\"ERC721: transfer to non ERC721Receiver implementer\") */\n      mload(0x40)\n      0x08c379a000000000000000000000000000000000000000000000000000000000\n      dup2\n      mstore\n      0x04\n      add\n      tag_275\n      swap1\n      tag_230\n      jump\t// in\n    tag_275:\n      mload(0x40)\n      dup1\n      swap2\n      sub\n      swap1\n      revert\n        /* \"@openzeppelin/contracts/token/ERC721/ERC721.sol\":12780:13101  if (reason.length == 0) {... */\n    tag_274:\n        /* \"@openzeppelin/contracts/token/ERC721/ERC721.sol\":13053:13059  reason */\n      dup1\n        /* \"@openzeppelin/contracts/token/ERC721/ERC721.sol\":13047:13060  mload(reason) */\n      mload\n        /* \"@openzeppelin/contracts/token/ERC721/ERC721.sol\":13038:13044  reason */\n      dup2\n        /* \"@openzeppelin/contracts/token/ERC721/ERC721.sol\":13034:13036  32 */\n      0x20\n        /* \"@openzeppelin/contracts/token/ERC721/ERC721.sol\":13030:13045  add(32, reason) */\n      add\n        /* \"@openzeppelin/contracts/token/ERC721/ERC721.sol\":13023:13061  revert(add(32, reason), mload(reason)) */\n      revert\n        /* \"@openzeppelin/contracts/token/ERC721/ERC721.sol\":12542:13115  try IERC721Receiver(to).onERC721Received(_msgSender(), from, tokenId, data) returns (bytes4 retval) {... */\n    tag_268:\n        /* \"@openzeppelin/contracts/token/ERC721/ERC721.sol\":12677:12718  IERC721Receiver.onERC721Received.selector */\n      shl(0xe0, 0x150b7a02)\n        /* \"@openzeppelin/contracts/token/ERC721/ERC721.sol\":12667:12718  retval == IERC721Receiver.onERC721Received.selector */\n      not(0xffffffffffffffffffffffffffffffffffffffffffffffffffffffff)\n      and\n        /* \"@openzeppelin/contracts/token/ERC721/ERC721.sol\":12667:12673  retval */\n      dup2\n        /* \"@openzeppelin/contracts/token/ERC721/ERC721.sol\":12667:12718  retval == IERC721Receiver.onERC721Received.selector */\n      not(0xffffffffffffffffffffffffffffffffffffffffffffffffffffffff)\n      and\n      eq\n        /* \"@openzeppelin/contracts/token/ERC721/ERC721.sol\":12660:12718  return retval == IERC721Receiver.onERC721Received.selector */\n      swap2\n      pop\n      pop\n      jump(tag_257)\n        /* \"@openzeppelin/contracts/token/ERC721/ERC721.sol\":12507:13167  if (to.isContract()) {... */\n    tag_260:\n        /* \"@openzeppelin/contracts/token/ERC721/ERC721.sol\":13152:13156  true */\n      0x01\n        /* \"@openzeppelin/contracts/token/ERC721/ERC721.sol\":13145:13156  return true */\n      swap1\n      pop\n        /* \"@openzeppelin/contracts/token/ERC721/ERC721.sol\":12342:13173  function _checkOnERC721Received(... */\n    tag_257:\n      swap5\n      swap4\n      pop\n      pop\n      pop\n      pop\n      jump\t// out\n        /* \"@openzeppelin/contracts/utils/Address.sol\":1175:1495  function isContract(address account) internal view returns (bool) {... */\n    tag_259:\n        /* \"@openzeppelin/contracts/utils/Address.sol\":1235:1239  bool */\n      0x00\n        /* \"@openzeppelin/contracts/utils/Address.sol\":1487:1488  0 */\n      dup1\n        /* \"@openzeppelin/contracts/utils/Address.sol\":1465:1472  account */\n      dup3\n        /* \"@openzeppelin/contracts/utils/Address.sol\":1465:1484  account.code.length */\n      0xffffffffffffffffffffffffffffffffffffffff\n      and\n      extcodesize\n        /* \"@openzeppelin/contracts/utils/Address.sol\":1465:1488  account.code.length > 0 */\n      gt\n        /* \"@openzeppelin/contracts/utils/Address.sol\":1458:1488  return account.code.length > 0 */\n      swap1\n      pop\n        /* \"@openzeppelin/contracts/utils/Address.sol\":1175:1495  function isContract(address account) internal view returns (bool) {... */\n      swap2\n      swap1\n      pop\n      jump\t// out\n        /* \"#utility.yul\":40:840   */\n    tag_281:\n        /* \"#utility.yul\":162:167   */\n      0x00\n        /* \"#utility.yul\":187:294   */\n      tag_283\n        /* \"#utility.yul\":203:293   */\n      tag_284\n        /* \"#utility.yul\":286:292   */\n      dup5\n        /* \"#utility.yul\":203:293   */\n      tag_285\n      jump\t// in\n    tag_284:\n        /* \"#utility.yul\":187:294   */\n      tag_286\n      jump\t// in\n    tag_283:\n        /* \"#utility.yul\":178:294   */\n      swap1\n      pop\n        /* \"#utility.yul\":314:319   */\n      dup1\n        /* \"#utility.yul\":343:349   */\n      dup4\n        /* \"#utility.yul\":336:341   */\n      dup3\n        /* \"#utility.yul\":329:350   */\n      mstore\n        /* \"#utility.yul\":377:381   */\n      0x20\n        /* \"#utility.yul\":370:375   */\n      dup3\n        /* \"#utility.yul\":366:382   */\n      add\n        /* \"#utility.yul\":359:382   */\n      swap1\n      pop\n        /* \"#utility.yul\":403:409   */\n      dup3\n        /* \"#utility.yul\":453:456   */\n      dup6\n        /* \"#utility.yul\":445:449   */\n      0x40\n        /* \"#utility.yul\":437:443   */\n      dup7\n        /* \"#utility.yul\":433:450   */\n      mul\n        /* \"#utility.yul\":428:431   */\n      dup3\n        /* \"#utility.yul\":424:451   */\n      add\n        /* \"#utility.yul\":421:457   */\n      gt\n        /* \"#utility.yul\":418:561   */\n      iszero\n      tag_287\n      jumpi\n        /* \"#utility.yul\":472:551   */\n      tag_288\n      tag_289\n      jump\t// in\n    tag_288:\n        /* \"#utility.yul\":418:561   */\n    tag_287:\n        /* \"#utility.yul\":585:586   */\n      0x00\n        /* \"#utility.yul\":570:834   */\n    tag_290:\n        /* \"#utility.yul\":595:601   */\n      dup6\n        /* \"#utility.yul\":592:593   */\n      dup2\n        /* \"#utility.yul\":589:602   */\n      lt\n        /* \"#utility.yul\":570:834   */\n      iszero\n      tag_292\n      jumpi\n        /* \"#utility.yul\":663:666   */\n      dup2\n        /* \"#utility.yul\":692:755   */\n      tag_293\n        /* \"#utility.yul\":751:754   */\n      dup9\n        /* \"#utility.yul\":739:749   */\n      dup3\n        /* \"#utility.yul\":692:755   */\n      tag_294\n      jump\t// in\n    tag_293:\n        /* \"#utility.yul\":687:690   */\n      dup5\n        /* \"#utility.yul\":680:756   */\n      mstore\n        /* \"#utility.yul\":785:789   */\n      0x20\n        /* \"#utility.yul\":780:783   */\n      dup5\n        /* \"#utility.yul\":776:790   */\n      add\n        /* \"#utility.yul\":769:790   */\n      swap4\n      pop\n        /* \"#utility.yul\":819:823   */\n      0x40\n        /* \"#utility.yul\":814:817   */\n      dup4\n        /* \"#utility.yul\":810:824   */\n      add\n        /* \"#utility.yul\":803:824   */\n      swap3\n      pop\n        /* \"#utility.yul\":630:834   */\n      pop\n        /* \"#utility.yul\":617:618   */\n      0x01\n        /* \"#utility.yul\":614:615   */\n      dup2\n        /* \"#utility.yul\":610:619   */\n      add\n        /* \"#utility.yul\":605:619   */\n      swap1\n      pop\n        /* \"#utility.yul\":570:834   */\n      jump(tag_290)\n    tag_292:\n        /* \"#utility.yul\":574:588   */\n      pop\n        /* \"#utility.yul\":168:840   */\n      pop\n      pop\n        /* \"#utility.yul\":40:840   */\n      swap4\n      swap3\n      pop\n      pop\n      pop\n      jump\t// out\n        /* \"#utility.yul\":846:1256   */\n    tag_295:\n        /* \"#utility.yul\":923:928   */\n      0x00\n        /* \"#utility.yul\":948:1013   */\n      tag_297\n        /* \"#utility.yul\":964:1012   */\n      tag_298\n        /* \"#utility.yul\":1005:1011   */\n      dup5\n        /* \"#utility.yul\":964:1012   */\n      tag_299\n      jump\t// in\n    tag_298:\n        /* \"#utility.yul\":948:1013   */\n      tag_286\n      jump\t// in\n    tag_297:\n        /* \"#utility.yul\":939:1013   */\n      swap1\n      pop\n        /* \"#utility.yul\":1036:1042   */\n      dup3\n        /* \"#utility.yul\":1029:1034   */\n      dup2\n        /* \"#utility.yul\":1022:1043   */\n      mstore\n        /* \"#utility.yul\":1074:1078   */\n      0x20\n        /* \"#utility.yul\":1067:1072   */\n      dup2\n        /* \"#utility.yul\":1063:1079   */\n      add\n        /* \"#utility.yul\":1112:1115   */\n      dup5\n        /* \"#utility.yul\":1103:1109   */\n      dup5\n        /* \"#utility.yul\":1098:1101   */\n      dup5\n        /* \"#utility.yul\":1094:1110   */\n      add\n        /* \"#utility.yul\":1091:1116   */\n      gt\n        /* \"#utility.yul\":1088:1200   */\n      iszero\n      tag_300\n      jumpi\n        /* \"#utility.yul\":1119:1198   */\n      tag_301\n      tag_302\n      jump\t// in\n    tag_301:\n        /* \"#utility.yul\":1088:1200   */\n    tag_300:\n        /* \"#utility.yul\":1209:1250   */\n      tag_303\n        /* \"#utility.yul\":1243:1249   */\n      dup5\n        /* \"#utility.yul\":1238:1241   */\n      dup3\n        /* \"#utility.yul\":1233:1236   */\n      dup6\n        /* \"#utility.yul\":1209:1250   */\n      tag_304\n      jump\t// in\n    tag_303:\n        /* \"#utility.yul\":929:1256   */\n      pop\n        /* \"#utility.yul\":846:1256   */\n      swap4\n      swap3\n      pop\n      pop\n      pop\n      jump\t// out\n        /* \"#utility.yul\":1262:1401   */\n    tag_305:\n        /* \"#utility.yul\":1308:1313   */\n      0x00\n        /* \"#utility.yul\":1346:1352   */\n      dup2\n        /* \"#utility.yul\":1333:1353   */\n      calldataload\n        /* \"#utility.yul\":1324:1353   */\n      swap1\n      pop\n        /* \"#utility.yul\":1362:1395   */\n      tag_307\n        /* \"#utility.yul\":1389:1394   */\n      dup2\n        /* \"#utility.yul\":1362:1395   */\n      tag_308\n      jump\t// in\n    tag_307:\n        /* \"#utility.yul\":1262:1401   */\n      swap3\n      swap2\n      pop\n      pop\n      jump\t// out\n        /* \"#utility.yul\":1440:1862   */\n    tag_309:\n        /* \"#utility.yul\":1537:1542   */\n      0x00\n        /* \"#utility.yul\":1586:1589   */\n      dup3\n        /* \"#utility.yul\":1579:1583   */\n      0x1f\n        /* \"#utility.yul\":1571:1577   */\n      dup4\n        /* \"#utility.yul\":1567:1584   */\n      add\n        /* \"#utility.yul\":1563:1590   */\n      slt\n        /* \"#utility.yul\":1553:1675   */\n      tag_311\n      jumpi\n        /* \"#utility.yul\":1594:1673   */\n      tag_312\n      tag_313\n      jump\t// in\n    tag_312:\n        /* \"#utility.yul\":1553:1675   */\n    tag_311:\n        /* \"#utility.yul\":1711:1717   */\n      dup2\n        /* \"#utility.yul\":1698:1718   */\n      calldataload\n        /* \"#utility.yul\":1736:1856   */\n      tag_314\n        /* \"#utility.yul\":1852:1855   */\n      dup5\n        /* \"#utility.yul\":1844:1850   */\n      dup3\n        /* \"#utility.yul\":1837:1841   */\n      0x20\n        /* \"#utility.yul\":1829:1835   */\n      dup7\n        /* \"#utility.yul\":1825:1842   */\n      add\n        /* \"#utility.yul\":1736:1856   */\n      tag_281\n      jump\t// in\n    tag_314:\n        /* \"#utility.yul\":1727:1856   */\n      swap2\n      pop\n        /* \"#utility.yul\":1543:1862   */\n      pop\n        /* \"#utility.yul\":1440:1862   */\n      swap3\n      swap2\n      pop\n      pop\n      jump\t// out\n        /* \"#utility.yul\":1868:2001   */\n    tag_315:\n        /* \"#utility.yul\":1911:1916   */\n      0x00\n        /* \"#utility.yul\":1949:1955   */\n      dup2\n        /* \"#utility.yul\":1936:1956   */\n      calldataload\n        /* \"#utility.yul\":1927:1956   */\n      swap1\n      pop\n        /* \"#utility.yul\":1965:1995   */\n      tag_317\n        /* \"#utility.yul\":1989:1994   */\n      dup2\n        /* \"#utility.yul\":1965:1995   */\n      tag_318\n      jump\t// in\n    tag_317:\n        /* \"#utility.yul\":1868:2001   */\n      swap3\n      swap2\n      pop\n      pop\n      jump\t// out\n        /* \"#utility.yul\":2007:2144   */\n    tag_319:\n        /* \"#utility.yul\":2052:2057   */\n      0x00\n        /* \"#utility.yul\":2090:2096   */\n      dup2\n        /* \"#utility.yul\":2077:2097   */\n      calldataload\n        /* \"#utility.yul\":2068:2097   */\n      swap1\n      pop\n        /* \"#utility.yul\":2106:2138   */\n      tag_321\n        /* \"#utility.yul\":2132:2137   */\n      dup2\n        /* \"#utility.yul\":2106:2138   */\n      tag_322\n      jump\t// in\n    tag_321:\n        /* \"#utility.yul\":2007:2144   */\n      swap3\n      swap2\n      pop\n      pop\n      jump\t// out\n        /* \"#utility.yul\":2150:2291   */\n    tag_323:\n        /* \"#utility.yul\":2206:2211   */\n      0x00\n        /* \"#utility.yul\":2237:2243   */\n      dup2\n        /* \"#utility.yul\":2231:2244   */\n      mload\n        /* \"#utility.yul\":2222:2244   */\n      swap1\n      pop\n        /* \"#utility.yul\":2253:2285   */\n      tag_325\n        /* \"#utility.yul\":2279:2284   */\n      dup2\n        /* \"#utility.yul\":2253:2285   */\n      tag_322\n      jump\t// in\n    tag_325:\n        /* \"#utility.yul\":2150:2291   */\n      swap3\n      swap2\n      pop\n      pop\n      jump\t// out\n        /* \"#utility.yul\":2310:2648   */\n    tag_326:\n        /* \"#utility.yul\":2365:2370   */\n      0x00\n        /* \"#utility.yul\":2414:2417   */\n      dup3\n        /* \"#utility.yul\":2407:2411   */\n      0x1f\n        /* \"#utility.yul\":2399:2405   */\n      dup4\n        /* \"#utility.yul\":2395:2412   */\n      add\n        /* \"#utility.yul\":2391:2418   */\n      slt\n        /* \"#utility.yul\":2381:2503   */\n      tag_328\n      jumpi\n        /* \"#utility.yul\":2422:2501   */\n      tag_329\n      tag_313\n      jump\t// in\n    tag_329:\n        /* \"#utility.yul\":2381:2503   */\n    tag_328:\n        /* \"#utility.yul\":2539:2545   */\n      dup2\n        /* \"#utility.yul\":2526:2546   */\n      calldataload\n        /* \"#utility.yul\":2564:2642   */\n      tag_330\n        /* \"#utility.yul\":2638:2641   */\n      dup5\n        /* \"#utility.yul\":2630:2636   */\n      dup3\n        /* \"#utility.yul\":2623:2627   */\n      0x20\n        /* \"#utility.yul\":2615:2621   */\n      dup7\n        /* \"#utility.yul\":2611:2628   */\n      add\n        /* \"#utility.yul\":2564:2642   */\n      tag_295\n      jump\t// in\n    tag_330:\n        /* \"#utility.yul\":2555:2642   */\n      swap2\n      pop\n        /* \"#utility.yul\":2371:2648   */\n      pop\n        /* \"#utility.yul\":2310:2648   */\n      swap3\n      swap2\n      pop\n      pop\n      jump\t// out\n        /* \"#utility.yul\":2685:3272   */\n    tag_294:\n        /* \"#utility.yul\":2760:2765   */\n      0x00\n        /* \"#utility.yul\":2804:2808   */\n      0x40\n        /* \"#utility.yul\":2792:2801   */\n      dup3\n        /* \"#utility.yul\":2787:2790   */\n      dup5\n        /* \"#utility.yul\":2783:2802   */\n      sub\n        /* \"#utility.yul\":2779:2809   */\n      slt\n        /* \"#utility.yul\":2776:2893   */\n      iszero\n      tag_332\n      jumpi\n        /* \"#utility.yul\":2812:2891   */\n      tag_333\n      tag_334\n      jump\t// in\n    tag_333:\n        /* \"#utility.yul\":2776:2893   */\n    tag_332:\n        /* \"#utility.yul\":2911:2932   */\n      tag_335\n        /* \"#utility.yul\":2927:2931   */\n      0x40\n        /* \"#utility.yul\":2911:2932   */\n      tag_286\n      jump\t// in\n    tag_335:\n        /* \"#utility.yul\":2902:2932   */\n      swap1\n      pop\n        /* \"#utility.yul\":2996:2997   */\n      0x00\n        /* \"#utility.yul\":3036:3085   */\n      tag_336\n        /* \"#utility.yul\":3081:3084   */\n      dup5\n        /* \"#utility.yul\":3072:3078   */\n      dup3\n        /* \"#utility.yul\":3061:3070   */\n      dup6\n        /* \"#utility.yul\":3057:3079   */\n      add\n        /* \"#utility.yul\":3036:3085   */\n      tag_305\n      jump\t// in\n    tag_336:\n        /* \"#utility.yul\":3029:3033   */\n      0x00\n        /* \"#utility.yul\":3022:3027   */\n      dup4\n        /* \"#utility.yul\":3018:3034   */\n      add\n        /* \"#utility.yul\":3011:3086   */\n      mstore\n        /* \"#utility.yul\":2942:3097   */\n      pop\n        /* \"#utility.yul\":3163:3165   */\n      0x20\n        /* \"#utility.yul\":3204:3253   */\n      tag_337\n        /* \"#utility.yul\":3249:3252   */\n      dup5\n        /* \"#utility.yul\":3240:3246   */\n      dup3\n        /* \"#utility.yul\":3229:3238   */\n      dup6\n        /* \"#utility.yul\":3225:3247   */\n      add\n        /* \"#utility.yul\":3204:3253   */\n      tag_338\n      jump\t// in\n    tag_337:\n        /* \"#utility.yul\":3197:3201   */\n      0x20\n        /* \"#utility.yul\":3190:3195   */\n      dup4\n        /* \"#utility.yul\":3186:3202   */\n      add\n        /* \"#utility.yul\":3179:3254   */\n      mstore\n        /* \"#utility.yul\":3107:3265   */\n      pop\n        /* \"#utility.yul\":2685:3272   */\n      swap3\n      swap2\n      pop\n      pop\n      jump\t// out\n        /* \"#utility.yul\":3278:3417   */\n    tag_338:\n        /* \"#utility.yul\":3324:3329   */\n      0x00\n        /* \"#utility.yul\":3362:3368   */\n      dup2\n        /* \"#utility.yul\":3349:3369   */\n      calldataload\n        /* \"#utility.yul\":3340:3369   */\n      swap1\n      pop\n        /* \"#utility.yul\":3378:3411   */\n      tag_340\n        /* \"#utility.yul\":3405:3410   */\n      dup2\n        /* \"#utility.yul\":3378:3411   */\n      tag_341\n      jump\t// in\n    tag_340:\n        /* \"#utility.yul\":3278:3417   */\n      swap3\n      swap2\n      pop\n      pop\n      jump\t// out\n        /* \"#utility.yul\":3423:3752   */\n    tag_60:\n        /* \"#utility.yul\":3482:3488   */\n      0x00\n        /* \"#utility.yul\":3531:3533   */\n      0x20\n        /* \"#utility.yul\":3519:3528   */\n      dup3\n        /* \"#utility.yul\":3510:3517   */\n      dup5\n        /* \"#utility.yul\":3506:3529   */\n      sub\n        /* \"#utility.yul\":3502:3534   */\n      slt\n        /* \"#utility.yul\":3499:3618   */\n      iszero\n      tag_343\n      jumpi\n        /* \"#utility.yul\":3537:3616   */\n      tag_344\n      tag_345\n      jump\t// in\n    tag_344:\n        /* \"#utility.yul\":3499:3618   */\n    tag_343:\n        /* \"#utility.yul\":3657:3658   */\n      0x00\n        /* \"#utility.yul\":3682:3735   */\n      tag_346\n        /* \"#utility.yul\":3727:3734   */\n      dup5\n        /* \"#utility.yul\":3718:3724   */\n      dup3\n        /* \"#utility.yul\":3707:3716   */\n      dup6\n        /* \"#utility.yul\":3703:3725   */\n      add\n        /* \"#utility.yul\":3682:3735   */\n      tag_305\n      jump\t// in\n    tag_346:\n        /* \"#utility.yul\":3672:3735   */\n      swap2\n      pop\n        /* \"#utility.yul\":3628:3745   */\n      pop\n        /* \"#utility.yul\":3423:3752   */\n      swap3\n      swap2\n      pop\n      pop\n      jump\t// out\n        /* \"#utility.yul\":3758:4232   */\n    tag_85:\n        /* \"#utility.yul\":3826:3832   */\n      0x00\n        /* \"#utility.yul\":3834:3840   */\n      dup1\n        /* \"#utility.yul\":3883:3885   */\n      0x40\n        /* \"#utility.yul\":3871:3880   */\n      dup4\n        /* \"#utility.yul\":3862:3869   */\n      dup6\n        /* \"#utility.yul\":3858:3881   */\n      sub\n        /* \"#utility.yul\":3854:3886   */\n      slt\n        /* \"#utility.yul\":3851:3970   */\n      iszero\n      tag_348\n      jumpi\n        /* \"#utility.yul\":3889:3968   */\n      tag_349\n      tag_345\n      jump\t// in\n    tag_349:\n        /* \"#utility.yul\":3851:3970   */\n    tag_348:\n        /* \"#utility.yul\":4009:4010   */\n      0x00\n        /* \"#utility.yul\":4034:4087   */\n      tag_350\n        /* \"#utility.yul\":4079:4086   */\n      dup6\n        /* \"#utility.yul\":4070:4076   */\n      dup3\n        /* \"#utility.yul\":4059:4068   */\n      dup7\n        /* \"#utility.yul\":4055:4077   */\n      add\n        /* \"#utility.yul\":4034:4087   */\n      tag_305\n      jump\t// in\n    tag_350:\n        /* \"#utility.yul\":4024:4087   */\n      swap3\n      pop\n        /* \"#utility.yul\":3980:4097   */\n      pop\n        /* \"#utility.yul\":4136:4138   */\n      0x20\n        /* \"#utility.yul\":4162:4215   */\n      tag_351\n        /* \"#utility.yul\":4207:4214   */\n      dup6\n        /* \"#utility.yul\":4198:4204   */\n      dup3\n        /* \"#utility.yul\":4187:4196   */\n      dup7\n        /* \"#utility.yul\":4183:4205   */\n      add\n        /* \"#utility.yul\":4162:4215   */\n      tag_305\n      jump\t// in\n    tag_351:\n        /* \"#utility.yul\":4152:4215   */\n      swap2\n      pop\n        /* \"#utility.yul\":4107:4225   */\n      pop\n        /* \"#utility.yul\":3758:4232   */\n      swap3\n      pop\n      swap3\n      swap1\n      pop\n      jump\t// out\n        /* \"#utility.yul\":4238:4857   */\n    tag_43:\n        /* \"#utility.yul\":4315:4321   */\n      0x00\n        /* \"#utility.yul\":4323:4329   */\n      dup1\n        /* \"#utility.yul\":4331:4337   */\n      0x00\n        /* \"#utility.yul\":4380:4382   */\n      0x60\n        /* \"#utility.yul\":4368:4377   */\n      dup5\n        /* \"#utility.yul\":4359:4366   */\n      dup7\n        /* \"#utility.yul\":4355:4378   */\n      sub\n        /* \"#utility.yul\":4351:4383   */\n      slt\n        /* \"#utility.yul\":4348:4467   */\n      iszero\n      tag_353\n      jumpi\n        /* \"#utility.yul\":4386:4465   */\n      tag_354\n      tag_345\n      jump\t// in\n    tag_354:\n        /* \"#utility.yul\":4348:4467   */\n    tag_353:\n        /* \"#utility.yul\":4506:4507   */\n      0x00\n        /* \"#utility.yul\":4531:4584   */\n      tag_355\n        /* \"#utility.yul\":4576:4583   */\n      dup7\n        /* \"#utility.yul\":4567:4573   */\n      dup3\n        /* \"#utility.yul\":4556:4565   */\n      dup8\n        /* \"#utility.yul\":4552:4574   */\n      add\n        /* \"#utility.yul\":4531:4584   */\n      tag_305\n      jump\t// in\n    tag_355:\n        /* \"#utility.yul\":4521:4584   */\n      swap4\n      pop\n        /* \"#utility.yul\":4477:4594   */\n      pop\n        /* \"#utility.yul\":4633:4635   */\n      0x20\n        /* \"#utility.yul\":4659:4712   */\n      tag_356\n        /* \"#utility.yul\":4704:4711   */\n      dup7\n        /* \"#utility.yul\":4695:4701   */\n      dup3\n        /* \"#utility.yul\":4684:4693   */\n      dup8\n        /* \"#utility.yul\":4680:4702   */\n      add\n        /* \"#utility.yul\":4659:4712   */\n      tag_305\n      jump\t// in\n    tag_356:\n        /* \"#utility.yul\":4649:4712   */\n      swap3\n      pop\n        /* \"#utility.yul\":4604:4722   */\n      pop\n        /* \"#utility.yul\":4761:4763   */\n      0x40\n        /* \"#utility.yul\":4787:4840   */\n      tag_357\n        /* \"#utility.yul\":4832:4839   */\n      dup7\n        /* \"#utility.yul\":4823:4829   */\n      dup3\n        /* \"#utility.yul\":4812:4821   */\n      dup8\n        /* \"#utility.yul\":4808:4830   */\n      add\n        /* \"#utility.yul\":4787:4840   */\n      tag_338\n      jump\t// in\n    tag_357:\n        /* \"#utility.yul\":4777:4840   */\n      swap2\n      pop\n        /* \"#utility.yul\":4732:4850   */\n      pop\n        /* \"#utility.yul\":4238:4857   */\n      swap3\n      pop\n      swap3\n      pop\n      swap3\n      jump\t// out\n        /* \"#utility.yul\":4863:5806   */\n    tag_77:\n        /* \"#utility.yul\":4958:4964   */\n      0x00\n        /* \"#utility.yul\":4966:4972   */\n      dup1\n        /* \"#utility.yul\":4974:4980   */\n      0x00\n        /* \"#utility.yul\":4982:4988   */\n      dup1\n        /* \"#utility.yul\":5031:5034   */\n      0x80\n        /* \"#utility.yul\":5019:5028   */\n      dup6\n        /* \"#utility.yul\":5010:5017   */\n      dup8\n        /* \"#utility.yul\":5006:5029   */\n      sub\n        /* \"#utility.yul\":5002:5035   */\n      slt\n        /* \"#utility.yul\":4999:5119   */\n      iszero\n      tag_359\n      jumpi\n        /* \"#utility.yul\":5038:5117   */\n      tag_360\n      tag_345\n      jump\t// in\n    tag_360:\n        /* \"#utility.yul\":4999:5119   */\n    tag_359:\n        /* \"#utility.yul\":5158:5159   */\n      0x00\n        /* \"#utility.yul\":5183:5236   */\n      tag_361\n        /* \"#utility.yul\":5228:5235   */\n      dup8\n        /* \"#utility.yul\":5219:5225   */\n      dup3\n        /* \"#utility.yul\":5208:5217   */\n      dup9\n        /* \"#utility.yul\":5204:5226   */\n      add\n        /* \"#utility.yul\":5183:5236   */\n      tag_305\n      jump\t// in\n    tag_361:\n        /* \"#utility.yul\":5173:5236   */\n      swap5\n      pop\n        /* \"#utility.yul\":5129:5246   */\n      pop\n        /* \"#utility.yul\":5285:5287   */\n      0x20\n        /* \"#utility.yul\":5311:5364   */\n      tag_362\n        /* \"#utility.yul\":5356:5363   */\n      dup8\n        /* \"#utility.yul\":5347:5353   */\n      dup3\n        /* \"#utility.yul\":5336:5345   */\n      dup9\n        /* \"#utility.yul\":5332:5354   */\n      add\n        /* \"#utility.yul\":5311:5364   */\n      tag_305\n      jump\t// in\n    tag_362:\n        /* \"#utility.yul\":5301:5364   */\n      swap4\n      pop\n        /* \"#utility.yul\":5256:5374   */\n      pop\n        /* \"#utility.yul\":5413:5415   */\n      0x40\n        /* \"#utility.yul\":5439:5492   */\n      tag_363\n        /* \"#utility.yul\":5484:5491   */\n      dup8\n        /* \"#utility.yul\":5475:5481   */\n      dup3\n        /* \"#utility.yul\":5464:5473   */\n      dup9\n        /* \"#utility.yul\":5460:5482   */\n      add\n        /* \"#utility.yul\":5439:5492   */\n      tag_338\n      jump\t// in\n    tag_363:\n        /* \"#utility.yul\":5429:5492   */\n      swap3\n      pop\n        /* \"#utility.yul\":5384:5502   */\n      pop\n        /* \"#utility.yul\":5569:5571   */\n      0x60\n        /* \"#utility.yul\":5558:5567   */\n      dup6\n        /* \"#utility.yul\":5554:5572   */\n      add\n        /* \"#utility.yul\":5541:5573   */\n      calldataload\n        /* \"#utility.yul\":5600:5618   */\n      0xffffffffffffffff\n        /* \"#utility.yul\":5592:5598   */\n      dup2\n        /* \"#utility.yul\":5589:5619   */\n      gt\n        /* \"#utility.yul\":5586:5703   */\n      iszero\n      tag_364\n      jumpi\n        /* \"#utility.yul\":5622:5701   */\n      tag_365\n      tag_366\n      jump\t// in\n    tag_365:\n        /* \"#utility.yul\":5586:5703   */\n    tag_364:\n        /* \"#utility.yul\":5727:5789   */\n      tag_367\n        /* \"#utility.yul\":5781:5788   */\n      dup8\n        /* \"#utility.yul\":5772:5778   */\n      dup3\n        /* \"#utility.yul\":5761:5770   */\n      dup9\n        /* \"#utility.yul\":5757:5779   */\n      add\n        /* \"#utility.yul\":5727:5789   */\n      tag_326\n      jump\t// in\n    tag_367:\n        /* \"#utility.yul\":5717:5789   */\n      swap2\n      pop\n        /* \"#utility.yul\":5512:5799   */\n      pop\n        /* \"#utility.yul\":4863:5806   */\n      swap3\n      swap6\n      swap2\n      swap5\n      pop\n      swap3\n      pop\n      jump\t// out\n        /* \"#utility.yul\":5812:6280   */\n    tag_68:\n        /* \"#utility.yul\":5877:5883   */\n      0x00\n        /* \"#utility.yul\":5885:5891   */\n      dup1\n        /* \"#utility.yul\":5934:5936   */\n      0x40\n        /* \"#utility.yul\":5922:5931   */\n      dup4\n        /* \"#utility.yul\":5913:5920   */\n      dup6\n        /* \"#utility.yul\":5909:5932   */\n      sub\n        /* \"#utility.yul\":5905:5937   */\n      slt\n        /* \"#utility.yul\":5902:6021   */\n      iszero\n      tag_369\n      jumpi\n        /* \"#utility.yul\":5940:6019   */\n      tag_370\n      tag_345\n      jump\t// in\n    tag_370:\n        /* \"#utility.yul\":5902:6021   */\n    tag_369:\n        /* \"#utility.yul\":6060:6061   */\n      0x00\n        /* \"#utility.yul\":6085:6138   */\n      tag_371\n        /* \"#utility.yul\":6130:6137   */\n      dup6\n        /* \"#utility.yul\":6121:6127   */\n      dup3\n        /* \"#utility.yul\":6110:6119   */\n      dup7\n        /* \"#utility.yul\":6106:6128   */\n      add\n        /* \"#utility.yul\":6085:6138   */\n      tag_305\n      jump\t// in\n    tag_371:\n        /* \"#utility.yul\":6075:6138   */\n      swap3\n      pop\n        /* \"#utility.yul\":6031:6148   */\n      pop\n        /* \"#utility.yul\":6187:6189   */\n      0x20\n        /* \"#utility.yul\":6213:6263   */\n      tag_372\n        /* \"#utility.yul\":6255:6262   */\n      dup6\n        /* \"#utility.yul\":6246:6252   */\n      dup3\n        /* \"#utility.yul\":6235:6244   */\n      dup7\n        /* \"#utility.yul\":6231:6253   */\n      add\n        /* \"#utility.yul\":6213:6263   */\n      tag_315\n      jump\t// in\n    tag_372:\n        /* \"#utility.yul\":6203:6263   */\n      swap2\n      pop\n        /* \"#utility.yul\":6158:6273   */\n      pop\n        /* \"#utility.yul\":5812:6280   */\n      swap3\n      pop\n      swap3\n      swap1\n      pop\n      jump\t// out\n        /* \"#utility.yul\":6286:6760   */\n    tag_39:\n        /* \"#utility.yul\":6354:6360   */\n      0x00\n        /* \"#utility.yul\":6362:6368   */\n      dup1\n        /* \"#utility.yul\":6411:6413   */\n      0x40\n        /* \"#utility.yul\":6399:6408   */\n      dup4\n        /* \"#utility.yul\":6390:6397   */\n      dup6\n        /* \"#utility.yul\":6386:6409   */\n      sub\n        /* \"#utility.yul\":6382:6414   */\n      slt\n        /* \"#utility.yul\":6379:6498   */\n      iszero\n      tag_374\n      jumpi\n        /* \"#utility.yul\":6417:6496   */\n      tag_375\n      tag_345\n      jump\t// in\n    tag_375:\n        /* \"#utility.yul\":6379:6498   */\n    tag_374:\n        /* \"#utility.yul\":6537:6538   */\n      0x00\n        /* \"#utility.yul\":6562:6615   */\n      tag_376\n        /* \"#utility.yul\":6607:6614   */\n      dup6\n        /* \"#utility.yul\":6598:6604   */\n      dup3\n        /* \"#utility.yul\":6587:6596   */\n      dup7\n        /* \"#utility.yul\":6583:6605   */\n      add\n        /* \"#utility.yul\":6562:6615   */\n      tag_305\n      jump\t// in\n    tag_376:\n        /* \"#utility.yul\":6552:6615   */\n      swap3\n      pop\n        /* \"#utility.yul\":6508:6625   */\n      pop\n        /* \"#utility.yul\":6664:6666   */\n      0x20\n        /* \"#utility.yul\":6690:6743   */\n      tag_377\n        /* \"#utility.yul\":6735:6742   */\n      dup6\n        /* \"#utility.yul\":6726:6732   */\n      dup3\n        /* \"#utility.yul\":6715:6724   */\n      dup7\n        /* \"#utility.yul\":6711:6733   */\n      add\n        /* \"#utility.yul\":6690:6743   */\n      tag_338\n      jump\t// in\n    tag_377:\n        /* \"#utility.yul\":6680:6743   */\n      swap2\n      pop\n        /* \"#utility.yul\":6635:6753   */\n      pop\n        /* \"#utility.yul\":6286:6760   */\n      swap3\n      pop\n      swap3\n      swap1\n      pop\n      jump\t// out\n        /* \"#utility.yul\":6766:7357   */\n    tag_72:\n        /* \"#utility.yul\":6876:6882   */\n      0x00\n        /* \"#utility.yul\":6925:6927   */\n      0x20\n        /* \"#utility.yul\":6913:6922   */\n      dup3\n        /* \"#utility.yul\":6904:6911   */\n      dup5\n        /* \"#utility.yul\":6900:6923   */\n      sub\n        /* \"#utility.yul\":6896:6928   */\n      slt\n        /* \"#utility.yul\":6893:7012   */\n      iszero\n      tag_379\n      jumpi\n        /* \"#utility.yul\":6931:7010   */\n      tag_380\n      tag_345\n      jump\t// in\n    tag_380:\n        /* \"#utility.yul\":6893:7012   */\n    tag_379:\n        /* \"#utility.yul\":7079:7080   */\n      0x00\n        /* \"#utility.yul\":7068:7077   */\n      dup3\n        /* \"#utility.yul\":7064:7081   */\n      add\n        /* \"#utility.yul\":7051:7082   */\n      calldataload\n        /* \"#utility.yul\":7109:7127   */\n      0xffffffffffffffff\n        /* \"#utility.yul\":7101:7107   */\n      dup2\n        /* \"#utility.yul\":7098:7128   */\n      gt\n        /* \"#utility.yul\":7095:7212   */\n      iszero\n      tag_381\n      jumpi\n        /* \"#utility.yul\":7131:7210   */\n      tag_382\n      tag_366\n      jump\t// in\n    tag_382:\n        /* \"#utility.yul\":7095:7212   */\n    tag_381:\n        /* \"#utility.yul\":7236:7340   */\n      tag_383\n        /* \"#utility.yul\":7332:7339   */\n      dup5\n        /* \"#utility.yul\":7323:7329   */\n      dup3\n        /* \"#utility.yul\":7312:7321   */\n      dup6\n        /* \"#utility.yul\":7308:7330   */\n      add\n        /* \"#utility.yul\":7236:7340   */\n      tag_309\n      jump\t// in\n    tag_383:\n        /* \"#utility.yul\":7226:7340   */\n      swap2\n      pop\n        /* \"#utility.yul\":7022:7350   */\n      pop\n        /* \"#utility.yul\":6766:7357   */\n      swap3\n      swap2\n      pop\n      pop\n      jump\t// out\n        /* \"#utility.yul\":7363:8099   */\n    tag_50:\n        /* \"#utility.yul\":7482:7488   */\n      0x00\n        /* \"#utility.yul\":7490:7496   */\n      dup1\n        /* \"#utility.yul\":7539:7541   */\n      0x40\n        /* \"#utility.yul\":7527:7536   */\n      dup4\n        /* \"#utility.yul\":7518:7525   */\n      dup6\n        /* \"#utility.yul\":7514:7537   */\n      sub\n        /* \"#utility.yul\":7510:7542   */\n      slt\n        /* \"#utility.yul\":7507:7626   */\n      iszero\n      tag_385\n      jumpi\n        /* \"#utility.yul\":7545:7624   */\n      tag_386\n      tag_345\n      jump\t// in\n    tag_386:\n        /* \"#utility.yul\":7507:7626   */\n    tag_385:\n        /* \"#utility.yul\":7693:7694   */\n      0x00\n        /* \"#utility.yul\":7682:7691   */\n      dup4\n        /* \"#utility.yul\":7678:7695   */\n      add\n        /* \"#utility.yul\":7665:7696   */\n      calldataload\n        /* \"#utility.yul\":7723:7741   */\n      0xffffffffffffffff\n        /* \"#utility.yul\":7715:7721   */\n      dup2\n        /* \"#utility.yul\":7712:7742   */\n      gt\n        /* \"#utility.yul\":7709:7826   */\n      iszero\n      tag_387\n      jumpi\n        /* \"#utility.yul\":7745:7824   */\n      tag_388\n      tag_366\n      jump\t// in\n    tag_388:\n        /* \"#utility.yul\":7709:7826   */\n    tag_387:\n        /* \"#utility.yul\":7850:7954   */\n      tag_389\n        /* \"#utility.yul\":7946:7953   */\n      dup6\n        /* \"#utility.yul\":7937:7943   */\n      dup3\n        /* \"#utility.yul\":7926:7935   */\n      dup7\n        /* \"#utility.yul\":7922:7944   */\n      add\n        /* \"#utility.yul\":7850:7954   */\n      tag_309\n      jump\t// in\n    tag_389:\n        /* \"#utility.yul\":7840:7954   */\n      swap3\n      pop\n        /* \"#utility.yul\":7636:7964   */\n      pop\n        /* \"#utility.yul\":8003:8005   */\n      0x20\n        /* \"#utility.yul\":8029:8082   */\n      tag_390\n        /* \"#utility.yul\":8074:8081   */\n      dup6\n        /* \"#utility.yul\":8065:8071   */\n      dup3\n        /* \"#utility.yul\":8054:8063   */\n      dup7\n        /* \"#utility.yul\":8050:8072   */\n      add\n        /* \"#utility.yul\":8029:8082   */\n      tag_305\n      jump\t// in\n    tag_390:\n        /* \"#utility.yul\":8019:8082   */\n      swap2\n      pop\n        /* \"#utility.yul\":7974:8092   */\n      pop\n        /* \"#utility.yul\":7363:8099   */\n      swap3\n      pop\n      swap3\n      swap1\n      pop\n      jump\t// out\n        /* \"#utility.yul\":8105:8432   */\n    tag_23:\n        /* \"#utility.yul\":8163:8169   */\n      0x00\n        /* \"#utility.yul\":8212:8214   */\n      0x20\n        /* \"#utility.yul\":8200:8209   */\n      dup3\n        /* \"#utility.yul\":8191:8198   */\n      dup5\n        /* \"#utility.yul\":8187:8210   */\n      sub\n        /* \"#utility.yul\":8183:8215   */\n      slt\n        /* \"#utility.yul\":8180:8299   */\n      iszero\n      tag_392\n      jumpi\n        /* \"#utility.yul\":8218:8297   */\n      tag_393\n      tag_345\n      jump\t// in\n    tag_393:\n        /* \"#utility.yul\":8180:8299   */\n    tag_392:\n        /* \"#utility.yul\":8338:8339   */\n      0x00\n        /* \"#utility.yul\":8363:8415   */\n      tag_394\n        /* \"#utility.yul\":8407:8414   */\n      dup5\n        /* \"#utility.yul\":8398:8404   */\n      dup3\n        /* \"#utility.yul\":8387:8396   */\n      dup6\n        /* \"#utility.yul\":8383:8405   */\n      add\n        /* \"#utility.yul\":8363:8415   */\n      tag_319\n      jump\t// in\n    tag_394:\n        /* \"#utility.yul\":8353:8415   */\n      swap2\n      pop\n        /* \"#utility.yul\":8309:8425   */\n      pop\n        /* \"#utility.yul\":8105:8432   */\n      swap3\n      swap2\n      pop\n      pop\n      jump\t// out\n        /* \"#utility.yul\":8438:8787   */\n    tag_267:\n        /* \"#utility.yul\":8507:8513   */\n      0x00\n        /* \"#utility.yul\":8556:8558   */\n      0x20\n        /* \"#utility.yul\":8544:8553   */\n      dup3\n        /* \"#utility.yul\":8535:8542   */\n      dup5\n        /* \"#utility.yul\":8531:8554   */\n      sub\n        /* \"#utility.yul\":8527:8559   */\n      slt\n        /* \"#utility.yul\":8524:8643   */\n      iszero\n      tag_396\n      jumpi\n        /* \"#utility.yul\":8562:8641   */\n      tag_397\n      tag_345\n      jump\t// in\n    tag_397:\n        /* \"#utility.yul\":8524:8643   */\n    tag_396:\n        /* \"#utility.yul\":8682:8683   */\n      0x00\n        /* \"#utility.yul\":8707:8770   */\n      tag_398\n        /* \"#utility.yul\":8762:8769   */\n      dup5\n        /* \"#utility.yul\":8753:8759   */\n      dup3\n        /* \"#utility.yul\":8742:8751   */\n      dup6\n        /* \"#utility.yul\":8738:8760   */\n      add\n        /* \"#utility.yul\":8707:8770   */\n      tag_323\n      jump\t// in\n    tag_398:\n        /* \"#utility.yul\":8697:8770   */\n      swap2\n      pop\n        /* \"#utility.yul\":8653:8780   */\n      pop\n        /* \"#utility.yul\":8438:8787   */\n      swap3\n      swap2\n      pop\n      pop\n      jump\t// out\n        /* \"#utility.yul\":8793:9122   */\n    tag_33:\n        /* \"#utility.yul\":8852:8858   */\n      0x00\n        /* \"#utility.yul\":8901:8903   */\n      0x20\n        /* \"#utility.yul\":8889:8898   */\n      dup3\n        /* \"#utility.yul\":8880:8887   */\n      dup5\n        /* \"#utility.yul\":8876:8899   */\n      sub\n        /* \"#utility.yul\":8872:8904   */\n      slt\n        /* \"#utility.yul\":8869:8988   */\n      iszero\n      tag_400\n      jumpi\n        /* \"#utility.yul\":8907:8986   */\n      tag_401\n      tag_345\n      jump\t// in\n    tag_401:\n        /* \"#utility.yul\":8869:8988   */\n    tag_400:\n        /* \"#utility.yul\":9027:9028   */\n      0x00\n        /* \"#utility.yul\":9052:9105   */\n      tag_402\n        /* \"#utility.yul\":9097:9104   */\n      dup5\n        /* \"#utility.yul\":9088:9094   */\n      dup3\n        /* \"#utility.yul\":9077:9086   */\n      dup6\n        /* \"#utility.yul\":9073:9095   */\n      add\n        /* \"#utility.yul\":9052:9105   */\n      tag_338\n      jump\t// in\n    tag_402:\n        /* \"#utility.yul\":9042:9105   */\n      swap2\n      pop\n        /* \"#utility.yul\":8998:9115   */\n      pop\n        /* \"#utility.yul\":8793:9122   */\n      swap3\n      swap2\n      pop\n      pop\n      jump\t// out\n        /* \"#utility.yul\":9128:9246   */\n    tag_403:\n        /* \"#utility.yul\":9215:9239   */\n      tag_405\n        /* \"#utility.yul\":9233:9238   */\n      dup2\n        /* \"#utility.yul\":9215:9239   */\n      tag_406\n      jump\t// in\n    tag_405:\n        /* \"#utility.yul\":9210:9213   */\n      dup3\n        /* \"#utility.yul\":9203:9240   */\n      mstore\n        /* \"#utility.yul\":9128:9246   */\n      pop\n      pop\n      jump\t// out\n        /* \"#utility.yul\":9252:9361   */\n    tag_407:\n        /* \"#utility.yul\":9333:9354   */\n      tag_409\n        /* \"#utility.yul\":9348:9353   */\n      dup2\n        /* \"#utility.yul\":9333:9354   */\n      tag_410\n      jump\t// in\n    tag_409:\n        /* \"#utility.yul\":9328:9331   */\n      dup3\n        /* \"#utility.yul\":9321:9355   */\n      mstore\n        /* \"#utility.yul\":9252:9361   */\n      pop\n      pop\n      jump\t// out\n        /* \"#utility.yul\":9367:9727   */\n    tag_411:\n        /* \"#utility.yul\":9453:9456   */\n      0x00\n        /* \"#utility.yul\":9481:9519   */\n      tag_413\n        /* \"#utility.yul\":9513:9518   */\n      dup3\n        /* \"#utility.yul\":9481:9519   */\n      tag_414\n      jump\t// in\n    tag_413:\n        /* \"#utility.yul\":9535:9605   */\n      tag_415\n        /* \"#utility.yul\":9598:9604   */\n      dup2\n        /* \"#utility.yul\":9593:9596   */\n      dup6\n        /* \"#utility.yul\":9535:9605   */\n      tag_416\n      jump\t// in\n    tag_415:\n        /* \"#utility.yul\":9528:9605   */\n      swap4\n      pop\n        /* \"#utility.yul\":9614:9666   */\n      tag_417\n        /* \"#utility.yul\":9659:9665   */\n      dup2\n        /* \"#utility.yul\":9654:9657   */\n      dup6\n        /* \"#utility.yul\":9647:9651   */\n      0x20\n        /* \"#utility.yul\":9640:9645   */\n      dup7\n        /* \"#utility.yul\":9636:9652   */\n      add\n        /* \"#utility.yul\":9614:9666   */\n      tag_418\n      jump\t// in\n    tag_417:\n        /* \"#utility.yul\":9691:9720   */\n      tag_419\n        /* \"#utility.yul\":9713:9719   */\n      dup2\n        /* \"#utility.yul\":9691:9720   */\n      tag_420\n      jump\t// in\n    tag_419:\n        /* \"#utility.yul\":9686:9689   */\n      dup5\n        /* \"#utility.yul\":9682:9721   */\n      add\n        /* \"#utility.yul\":9675:9721   */\n      swap2\n      pop\n        /* \"#utility.yul\":9457:9727   */\n      pop\n        /* \"#utility.yul\":9367:9727   */\n      swap3\n      swap2\n      pop\n      pop\n      jump\t// out\n        /* \"#utility.yul\":9733:10097   */\n    tag_421:\n        /* \"#utility.yul\":9821:9824   */\n      0x00\n        /* \"#utility.yul\":9849:9888   */\n      tag_423\n        /* \"#utility.yul\":9882:9887   */\n      dup3\n        /* \"#utility.yul\":9849:9888   */\n      tag_424\n      jump\t// in\n    tag_423:\n        /* \"#utility.yul\":9904:9975   */\n      tag_425\n        /* \"#utility.yul\":9968:9974   */\n      dup2\n        /* \"#utility.yul\":9963:9966   */\n      dup6\n        /* \"#utility.yul\":9904:9975   */\n      tag_426\n      jump\t// in\n    tag_425:\n        /* \"#utility.yul\":9897:9975   */\n      swap4\n      pop\n        /* \"#utility.yul\":9984:10036   */\n      tag_427\n        /* \"#utility.yul\":10029:10035   */\n      dup2\n        /* \"#utility.yul\":10024:10027   */\n      dup6\n        /* \"#utility.yul\":10017:10021   */\n      0x20\n        /* \"#utility.yul\":10010:10015   */\n      dup7\n        /* \"#utility.yul\":10006:10022   */\n      add\n        /* \"#utility.yul\":9984:10036   */\n      tag_418\n      jump\t// in\n    tag_427:\n        /* \"#utility.yul\":10061:10090   */\n      tag_428\n        /* \"#utility.yul\":10083:10089   */\n      dup2\n        /* \"#utility.yul\":10061:10090   */\n      tag_420\n      jump\t// in\n    tag_428:\n        /* \"#utility.yul\":10056:10059   */\n      dup5\n        /* \"#utility.yul\":10052:10091   */\n      add\n        /* \"#utility.yul\":10045:10091   */\n      swap2\n      pop\n        /* \"#utility.yul\":9825:10097   */\n      pop\n        /* \"#utility.yul\":9733:10097   */\n      swap3\n      swap2\n      pop\n      pop\n      jump\t// out\n        /* \"#utility.yul\":10103:10480   */\n    tag_429:\n        /* \"#utility.yul\":10209:10212   */\n      0x00\n        /* \"#utility.yul\":10237:10276   */\n      tag_431\n        /* \"#utility.yul\":10270:10275   */\n      dup3\n        /* \"#utility.yul\":10237:10276   */\n      tag_424\n      jump\t// in\n    tag_431:\n        /* \"#utility.yul\":10292:10381   */\n      tag_432\n        /* \"#utility.yul\":10374:10380   */\n      dup2\n        /* \"#utility.yul\":10369:10372   */\n      dup6\n        /* \"#utility.yul\":10292:10381   */\n      tag_433\n      jump\t// in\n    tag_432:\n        /* \"#utility.yul\":10285:10381   */\n      swap4\n      pop\n        /* \"#utility.yul\":10390:10442   */\n      tag_434\n        /* \"#utility.yul\":10435:10441   */\n      dup2\n        /* \"#utility.yul\":10430:10433   */\n      dup6\n        /* \"#utility.yul\":10423:10427   */\n      0x20\n        /* \"#utility.yul\":10416:10421   */\n      dup7\n        /* \"#utility.yul\":10412:10428   */\n      add\n        /* \"#utility.yul\":10390:10442   */\n      tag_418\n      jump\t// in\n    tag_434:\n        /* \"#utility.yul\":10467:10473   */\n      dup1\n        /* \"#utility.yul\":10462:10465   */\n      dup5\n        /* \"#utility.yul\":10458:10474   */\n      add\n        /* \"#utility.yul\":10451:10474   */\n      swap2\n      pop\n        /* \"#utility.yul\":10213:10480   */\n      pop\n        /* \"#utility.yul\":10103:10480   */\n      swap3\n      swap2\n      pop\n      pop\n      jump\t// out\n        /* \"#utility.yul\":10486:10852   */\n    tag_435:\n        /* \"#utility.yul\":10628:10631   */\n      0x00\n        /* \"#utility.yul\":10649:10716   */\n      tag_437\n        /* \"#utility.yul\":10713:10715   */\n      0x32\n        /* \"#utility.yul\":10708:10711   */\n      dup4\n        /* \"#utility.yul\":10649:10716   */\n      tag_426\n      jump\t// in\n    tag_437:\n        /* \"#utility.yul\":10642:10716   */\n      swap2\n      pop\n        /* \"#utility.yul\":10725:10818   */\n      tag_438\n        /* \"#utility.yul\":10814:10817   */\n      dup3\n        /* \"#utility.yul\":10725:10818   */\n      tag_439\n      jump\t// in\n    tag_438:\n        /* \"#utility.yul\":10843:10845   */\n      0x40\n        /* \"#utility.yul\":10838:10841   */\n      dup3\n        /* \"#utility.yul\":10834:10846   */\n      add\n        /* \"#utility.yul\":10827:10846   */\n      swap1\n      pop\n        /* \"#utility.yul\":10486:10852   */\n      swap2\n      swap1\n      pop\n      jump\t// out\n        /* \"#utility.yul\":10858:11224   */\n    tag_440:\n        /* \"#utility.yul\":11000:11003   */\n      0x00\n        /* \"#utility.yul\":11021:11088   */\n      tag_442\n        /* \"#utility.yul\":11085:11087   */\n      0x25\n        /* \"#utility.yul\":11080:11083   */\n      dup4\n        /* \"#utility.yul\":11021:11088   */\n      tag_426\n      jump\t// in\n    tag_442:\n        /* \"#utility.yul\":11014:11088   */\n      swap2\n      pop\n        /* \"#utility.yul\":11097:11190   */\n      tag_443\n        /* \"#utility.yul\":11186:11189   */\n      dup3\n        /* \"#utility.yul\":11097:11190   */\n      tag_444\n      jump\t// in\n    tag_443:\n        /* \"#utility.yul\":11215:11217   */\n      0x40\n        /* \"#utility.yul\":11210:11213   */\n      dup3\n        /* \"#utility.yul\":11206:11218   */\n      add\n        /* \"#utility.yul\":11199:11218   */\n      swap1\n      pop\n        /* \"#utility.yul\":10858:11224   */\n      swap2\n      swap1\n      pop\n      jump\t// out\n        /* \"#utility.yul\":11230:11596   */\n    tag_445:\n        /* \"#utility.yul\":11372:11375   */\n      0x00\n        /* \"#utility.yul\":11393:11460   */\n      tag_447\n        /* \"#utility.yul\":11457:11459   */\n      0x1c\n        /* \"#utility.yul\":11452:11455   */\n      dup4\n        /* \"#utility.yul\":11393:11460   */\n      tag_426\n      jump\t// in\n    tag_447:\n        /* \"#utility.yul\":11386:11460   */\n      swap2\n      pop\n        /* \"#utility.yul\":11469:11562   */\n      tag_448\n        /* \"#utility.yul\":11558:11561   */\n      dup3\n        /* \"#utility.yul\":11469:11562   */\n      tag_449\n      jump\t// in\n    tag_448:\n        /* \"#utility.yul\":11587:11589   */\n      0x20\n        /* \"#utility.yul\":11582:11585   */\n      dup3\n        /* \"#utility.yul\":11578:11590   */\n      add\n        /* \"#utility.yul\":11571:11590   */\n      swap1\n      pop\n        /* \"#utility.yul\":11230:11596   */\n      swap2\n      swap1\n      pop\n      jump\t// out\n        /* \"#utility.yul\":11602:11968   */\n    tag_450:\n        /* \"#utility.yul\":11744:11747   */\n      0x00\n        /* \"#utility.yul\":11765:11832   */\n      tag_452\n        /* \"#utility.yul\":11829:11831   */\n      0x24\n        /* \"#utility.yul\":11824:11827   */\n      dup4\n        /* \"#utility.yul\":11765:11832   */\n      tag_426\n      jump\t// in\n    tag_452:\n        /* \"#utility.yul\":11758:11832   */\n      swap2\n      pop\n        /* \"#utility.yul\":11841:11934   */\n      tag_453\n        /* \"#utility.yul\":11930:11933   */\n      dup3\n        /* \"#utility.yul\":11841:11934   */\n      tag_454\n      jump\t// in\n    tag_453:\n        /* \"#utility.yul\":11959:11961   */\n      0x40\n        /* \"#utility.yul\":11954:11957   */\n      dup3\n        /* \"#utility.yul\":11950:11962   */\n      add\n        /* \"#utility.yul\":11943:11962   */\n      swap1\n      pop\n        /* \"#utility.yul\":11602:11968   */\n      swap2\n      swap1\n      pop\n      jump\t// out\n        /* \"#utility.yul\":11974:12340   */\n    tag_455:\n        /* \"#utility.yul\":12116:12119   */\n      0x00\n        /* \"#utility.yul\":12137:12204   */\n      tag_457\n        /* \"#utility.yul\":12201:12203   */\n      0x19\n        /* \"#utility.yul\":12196:12199   */\n      dup4\n        /* \"#utility.yul\":12137:12204   */\n      tag_426\n      jump\t// in\n    tag_457:\n        /* \"#utility.yul\":12130:12204   */\n      swap2\n      pop\n        /* \"#utility.yul\":12213:12306   */\n      tag_458\n        /* \"#utility.yul\":12302:12305   */\n      dup3\n        /* \"#utility.yul\":12213:12306   */\n      tag_459\n      jump\t// in\n    tag_458:\n        /* \"#utility.yul\":12331:12333   */\n      0x20\n        /* \"#utility.yul\":12326:12329   */\n      dup3\n        /* \"#utility.yul\":12322:12334   */\n      add\n        /* \"#utility.yul\":12315:12334   */\n      swap1\n      pop\n        /* \"#utility.yul\":11974:12340   */\n      swap2\n      swap1\n      pop\n      jump\t// out\n        /* \"#utility.yul\":12346:12712   */\n    tag_460:\n        /* \"#utility.yul\":12488:12491   */\n      0x00\n        /* \"#utility.yul\":12509:12576   */\n      tag_462\n        /* \"#utility.yul\":12573:12575   */\n      0x29\n        /* \"#utility.yul\":12568:12571   */\n      dup4\n        /* \"#utility.yul\":12509:12576   */\n      tag_426\n      jump\t// in\n    tag_462:\n        /* \"#utility.yul\":12502:12576   */\n      swap2\n      pop\n        /* \"#utility.yul\":12585:12678   */\n      tag_463\n        /* \"#utility.yul\":12674:12677   */\n      dup3\n        /* \"#utility.yul\":12585:12678   */\n      tag_464\n      jump\t// in\n    tag_463:\n        /* \"#utility.yul\":12703:12705   */\n      0x40\n        /* \"#utility.yul\":12698:12701   */\n      dup3\n        /* \"#utility.yul\":12694:12706   */\n      add\n        /* \"#utility.yul\":12687:12706   */\n      swap1\n      pop\n        /* \"#utility.yul\":12346:12712   */\n      swap2\n      swap1\n      pop\n      jump\t// out\n        /* \"#utility.yul\":12718:13084   */\n    tag_465:\n        /* \"#utility.yul\":12860:12863   */\n      0x00\n        /* \"#utility.yul\":12881:12948   */\n      tag_467\n        /* \"#utility.yul\":12945:12947   */\n      0x3e\n        /* \"#utility.yul\":12940:12943   */\n      dup4\n        /* \"#utility.yul\":12881:12948   */\n      tag_426\n      jump\t// in\n    tag_467:\n        /* \"#utility.yul\":12874:12948   */\n      swap2\n      pop\n        /* \"#utility.yul\":12957:13050   */\n      tag_468\n        /* \"#utility.yul\":13046:13049   */\n      dup3\n        /* \"#utility.yul\":12957:13050   */\n      tag_469\n      jump\t// in\n    tag_468:\n        /* \"#utility.yul\":13075:13077   */\n      0x40\n        /* \"#utility.yul\":13070:13073   */\n      dup3\n        /* \"#utility.yul\":13066:13078   */\n      add\n        /* \"#utility.yul\":13059:13078   */\n      swap1\n      pop\n        /* \"#utility.yul\":12718:13084   */\n      swap2\n      swap1\n      pop\n      jump\t// out\n        /* \"#utility.yul\":13090:13456   */\n    tag_470:\n        /* \"#utility.yul\":13232:13235   */\n      0x00\n        /* \"#utility.yul\":13253:13320   */\n      tag_472\n        /* \"#utility.yul\":13317:13319   */\n      0x20\n        /* \"#utility.yul\":13312:13315   */\n      dup4\n        /* \"#utility.yul\":13253:13320   */\n      tag_426\n      jump\t// in\n    tag_472:\n        /* \"#utility.yul\":13246:13320   */\n      swap2\n      pop\n        /* \"#utility.yul\":13329:13422   */\n      tag_473\n        /* \"#utility.yul\":13418:13421   */\n      dup3\n        /* \"#utility.yul\":13329:13422   */\n      tag_474\n      jump\t// in\n    tag_473:\n        /* \"#utility.yul\":13447:13449   */\n      0x20\n        /* \"#utility.yul\":13442:13445   */\n      dup3\n        /* \"#utility.yul\":13438:13450   */\n      add\n        /* \"#utility.yul\":13431:13450   */\n      swap1\n      pop\n        /* \"#utility.yul\":13090:13456   */\n      swap2\n      swap1\n      pop\n      jump\t// out\n        /* \"#utility.yul\":13462:13828   */\n    tag_475:\n        /* \"#utility.yul\":13604:13607   */\n      0x00\n        /* \"#utility.yul\":13625:13692   */\n      tag_477\n        /* \"#utility.yul\":13689:13691   */\n      0x18\n        /* \"#utility.yul\":13684:13687   */\n      dup4\n        /* \"#utility.yul\":13625:13692   */\n      tag_426\n      jump\t// in\n    tag_477:\n        /* \"#utility.yul\":13618:13692   */\n      swap2\n      pop\n        /* \"#utility.yul\":13701:13794   */\n      tag_478\n        /* \"#utility.yul\":13790:13793   */\n      dup3\n        /* \"#utility.yul\":13701:13794   */\n      tag_479\n      jump\t// in\n    tag_478:\n        /* \"#utility.yul\":13819:13821   */\n      0x20\n        /* \"#utility.yul\":13814:13817   */\n      dup3\n        /* \"#utility.yul\":13810:13822   */\n      add\n        /* \"#utility.yul\":13803:13822   */\n      swap1\n      pop\n        /* \"#utility.yul\":13462:13828   */\n      swap2\n      swap1\n      pop\n      jump\t// out\n        /* \"#utility.yul\":13834:14200   */\n    tag_480:\n        /* \"#utility.yul\":13976:13979   */\n      0x00\n        /* \"#utility.yul\":13997:14064   */\n      tag_482\n        /* \"#utility.yul\":14061:14063   */\n      0x21\n        /* \"#utility.yul\":14056:14059   */\n      dup4\n        /* \"#utility.yul\":13997:14064   */\n      tag_426\n      jump\t// in\n    tag_482:\n        /* \"#utility.yul\":13990:14064   */\n      swap2\n      pop\n        /* \"#utility.yul\":14073:14166   */\n      tag_483\n        /* \"#utility.yul\":14162:14165   */\n      dup3\n        /* \"#utility.yul\":14073:14166   */\n      tag_484\n      jump\t// in\n    tag_483:\n        /* \"#utility.yul\":14191:14193   */\n      0x40\n        /* \"#utility.yul\":14186:14189   */\n      dup3\n        /* \"#utility.yul\":14182:14194   */\n      add\n        /* \"#utility.yul\":14175:14194   */\n      swap1\n      pop\n        /* \"#utility.yul\":13834:14200   */\n      swap2\n      swap1\n      pop\n      jump\t// out\n        /* \"#utility.yul\":14206:14572   */\n    tag_485:\n        /* \"#utility.yul\":14348:14351   */\n      0x00\n        /* \"#utility.yul\":14369:14436   */\n      tag_487\n        /* \"#utility.yul\":14433:14435   */\n      0x2e\n        /* \"#utility.yul\":14428:14431   */\n      dup4\n        /* \"#utility.yul\":14369:14436   */\n      tag_426\n      jump\t// in\n    tag_487:\n        /* \"#utility.yul\":14362:14436   */\n      swap2\n      pop\n        /* \"#utility.yul\":14445:14538   */\n      tag_488\n        /* \"#utility.yul\":14534:14537   */\n      dup3\n        /* \"#utility.yul\":14445:14538   */\n      tag_489\n      jump\t// in\n    tag_488:\n        /* \"#utility.yul\":14563:14565   */\n      0x40\n        /* \"#utility.yul\":14558:14561   */\n      dup3\n        /* \"#utility.yul\":14554:14566   */\n      add\n        /* \"#utility.yul\":14547:14566   */\n      swap1\n      pop\n        /* \"#utility.yul\":14206:14572   */\n      swap2\n      swap1\n      pop\n      jump\t// out\n        /* \"#utility.yul\":14578:14696   */\n    tag_490:\n        /* \"#utility.yul\":14665:14689   */\n      tag_492\n        /* \"#utility.yul\":14683:14688   */\n      dup2\n        /* \"#utility.yul\":14665:14689   */\n      tag_493\n      jump\t// in\n    tag_492:\n        /* \"#utility.yul\":14660:14663   */\n      dup3\n        /* \"#utility.yul\":14653:14690   */\n      mstore\n        /* \"#utility.yul\":14578:14696   */\n      pop\n      pop\n      jump\t// out\n        /* \"#utility.yul\":14702:15137   */\n    tag_172:\n        /* \"#utility.yul\":14882:14885   */\n      0x00\n        /* \"#utility.yul\":14904:14999   */\n      tag_495\n        /* \"#utility.yul\":14995:14998   */\n      dup3\n        /* \"#utility.yul\":14986:14992   */\n      dup6\n        /* \"#utility.yul\":14904:14999   */\n      tag_429\n      jump\t// in\n    tag_495:\n        /* \"#utility.yul\":14897:14999   */\n      swap2\n      pop\n        /* \"#utility.yul\":15016:15111   */\n      tag_496\n        /* \"#utility.yul\":15107:15110   */\n      dup3\n        /* \"#utility.yul\":15098:15104   */\n      dup5\n        /* \"#utility.yul\":15016:15111   */\n      tag_429\n      jump\t// in\n    tag_496:\n        /* \"#utility.yul\":15009:15111   */\n      swap2\n      pop\n        /* \"#utility.yul\":15128:15131   */\n      dup2\n        /* \"#utility.yul\":15121:15131   */\n      swap1\n      pop\n        /* \"#utility.yul\":14702:15137   */\n      swap4\n      swap3\n      pop\n      pop\n      pop\n      jump\t// out\n        /* \"#utility.yul\":15143:15365   */\n    tag_36:\n        /* \"#utility.yul\":15236:15240   */\n      0x00\n        /* \"#utility.yul\":15274:15276   */\n      0x20\n        /* \"#utility.yul\":15263:15272   */\n      dup3\n        /* \"#utility.yul\":15259:15277   */\n      add\n        /* \"#utility.yul\":15251:15277   */\n      swap1\n      pop\n        /* \"#utility.yul\":15287:15358   */\n      tag_498\n        /* \"#utility.yul\":15355:15356   */\n      0x00\n        /* \"#utility.yul\":15344:15353   */\n      dup4\n        /* \"#utility.yul\":15340:15357   */\n      add\n        /* \"#utility.yul\":15331:15337   */\n      dup5\n        /* \"#utility.yul\":15287:15358   */\n      tag_403\n      jump\t// in\n    tag_498:\n        /* \"#utility.yul\":15143:15365   */\n      swap3\n      swap2\n      pop\n      pop\n      jump\t// out\n        /* \"#utility.yul\":15371:16011   */\n    tag_263:\n        /* \"#utility.yul\":15566:15570   */\n      0x00\n        /* \"#utility.yul\":15604:15607   */\n      0x80\n        /* \"#utility.yul\":15593:15602   */\n      dup3\n        /* \"#utility.yul\":15589:15608   */\n      add\n        /* \"#utility.yul\":15581:15608   */\n      swap1\n      pop\n        /* \"#utility.yul\":15618:15689   */\n      tag_500\n        /* \"#utility.yul\":15686:15687   */\n      0x00\n        /* \"#utility.yul\":15675:15684   */\n      dup4\n        /* \"#utility.yul\":15671:15688   */\n      add\n        /* \"#utility.yul\":15662:15668   */\n      dup8\n        /* \"#utility.yul\":15618:15689   */\n      tag_403\n      jump\t// in\n    tag_500:\n        /* \"#utility.yul\":15699:15771   */\n      tag_501\n        /* \"#utility.yul\":15767:15769   */\n      0x20\n        /* \"#utility.yul\":15756:15765   */\n      dup4\n        /* \"#utility.yul\":15752:15770   */\n      add\n        /* \"#utility.yul\":15743:15749   */\n      dup7\n        /* \"#utility.yul\":15699:15771   */\n      tag_403\n      jump\t// in\n    tag_501:\n        /* \"#utility.yul\":15781:15853   */\n      tag_502\n        /* \"#utility.yul\":15849:15851   */\n      0x40\n        /* \"#utility.yul\":15838:15847   */\n      dup4\n        /* \"#utility.yul\":15834:15852   */\n      add\n        /* \"#utility.yul\":15825:15831   */\n      dup6\n        /* \"#utility.yul\":15781:15853   */\n      tag_490\n      jump\t// in\n    tag_502:\n        /* \"#utility.yul\":15900:15909   */\n      dup2\n        /* \"#utility.yul\":15894:15898   */\n      dup2\n        /* \"#utility.yul\":15890:15910   */\n      sub\n        /* \"#utility.yul\":15885:15887   */\n      0x60\n        /* \"#utility.yul\":15874:15883   */\n      dup4\n        /* \"#utility.yul\":15870:15888   */\n      add\n        /* \"#utility.yul\":15863:15911   */\n      mstore\n        /* \"#utility.yul\":15928:16004   */\n      tag_503\n        /* \"#utility.yul\":15999:16003   */\n      dup2\n        /* \"#utility.yul\":15990:15996   */\n      dup5\n        /* \"#utility.yul\":15928:16004   */\n      tag_411\n      jump\t// in\n    tag_503:\n        /* \"#utility.yul\":15920:16004   */\n      swap1\n      pop\n        /* \"#utility.yul\":15371:16011   */\n      swap6\n      swap5\n      pop\n      pop\n      pop\n      pop\n      pop\n      jump\t// out\n        /* \"#utility.yul\":16017:16227   */\n    tag_26:\n        /* \"#utility.yul\":16104:16108   */\n      0x00\n        /* \"#utility.yul\":16142:16144   */\n      0x20\n        /* \"#utility.yul\":16131:16140   */\n      dup3\n        /* \"#utility.yul\":16127:16145   */\n      add\n        /* \"#utility.yul\":16119:16145   */\n      swap1\n      pop\n        /* \"#utility.yul\":16155:16220   */\n      tag_505\n        /* \"#utility.yul\":16217:16218   */\n      0x00\n        /* \"#utility.yul\":16206:16215   */\n      dup4\n        /* \"#utility.yul\":16202:16219   */\n      add\n        /* \"#utility.yul\":16193:16199   */\n      dup5\n        /* \"#utility.yul\":16155:16220   */\n      tag_407\n      jump\t// in\n    tag_505:\n        /* \"#utility.yul\":16017:16227   */\n      swap3\n      swap2\n      pop\n      pop\n      jump\t// out\n        /* \"#utility.yul\":16233:16546   */\n    tag_30:\n        /* \"#utility.yul\":16346:16350   */\n      0x00\n        /* \"#utility.yul\":16384:16386   */\n      0x20\n        /* \"#utility.yul\":16373:16382   */\n      dup3\n        /* \"#utility.yul\":16369:16387   */\n      add\n        /* \"#utility.yul\":16361:16387   */\n      swap1\n      pop\n        /* \"#utility.yul\":16433:16442   */\n      dup2\n        /* \"#utility.yul\":16427:16431   */\n      dup2\n        /* \"#utility.yul\":16423:16443   */\n      sub\n        /* \"#utility.yul\":16419:16420   */\n      0x00\n        /* \"#utility.yul\":16408:16417   */\n      dup4\n        /* \"#utility.yul\":16404:16421   */\n      add\n        /* \"#utility.yul\":16397:16444   */\n      mstore\n        /* \"#utility.yul\":16461:16539   */\n      tag_507\n        /* \"#utility.yul\":16534:16538   */\n      dup2\n        /* \"#utility.yul\":16525:16531   */\n      dup5\n        /* \"#utility.yul\":16461:16539   */\n      tag_421\n      jump\t// in\n    tag_507:\n        /* \"#utility.yul\":16453:16539   */\n      swap1\n      pop\n        /* \"#utility.yul\":16233:16546   */\n      swap3\n      swap2\n      pop\n      pop\n      jump\t// out\n        /* \"#utility.yul\":16552:16971   */\n    tag_230:\n        /* \"#utility.yul\":16718:16722   */\n      0x00\n        /* \"#utility.yul\":16756:16758   */\n      0x20\n        /* \"#utility.yul\":16745:16754   */\n      dup3\n        /* \"#utility.yul\":16741:16759   */\n      add\n        /* \"#utility.yul\":16733:16759   */\n      swap1\n      pop\n        /* \"#utility.yul\":16805:16814   */\n      dup2\n        /* \"#utility.yul\":16799:16803   */\n      dup2\n        /* \"#utility.yul\":16795:16815   */\n      sub\n        /* \"#utility.yul\":16791:16792   */\n      0x00\n        /* \"#utility.yul\":16780:16789   */\n      dup4\n        /* \"#utility.yul\":16776:16793   */\n      add\n        /* \"#utility.yul\":16769:16816   */\n      mstore\n        /* \"#utility.yul\":16833:16964   */\n      tag_509\n        /* \"#utility.yul\":16959:16963   */\n      dup2\n        /* \"#utility.yul\":16833:16964   */\n      tag_435\n      jump\t// in\n    tag_509:\n        /* \"#utility.yul\":16825:16964   */\n      swap1\n      pop\n        /* \"#utility.yul\":16552:16971   */\n      swap2\n      swap1\n      pop\n      jump\t// out\n        /* \"#utility.yul\":16977:17396   */\n    tag_193:\n        /* \"#utility.yul\":17143:17147   */\n      0x00\n        /* \"#utility.yul\":17181:17183   */\n      0x20\n        /* \"#utility.yul\":17170:17179   */\n      dup3\n        /* \"#utility.yul\":17166:17184   */\n      add\n        /* \"#utility.yul\":17158:17184   */\n      swap1\n      pop\n        /* \"#utility.yul\":17230:17239   */\n      dup2\n        /* \"#utility.yul\":17224:17228   */\n      dup2\n        /* \"#utility.yul\":17220:17240   */\n      sub\n        /* \"#utility.yul\":17216:17217   */\n      0x00\n        /* \"#utility.yul\":17205:17214   */\n      dup4\n        /* \"#utility.yul\":17201:17218   */\n      add\n        /* \"#utility.yul\":17194:17241   */\n      mstore\n        /* \"#utility.yul\":17258:17389   */\n      tag_511\n        /* \"#utility.yul\":17384:17388   */\n      dup2\n        /* \"#utility.yul\":17258:17389   */\n      tag_440\n      jump\t// in\n    tag_511:\n        /* \"#utility.yul\":17250:17389   */\n      swap1\n      pop\n        /* \"#utility.yul\":16977:17396   */\n      swap2\n      swap1\n      pop\n      jump\t// out\n        /* \"#utility.yul\":17402:17821   */\n    tag_214:\n        /* \"#utility.yul\":17568:17572   */\n      0x00\n        /* \"#utility.yul\":17606:17608   */\n      0x20\n        /* \"#utility.yul\":17595:17604   */\n      dup3\n        /* \"#utility.yul\":17591:17609   */\n      add\n        /* \"#utility.yul\":17583:17609   */\n      swap1\n      pop\n        /* \"#utility.yul\":17655:17664   */\n      dup2\n        /* \"#utility.yul\":17649:17653   */\n      dup2\n        /* \"#utility.yul\":17645:17665   */\n      sub\n        /* \"#utility.yul\":17641:17642   */\n      0x00\n        /* \"#utility.yul\":17630:17639   */\n      dup4\n        /* \"#utility.yul\":17626:17643   */\n      add\n        /* \"#utility.yul\":17619:17666   */\n      mstore\n        /* \"#utility.yul\":17683:17814   */\n      tag_513\n        /* \"#utility.yul\":17809:17813   */\n      dup2\n        /* \"#utility.yul\":17683:17814   */\n      tag_445\n      jump\t// in\n    tag_513:\n        /* \"#utility.yul\":17675:17814   */\n      swap1\n      pop\n        /* \"#utility.yul\":17402:17821   */\n      swap2\n      swap1\n      pop\n      jump\t// out\n        /* \"#utility.yul\":17827:18246   */\n    tag_196:\n        /* \"#utility.yul\":17993:17997   */\n      0x00\n        /* \"#utility.yul\":18031:18033   */\n      0x20\n        /* \"#utility.yul\":18020:18029   */\n      dup3\n        /* \"#utility.yul\":18016:18034   */\n      add\n        /* \"#utility.yul\":18008:18034   */\n      swap1\n      pop\n        /* \"#utility.yul\":18080:18089   */\n      dup2\n        /* \"#utility.yul\":18074:18078   */\n      dup2\n        /* \"#utility.yul\":18070:18090   */\n      sub\n        /* \"#utility.yul\":18066:18067   */\n      0x00\n        /* \"#utility.yul\":18055:18064   */\n      dup4\n        /* \"#utility.yul\":18051:18068   */\n      add\n        /* \"#utility.yul\":18044:18091   */\n      mstore\n        /* \"#utility.yul\":18108:18239   */\n      tag_515\n        /* \"#utility.yul\":18234:18238   */\n      dup2\n        /* \"#utility.yul\":18108:18239   */\n      tag_450\n      jump\t// in\n    tag_515:\n        /* \"#utility.yul\":18100:18239   */\n      swap1\n      pop\n        /* \"#utility.yul\":17827:18246   */\n      swap2\n      swap1\n      pop\n      jump\t// out\n        /* \"#utility.yul\":18252:18671   */\n    tag_222:\n        /* \"#utility.yul\":18418:18422   */\n      0x00\n        /* \"#utility.yul\":18456:18458   */\n      0x20\n        /* \"#utility.yul\":18445:18454   */\n      dup3\n        /* \"#utility.yul\":18441:18459   */\n      add\n        /* \"#utility.yul\":18433:18459   */\n      swap1\n      pop\n        /* \"#utility.yul\":18505:18514   */\n      dup2\n        /* \"#utility.yul\":18499:18503   */\n      dup2\n        /* \"#utility.yul\":18495:18515   */\n      sub\n        /* \"#utility.yul\":18491:18492   */\n      0x00\n        /* \"#utility.yul\":18480:18489   */\n      dup4\n        /* \"#utility.yul\":18476:18493   */\n      add\n        /* \"#utility.yul\":18469:18516   */\n      mstore\n        /* \"#utility.yul\":18533:18664   */\n      tag_517\n        /* \"#utility.yul\":18659:18663   */\n      dup2\n        /* \"#utility.yul\":18533:18664   */\n      tag_455\n      jump\t// in\n    tag_517:\n        /* \"#utility.yul\":18525:18664   */\n      swap1\n      pop\n        /* \"#utility.yul\":18252:18671   */\n      swap2\n      swap1\n      pop\n      jump\t// out\n        /* \"#utility.yul\":18677:19096   */\n    tag_143:\n        /* \"#utility.yul\":18843:18847   */\n      0x00\n        /* \"#utility.yul\":18881:18883   */\n      0x20\n        /* \"#utility.yul\":18870:18879   */\n      dup3\n        /* \"#utility.yul\":18866:18884   */\n      add\n        /* \"#utility.yul\":18858:18884   */\n      swap1\n      pop\n        /* \"#utility.yul\":18930:18939   */\n      dup2\n        /* \"#utility.yul\":18924:18928   */\n      dup2\n        /* \"#utility.yul\":18920:18940   */\n      sub\n        /* \"#utility.yul\":18916:18917   */\n      0x00\n        /* \"#utility.yul\":18905:18914   */\n      dup4\n        /* \"#utility.yul\":18901:18918   */\n      add\n        /* \"#utility.yul\":18894:18941   */\n      mstore\n        /* \"#utility.yul\":18958:19089   */\n      tag_519\n        /* \"#utility.yul\":19084:19088   */\n      dup2\n        /* \"#utility.yul\":18958:19089   */\n      tag_460\n      jump\t// in\n    tag_519:\n        /* \"#utility.yul\":18950:19089   */\n      swap1\n      pop\n        /* \"#utility.yul\":18677:19096   */\n      swap2\n      swap1\n      pop\n      jump\t// out\n        /* \"#utility.yul\":19102:19521   */\n    tag_115:\n        /* \"#utility.yul\":19268:19272   */\n      0x00\n        /* \"#utility.yul\":19306:19308   */\n      0x20\n        /* \"#utility.yul\":19295:19304   */\n      dup3\n        /* \"#utility.yul\":19291:19309   */\n      add\n        /* \"#utility.yul\":19283:19309   */\n      swap1\n      pop\n        /* \"#utility.yul\":19355:19364   */\n      dup2\n        /* \"#utility.yul\":19349:19353   */\n      dup2\n        /* \"#utility.yul\":19345:19365   */\n      sub\n        /* \"#utility.yul\":19341:19342   */\n      0x00\n        /* \"#utility.yul\":19330:19339   */\n      dup4\n        /* \"#utility.yul\":19326:19343   */\n      add\n        /* \"#utility.yul\":19319:19366   */\n      mstore\n        /* \"#utility.yul\":19383:19514   */\n      tag_521\n        /* \"#utility.yul\":19509:19513   */\n      dup2\n        /* \"#utility.yul\":19383:19514   */\n      tag_465\n      jump\t// in\n    tag_521:\n        /* \"#utility.yul\":19375:19514   */\n      swap1\n      pop\n        /* \"#utility.yul\":19102:19521   */\n      swap2\n      swap1\n      pop\n      jump\t// out\n        /* \"#utility.yul\":19527:19946   */\n    tag_210:\n        /* \"#utility.yul\":19693:19697   */\n      0x00\n        /* \"#utility.yul\":19731:19733   */\n      0x20\n        /* \"#utility.yul\":19720:19729   */\n      dup3\n        /* \"#utility.yul\":19716:19734   */\n      add\n        /* \"#utility.yul\":19708:19734   */\n      swap1\n      pop\n        /* \"#utility.yul\":19780:19789   */\n      dup2\n        /* \"#utility.yul\":19774:19778   */\n      dup2\n        /* \"#utility.yul\":19770:19790   */\n      sub\n        /* \"#utility.yul\":19766:19767   */\n      0x00\n        /* \"#utility.yul\":19755:19764   */\n      dup4\n        /* \"#utility.yul\":19751:19768   */\n      add\n        /* \"#utility.yul\":19744:19791   */\n      mstore\n        /* \"#utility.yul\":19808:19939   */\n      tag_523\n        /* \"#utility.yul\":19934:19938   */\n      dup2\n        /* \"#utility.yul\":19808:19939   */\n      tag_470\n      jump\t// in\n    tag_523:\n        /* \"#utility.yul\":19800:19939   */\n      swap1\n      pop\n        /* \"#utility.yul\":19527:19946   */\n      swap2\n      swap1\n      pop\n      jump\t// out\n        /* \"#utility.yul\":19952:20371   */\n    tag_139:\n        /* \"#utility.yul\":20118:20122   */\n      0x00\n        /* \"#utility.yul\":20156:20158   */\n      0x20\n        /* \"#utility.yul\":20145:20154   */\n      dup3\n        /* \"#utility.yul\":20141:20159   */\n      add\n        /* \"#utility.yul\":20133:20159   */\n      swap1\n      pop\n        /* \"#utility.yul\":20205:20214   */\n      dup2\n        /* \"#utility.yul\":20199:20203   */\n      dup2\n        /* \"#utility.yul\":20195:20215   */\n      sub\n        /* \"#utility.yul\":20191:20192   */\n      0x00\n        /* \"#utility.yul\":20180:20189   */\n      dup4\n        /* \"#utility.yul\":20176:20193   */\n      add\n        /* \"#utility.yul\":20169:20216   */\n      mstore\n        /* \"#utility.yul\":20233:20364   */\n      tag_525\n        /* \"#utility.yul\":20359:20363   */\n      dup2\n        /* \"#utility.yul\":20233:20364   */\n      tag_475\n      jump\t// in\n    tag_525:\n        /* \"#utility.yul\":20225:20364   */\n      swap1\n      pop\n        /* \"#utility.yul\":19952:20371   */\n      swap2\n      swap1\n      pop\n      jump\t// out\n        /* \"#utility.yul\":20377:20796   */\n    tag_107:\n        /* \"#utility.yul\":20543:20547   */\n      0x00\n        /* \"#utility.yul\":20581:20583   */\n      0x20\n        /* \"#utility.yul\":20570:20579   */\n      dup3\n        /* \"#utility.yul\":20566:20584   */\n      add\n        /* \"#utility.yul\":20558:20584   */\n      swap1\n      pop\n        /* \"#utility.yul\":20630:20639   */\n      dup2\n        /* \"#utility.yul\":20624:20628   */\n      dup2\n        /* \"#utility.yul\":20620:20640   */\n      sub\n        /* \"#utility.yul\":20616:20617   */\n      0x00\n        /* \"#utility.yul\":20605:20614   */\n      dup4\n        /* \"#utility.yul\":20601:20618   */\n      add\n        /* \"#utility.yul\":20594:20641   */\n      mstore\n        /* \"#utility.yul\":20658:20789   */\n      tag_527\n        /* \"#utility.yul\":20784:20788   */\n      dup2\n        /* \"#utility.yul\":20658:20789   */\n      tag_480\n      jump\t// in\n    tag_527:\n        /* \"#utility.yul\":20650:20789   */\n      swap1\n      pop\n        /* \"#utility.yul\":20377:20796   */\n      swap2\n      swap1\n      pop\n      jump\t// out\n        /* \"#utility.yul\":20802:21221   */\n    tag_124:\n        /* \"#utility.yul\":20968:20972   */\n      0x00\n        /* \"#utility.yul\":21006:21008   */\n      0x20\n        /* \"#utility.yul\":20995:21004   */\n      dup3\n        /* \"#utility.yul\":20991:21009   */\n      add\n        /* \"#utility.yul\":20983:21009   */\n      swap1\n      pop\n        /* \"#utility.yul\":21055:21064   */\n      dup2\n        /* \"#utility.yul\":21049:21053   */\n      dup2\n        /* \"#utility.yul\":21045:21065   */\n      sub\n        /* \"#utility.yul\":21041:21042   */\n      0x00\n        /* \"#utility.yul\":21030:21039   */\n      dup4\n        /* \"#utility.yul\":21026:21043   */\n      add\n        /* \"#utility.yul\":21019:21066   */\n      mstore\n        /* \"#utility.yul\":21083:21214   */\n      tag_529\n        /* \"#utility.yul\":21209:21213   */\n      dup2\n        /* \"#utility.yul\":21083:21214   */\n      tag_485\n      jump\t// in\n    tag_529:\n        /* \"#utility.yul\":21075:21214   */\n      swap1\n      pop\n        /* \"#utility.yul\":20802:21221   */\n      swap2\n      swap1\n      pop\n      jump\t// out\n        /* \"#utility.yul\":21227:21449   */\n    tag_53:\n        /* \"#utility.yul\":21320:21324   */\n      0x00\n        /* \"#utility.yul\":21358:21360   */\n      0x20\n        /* \"#utility.yul\":21347:21356   */\n      dup3\n        /* \"#utility.yul\":21343:21361   */\n      add\n        /* \"#utility.yul\":21335:21361   */\n      swap1\n      pop\n        /* \"#utility.yul\":21371:21442   */\n      tag_531\n        /* \"#utility.yul\":21439:21440   */\n      0x00\n        /* \"#utility.yul\":21428:21437   */\n      dup4\n        /* \"#utility.yul\":21424:21441   */\n      add\n        /* \"#utility.yul\":21415:21421   */\n      dup5\n        /* \"#utility.yul\":21371:21442   */\n      tag_490\n      jump\t// in\n    tag_531:\n        /* \"#utility.yul\":21227:21449   */\n      swap3\n      swap2\n      pop\n      pop\n      jump\t// out\n        /* \"#utility.yul\":21455:21584   */\n    tag_286:\n        /* \"#utility.yul\":21489:21495   */\n      0x00\n        /* \"#utility.yul\":21516:21536   */\n      tag_533\n      tag_534\n      jump\t// in\n    tag_533:\n        /* \"#utility.yul\":21506:21536   */\n      swap1\n      pop\n        /* \"#utility.yul\":21545:21578   */\n      tag_535\n        /* \"#utility.yul\":21573:21577   */\n      dup3\n        /* \"#utility.yul\":21565:21571   */\n      dup3\n        /* \"#utility.yul\":21545:21578   */\n      tag_536\n      jump\t// in\n    tag_535:\n        /* \"#utility.yul\":21455:21584   */\n      swap2\n      swap1\n      pop\n      jump\t// out\n        /* \"#utility.yul\":21590:21665   */\n    tag_534:\n        /* \"#utility.yul\":21623:21629   */\n      0x00\n        /* \"#utility.yul\":21656:21658   */\n      0x40\n        /* \"#utility.yul\":21650:21659   */\n      mload\n        /* \"#utility.yul\":21640:21659   */\n      swap1\n      pop\n        /* \"#utility.yul\":21590:21665   */\n      swap1\n      jump\t// out\n        /* \"#utility.yul\":21671:22008   */\n    tag_285:\n        /* \"#utility.yul\":21774:21778   */\n      0x00\n        /* \"#utility.yul\":21864:21882   */\n      0xffffffffffffffff\n        /* \"#utility.yul\":21856:21862   */\n      dup3\n        /* \"#utility.yul\":21853:21883   */\n      gt\n        /* \"#utility.yul\":21850:21906   */\n      iszero\n      tag_539\n      jumpi\n        /* \"#utility.yul\":21886:21904   */\n      tag_540\n      tag_242\n      jump\t// in\n    tag_540:\n        /* \"#utility.yul\":21850:21906   */\n    tag_539:\n        /* \"#utility.yul\":21936:21940   */\n      0x20\n        /* \"#utility.yul\":21928:21934   */\n      dup3\n        /* \"#utility.yul\":21924:21941   */\n      mul\n        /* \"#utility.yul\":21916:21941   */\n      swap1\n      pop\n        /* \"#utility.yul\":21996:22000   */\n      0x20\n        /* \"#utility.yul\":21990:21994   */\n      dup2\n        /* \"#utility.yul\":21986:22001   */\n      add\n        /* \"#utility.yul\":21978:22001   */\n      swap1\n      pop\n        /* \"#utility.yul\":21671:22008   */\n      swap2\n      swap1\n      pop\n      jump\t// out\n        /* \"#utility.yul\":22014:22321   */\n    tag_299:\n        /* \"#utility.yul\":22075:22079   */\n      0x00\n        /* \"#utility.yul\":22165:22183   */\n      0xffffffffffffffff\n        /* \"#utility.yul\":22157:22163   */\n      dup3\n        /* \"#utility.yul\":22154:22184   */\n      gt\n        /* \"#utility.yul\":22151:22207   */\n      iszero\n      tag_542\n      jumpi\n        /* \"#utility.yul\":22187:22205   */\n      tag_543\n      tag_242\n      jump\t// in\n    tag_543:\n        /* \"#utility.yul\":22151:22207   */\n    tag_542:\n        /* \"#utility.yul\":22225:22254   */\n      tag_544\n        /* \"#utility.yul\":22247:22253   */\n      dup3\n        /* \"#utility.yul\":22225:22254   */\n      tag_420\n      jump\t// in\n    tag_544:\n        /* \"#utility.yul\":22217:22254   */\n      swap1\n      pop\n        /* \"#utility.yul\":22309:22313   */\n      0x20\n        /* \"#utility.yul\":22303:22307   */\n      dup2\n        /* \"#utility.yul\":22299:22314   */\n      add\n        /* \"#utility.yul\":22291:22314   */\n      swap1\n      pop\n        /* \"#utility.yul\":22014:22321   */\n      swap2\n      swap1\n      pop\n      jump\t// out\n        /* \"#utility.yul\":22327:22425   */\n    tag_414:\n        /* \"#utility.yul\":22378:22384   */\n      0x00\n        /* \"#utility.yul\":22412:22417   */\n      dup2\n        /* \"#utility.yul\":22406:22418   */\n      mload\n        /* \"#utility.yul\":22396:22418   */\n      swap1\n      pop\n        /* \"#utility.yul\":22327:22425   */\n      swap2\n      swap1\n      pop\n      jump\t// out\n        /* \"#utility.yul\":22431:22530   */\n    tag_424:\n        /* \"#utility.yul\":22483:22489   */\n      0x00\n        /* \"#utility.yul\":22517:22522   */\n      dup2\n        /* \"#utility.yul\":22511:22523   */\n      mload\n        /* \"#utility.yul\":22501:22523   */\n      swap1\n      pop\n        /* \"#utility.yul\":22431:22530   */\n      swap2\n      swap1\n      pop\n      jump\t// out\n        /* \"#utility.yul\":22536:22704   */\n    tag_416:\n        /* \"#utility.yul\":22619:22630   */\n      0x00\n        /* \"#utility.yul\":22653:22659   */\n      dup3\n        /* \"#utility.yul\":22648:22651   */\n      dup3\n        /* \"#utility.yul\":22641:22660   */\n      mstore\n        /* \"#utility.yul\":22693:22697   */\n      0x20\n        /* \"#utility.yul\":22688:22691   */\n      dup3\n        /* \"#utility.yul\":22684:22698   */\n      add\n        /* \"#utility.yul\":22669:22698   */\n      swap1\n      pop\n        /* \"#utility.yul\":22536:22704   */\n      swap3\n      swap2\n      pop\n      pop\n      jump\t// out\n        /* \"#utility.yul\":22710:22879   */\n    tag_426:\n        /* \"#utility.yul\":22794:22805   */\n      0x00\n        /* \"#utility.yul\":22828:22834   */\n      dup3\n        /* \"#utility.yul\":22823:22826   */\n      dup3\n        /* \"#utility.yul\":22816:22835   */\n      mstore\n        /* \"#utility.yul\":22868:22872   */\n      0x20\n        /* \"#utility.yul\":22863:22866   */\n      dup3\n        /* \"#utility.yul\":22859:22873   */\n      add\n        /* \"#utility.yul\":22844:22873   */\n      swap1\n      pop\n        /* \"#utility.yul\":22710:22879   */\n      swap3\n      swap2\n      pop\n      pop\n      jump\t// out\n        /* \"#utility.yul\":22885:23033   */\n    tag_433:\n        /* \"#utility.yul\":22987:22998   */\n      0x00\n        /* \"#utility.yul\":23024:23027   */\n      dup2\n        /* \"#utility.yul\":23009:23027   */\n      swap1\n      pop\n        /* \"#utility.yul\":22885:23033   */\n      swap3\n      swap2\n      pop\n      pop\n      jump\t// out\n        /* \"#utility.yul\":23039:23344   */\n    tag_203:\n        /* \"#utility.yul\":23079:23082   */\n      0x00\n        /* \"#utility.yul\":23098:23118   */\n      tag_551\n        /* \"#utility.yul\":23116:23117   */\n      dup3\n        /* \"#utility.yul\":23098:23118   */\n      tag_493\n      jump\t// in\n    tag_551:\n        /* \"#utility.yul\":23093:23118   */\n      swap2\n      pop\n        /* \"#utility.yul\":23132:23152   */\n      tag_552\n        /* \"#utility.yul\":23150:23151   */\n      dup4\n        /* \"#utility.yul\":23132:23152   */\n      tag_493\n      jump\t// in\n    tag_552:\n        /* \"#utility.yul\":23127:23152   */\n      swap3\n      pop\n        /* \"#utility.yul\":23286:23287   */\n      dup3\n        /* \"#utility.yul\":23218:23284   */\n      0xffffffffffffffffffffffffffffffffffffffffffffffffffffffffffffffff\n        /* \"#utility.yul\":23214:23288   */\n      sub\n        /* \"#utility.yul\":23211:23212   */\n      dup3\n        /* \"#utility.yul\":23208:23289   */\n      gt\n        /* \"#utility.yul\":23205:23312   */\n      iszero\n      tag_553\n      jumpi\n        /* \"#utility.yul\":23292:23310   */\n      tag_554\n      tag_555\n      jump\t// in\n    tag_554:\n        /* \"#utility.yul\":23205:23312   */\n    tag_553:\n        /* \"#utility.yul\":23336:23337   */\n      dup3\n        /* \"#utility.yul\":23333:23334   */\n      dup3\n        /* \"#utility.yul\":23329:23338   */\n      add\n        /* \"#utility.yul\":23322:23338   */\n      swap1\n      pop\n        /* \"#utility.yul\":23039:23344   */\n      swap3\n      swap2\n      pop\n      pop\n      jump\t// out\n        /* \"#utility.yul\":23350:23535   */\n    tag_239:\n        /* \"#utility.yul\":23390:23391   */\n      0x00\n        /* \"#utility.yul\":23407:23427   */\n      tag_557\n        /* \"#utility.yul\":23425:23426   */\n      dup3\n        /* \"#utility.yul\":23407:23427   */\n      tag_493\n      jump\t// in\n    tag_557:\n        /* \"#utility.yul\":23402:23427   */\n      swap2\n      pop\n        /* \"#utility.yul\":23441:23461   */\n      tag_558\n        /* \"#utility.yul\":23459:23460   */\n      dup4\n        /* \"#utility.yul\":23441:23461   */\n      tag_493\n      jump\t// in\n    tag_558:\n        /* \"#utility.yul\":23436:23461   */\n      swap3\n      pop\n        /* \"#utility.yul\":23480:23481   */\n      dup3\n        /* \"#utility.yul\":23470:23505   */\n      tag_559\n      jumpi\n        /* \"#utility.yul\":23485:23503   */\n      tag_560\n      tag_561\n      jump\t// in\n    tag_560:\n        /* \"#utility.yul\":23470:23505   */\n    tag_559:\n        /* \"#utility.yul\":23527:23528   */\n      dup3\n        /* \"#utility.yul\":23524:23525   */\n      dup3\n        /* \"#utility.yul\":23520:23529   */\n      div\n        /* \"#utility.yul\":23515:23529   */\n      swap1\n      pop\n        /* \"#utility.yul\":23350:23535   */\n      swap3\n      swap2\n      pop\n      pop\n      jump\t// out\n        /* \"#utility.yul\":23541:23732   */\n    tag_201:\n        /* \"#utility.yul\":23581:23585   */\n      0x00\n        /* \"#utility.yul\":23601:23621   */\n      tag_563\n        /* \"#utility.yul\":23619:23620   */\n      dup3\n        /* \"#utility.yul\":23601:23621   */\n      tag_493\n      jump\t// in\n    tag_563:\n        /* \"#utility.yul\":23596:23621   */\n      swap2\n      pop\n        /* \"#utility.yul\":23635:23655   */\n      tag_564\n        /* \"#utility.yul\":23653:23654   */\n      dup4\n        /* \"#utility.yul\":23635:23655   */\n      tag_493\n      jump\t// in\n    tag_564:\n        /* \"#utility.yul\":23630:23655   */\n      swap3\n      pop\n        /* \"#utility.yul\":23674:23675   */\n      dup3\n        /* \"#utility.yul\":23671:23672   */\n      dup3\n        /* \"#utility.yul\":23668:23676   */\n      lt\n        /* \"#utility.yul\":23665:23699   */\n      iszero\n      tag_565\n      jumpi\n        /* \"#utility.yul\":23679:23697   */\n      tag_566\n      tag_555\n      jump\t// in\n    tag_566:\n        /* \"#utility.yul\":23665:23699   */\n    tag_565:\n        /* \"#utility.yul\":23724:23725   */\n      dup3\n        /* \"#utility.yul\":23721:23722   */\n      dup3\n        /* \"#utility.yul\":23717:23726   */\n      sub\n        /* \"#utility.yul\":23709:23726   */\n      swap1\n      pop\n        /* \"#utility.yul\":23541:23732   */\n      swap3\n      swap2\n      pop\n      pop\n      jump\t// out\n        /* \"#utility.yul\":23738:23834   */\n    tag_406:\n        /* \"#utility.yul\":23775:23782   */\n      0x00\n        /* \"#utility.yul\":23804:23828   */\n      tag_568\n        /* \"#utility.yul\":23822:23827   */\n      dup3\n        /* \"#utility.yul\":23804:23828   */\n      tag_569\n      jump\t// in\n    tag_568:\n        /* \"#utility.yul\":23793:23828   */\n      swap1\n      pop\n        /* \"#utility.yul\":23738:23834   */\n      swap2\n      swap1\n      pop\n      jump\t// out\n        /* \"#utility.yul\":23840:23930   */\n    tag_410:\n        /* \"#utility.yul\":23874:23881   */\n      0x00\n        /* \"#utility.yul\":23917:23922   */\n      dup2\n        /* \"#utility.yul\":23910:23923   */\n      iszero\n        /* \"#utility.yul\":23903:23924   */\n      iszero\n        /* \"#utility.yul\":23892:23924   */\n      swap1\n      pop\n        /* \"#utility.yul\":23840:23930   */\n      swap2\n      swap1\n      pop\n      jump\t// out\n        /* \"#utility.yul\":23936:24085   */\n    tag_571:\n        /* \"#utility.yul\":23972:23979   */\n      0x00\n        /* \"#utility.yul\":24012:24078   */\n      0xffffffff00000000000000000000000000000000000000000000000000000000\n        /* \"#utility.yul\":24005:24010   */\n      dup3\n        /* \"#utility.yul\":24001:24079   */\n      and\n        /* \"#utility.yul\":23990:24079   */\n      swap1\n      pop\n        /* \"#utility.yul\":23936:24085   */\n      swap2\n      swap1\n      pop\n      jump\t// out\n        /* \"#utility.yul\":24091:24217   */\n    tag_569:\n        /* \"#utility.yul\":24128:24135   */\n      0x00\n        /* \"#utility.yul\":24168:24210   */\n      0xffffffffffffffffffffffffffffffffffffffff\n        /* \"#utility.yul\":24161:24166   */\n      dup3\n        /* \"#utility.yul\":24157:24211   */\n      and\n        /* \"#utility.yul\":24146:24211   */\n      swap1\n      pop\n        /* \"#utility.yul\":24091:24217   */\n      swap2\n      swap1\n      pop\n      jump\t// out\n        /* \"#utility.yul\":24223:24300   */\n    tag_493:\n        /* \"#utility.yul\":24260:24267   */\n      0x00\n        /* \"#utility.yul\":24289:24294   */\n      dup2\n        /* \"#utility.yul\":24278:24294   */\n      swap1\n      pop\n        /* \"#utility.yul\":24223:24300   */\n      swap2\n      swap1\n      pop\n      jump\t// out\n        /* \"#utility.yul\":24306:24460   */\n    tag_304:\n        /* \"#utility.yul\":24390:24396   */\n      dup3\n        /* \"#utility.yul\":24385:24388   */\n      dup2\n        /* \"#utility.yul\":24380:24383   */\n      dup4\n        /* \"#utility.yul\":24367:24397   */\n      calldatacopy\n        /* \"#utility.yul\":24452:24453   */\n      0x00\n        /* \"#utility.yul\":24443:24449   */\n      dup4\n        /* \"#utility.yul\":24438:24441   */\n      dup4\n        /* \"#utility.yul\":24434:24450   */\n      add\n        /* \"#utility.yul\":24427:24454   */\n      mstore\n        /* \"#utility.yul\":24306:24460   */\n      pop\n      pop\n      pop\n      jump\t// out\n        /* \"#utility.yul\":24466:24773   */\n    tag_418:\n        /* \"#utility.yul\":24534:24535   */\n      0x00\n        /* \"#utility.yul\":24544:24657   */\n    tag_577:\n        /* \"#utility.yul\":24558:24564   */\n      dup4\n        /* \"#utility.yul\":24555:24556   */\n      dup2\n        /* \"#utility.yul\":24552:24565   */\n      lt\n        /* \"#utility.yul\":24544:24657   */\n      iszero\n      tag_579\n      jumpi\n        /* \"#utility.yul\":24643:24644   */\n      dup1\n        /* \"#utility.yul\":24638:24641   */\n      dup3\n        /* \"#utility.yul\":24634:24645   */\n      add\n        /* \"#utility.yul\":24628:24646   */\n      mload\n        /* \"#utility.yul\":24624:24625   */\n      dup2\n        /* \"#utility.yul\":24619:24622   */\n      dup5\n        /* \"#utility.yul\":24615:24626   */\n      add\n        /* \"#utility.yul\":24608:24647   */\n      mstore\n        /* \"#utility.yul\":24580:24582   */\n      0x20\n        /* \"#utility.yul\":24577:24578   */\n      dup2\n        /* \"#utility.yul\":24573:24583   */\n      add\n        /* \"#utility.yul\":24568:24583   */\n      swap1\n      pop\n        /* \"#utility.yul\":24544:24657   */\n      jump(tag_577)\n    tag_579:\n        /* \"#utility.yul\":24675:24681   */\n      dup4\n        /* \"#utility.yul\":24672:24673   */\n      dup2\n        /* \"#utility.yul\":24669:24682   */\n      gt\n        /* \"#utility.yul\":24666:24767   */\n      iszero\n      tag_580\n      jumpi\n        /* \"#utility.yul\":24755:24756   */\n      0x00\n        /* \"#utility.yul\":24746:24752   */\n      dup5\n        /* \"#utility.yul\":24741:24744   */\n      dup5\n        /* \"#utility.yul\":24737:24753   */\n      add\n        /* \"#utility.yul\":24730:24757   */\n      mstore\n        /* \"#utility.yul\":24666:24767   */\n    tag_580:\n        /* \"#utility.yul\":24515:24773   */\n      pop\n        /* \"#utility.yul\":24466:24773   */\n      pop\n      pop\n      pop\n      jump\t// out\n        /* \"#utility.yul\":24779:25099   */\n    tag_95:\n        /* \"#utility.yul\":24823:24829   */\n      0x00\n        /* \"#utility.yul\":24860:24861   */\n      0x02\n        /* \"#utility.yul\":24854:24858   */\n      dup3\n        /* \"#utility.yul\":24850:24862   */\n      div\n        /* \"#utility.yul\":24840:24862   */\n      swap1\n      pop\n        /* \"#utility.yul\":24907:24908   */\n      0x01\n        /* \"#utility.yul\":24901:24905   */\n      dup3\n        /* \"#utility.yul\":24897:24909   */\n      and\n        /* \"#utility.yul\":24928:24946   */\n      dup1\n        /* \"#utility.yul\":24918:24999   */\n      tag_582\n      jumpi\n        /* \"#utility.yul\":24984:24988   */\n      0x7f\n        /* \"#utility.yul\":24976:24982   */\n      dup3\n        /* \"#utility.yul\":24972:24989   */\n      and\n        /* \"#utility.yul\":24962:24989   */\n      swap2\n      pop\n        /* \"#utility.yul\":24918:24999   */\n    tag_582:\n        /* \"#utility.yul\":25046:25048   */\n      0x20\n        /* \"#utility.yul\":25038:25044   */\n      dup3\n        /* \"#utility.yul\":25035:25049   */\n      lt\n        /* \"#utility.yul\":25015:25033   */\n      dup2\n        /* \"#utility.yul\":25012:25050   */\n      eq\n        /* \"#utility.yul\":25009:25093   */\n      iszero\n      tag_583\n      jumpi\n        /* \"#utility.yul\":25065:25083   */\n      tag_584\n      tag_585\n      jump\t// in\n    tag_584:\n        /* \"#utility.yul\":25009:25093   */\n    tag_583:\n        /* \"#utility.yul\":24830:25099   */\n      pop\n        /* \"#utility.yul\":24779:25099   */\n      swap2\n      swap1\n      pop\n      jump\t// out\n        /* \"#utility.yul\":25105:25386   */\n    tag_536:\n        /* \"#utility.yul\":25188:25215   */\n      tag_587\n        /* \"#utility.yul\":25210:25214   */\n      dup3\n        /* \"#utility.yul\":25188:25215   */\n      tag_420\n      jump\t// in\n    tag_587:\n        /* \"#utility.yul\":25180:25186   */\n      dup2\n        /* \"#utility.yul\":25176:25216   */\n      add\n        /* \"#utility.yul\":25318:25324   */\n      dup2\n        /* \"#utility.yul\":25306:25316   */\n      dup2\n        /* \"#utility.yul\":25303:25325   */\n      lt\n        /* \"#utility.yul\":25282:25300   */\n      0xffffffffffffffff\n        /* \"#utility.yul\":25270:25280   */\n      dup3\n        /* \"#utility.yul\":25267:25301   */\n      gt\n        /* \"#utility.yul\":25264:25326   */\n      or\n        /* \"#utility.yul\":25261:25349   */\n      iszero\n      tag_588\n      jumpi\n        /* \"#utility.yul\":25329:25347   */\n      tag_589\n      tag_242\n      jump\t// in\n    tag_589:\n        /* \"#utility.yul\":25261:25349   */\n    tag_588:\n        /* \"#utility.yul\":25369:25379   */\n      dup1\n        /* \"#utility.yul\":25365:25367   */\n      0x40\n        /* \"#utility.yul\":25358:25380   */\n      mstore\n        /* \"#utility.yul\":25148:25386   */\n      pop\n        /* \"#utility.yul\":25105:25386   */\n      pop\n      pop\n      jump\t// out\n        /* \"#utility.yul\":25392:25625   */\n    tag_237:\n        /* \"#utility.yul\":25431:25434   */\n      0x00\n        /* \"#utility.yul\":25454:25478   */\n      tag_591\n        /* \"#utility.yul\":25472:25477   */\n      dup3\n        /* \"#utility.yul\":25454:25478   */\n      tag_493\n      jump\t// in\n    tag_591:\n        /* \"#utility.yul\":25445:25478   */\n      swap2\n      pop\n        /* \"#utility.yul\":25500:25566   */\n      0xffffffffffffffffffffffffffffffffffffffffffffffffffffffffffffffff\n        /* \"#utility.yul\":25493:25498   */\n      dup3\n        /* \"#utility.yul\":25490:25567   */\n      eq\n        /* \"#utility.yul\":25487:25590   */\n      iszero\n      tag_592\n      jumpi\n        /* \"#utility.yul\":25570:25588   */\n      tag_593\n      tag_555\n      jump\t// in\n    tag_593:\n        /* \"#utility.yul\":25487:25590   */\n    tag_592:\n        /* \"#utility.yul\":25617:25618   */\n      0x01\n        /* \"#utility.yul\":25610:25615   */\n      dup3\n        /* \"#utility.yul\":25606:25619   */\n      add\n        /* \"#utility.yul\":25599:25619   */\n      swap1\n      pop\n        /* \"#utility.yul\":25392:25625   */\n      swap2\n      swap1\n      pop\n      jump\t// out\n        /* \"#utility.yul\":25631:25807   */\n    tag_248:\n        /* \"#utility.yul\":25663:25664   */\n      0x00\n        /* \"#utility.yul\":25680:25700   */\n      tag_595\n        /* \"#utility.yul\":25698:25699   */\n      dup3\n        /* \"#utility.yul\":25680:25700   */\n      tag_493\n      jump\t// in\n    tag_595:\n        /* \"#utility.yul\":25675:25700   */\n      swap2\n      pop\n        /* \"#utility.yul\":25714:25734   */\n      tag_596\n        /* \"#utility.yul\":25732:25733   */\n      dup4\n        /* \"#utility.yul\":25714:25734   */\n      tag_493\n      jump\t// in\n    tag_596:\n        /* \"#utility.yul\":25709:25734   */\n      swap3\n      pop\n        /* \"#utility.yul\":25753:25754   */\n      dup3\n        /* \"#utility.yul\":25743:25778   */\n      tag_597\n      jumpi\n        /* \"#utility.yul\":25758:25776   */\n      tag_598\n      tag_561\n      jump\t// in\n    tag_598:\n        /* \"#utility.yul\":25743:25778   */\n    tag_597:\n        /* \"#utility.yul\":25799:25800   */\n      dup3\n        /* \"#utility.yul\":25796:25797   */\n      dup3\n        /* \"#utility.yul\":25792:25801   */\n      mod\n        /* \"#utility.yul\":25787:25801   */\n      swap1\n      pop\n        /* \"#utility.yul\":25631:25807   */\n      swap3\n      swap2\n      pop\n      pop\n      jump\t// out\n        /* \"#utility.yul\":25813:25993   */\n    tag_555:\n        /* \"#utility.yul\":25861:25938   */\n      0x4e487b7100000000000000000000000000000000000000000000000000000000\n        /* \"#utility.yul\":25858:25859   */\n      0x00\n        /* \"#utility.yul\":25851:25939   */\n      mstore\n        /* \"#utility.yul\":25958:25962   */\n      0x11\n        /* \"#utility.yul\":25955:25956   */\n      0x04\n        /* \"#utility.yul\":25948:25963   */\n      mstore\n        /* \"#utility.yul\":25982:25986   */\n      0x24\n        /* \"#utility.yul\":25979:25980   */\n      0x00\n        /* \"#utility.yul\":25972:25987   */\n      revert\n        /* \"#utility.yul\":25999:26179   */\n    tag_561:\n        /* \"#utility.yul\":26047:26124   */\n      0x4e487b7100000000000000000000000000000000000000000000000000000000\n        /* \"#utility.yul\":26044:26045   */\n      0x00\n        /* \"#utility.yul\":26037:26125   */\n      mstore\n        /* \"#utility.yul\":26144:26148   */\n      0x12\n        /* \"#utility.yul\":26141:26142   */\n      0x04\n        /* \"#utility.yul\":26134:26149   */\n      mstore\n        /* \"#utility.yul\":26168:26172   */\n      0x24\n        /* \"#utility.yul\":26165:26166   */\n      0x00\n        /* \"#utility.yul\":26158:26173   */\n      revert\n        /* \"#utility.yul\":26185:26365   */\n    tag_585:\n        /* \"#utility.yul\":26233:26310   */\n      0x4e487b7100000000000000000000000000000000000000000000000000000000\n        /* \"#utility.yul\":26230:26231   */\n      0x00\n        /* \"#utility.yul\":26223:26311   */\n      mstore\n        /* \"#utility.yul\":26330:26334   */\n      0x22\n        /* \"#utility.yul\":26327:26328   */\n      0x04\n        /* \"#utility.yul\":26320:26335   */\n      mstore\n        /* \"#utility.yul\":26354:26358   */\n      0x24\n        /* \"#utility.yul\":26351:26352   */\n      0x00\n        /* \"#utility.yul\":26344:26359   */\n      revert\n        /* \"#utility.yul\":26371:26551   */\n    tag_252:\n        /* \"#utility.yul\":26419:26496   */\n      0x4e487b7100000000000000000000000000000000000000000000000000000000\n        /* \"#utility.yul\":26416:26417   */\n      0x00\n        /* \"#utility.yul\":26409:26497   */\n      mstore\n        /* \"#utility.yul\":26516:26520   */\n      0x32\n        /* \"#utility.yul\":26513:26514   */\n      0x04\n        /* \"#utility.yul\":26506:26521   */\n      mstore\n        /* \"#utility.yul\":26540:26544   */\n      0x24\n        /* \"#utility.yul\":26537:26538   */\n      0x00\n        /* \"#utility.yul\":26530:26545   */\n      revert\n        /* \"#utility.yul\":26557:26737   */\n    tag_242:\n        /* \"#utility.yul\":26605:26682   */\n      0x4e487b7100000000000000000000000000000000000000000000000000000000\n        /* \"#utility.yul\":26602:26603   */\n      0x00\n        /* \"#utility.yul\":26595:26683   */\n      mstore\n        /* \"#utility.yul\":26702:26706   */\n      0x41\n        /* \"#utility.yul\":26699:26700   */\n      0x04\n        /* \"#utility.yul\":26692:26707   */\n      mstore\n        /* \"#utility.yul\":26726:26730   */\n      0x24\n        /* \"#utility.yul\":26723:26724   */\n      0x00\n        /* \"#utility.yul\":26716:26731   */\n      revert\n        /* \"#utility.yul\":26743:26860   */\n    tag_313:\n        /* \"#utility.yul\":26852:26853   */\n      0x00\n        /* \"#utility.yul\":26849:26850   */\n      dup1\n        /* \"#utility.yul\":26842:26854   */\n      revert\n        /* \"#utility.yul\":26866:26983   */\n    tag_334:\n        /* \"#utility.yul\":26975:26976   */\n      0x00\n        /* \"#utility.yul\":26972:26973   */\n      dup1\n        /* \"#utility.yul\":26965:26977   */\n      revert\n        /* \"#utility.yul\":27112:27229   */\n    tag_289:\n        /* \"#utility.yul\":27221:27222   */\n      0x00\n        /* \"#utility.yul\":27218:27219   */\n      dup1\n        /* \"#utility.yul\":27211:27223   */\n      revert\n        /* \"#utility.yul\":27235:27352   */\n    tag_302:\n        /* \"#utility.yul\":27344:27345   */\n      0x00\n        /* \"#utility.yul\":27341:27342   */\n      dup1\n        /* \"#utility.yul\":27334:27346   */\n      revert\n        /* \"#utility.yul\":27358:27475   */\n    tag_366:\n        /* \"#utility.yul\":27467:27468   */\n      0x00\n        /* \"#utility.yul\":27464:27465   */\n      dup1\n        /* \"#utility.yul\":27457:27469   */\n      revert\n        /* \"#utility.yul\":27481:27598   */\n    tag_345:\n        /* \"#utility.yul\":27590:27591   */\n      0x00\n        /* \"#utility.yul\":27587:27588   */\n      dup1\n        /* \"#utility.yul\":27580:27592   */\n      revert\n        /* \"#utility.yul\":27604:27706   */\n    tag_420:\n        /* \"#utility.yul\":27645:27651   */\n      0x00\n        /* \"#utility.yul\":27696:27698   */\n      0x1f\n        /* \"#utility.yul\":27692:27699   */\n      not\n        /* \"#utility.yul\":27687:27689   */\n      0x1f\n        /* \"#utility.yul\":27680:27685   */\n      dup4\n        /* \"#utility.yul\":27676:27690   */\n      add\n        /* \"#utility.yul\":27672:27700   */\n      and\n        /* \"#utility.yul\":27662:27700   */\n      swap1\n      pop\n        /* \"#utility.yul\":27604:27706   */\n      swap2\n      swap1\n      pop\n      jump\t// out\n        /* \"#utility.yul\":27712:27949   */\n    tag_439:\n        /* \"#utility.yul\":27852:27886   */\n      0x4552433732313a207472616e7366657220746f206e6f6e204552433732315265\n        /* \"#utility.yul\":27848:27849   */\n      0x00\n        /* \"#utility.yul\":27840:27846   */\n      dup3\n        /* \"#utility.yul\":27836:27850   */\n      add\n        /* \"#utility.yul\":27829:27887   */\n      mstore\n        /* \"#utility.yul\":27921:27941   */\n      0x63656976657220696d706c656d656e7465720000000000000000000000000000\n        /* \"#utility.yul\":27916:27918   */\n      0x20\n        /* \"#utility.yul\":27908:27914   */\n      dup3\n        /* \"#utility.yul\":27904:27919   */\n      add\n        /* \"#utility.yul\":27897:27942   */\n      mstore\n        /* \"#utility.yul\":27712:27949   */\n      pop\n      jump\t// out\n        /* \"#utility.yul\":27955:28179   */\n    tag_444:\n        /* \"#utility.yul\":28095:28129   */\n      0x4552433732313a207472616e736665722066726f6d20696e636f727265637420\n        /* \"#utility.yul\":28091:28092   */\n      0x00\n        /* \"#utility.yul\":28083:28089   */\n      dup3\n        /* \"#utility.yul\":28079:28093   */\n      add\n        /* \"#utility.yul\":28072:28130   */\n      mstore\n        /* \"#utility.yul\":28164:28171   */\n      0x6f776e6572000000000000000000000000000000000000000000000000000000\n        /* \"#utility.yul\":28159:28161   */\n      0x20\n        /* \"#utility.yul\":28151:28157   */\n      dup3\n        /* \"#utility.yul\":28147:28162   */\n      add\n        /* \"#utility.yul\":28140:28172   */\n      mstore\n        /* \"#utility.yul\":27955:28179   */\n      pop\n      jump\t// out\n        /* \"#utility.yul\":28185:28363   */\n    tag_449:\n        /* \"#utility.yul\":28325:28355   */\n      0x4552433732313a20746f6b656e20616c7265616479206d696e74656400000000\n        /* \"#utility.yul\":28321:28322   */\n      0x00\n        /* \"#utility.yul\":28313:28319   */\n      dup3\n        /* \"#utility.yul\":28309:28323   */\n      add\n        /* \"#utility.yul\":28302:28356   */\n      mstore\n        /* \"#utility.yul\":28185:28363   */\n      pop\n      jump\t// out\n        /* \"#utility.yul\":28369:28592   */\n    tag_454:\n        /* \"#utility.yul\":28509:28543   */\n      0x4552433732313a207472616e7366657220746f20746865207a65726f20616464\n        /* \"#utility.yul\":28505:28506   */\n      0x00\n        /* \"#utility.yul\":28497:28503   */\n      dup3\n        /* \"#utility.yul\":28493:28507   */\n      add\n        /* \"#utility.yul\":28486:28544   */\n      mstore\n        /* \"#utility.yul\":28578:28584   */\n      0x7265737300000000000000000000000000000000000000000000000000000000\n        /* \"#utility.yul\":28573:28575   */\n      0x20\n        /* \"#utility.yul\":28565:28571   */\n      dup3\n        /* \"#utility.yul\":28561:28576   */\n      add\n        /* \"#utility.yul\":28554:28585   */\n      mstore\n        /* \"#utility.yul\":28369:28592   */\n      pop\n      jump\t// out\n        /* \"#utility.yul\":28598:28773   */\n    tag_459:\n        /* \"#utility.yul\":28738:28765   */\n      0x4552433732313a20617070726f766520746f2063616c6c657200000000000000\n        /* \"#utility.yul\":28734:28735   */\n      0x00\n        /* \"#utility.yul\":28726:28732   */\n      dup3\n        /* \"#utility.yul\":28722:28736   */\n      add\n        /* \"#utility.yul\":28715:28766   */\n      mstore\n        /* \"#utility.yul\":28598:28773   */\n      pop\n      jump\t// out\n        /* \"#utility.yul\":28779:29007   */\n    tag_464:\n        /* \"#utility.yul\":28919:28953   */\n      0x4552433732313a2061646472657373207a65726f206973206e6f742061207661\n        /* \"#utility.yul\":28915:28916   */\n      0x00\n        /* \"#utility.yul\":28907:28913   */\n      dup3\n        /* \"#utility.yul\":28903:28917   */\n      add\n        /* \"#utility.yul\":28896:28954   */\n      mstore\n        /* \"#utility.yul\":28988:28999   */\n      0x6c6964206f776e65720000000000000000000000000000000000000000000000\n        /* \"#utility.yul\":28983:28985   */\n      0x20\n        /* \"#utility.yul\":28975:28981   */\n      dup3\n        /* \"#utility.yul\":28971:28986   */\n      add\n        /* \"#utility.yul\":28964:29000   */\n      mstore\n        /* \"#utility.yul\":28779:29007   */\n      pop\n      jump\t// out\n        /* \"#utility.yul\":29013:29262   */\n    tag_469:\n        /* \"#utility.yul\":29153:29187   */\n      0x4552433732313a20617070726f76652063616c6c6572206973206e6f7420746f\n        /* \"#utility.yul\":29149:29150   */\n      0x00\n        /* \"#utility.yul\":29141:29147   */\n      dup3\n        /* \"#utility.yul\":29137:29151   */\n      add\n        /* \"#utility.yul\":29130:29188   */\n      mstore\n        /* \"#utility.yul\":29222:29254   */\n      0x6b656e206f776e6572206e6f7220617070726f76656420666f7220616c6c0000\n        /* \"#utility.yul\":29217:29219   */\n      0x20\n        /* \"#utility.yul\":29209:29215   */\n      dup3\n        /* \"#utility.yul\":29205:29220   */\n      add\n        /* \"#utility.yul\":29198:29255   */\n      mstore\n        /* \"#utility.yul\":29013:29262   */\n      pop\n      jump\t// out\n        /* \"#utility.yul\":29268:29450   */\n    tag_474:\n        /* \"#utility.yul\":29408:29442   */\n      0x4552433732313a206d696e7420746f20746865207a65726f2061646472657373\n        /* \"#utility.yul\":29404:29405   */\n      0x00\n        /* \"#utility.yul\":29396:29402   */\n      dup3\n        /* \"#utility.yul\":29392:29406   */\n      add\n        /* \"#utility.yul\":29385:29443   */\n      mstore\n        /* \"#utility.yul\":29268:29450   */\n      pop\n      jump\t// out\n        /* \"#utility.yul\":29456:29630   */\n    tag_479:\n        /* \"#utility.yul\":29596:29622   */\n      0x4552433732313a20696e76616c696420746f6b656e2049440000000000000000\n        /* \"#utility.yul\":29592:29593   */\n      0x00\n        /* \"#utility.yul\":29584:29590   */\n      dup3\n        /* \"#utility.yul\":29580:29594   */\n      add\n        /* \"#utility.yul\":29573:29623   */\n      mstore\n        /* \"#utility.yul\":29456:29630   */\n      pop\n      jump\t// out\n        /* \"#utility.yul\":29636:29856   */\n    tag_484:\n        /* \"#utility.yul\":29776:29810   */\n      0x4552433732313a20617070726f76616c20746f2063757272656e74206f776e65\n        /* \"#utility.yul\":29772:29773   */\n      0x00\n        /* \"#utility.yul\":29764:29770   */\n      dup3\n        /* \"#utility.yul\":29760:29774   */\n      add\n        /* \"#utility.yul\":29753:29811   */\n      mstore\n        /* \"#utility.yul\":29845:29848   */\n      0x7200000000000000000000000000000000000000000000000000000000000000\n        /* \"#utility.yul\":29840:29842   */\n      0x20\n        /* \"#utility.yul\":29832:29838   */\n      dup3\n        /* \"#utility.yul\":29828:29843   */\n      add\n        /* \"#utility.yul\":29821:29849   */\n      mstore\n        /* \"#utility.yul\":29636:29856   */\n      pop\n      jump\t// out\n        /* \"#utility.yul\":29862:30095   */\n    tag_489:\n        /* \"#utility.yul\":30002:30036   */\n      0x4552433732313a2063616c6c6572206973206e6f7420746f6b656e206f776e65\n        /* \"#utility.yul\":29998:29999   */\n      0x00\n        /* \"#utility.yul\":29990:29996   */\n      dup3\n        /* \"#utility.yul\":29986:30000   */\n      add\n        /* \"#utility.yul\":29979:30037   */\n      mstore\n        /* \"#utility.yul\":30071:30087   */\n      0x72206e6f7220617070726f766564000000000000000000000000000000000000\n        /* \"#utility.yul\":30066:30068   */\n      0x20\n        /* \"#utility.yul\":30058:30064   */\n      dup3\n        /* \"#utility.yul\":30054:30069   */\n      add\n        /* \"#utility.yul\":30047:30088   */\n      mstore\n        /* \"#utility.yul\":29862:30095   */\n      pop\n      jump\t// out\n        /* \"#utility.yul\":30101:30223   */\n    tag_308:\n        /* \"#utility.yul\":30174:30198   */\n      tag_625\n        /* \"#utility.yul\":30192:30197   */\n      dup2\n        /* \"#utility.yul\":30174:30198   */\n      tag_406\n      jump\t// in\n    tag_625:\n        /* \"#utility.yul\":30167:30172   */\n      dup2\n        /* \"#utility.yul\":30164:30199   */\n      eq\n        /* \"#utility.yul\":30154:30217   */\n      tag_626\n      jumpi\n        /* \"#utility.yul\":30213:30214   */\n      0x00\n        /* \"#utility.yul\":30210:30211   */\n      dup1\n        /* \"#utility.yul\":30203:30215   */\n      revert\n        /* \"#utility.yul\":30154:30217   */\n    tag_626:\n        /* \"#utility.yul\":30101:30223   */\n      pop\n      jump\t// out\n        /* \"#utility.yul\":30229:30345   */\n    tag_318:\n        /* \"#utility.yul\":30299:30320   */\n      tag_628\n        /* \"#utility.yul\":30314:30319   */\n      dup2\n        /* \"#utility.yul\":30299:30320   */\n      tag_410\n      jump\t// in\n    tag_628:\n        /* \"#utility.yul\":30292:30297   */\n      dup2\n        /* \"#utility.yul\":30289:30321   */\n      eq\n        /* \"#utility.yul\":30279:30339   */\n      tag_629\n      jumpi\n        /* \"#utility.yul\":30335:30336   */\n      0x00\n        /* \"#utility.yul\":30332:30333   */\n      dup1\n        /* \"#utility.yul\":30325:30337   */\n      revert\n        /* \"#utility.yul\":30279:30339   */\n    tag_629:\n        /* \"#utility.yul\":30229:30345   */\n      pop\n      jump\t// out\n        /* \"#utility.yul\":30351:30471   */\n    tag_322:\n        /* \"#utility.yul\":30423:30446   */\n      tag_631\n        /* \"#utility.yul\":30440:30445   */\n      dup2\n        /* \"#utility.yul\":30423:30446   */\n      tag_571\n      jump\t// in\n    tag_631:\n        /* \"#utility.yul\":30416:30421   */\n      dup2\n        /* \"#utility.yul\":30413:30447   */\n      eq\n        /* \"#utility.yul\":30403:30465   */\n      tag_632\n      jumpi\n        /* \"#utility.yul\":30461:30462   */\n      0x00\n        /* \"#utility.yul\":30458:30459   */\n      dup1\n        /* \"#utility.yul\":30451:30463   */\n      revert\n        /* \"#utility.yul\":30403:30465   */\n    tag_632:\n        /* \"#utility.yul\":30351:30471   */\n      pop\n      jump\t// out\n        /* \"#utility.yul\":30477:30599   */\n    tag_341:\n        /* \"#utility.yul\":30550:30574   */\n      tag_634\n        /* \"#utility.yul\":30568:30573   */\n      dup2\n        /* \"#utility.yul\":30550:30574   */\n      tag_493\n      jump\t// in\n    tag_634:\n        /* \"#utility.yul\":30543:30548   */\n      dup2\n        /* \"#utility.yul\":30540:30575   */\n      eq\n        /* \"#utility.yul\":30530:30593   */\n      tag_635\n      jumpi\n        /* \"#utility.yul\":30589:30590   */\n      0x00\n        /* \"#utility.yul\":30586:30587   */\n      dup1\n        /* \"#utility.yul\":30579:30591   */\n      revert\n        /* \"#utility.yul\":30530:30593   */\n    tag_635:\n        /* \"#utility.yul\":30477:30599   */\n      pop\n      jump\t// out\n\n    auxdata: 0xa26469706673582212204beb0b7992a4a2eb2419350dfcf585fcfbb8000129e7d8a33c3e7a584c99987164736f6c63430008070033\n}\n",
				"bytecode": {
					"linkReferences": {},
					"object": "60806040523480156200001157600080fd5b506040518060400160405280600f81526020017f42696c6c696e67205265717565737400000000000000000000000000000000008152506040518060400160405280600381526020017f4252510000000000000000000000000000000000000000000000000000000000815250816000908051906020019062000096929190620000b8565b508060019080519060200190620000af929190620000b8565b505050620001cd565b828054620000c69062000168565b90600052602060002090601f016020900481019282620000ea576000855562000136565b82601f106200010557805160ff191683800117855562000136565b8280016001018555821562000136579182015b828111156200013557825182559160200191906001019062000118565b5b50905062000145919062000149565b5090565b5b80821115620001645760008160009055506001016200014a565b5090565b600060028204905060018216806200018157607f821691505b602082108114156200019857620001976200019e565b5b50919050565b7f4e487b7100000000000000000000000000000000000000000000000000000000600052602260045260246000fd5b6126fb80620001dd6000396000f3fe608060405234801561001057600080fd5b50600436106100f55760003560e01c80636352211e11610097578063b21b89bd11610066578063b21b89bd14610296578063b88d4fde146102c6578063c87b56dd146102e2578063e985e9c514610312576100f5565b80636352211e146101fc57806370a082311461022c57806395d89b411461025c578063a22cb4651461027a576100f5565b8063095ea7b3116100d3578063095ea7b31461017857806323b872dd1461019457806342842e0e146101b05780635b912b96146101cc576100f5565b806301ffc9a7146100fa57806306fdde031461012a578063081812fc14610148575b600080fd5b610114600480360381019061010f9190611a54565b610342565b6040516101219190611db7565b60405180910390f35b610132610424565b60405161013f9190611dd2565b60405180910390f35b610162600480360381019061015d9190611aae565b6104b6565b60405161016f9190611d50565b60405180910390f35b610192600480360381019061018d919061196f565b6104fc565b005b6101ae60048036038101906101a99190611859565b610614565b005b6101ca60048036038101906101c59190611859565b610674565b005b6101e660048036038101906101e191906119f8565b610694565b6040516101f39190611f54565b60405180910390f35b61021660048036038101906102119190611aae565b6106c1565b6040516102239190611d50565b60405180910390f35b610246600480360381019061024191906117ec565b610773565b6040516102539190611f54565b60405180910390f35b61026461082b565b6040516102719190611dd2565b60405180910390f35b610294600480360381019061028f919061192f565b6108bd565b005b6102b060048036038101906102ab91906119af565b6108d3565b6040516102bd9190611f54565b60405180910390f35b6102e060048036038101906102db91906118ac565b6108e6565b005b6102fc60048036038101906102f79190611aae565b610948565b6040516103099190611dd2565b60405180910390f35b61032c60048036038101906103279190611819565b6109b0565b6040516103399190611db7565b60405180910390f35b60007f80ac58cd000000000000000000000000000000000000000000000000000000007bffffffffffffffffffffffffffffffffffffffffffffffffffffffff1916827bffffffffffffffffffffffffffffffffffffffffffffffffffffffff1916148061040d57507f5b5e139f000000000000000000000000000000000000000000000000000000007bffffffffffffffffffffffffffffffffffffffffffffffffffffffff1916827bffffffffffffffffffffffffffffffffffffffffffffffffffffffff1916145b8061041d575061041c82610a44565b5b9050919050565b606060008054610433906121a5565b80601f016020809104026020016040519081016040528092919081815260200182805461045f906121a5565b80156104ac5780601f10610481576101008083540402835291602001916104ac565b820191906000526020600020905b81548152906001019060200180831161048f57829003601f168201915b5050505050905090565b60006104c182610aae565b6004600083815260200190815260200160002060009054906101000a900473ffffffffffffffffffffffffffffffffffffffff169050919050565b6000610507826106c1565b90508073ffffffffffffffffffffffffffffffffffffffff168373ffffffffffffffffffffffffffffffffffffffff161415610578576040517f08c379a000000000000000000000000000000000000000000000000000000000815260040161056f90611f14565b60405180910390fd5b8073ffffffffffffffffffffffffffffffffffffffff16610597610af9565b73ffffffffffffffffffffffffffffffffffffffff1614806105c657506105c5816105c0610af9565b6109b0565b5b610605576040517f08c379a00000000000000000000000000000000000000000000000000000000081526004016105fc90611eb4565b60405180910390fd5b61060f8383610b01565b505050565b61062561061f610af9565b82610bba565b610664576040517f08c379a000000000000000000000000000000000000000000000000000000000815260040161065b90611f34565b60405180910390fd5b61066f838383610c4f565b505050565b61068f838383604051806020016040528060008152506108e6565b505050565b6000806106a16006610eb6565b90506106ad8382610ec4565b6106b7600661109e565b8091505092915050565b6000806002600084815260200190815260200160002060009054906101000a900473ffffffffffffffffffffffffffffffffffffffff169050600073ffffffffffffffffffffffffffffffffffffffff168173ffffffffffffffffffffffffffffffffffffffff16141561076a576040517f08c379a000000000000000000000000000000000000000000000000000000000815260040161076190611ef4565b60405180910390fd5b80915050919050565b60008073ffffffffffffffffffffffffffffffffffffffff168273ffffffffffffffffffffffffffffffffffffffff1614156107e4576040517f08c379a00000000000000000000000000000000000000000000000000000000081526004016107db90611e94565b60405180910390fd5b600360008373ffffffffffffffffffffffffffffffffffffffff1673ffffffffffffffffffffffffffffffffffffffff168152602001908152602001600020549050919050565b60606001805461083a906121a5565b80601f0160208091040260200160405190810160405280929190818152602001828054610866906121a5565b80156108b35780601f10610888576101008083540402835291602001916108b3565b820191906000526020600020905b81548152906001019060200180831161089657829003601f168201915b5050505050905090565b6108cf6108c8610af9565b83836110b4565b5050565b60006108df8233610694565b9050919050565b6108f76108f1610af9565b83610bba565b610936576040517f08c379a000000000000000000000000000000000000000000000000000000000815260040161092d90611f34565b60405180910390fd5b61094284848484611221565b50505050565b606061095382610aae565b600061095d61127d565b9050600081511161097d57604051806020016040528060008152506109a8565b8061098784611294565b604051602001610998929190611d2c565b6040516020818303038152906040525b915050919050565b6000600560008473ffffffffffffffffffffffffffffffffffffffff1673ffffffffffffffffffffffffffffffffffffffff16815260200190815260200160002060008373ffffffffffffffffffffffffffffffffffffffff1673ffffffffffffffffffffffffffffffffffffffff16815260200190815260200160002060009054906101000a900460ff16905092915050565b60007f01ffc9a7000000000000000000000000000000000000000000000000000000007bffffffffffffffffffffffffffffffffffffffffffffffffffffffff1916827bffffffffffffffffffffffffffffffffffffffffffffffffffffffff1916149050919050565b610ab7816113f5565b610af6576040517f08c379a0000000000000000000000000000000000000000000000000000000008152600401610aed90611ef4565b60405180910390fd5b50565b600033905090565b816004600083815260200190815260200160002060006101000a81548173ffffffffffffffffffffffffffffffffffffffff021916908373ffffffffffffffffffffffffffffffffffffffff160217905550808273ffffffffffffffffffffffffffffffffffffffff16610b74836106c1565b73ffffffffffffffffffffffffffffffffffffffff167f8c5be1e5ebec7d5bd14f71427d1e84f3dd0314c0f7b2291e5b200ac8c7c3b92560405160405180910390a45050565b600080610bc6836106c1565b90508073ffffffffffffffffffffffffffffffffffffffff168473ffffffffffffffffffffffffffffffffffffffff161480610c085750610c0781856109b0565b5b80610c4657508373ffffffffffffffffffffffffffffffffffffffff16610c2e846104b6565b73ffffffffffffffffffffffffffffffffffffffff16145b91505092915050565b8273ffffffffffffffffffffffffffffffffffffffff16610c6f826106c1565b73ffffffffffffffffffffffffffffffffffffffff1614610cc5576040517f08c379a0000000000000000000000000000000000000000000000000000000008152600401610cbc90611e14565b60405180910390fd5b600073ffffffffffffffffffffffffffffffffffffffff168273ffffffffffffffffffffffffffffffffffffffff161415610d35576040517f08c379a0000000000000000000000000000000000000000000000000000000008152600401610d2c90611e54565b60405180910390fd5b610d40838383611461565b610d4b600082610b01565b6001600360008573ffffffffffffffffffffffffffffffffffffffff1673ffffffffffffffffffffffffffffffffffffffff1681526020019081526020016000206000828254610d9b91906120bb565b925050819055506001600360008473ffffffffffffffffffffffffffffffffffffffff1673ffffffffffffffffffffffffffffffffffffffff1681526020019081526020016000206000828254610df29190612034565b92505081905550816002600083815260200190815260200160002060006101000a81548173ffffffffffffffffffffffffffffffffffffffff021916908373ffffffffffffffffffffffffffffffffffffffff160217905550808273ffffffffffffffffffffffffffffffffffffffff168473ffffffffffffffffffffffffffffffffffffffff167fddf252ad1be2c89b69c2b068fc378daa952ba7f163c4a11628f55a4df523b3ef60405160405180910390a4610eb1838383611466565b505050565b600081600001549050919050565b600073ffffffffffffffffffffffffffffffffffffffff168273ffffffffffffffffffffffffffffffffffffffff161415610f34576040517f08c379a0000000000000000000000000000000000000000000000000000000008152600401610f2b90611ed4565b60405180910390fd5b610f3d816113f5565b15610f7d576040517f08c379a0000000000000000000000000000000000000000000000000000000008152600401610f7490611e34565b60405180910390fd5b610f8960008383611461565b6001600360008473ffffffffffffffffffffffffffffffffffffffff1673ffffffffffffffffffffffffffffffffffffffff1681526020019081526020016000206000828254610fd99190612034565b92505081905550816002600083815260200190815260200160002060006101000a81548173ffffffffffffffffffffffffffffffffffffffff021916908373ffffffffffffffffffffffffffffffffffffffff160217905550808273ffffffffffffffffffffffffffffffffffffffff16600073ffffffffffffffffffffffffffffffffffffffff167fddf252ad1be2c89b69c2b068fc378daa952ba7f163c4a11628f55a4df523b3ef60405160405180910390a461109a60008383611466565b5050565b6001816000016000828254019250508190555050565b8173ffffffffffffffffffffffffffffffffffffffff168373ffffffffffffffffffffffffffffffffffffffff161415611123576040517f08c379a000000000000000000000000000000000000000000000000000000000815260040161111a90611e74565b60405180910390fd5b80600560008573ffffffffffffffffffffffffffffffffffffffff1673ffffffffffffffffffffffffffffffffffffffff16815260200190815260200160002060008473ffffffffffffffffffffffffffffffffffffffff1673ffffffffffffffffffffffffffffffffffffffff16815260200190815260200160002060006101000a81548160ff0219169083151502179055508173ffffffffffffffffffffffffffffffffffffffff168373ffffffffffffffffffffffffffffffffffffffff167f17307eab39ab6107e8899845ad3d59bd9653f200f220920489ca2b5937696c31836040516112149190611db7565b60405180910390a3505050565b61122c848484610c4f565b6112388484848461146b565b611277576040517f08c379a000000000000000000000000000000000000000000000000000000000815260040161126e90611df4565b60405180910390fd5b50505050565b606060405180602001604052806000815250905090565b606060008214156112dc576040518060400160405280600181526020017f300000000000000000000000000000000000000000000000000000000000000081525090506113f0565b600082905060005b6000821461130e5780806112f790612208565b915050600a82611307919061208a565b91506112e4565b60008167ffffffffffffffff81111561132a5761132961233e565b5b6040519080825280601f01601f19166020018201604052801561135c5781602001600182028036833780820191505090505b5090505b600085146113e95760018261137591906120bb565b9150600a856113849190612251565b60306113909190612034565b60f81b8183815181106113a6576113a561230f565b5b60200101907effffffffffffffffffffffffffffffffffffffffffffffffffffffffffffff1916908160001a905350600a856113e2919061208a565b9450611360565b8093505050505b919050565b60008073ffffffffffffffffffffffffffffffffffffffff166002600084815260200190815260200160002060009054906101000a900473ffffffffffffffffffffffffffffffffffffffff1673ffffffffffffffffffffffffffffffffffffffff1614159050919050565b505050565b505050565b600061148c8473ffffffffffffffffffffffffffffffffffffffff16611602565b156115f5578373ffffffffffffffffffffffffffffffffffffffff1663150b7a026114b5610af9565b8786866040518563ffffffff1660e01b81526004016114d79493929190611d6b565b602060405180830381600087803b1580156114f157600080fd5b505af192505050801561152257506040513d601f19601f8201168201806040525081019061151f9190611a81565b60015b6115a5573d8060008114611552576040519150601f19603f3d011682016040523d82523d6000602084013e611557565b606091505b5060008151141561159d576040517f08c379a000000000000000000000000000000000000000000000000000000000815260040161159490611df4565b60405180910390fd5b805181602001fd5b63150b7a0260e01b7bffffffffffffffffffffffffffffffffffffffffffffffffffffffff1916817bffffffffffffffffffffffffffffffffffffffffffffffffffffffff1916149150506115fa565b600190505b949350505050565b6000808273ffffffffffffffffffffffffffffffffffffffff163b119050919050565b600061163861163384611f94565b611f6f565b9050808382526020820190508285604086028201111561165b5761165a612377565b5b60005b8581101561168b57816116718882611787565b84526020840193506040830192505060018101905061165e565b5050509392505050565b60006116a86116a384611fc0565b611f6f565b9050828152602081018484840111156116c4576116c361237c565b5b6116cf848285612163565b509392505050565b6000813590506116e681612669565b92915050565b600082601f8301126117015761170061236d565b5b8135611711848260208601611625565b91505092915050565b60008135905061172981612680565b92915050565b60008135905061173e81612697565b92915050565b60008151905061175381612697565b92915050565b600082601f83011261176e5761176d61236d565b5b813561177e848260208601611695565b91505092915050565b60006040828403121561179d5761179c612372565b5b6117a76040611f6f565b905060006117b7848285016116d7565b60008301525060206117cb848285016117d7565b60208301525092915050565b6000813590506117e6816126ae565b92915050565b60006020828403121561180257611801612386565b5b6000611810848285016116d7565b91505092915050565b600080604083850312156118305761182f612386565b5b600061183e858286016116d7565b925050602061184f858286016116d7565b9150509250929050565b60008060006060848603121561187257611871612386565b5b6000611880868287016116d7565b9350506020611891868287016116d7565b92505060406118a2868287016117d7565b9150509250925092565b600080600080608085870312156118c6576118c5612386565b5b60006118d4878288016116d7565b94505060206118e5878288016116d7565b93505060406118f6878288016117d7565b925050606085013567ffffffffffffffff81111561191757611916612381565b5b61192387828801611759565b91505092959194509250565b6000806040838503121561194657611945612386565b5b6000611954858286016116d7565b92505060206119658582860161171a565b9150509250929050565b6000806040838503121561198657611985612386565b5b6000611994858286016116d7565b92505060206119a5858286016117d7565b9150509250929050565b6000602082840312156119c5576119c4612386565b5b600082013567ffffffffffffffff8111156119e3576119e2612381565b5b6119ef848285016116ec565b91505092915050565b60008060408385031215611a0f57611a0e612386565b5b600083013567ffffffffffffffff811115611a2d57611a2c612381565b5b611a39858286016116ec565b9250506020611a4a858286016116d7565b9150509250929050565b600060208284031215611a6a57611a69612386565b5b6000611a788482850161172f565b91505092915050565b600060208284031215611a9757611a96612386565b5b6000611aa584828501611744565b91505092915050565b600060208284031215611ac457611ac3612386565b5b6000611ad2848285016117d7565b91505092915050565b611ae4816120ef565b82525050565b611af381612101565b82525050565b6000611b0482611ff1565b611b0e8185612007565b9350611b1e818560208601612172565b611b278161238b565b840191505092915050565b6000611b3d82611ffc565b611b478185612018565b9350611b57818560208601612172565b611b608161238b565b840191505092915050565b6000611b7682611ffc565b611b808185612029565b9350611b90818560208601612172565b80840191505092915050565b6000611ba9603283612018565b9150611bb48261239c565b604082019050919050565b6000611bcc602583612018565b9150611bd7826123eb565b604082019050919050565b6000611bef601c83612018565b9150611bfa8261243a565b602082019050919050565b6000611c12602483612018565b9150611c1d82612463565b604082019050919050565b6000611c35601983612018565b9150611c40826124b2565b602082019050919050565b6000611c58602983612018565b9150611c63826124db565b604082019050919050565b6000611c7b603e83612018565b9150611c868261252a565b604082019050919050565b6000611c9e602083612018565b9150611ca982612579565b602082019050919050565b6000611cc1601883612018565b9150611ccc826125a2565b602082019050919050565b6000611ce4602183612018565b9150611cef826125cb565b604082019050919050565b6000611d07602e83612018565b9150611d128261261a565b604082019050919050565b611d2681612159565b82525050565b6000611d388285611b6b565b9150611d448284611b6b565b91508190509392505050565b6000602082019050611d656000830184611adb565b92915050565b6000608082019050611d806000830187611adb565b611d8d6020830186611adb565b611d9a6040830185611d1d565b8181036060830152611dac8184611af9565b905095945050505050565b6000602082019050611dcc6000830184611aea565b92915050565b60006020820190508181036000830152611dec8184611b32565b905092915050565b60006020820190508181036000830152611e0d81611b9c565b9050919050565b60006020820190508181036000830152611e2d81611bbf565b9050919050565b60006020820190508181036000830152611e4d81611be2565b9050919050565b60006020820190508181036000830152611e6d81611c05565b9050919050565b60006020820190508181036000830152611e8d81611c28565b9050919050565b60006020820190508181036000830152611ead81611c4b565b9050919050565b60006020820190508181036000830152611ecd81611c6e565b9050919050565b60006020820190508181036000830152611eed81611c91565b9050919050565b60006020820190508181036000830152611f0d81611cb4565b9050919050565b60006020820190508181036000830152611f2d81611cd7565b9050919050565b60006020820190508181036000830152611f4d81611cfa565b9050919050565b6000602082019050611f696000830184611d1d565b92915050565b6000611f79611f8a565b9050611f8582826121d7565b919050565b6000604051905090565b600067ffffffffffffffff821115611faf57611fae61233e565b5b602082029050602081019050919050565b600067ffffffffffffffff821115611fdb57611fda61233e565b5b611fe48261238b565b9050602081019050919050565b600081519050919050565b600081519050919050565b600082825260208201905092915050565b600082825260208201905092915050565b600081905092915050565b600061203f82612159565b915061204a83612159565b9250827fffffffffffffffffffffffffffffffffffffffffffffffffffffffffffffffff0382111561207f5761207e612282565b5b828201905092915050565b600061209582612159565b91506120a083612159565b9250826120b0576120af6122b1565b5b828204905092915050565b60006120c682612159565b91506120d183612159565b9250828210156120e4576120e3612282565b5b828203905092915050565b60006120fa82612139565b9050919050565b60008115159050919050565b60007fffffffff0000000000000000000000000000000000000000000000000000000082169050919050565b600073ffffffffffffffffffffffffffffffffffffffff82169050919050565b6000819050919050565b82818337600083830152505050565b60005b83811015612190578082015181840152602081019050612175565b8381111561219f576000848401525b50505050565b600060028204905060018216806121bd57607f821691505b602082108114156121d1576121d06122e0565b5b50919050565b6121e08261238b565b810181811067ffffffffffffffff821117156121ff576121fe61233e565b5b80604052505050565b600061221382612159565b91507fffffffffffffffffffffffffffffffffffffffffffffffffffffffffffffffff82141561224657612245612282565b5b600182019050919050565b600061225c82612159565b915061226783612159565b925082612277576122766122b1565b5b828206905092915050565b7f4e487b7100000000000000000000000000000000000000000000000000000000600052601160045260246000fd5b7f4e487b7100000000000000000000000000000000000000000000000000000000600052601260045260246000fd5b7f4e487b7100000000000000000000000000000000000000000000000000000000600052602260045260246000fd5b7f4e487b7100000000000000000000000000000000000000000000000000000000600052603260045260246000fd5b7f4e487b7100000000000000000000000000000000000000000000000000000000600052604160045260246000fd5b600080fd5b600080fd5b600080fd5b600080fd5b600080fd5b600080fd5b6000601f19601f8301169050919050565b7f4552433732313a207472616e7366657220746f206e6f6e20455243373231526560008201527f63656976657220696d706c656d656e7465720000000000000000000000000000602082015250565b7f4552433732313a207472616e736665722066726f6d20696e636f72726563742060008201527f6f776e6572000000000000000000000000000000000000000000000000000000602082015250565b7f4552433732313a20746f6b656e20616c7265616479206d696e74656400000000600082015250565b7f4552433732313a207472616e7366657220746f20746865207a65726f2061646460008201527f7265737300000000000000000000000000000000000000000000000000000000602082015250565b7f4552433732313a20617070726f766520746f2063616c6c657200000000000000600082015250565b7f4552433732313a2061646472657373207a65726f206973206e6f74206120766160008201527f6c6964206f776e65720000000000000000000000000000000000000000000000602082015250565b7f4552433732313a20617070726f76652063616c6c6572206973206e6f7420746f60008201527f6b656e206f776e6572206e6f7220617070726f76656420666f7220616c6c0000602082015250565b7f4552433732313a206d696e7420746f20746865207a65726f2061646472657373600082015250565b7f4552433732313a20696e76616c696420746f6b656e2049440000000000000000600082015250565b7f4552433732313a20617070726f76616c20746f2063757272656e74206f776e6560008201527f7200000000000000000000000000000000000000000000000000000000000000602082015250565b7f4552433732313a2063616c6c6572206973206e6f7420746f6b656e206f776e6560008201527f72206e6f7220617070726f766564000000000000000000000000000000000000602082015250565b612672816120ef565b811461267d57600080fd5b50565b61268981612101565b811461269457600080fd5b50565b6126a08161210d565b81146126ab57600080fd5b50565b6126b781612159565b81146126c257600080fd5b5056fea26469706673582212204beb0b7992a4a2eb2419350dfcf585fcfbb8000129e7d8a33c3e7a584c99987164736f6c63430008070033",
					"opcodes": "PUSH1 0x80 PUSH1 0x40 MSTORE CALLVALUE DUP1 ISZERO PUSH3 0x11 JUMPI PUSH1 0x0 DUP1 REVERT JUMPDEST POP PUSH1 0x40 MLOAD DUP1 PUSH1 0x40 ADD PUSH1 0x40 MSTORE DUP1 PUSH1 0xF DUP2 MSTORE PUSH1 0x20 ADD PUSH32 0x42696C6C696E6720526571756573740000000000000000000000000000000000 DUP2 MSTORE POP PUSH1 0x40 MLOAD DUP1 PUSH1 0x40 ADD PUSH1 0x40 MSTORE DUP1 PUSH1 0x3 DUP2 MSTORE PUSH1 0x20 ADD PUSH32 0x4252510000000000000000000000000000000000000000000000000000000000 DUP2 MSTORE POP DUP2 PUSH1 0x0 SWAP1 DUP1 MLOAD SWAP1 PUSH1 0x20 ADD SWAP1 PUSH3 0x96 SWAP3 SWAP2 SWAP1 PUSH3 0xB8 JUMP JUMPDEST POP DUP1 PUSH1 0x1 SWAP1 DUP1 MLOAD SWAP1 PUSH1 0x20 ADD SWAP1 PUSH3 0xAF SWAP3 SWAP2 SWAP1 PUSH3 0xB8 JUMP JUMPDEST POP POP POP PUSH3 0x1CD JUMP JUMPDEST DUP3 DUP1 SLOAD PUSH3 0xC6 SWAP1 PUSH3 0x168 JUMP JUMPDEST SWAP1 PUSH1 0x0 MSTORE PUSH1 0x20 PUSH1 0x0 KECCAK256 SWAP1 PUSH1 0x1F ADD PUSH1 0x20 SWAP1 DIV DUP2 ADD SWAP3 DUP3 PUSH3 0xEA JUMPI PUSH1 0x0 DUP6 SSTORE PUSH3 0x136 JUMP JUMPDEST DUP3 PUSH1 0x1F LT PUSH3 0x105 JUMPI DUP1 MLOAD PUSH1 0xFF NOT AND DUP4 DUP1 ADD OR DUP6 SSTORE PUSH3 0x136 JUMP JUMPDEST DUP3 DUP1 ADD PUSH1 0x1 ADD DUP6 SSTORE DUP3 ISZERO PUSH3 0x136 JUMPI SWAP2 DUP3 ADD JUMPDEST DUP3 DUP2 GT ISZERO PUSH3 0x135 JUMPI DUP3 MLOAD DUP3 SSTORE SWAP2 PUSH1 0x20 ADD SWAP2 SWAP1 PUSH1 0x1 ADD SWAP1 PUSH3 0x118 JUMP JUMPDEST JUMPDEST POP SWAP1 POP PUSH3 0x145 SWAP2 SWAP1 PUSH3 0x149 JUMP JUMPDEST POP SWAP1 JUMP JUMPDEST JUMPDEST DUP1 DUP3 GT ISZERO PUSH3 0x164 JUMPI PUSH1 0x0 DUP2 PUSH1 0x0 SWAP1 SSTORE POP PUSH1 0x1 ADD PUSH3 0x14A JUMP JUMPDEST POP SWAP1 JUMP JUMPDEST PUSH1 0x0 PUSH1 0x2 DUP3 DIV SWAP1 POP PUSH1 0x1 DUP3 AND DUP1 PUSH3 0x181 JUMPI PUSH1 0x7F DUP3 AND SWAP2 POP JUMPDEST PUSH1 0x20 DUP3 LT DUP2 EQ ISZERO PUSH3 0x198 JUMPI PUSH3 0x197 PUSH3 0x19E JUMP JUMPDEST JUMPDEST POP SWAP2 SWAP1 POP JUMP JUMPDEST PUSH32 0x4E487B7100000000000000000000000000000000000000000000000000000000 PUSH1 0x0 MSTORE PUSH1 0x22 PUSH1 0x4 MSTORE PUSH1 0x24 PUSH1 0x0 REVERT JUMPDEST PUSH2 0x26FB DUP1 PUSH3 0x1DD PUSH1 0x0 CODECOPY PUSH1 0x0 RETURN INVALID PUSH1 0x80 PUSH1 0x40 MSTORE CALLVALUE DUP1 ISZERO PUSH2 0x10 JUMPI PUSH1 0x0 DUP1 REVERT JUMPDEST POP PUSH1 0x4 CALLDATASIZE LT PUSH2 0xF5 JUMPI PUSH1 0x0 CALLDATALOAD PUSH1 0xE0 SHR DUP1 PUSH4 0x6352211E GT PUSH2 0x97 JUMPI DUP1 PUSH4 0xB21B89BD GT PUSH2 0x66 JUMPI DUP1 PUSH4 0xB21B89BD EQ PUSH2 0x296 JUMPI DUP1 PUSH4 0xB88D4FDE EQ PUSH2 0x2C6 JUMPI DUP1 PUSH4 0xC87B56DD EQ PUSH2 0x2E2 JUMPI DUP1 PUSH4 0xE985E9C5 EQ PUSH2 0x312 JUMPI PUSH2 0xF5 JUMP JUMPDEST DUP1 PUSH4 0x6352211E EQ PUSH2 0x1FC JUMPI DUP1 PUSH4 0x70A08231 EQ PUSH2 0x22C JUMPI DUP1 PUSH4 0x95D89B41 EQ PUSH2 0x25C JUMPI DUP1 PUSH4 0xA22CB465 EQ PUSH2 0x27A JUMPI PUSH2 0xF5 JUMP JUMPDEST DUP1 PUSH4 0x95EA7B3 GT PUSH2 0xD3 JUMPI DUP1 PUSH4 0x95EA7B3 EQ PUSH2 0x178 JUMPI DUP1 PUSH4 0x23B872DD EQ PUSH2 0x194 JUMPI DUP1 PUSH4 0x42842E0E EQ PUSH2 0x1B0 JUMPI DUP1 PUSH4 0x5B912B96 EQ PUSH2 0x1CC JUMPI PUSH2 0xF5 JUMP JUMPDEST DUP1 PUSH4 0x1FFC9A7 EQ PUSH2 0xFA JUMPI DUP1 PUSH4 0x6FDDE03 EQ PUSH2 0x12A JUMPI DUP1 PUSH4 0x81812FC EQ PUSH2 0x148 JUMPI JUMPDEST PUSH1 0x0 DUP1 REVERT JUMPDEST PUSH2 0x114 PUSH1 0x4 DUP1 CALLDATASIZE SUB DUP2 ADD SWAP1 PUSH2 0x10F SWAP2 SWAP1 PUSH2 0x1A54 JUMP JUMPDEST PUSH2 0x342 JUMP JUMPDEST PUSH1 0x40 MLOAD PUSH2 0x121 SWAP2 SWAP1 PUSH2 0x1DB7 JUMP JUMPDEST PUSH1 0x40 MLOAD DUP1 SWAP2 SUB SWAP1 RETURN JUMPDEST PUSH2 0x132 PUSH2 0x424 JUMP JUMPDEST PUSH1 0x40 MLOAD PUSH2 0x13F SWAP2 SWAP1 PUSH2 0x1DD2 JUMP JUMPDEST PUSH1 0x40 MLOAD DUP1 SWAP2 SUB SWAP1 RETURN JUMPDEST PUSH2 0x162 PUSH1 0x4 DUP1 CALLDATASIZE SUB DUP2 ADD SWAP1 PUSH2 0x15D SWAP2 SWAP1 PUSH2 0x1AAE JUMP JUMPDEST PUSH2 0x4B6 JUMP JUMPDEST PUSH1 0x40 MLOAD PUSH2 0x16F SWAP2 SWAP1 PUSH2 0x1D50 JUMP JUMPDEST PUSH1 0x40 MLOAD DUP1 SWAP2 SUB SWAP1 RETURN JUMPDEST PUSH2 0x192 PUSH1 0x4 DUP1 CALLDATASIZE SUB DUP2 ADD SWAP1 PUSH2 0x18D SWAP2 SWAP1 PUSH2 0x196F JUMP JUMPDEST PUSH2 0x4FC JUMP JUMPDEST STOP JUMPDEST PUSH2 0x1AE PUSH1 0x4 DUP1 CALLDATASIZE SUB DUP2 ADD SWAP1 PUSH2 0x1A9 SWAP2 SWAP1 PUSH2 0x1859 JUMP JUMPDEST PUSH2 0x614 JUMP JUMPDEST STOP JUMPDEST PUSH2 0x1CA PUSH1 0x4 DUP1 CALLDATASIZE SUB DUP2 ADD SWAP1 PUSH2 0x1C5 SWAP2 SWAP1 PUSH2 0x1859 JUMP JUMPDEST PUSH2 0x674 JUMP JUMPDEST STOP JUMPDEST PUSH2 0x1E6 PUSH1 0x4 DUP1 CALLDATASIZE SUB DUP2 ADD SWAP1 PUSH2 0x1E1 SWAP2 SWAP1 PUSH2 0x19F8 JUMP JUMPDEST PUSH2 0x694 JUMP JUMPDEST PUSH1 0x40 MLOAD PUSH2 0x1F3 SWAP2 SWAP1 PUSH2 0x1F54 JUMP JUMPDEST PUSH1 0x40 MLOAD DUP1 SWAP2 SUB SWAP1 RETURN JUMPDEST PUSH2 0x216 PUSH1 0x4 DUP1 CALLDATASIZE SUB DUP2 ADD SWAP1 PUSH2 0x211 SWAP2 SWAP1 PUSH2 0x1AAE JUMP JUMPDEST PUSH2 0x6C1 JUMP JUMPDEST PUSH1 0x40 MLOAD PUSH2 0x223 SWAP2 SWAP1 PUSH2 0x1D50 JUMP JUMPDEST PUSH1 0x40 MLOAD DUP1 SWAP2 SUB SWAP1 RETURN JUMPDEST PUSH2 0x246 PUSH1 0x4 DUP1 CALLDATASIZE SUB DUP2 ADD SWAP1 PUSH2 0x241 SWAP2 SWAP1 PUSH2 0x17EC JUMP JUMPDEST PUSH2 0x773 JUMP JUMPDEST PUSH1 0x40 MLOAD PUSH2 0x253 SWAP2 SWAP1 PUSH2 0x1F54 JUMP JUMPDEST PUSH1 0x40 MLOAD DUP1 SWAP2 SUB SWAP1 RETURN JUMPDEST PUSH2 0x264 PUSH2 0x82B JUMP JUMPDEST PUSH1 0x40 MLOAD PUSH2 0x271 SWAP2 SWAP1 PUSH2 0x1DD2 JUMP JUMPDEST PUSH1 0x40 MLOAD DUP1 SWAP2 SUB SWAP1 RETURN JUMPDEST PUSH2 0x294 PUSH1 0x4 DUP1 CALLDATASIZE SUB DUP2 ADD SWAP1 PUSH2 0x28F SWAP2 SWAP1 PUSH2 0x192F JUMP JUMPDEST PUSH2 0x8BD JUMP JUMPDEST STOP JUMPDEST PUSH2 0x2B0 PUSH1 0x4 DUP1 CALLDATASIZE SUB DUP2 ADD SWAP1 PUSH2 0x2AB SWAP2 SWAP1 PUSH2 0x19AF JUMP JUMPDEST PUSH2 0x8D3 JUMP JUMPDEST PUSH1 0x40 MLOAD PUSH2 0x2BD SWAP2 SWAP1 PUSH2 0x1F54 JUMP JUMPDEST PUSH1 0x40 MLOAD DUP1 SWAP2 SUB SWAP1 RETURN JUMPDEST PUSH2 0x2E0 PUSH1 0x4 DUP1 CALLDATASIZE SUB DUP2 ADD SWAP1 PUSH2 0x2DB SWAP2 SWAP1 PUSH2 0x18AC JUMP JUMPDEST PUSH2 0x8E6 JUMP JUMPDEST STOP JUMPDEST PUSH2 0x2FC PUSH1 0x4 DUP1 CALLDATASIZE SUB DUP2 ADD SWAP1 PUSH2 0x2F7 SWAP2 SWAP1 PUSH2 0x1AAE JUMP JUMPDEST PUSH2 0x948 JUMP JUMPDEST PUSH1 0x40 MLOAD PUSH2 0x309 SWAP2 SWAP1 PUSH2 0x1DD2 JUMP JUMPDEST PUSH1 0x40 MLOAD DUP1 SWAP2 SUB SWAP1 RETURN JUMPDEST PUSH2 0x32C PUSH1 0x4 DUP1 CALLDATASIZE SUB DUP2 ADD SWAP1 PUSH2 0x327 SWAP2 SWAP1 PUSH2 0x1819 JUMP JUMPDEST PUSH2 0x9B0 JUMP JUMPDEST PUSH1 0x40 MLOAD PUSH2 0x339 SWAP2 SWAP1 PUSH2 0x1DB7 JUMP JUMPDEST PUSH1 0x40 MLOAD DUP1 SWAP2 SUB SWAP1 RETURN JUMPDEST PUSH1 0x0 PUSH32 0x80AC58CD00000000000000000000000000000000000000000000000000000000 PUSH28 0xFFFFFFFFFFFFFFFFFFFFFFFFFFFFFFFFFFFFFFFFFFFFFFFFFFFFFFFF NOT AND DUP3 PUSH28 0xFFFFFFFFFFFFFFFFFFFFFFFFFFFFFFFFFFFFFFFFFFFFFFFFFFFFFFFF NOT AND EQ DUP1 PUSH2 0x40D JUMPI POP PUSH32 0x5B5E139F00000000000000000000000000000000000000000000000000000000 PUSH28 0xFFFFFFFFFFFFFFFFFFFFFFFFFFFFFFFFFFFFFFFFFFFFFFFFFFFFFFFF NOT AND DUP3 PUSH28 0xFFFFFFFFFFFFFFFFFFFFFFFFFFFFFFFFFFFFFFFFFFFFFFFFFFFFFFFF NOT AND EQ JUMPDEST DUP1 PUSH2 0x41D JUMPI POP PUSH2 0x41C DUP3 PUSH2 0xA44 JUMP JUMPDEST JUMPDEST SWAP1 POP SWAP2 SWAP1 POP JUMP JUMPDEST PUSH1 0x60 PUSH1 0x0 DUP1 SLOAD PUSH2 0x433 SWAP1 PUSH2 0x21A5 JUMP JUMPDEST DUP1 PUSH1 0x1F ADD PUSH1 0x20 DUP1 SWAP2 DIV MUL PUSH1 0x20 ADD PUSH1 0x40 MLOAD SWAP1 DUP2 ADD PUSH1 0x40 MSTORE DUP1 SWAP3 SWAP2 SWAP1 DUP2 DUP2 MSTORE PUSH1 0x20 ADD DUP3 DUP1 SLOAD PUSH2 0x45F SWAP1 PUSH2 0x21A5 JUMP JUMPDEST DUP1 ISZERO PUSH2 0x4AC JUMPI DUP1 PUSH1 0x1F LT PUSH2 0x481 JUMPI PUSH2 0x100 DUP1 DUP4 SLOAD DIV MUL DUP4 MSTORE SWAP2 PUSH1 0x20 ADD SWAP2 PUSH2 0x4AC JUMP JUMPDEST DUP3 ADD SWAP2 SWAP1 PUSH1 0x0 MSTORE PUSH1 0x20 PUSH1 0x0 KECCAK256 SWAP1 JUMPDEST DUP2 SLOAD DUP2 MSTORE SWAP1 PUSH1 0x1 ADD SWAP1 PUSH1 0x20 ADD DUP1 DUP4 GT PUSH2 0x48F JUMPI DUP3 SWAP1 SUB PUSH1 0x1F AND DUP3 ADD SWAP2 JUMPDEST POP POP POP POP POP SWAP1 POP SWAP1 JUMP JUMPDEST PUSH1 0x0 PUSH2 0x4C1 DUP3 PUSH2 0xAAE JUMP JUMPDEST PUSH1 0x4 PUSH1 0x0 DUP4 DUP2 MSTORE PUSH1 0x20 ADD SWAP1 DUP2 MSTORE PUSH1 0x20 ADD PUSH1 0x0 KECCAK256 PUSH1 0x0 SWAP1 SLOAD SWAP1 PUSH2 0x100 EXP SWAP1 DIV PUSH20 0xFFFFFFFFFFFFFFFFFFFFFFFFFFFFFFFFFFFFFFFF AND SWAP1 POP SWAP2 SWAP1 POP JUMP JUMPDEST PUSH1 0x0 PUSH2 0x507 DUP3 PUSH2 0x6C1 JUMP JUMPDEST SWAP1 POP DUP1 PUSH20 0xFFFFFFFFFFFFFFFFFFFFFFFFFFFFFFFFFFFFFFFF AND DUP4 PUSH20 0xFFFFFFFFFFFFFFFFFFFFFFFFFFFFFFFFFFFFFFFF AND EQ ISZERO PUSH2 0x578 JUMPI PUSH1 0x40 MLOAD PUSH32 0x8C379A000000000000000000000000000000000000000000000000000000000 DUP2 MSTORE PUSH1 0x4 ADD PUSH2 0x56F SWAP1 PUSH2 0x1F14 JUMP JUMPDEST PUSH1 0x40 MLOAD DUP1 SWAP2 SUB SWAP1 REVERT JUMPDEST DUP1 PUSH20 0xFFFFFFFFFFFFFFFFFFFFFFFFFFFFFFFFFFFFFFFF AND PUSH2 0x597 PUSH2 0xAF9 JUMP JUMPDEST PUSH20 0xFFFFFFFFFFFFFFFFFFFFFFFFFFFFFFFFFFFFFFFF AND EQ DUP1 PUSH2 0x5C6 JUMPI POP PUSH2 0x5C5 DUP2 PUSH2 0x5C0 PUSH2 0xAF9 JUMP JUMPDEST PUSH2 0x9B0 JUMP JUMPDEST JUMPDEST PUSH2 0x605 JUMPI PUSH1 0x40 MLOAD PUSH32 0x8C379A000000000000000000000000000000000000000000000000000000000 DUP2 MSTORE PUSH1 0x4 ADD PUSH2 0x5FC SWAP1 PUSH2 0x1EB4 JUMP JUMPDEST PUSH1 0x40 MLOAD DUP1 SWAP2 SUB SWAP1 REVERT JUMPDEST PUSH2 0x60F DUP4 DUP4 PUSH2 0xB01 JUMP JUMPDEST POP POP POP JUMP JUMPDEST PUSH2 0x625 PUSH2 0x61F PUSH2 0xAF9 JUMP JUMPDEST DUP3 PUSH2 0xBBA JUMP JUMPDEST PUSH2 0x664 JUMPI PUSH1 0x40 MLOAD PUSH32 0x8C379A000000000000000000000000000000000000000000000000000000000 DUP2 MSTORE PUSH1 0x4 ADD PUSH2 0x65B SWAP1 PUSH2 0x1F34 JUMP JUMPDEST PUSH1 0x40 MLOAD DUP1 SWAP2 SUB SWAP1 REVERT JUMPDEST PUSH2 0x66F DUP4 DUP4 DUP4 PUSH2 0xC4F JUMP JUMPDEST POP POP POP JUMP JUMPDEST PUSH2 0x68F DUP4 DUP4 DUP4 PUSH1 0x40 MLOAD DUP1 PUSH1 0x20 ADD PUSH1 0x40 MSTORE DUP1 PUSH1 0x0 DUP2 MSTORE POP PUSH2 0x8E6 JUMP JUMPDEST POP POP POP JUMP JUMPDEST PUSH1 0x0 DUP1 PUSH2 0x6A1 PUSH1 0x6 PUSH2 0xEB6 JUMP JUMPDEST SWAP1 POP PUSH2 0x6AD DUP4 DUP3 PUSH2 0xEC4 JUMP JUMPDEST PUSH2 0x6B7 PUSH1 0x6 PUSH2 0x109E JUMP JUMPDEST DUP1 SWAP2 POP POP SWAP3 SWAP2 POP POP JUMP JUMPDEST PUSH1 0x0 DUP1 PUSH1 0x2 PUSH1 0x0 DUP5 DUP2 MSTORE PUSH1 0x20 ADD SWAP1 DUP2 MSTORE PUSH1 0x20 ADD PUSH1 0x0 KECCAK256 PUSH1 0x0 SWAP1 SLOAD SWAP1 PUSH2 0x100 EXP SWAP1 DIV PUSH20 0xFFFFFFFFFFFFFFFFFFFFFFFFFFFFFFFFFFFFFFFF AND SWAP1 POP PUSH1 0x0 PUSH20 0xFFFFFFFFFFFFFFFFFFFFFFFFFFFFFFFFFFFFFFFF AND DUP2 PUSH20 0xFFFFFFFFFFFFFFFFFFFFFFFFFFFFFFFFFFFFFFFF AND EQ ISZERO PUSH2 0x76A JUMPI PUSH1 0x40 MLOAD PUSH32 0x8C379A000000000000000000000000000000000000000000000000000000000 DUP2 MSTORE PUSH1 0x4 ADD PUSH2 0x761 SWAP1 PUSH2 0x1EF4 JUMP JUMPDEST PUSH1 0x40 MLOAD DUP1 SWAP2 SUB SWAP1 REVERT JUMPDEST DUP1 SWAP2 POP POP SWAP2 SWAP1 POP JUMP JUMPDEST PUSH1 0x0 DUP1 PUSH20 0xFFFFFFFFFFFFFFFFFFFFFFFFFFFFFFFFFFFFFFFF AND DUP3 PUSH20 0xFFFFFFFFFFFFFFFFFFFFFFFFFFFFFFFFFFFFFFFF AND EQ ISZERO PUSH2 0x7E4 JUMPI PUSH1 0x40 MLOAD PUSH32 0x8C379A000000000000000000000000000000000000000000000000000000000 DUP2 MSTORE PUSH1 0x4 ADD PUSH2 0x7DB SWAP1 PUSH2 0x1E94 JUMP JUMPDEST PUSH1 0x40 MLOAD DUP1 SWAP2 SUB SWAP1 REVERT JUMPDEST PUSH1 0x3 PUSH1 0x0 DUP4 PUSH20 0xFFFFFFFFFFFFFFFFFFFFFFFFFFFFFFFFFFFFFFFF AND PUSH20 0xFFFFFFFFFFFFFFFFFFFFFFFFFFFFFFFFFFFFFFFF AND DUP2 MSTORE PUSH1 0x20 ADD SWAP1 DUP2 MSTORE PUSH1 0x20 ADD PUSH1 0x0 KECCAK256 SLOAD SWAP1 POP SWAP2 SWAP1 POP JUMP JUMPDEST PUSH1 0x60 PUSH1 0x1 DUP1 SLOAD PUSH2 0x83A SWAP1 PUSH2 0x21A5 JUMP JUMPDEST DUP1 PUSH1 0x1F ADD PUSH1 0x20 DUP1 SWAP2 DIV MUL PUSH1 0x20 ADD PUSH1 0x40 MLOAD SWAP1 DUP2 ADD PUSH1 0x40 MSTORE DUP1 SWAP3 SWAP2 SWAP1 DUP2 DUP2 MSTORE PUSH1 0x20 ADD DUP3 DUP1 SLOAD PUSH2 0x866 SWAP1 PUSH2 0x21A5 JUMP JUMPDEST DUP1 ISZERO PUSH2 0x8B3 JUMPI DUP1 PUSH1 0x1F LT PUSH2 0x888 JUMPI PUSH2 0x100 DUP1 DUP4 SLOAD DIV MUL DUP4 MSTORE SWAP2 PUSH1 0x20 ADD SWAP2 PUSH2 0x8B3 JUMP JUMPDEST DUP3 ADD SWAP2 SWAP1 PUSH1 0x0 MSTORE PUSH1 0x20 PUSH1 0x0 KECCAK256 SWAP1 JUMPDEST DUP2 SLOAD DUP2 MSTORE SWAP1 PUSH1 0x1 ADD SWAP1 PUSH1 0x20 ADD DUP1 DUP4 GT PUSH2 0x896 JUMPI DUP3 SWAP1 SUB PUSH1 0x1F AND DUP3 ADD SWAP2 JUMPDEST POP POP POP POP POP SWAP1 POP SWAP1 JUMP JUMPDEST PUSH2 0x8CF PUSH2 0x8C8 PUSH2 0xAF9 JUMP JUMPDEST DUP4 DUP4 PUSH2 0x10B4 JUMP JUMPDEST POP POP JUMP JUMPDEST PUSH1 0x0 PUSH2 0x8DF DUP3 CALLER PUSH2 0x694 JUMP JUMPDEST SWAP1 POP SWAP2 SWAP1 POP JUMP JUMPDEST PUSH2 0x8F7 PUSH2 0x8F1 PUSH2 0xAF9 JUMP JUMPDEST DUP4 PUSH2 0xBBA JUMP JUMPDEST PUSH2 0x936 JUMPI PUSH1 0x40 MLOAD PUSH32 0x8C379A000000000000000000000000000000000000000000000000000000000 DUP2 MSTORE PUSH1 0x4 ADD PUSH2 0x92D SWAP1 PUSH2 0x1F34 JUMP JUMPDEST PUSH1 0x40 MLOAD DUP1 SWAP2 SUB SWAP1 REVERT JUMPDEST PUSH2 0x942 DUP5 DUP5 DUP5 DUP5 PUSH2 0x1221 JUMP JUMPDEST POP POP POP POP JUMP JUMPDEST PUSH1 0x60 PUSH2 0x953 DUP3 PUSH2 0xAAE JUMP JUMPDEST PUSH1 0x0 PUSH2 0x95D PUSH2 0x127D JUMP JUMPDEST SWAP1 POP PUSH1 0x0 DUP2 MLOAD GT PUSH2 0x97D JUMPI PUSH1 0x40 MLOAD DUP1 PUSH1 0x20 ADD PUSH1 0x40 MSTORE DUP1 PUSH1 0x0 DUP2 MSTORE POP PUSH2 0x9A8 JUMP JUMPDEST DUP1 PUSH2 0x987 DUP5 PUSH2 0x1294 JUMP JUMPDEST PUSH1 0x40 MLOAD PUSH1 0x20 ADD PUSH2 0x998 SWAP3 SWAP2 SWAP1 PUSH2 0x1D2C JUMP JUMPDEST PUSH1 0x40 MLOAD PUSH1 0x20 DUP2 DUP4 SUB SUB DUP2 MSTORE SWAP1 PUSH1 0x40 MSTORE JUMPDEST SWAP2 POP POP SWAP2 SWAP1 POP JUMP JUMPDEST PUSH1 0x0 PUSH1 0x5 PUSH1 0x0 DUP5 PUSH20 0xFFFFFFFFFFFFFFFFFFFFFFFFFFFFFFFFFFFFFFFF AND PUSH20 0xFFFFFFFFFFFFFFFFFFFFFFFFFFFFFFFFFFFFFFFF AND DUP2 MSTORE PUSH1 0x20 ADD SWAP1 DUP2 MSTORE PUSH1 0x20 ADD PUSH1 0x0 KECCAK256 PUSH1 0x0 DUP4 PUSH20 0xFFFFFFFFFFFFFFFFFFFFFFFFFFFFFFFFFFFFFFFF AND PUSH20 0xFFFFFFFFFFFFFFFFFFFFFFFFFFFFFFFFFFFFFFFF AND DUP2 MSTORE PUSH1 0x20 ADD SWAP1 DUP2 MSTORE PUSH1 0x20 ADD PUSH1 0x0 KECCAK256 PUSH1 0x0 SWAP1 SLOAD SWAP1 PUSH2 0x100 EXP SWAP1 DIV PUSH1 0xFF AND SWAP1 POP SWAP3 SWAP2 POP POP JUMP JUMPDEST PUSH1 0x0 PUSH32 0x1FFC9A700000000000000000000000000000000000000000000000000000000 PUSH28 0xFFFFFFFFFFFFFFFFFFFFFFFFFFFFFFFFFFFFFFFFFFFFFFFFFFFFFFFF NOT AND DUP3 PUSH28 0xFFFFFFFFFFFFFFFFFFFFFFFFFFFFFFFFFFFFFFFFFFFFFFFFFFFFFFFF NOT AND EQ SWAP1 POP SWAP2 SWAP1 POP JUMP JUMPDEST PUSH2 0xAB7 DUP2 PUSH2 0x13F5 JUMP JUMPDEST PUSH2 0xAF6 JUMPI PUSH1 0x40 MLOAD PUSH32 0x8C379A000000000000000000000000000000000000000000000000000000000 DUP2 MSTORE PUSH1 0x4 ADD PUSH2 0xAED SWAP1 PUSH2 0x1EF4 JUMP JUMPDEST PUSH1 0x40 MLOAD DUP1 SWAP2 SUB SWAP1 REVERT JUMPDEST POP JUMP JUMPDEST PUSH1 0x0 CALLER SWAP1 POP SWAP1 JUMP JUMPDEST DUP2 PUSH1 0x4 PUSH1 0x0 DUP4 DUP2 MSTORE PUSH1 0x20 ADD SWAP1 DUP2 MSTORE PUSH1 0x20 ADD PUSH1 0x0 KECCAK256 PUSH1 0x0 PUSH2 0x100 EXP DUP2 SLOAD DUP2 PUSH20 0xFFFFFFFFFFFFFFFFFFFFFFFFFFFFFFFFFFFFFFFF MUL NOT AND SWAP1 DUP4 PUSH20 0xFFFFFFFFFFFFFFFFFFFFFFFFFFFFFFFFFFFFFFFF AND MUL OR SWAP1 SSTORE POP DUP1 DUP3 PUSH20 0xFFFFFFFFFFFFFFFFFFFFFFFFFFFFFFFFFFFFFFFF AND PUSH2 0xB74 DUP4 PUSH2 0x6C1 JUMP JUMPDEST PUSH20 0xFFFFFFFFFFFFFFFFFFFFFFFFFFFFFFFFFFFFFFFF AND PUSH32 0x8C5BE1E5EBEC7D5BD14F71427D1E84F3DD0314C0F7B2291E5B200AC8C7C3B925 PUSH1 0x40 MLOAD PUSH1 0x40 MLOAD DUP1 SWAP2 SUB SWAP1 LOG4 POP POP JUMP JUMPDEST PUSH1 0x0 DUP1 PUSH2 0xBC6 DUP4 PUSH2 0x6C1 JUMP JUMPDEST SWAP1 POP DUP1 PUSH20 0xFFFFFFFFFFFFFFFFFFFFFFFFFFFFFFFFFFFFFFFF AND DUP5 PUSH20 0xFFFFFFFFFFFFFFFFFFFFFFFFFFFFFFFFFFFFFFFF AND EQ DUP1 PUSH2 0xC08 JUMPI POP PUSH2 0xC07 DUP2 DUP6 PUSH2 0x9B0 JUMP JUMPDEST JUMPDEST DUP1 PUSH2 0xC46 JUMPI POP DUP4 PUSH20 0xFFFFFFFFFFFFFFFFFFFFFFFFFFFFFFFFFFFFFFFF AND PUSH2 0xC2E DUP5 PUSH2 0x4B6 JUMP JUMPDEST PUSH20 0xFFFFFFFFFFFFFFFFFFFFFFFFFFFFFFFFFFFFFFFF AND EQ JUMPDEST SWAP2 POP POP SWAP3 SWAP2 POP POP JUMP JUMPDEST DUP3 PUSH20 0xFFFFFFFFFFFFFFFFFFFFFFFFFFFFFFFFFFFFFFFF AND PUSH2 0xC6F DUP3 PUSH2 0x6C1 JUMP JUMPDEST PUSH20 0xFFFFFFFFFFFFFFFFFFFFFFFFFFFFFFFFFFFFFFFF AND EQ PUSH2 0xCC5 JUMPI PUSH1 0x40 MLOAD PUSH32 0x8C379A000000000000000000000000000000000000000000000000000000000 DUP2 MSTORE PUSH1 0x4 ADD PUSH2 0xCBC SWAP1 PUSH2 0x1E14 JUMP JUMPDEST PUSH1 0x40 MLOAD DUP1 SWAP2 SUB SWAP1 REVERT JUMPDEST PUSH1 0x0 PUSH20 0xFFFFFFFFFFFFFFFFFFFFFFFFFFFFFFFFFFFFFFFF AND DUP3 PUSH20 0xFFFFFFFFFFFFFFFFFFFFFFFFFFFFFFFFFFFFFFFF AND EQ ISZERO PUSH2 0xD35 JUMPI PUSH1 0x40 MLOAD PUSH32 0x8C379A000000000000000000000000000000000000000000000000000000000 DUP2 MSTORE PUSH1 0x4 ADD PUSH2 0xD2C SWAP1 PUSH2 0x1E54 JUMP JUMPDEST PUSH1 0x40 MLOAD DUP1 SWAP2 SUB SWAP1 REVERT JUMPDEST PUSH2 0xD40 DUP4 DUP4 DUP4 PUSH2 0x1461 JUMP JUMPDEST PUSH2 0xD4B PUSH1 0x0 DUP3 PUSH2 0xB01 JUMP JUMPDEST PUSH1 0x1 PUSH1 0x3 PUSH1 0x0 DUP6 PUSH20 0xFFFFFFFFFFFFFFFFFFFFFFFFFFFFFFFFFFFFFFFF AND PUSH20 0xFFFFFFFFFFFFFFFFFFFFFFFFFFFFFFFFFFFFFFFF AND DUP2 MSTORE PUSH1 0x20 ADD SWAP1 DUP2 MSTORE PUSH1 0x20 ADD PUSH1 0x0 KECCAK256 PUSH1 0x0 DUP3 DUP3 SLOAD PUSH2 0xD9B SWAP2 SWAP1 PUSH2 0x20BB JUMP JUMPDEST SWAP3 POP POP DUP2 SWAP1 SSTORE POP PUSH1 0x1 PUSH1 0x3 PUSH1 0x0 DUP5 PUSH20 0xFFFFFFFFFFFFFFFFFFFFFFFFFFFFFFFFFFFFFFFF AND PUSH20 0xFFFFFFFFFFFFFFFFFFFFFFFFFFFFFFFFFFFFFFFF AND DUP2 MSTORE PUSH1 0x20 ADD SWAP1 DUP2 MSTORE PUSH1 0x20 ADD PUSH1 0x0 KECCAK256 PUSH1 0x0 DUP3 DUP3 SLOAD PUSH2 0xDF2 SWAP2 SWAP1 PUSH2 0x2034 JUMP JUMPDEST SWAP3 POP POP DUP2 SWAP1 SSTORE POP DUP2 PUSH1 0x2 PUSH1 0x0 DUP4 DUP2 MSTORE PUSH1 0x20 ADD SWAP1 DUP2 MSTORE PUSH1 0x20 ADD PUSH1 0x0 KECCAK256 PUSH1 0x0 PUSH2 0x100 EXP DUP2 SLOAD DUP2 PUSH20 0xFFFFFFFFFFFFFFFFFFFFFFFFFFFFFFFFFFFFFFFF MUL NOT AND SWAP1 DUP4 PUSH20 0xFFFFFFFFFFFFFFFFFFFFFFFFFFFFFFFFFFFFFFFF AND MUL OR SWAP1 SSTORE POP DUP1 DUP3 PUSH20 0xFFFFFFFFFFFFFFFFFFFFFFFFFFFFFFFFFFFFFFFF AND DUP5 PUSH20 0xFFFFFFFFFFFFFFFFFFFFFFFFFFFFFFFFFFFFFFFF AND PUSH32 0xDDF252AD1BE2C89B69C2B068FC378DAA952BA7F163C4A11628F55A4DF523B3EF PUSH1 0x40 MLOAD PUSH1 0x40 MLOAD DUP1 SWAP2 SUB SWAP1 LOG4 PUSH2 0xEB1 DUP4 DUP4 DUP4 PUSH2 0x1466 JUMP JUMPDEST POP POP POP JUMP JUMPDEST PUSH1 0x0 DUP2 PUSH1 0x0 ADD SLOAD SWAP1 POP SWAP2 SWAP1 POP JUMP JUMPDEST PUSH1 0x0 PUSH20 0xFFFFFFFFFFFFFFFFFFFFFFFFFFFFFFFFFFFFFFFF AND DUP3 PUSH20 0xFFFFFFFFFFFFFFFFFFFFFFFFFFFFFFFFFFFFFFFF AND EQ ISZERO PUSH2 0xF34 JUMPI PUSH1 0x40 MLOAD PUSH32 0x8C379A000000000000000000000000000000000000000000000000000000000 DUP2 MSTORE PUSH1 0x4 ADD PUSH2 0xF2B SWAP1 PUSH2 0x1ED4 JUMP JUMPDEST PUSH1 0x40 MLOAD DUP1 SWAP2 SUB SWAP1 REVERT JUMPDEST PUSH2 0xF3D DUP2 PUSH2 0x13F5 JUMP JUMPDEST ISZERO PUSH2 0xF7D JUMPI PUSH1 0x40 MLOAD PUSH32 0x8C379A000000000000000000000000000000000000000000000000000000000 DUP2 MSTORE PUSH1 0x4 ADD PUSH2 0xF74 SWAP1 PUSH2 0x1E34 JUMP JUMPDEST PUSH1 0x40 MLOAD DUP1 SWAP2 SUB SWAP1 REVERT JUMPDEST PUSH2 0xF89 PUSH1 0x0 DUP4 DUP4 PUSH2 0x1461 JUMP JUMPDEST PUSH1 0x1 PUSH1 0x3 PUSH1 0x0 DUP5 PUSH20 0xFFFFFFFFFFFFFFFFFFFFFFFFFFFFFFFFFFFFFFFF AND PUSH20 0xFFFFFFFFFFFFFFFFFFFFFFFFFFFFFFFFFFFFFFFF AND DUP2 MSTORE PUSH1 0x20 ADD SWAP1 DUP2 MSTORE PUSH1 0x20 ADD PUSH1 0x0 KECCAK256 PUSH1 0x0 DUP3 DUP3 SLOAD PUSH2 0xFD9 SWAP2 SWAP1 PUSH2 0x2034 JUMP JUMPDEST SWAP3 POP POP DUP2 SWAP1 SSTORE POP DUP2 PUSH1 0x2 PUSH1 0x0 DUP4 DUP2 MSTORE PUSH1 0x20 ADD SWAP1 DUP2 MSTORE PUSH1 0x20 ADD PUSH1 0x0 KECCAK256 PUSH1 0x0 PUSH2 0x100 EXP DUP2 SLOAD DUP2 PUSH20 0xFFFFFFFFFFFFFFFFFFFFFFFFFFFFFFFFFFFFFFFF MUL NOT AND SWAP1 DUP4 PUSH20 0xFFFFFFFFFFFFFFFFFFFFFFFFFFFFFFFFFFFFFFFF AND MUL OR SWAP1 SSTORE POP DUP1 DUP3 PUSH20 0xFFFFFFFFFFFFFFFFFFFFFFFFFFFFFFFFFFFFFFFF AND PUSH1 0x0 PUSH20 0xFFFFFFFFFFFFFFFFFFFFFFFFFFFFFFFFFFFFFFFF AND PUSH32 0xDDF252AD1BE2C89B69C2B068FC378DAA952BA7F163C4A11628F55A4DF523B3EF PUSH1 0x40 MLOAD PUSH1 0x40 MLOAD DUP1 SWAP2 SUB SWAP1 LOG4 PUSH2 0x109A PUSH1 0x0 DUP4 DUP4 PUSH2 0x1466 JUMP JUMPDEST POP POP JUMP JUMPDEST PUSH1 0x1 DUP2 PUSH1 0x0 ADD PUSH1 0x0 DUP3 DUP3 SLOAD ADD SWAP3 POP POP DUP2 SWAP1 SSTORE POP POP JUMP JUMPDEST DUP2 PUSH20 0xFFFFFFFFFFFFFFFFFFFFFFFFFFFFFFFFFFFFFFFF AND DUP4 PUSH20 0xFFFFFFFFFFFFFFFFFFFFFFFFFFFFFFFFFFFFFFFF AND EQ ISZERO PUSH2 0x1123 JUMPI PUSH1 0x40 MLOAD PUSH32 0x8C379A000000000000000000000000000000000000000000000000000000000 DUP2 MSTORE PUSH1 0x4 ADD PUSH2 0x111A SWAP1 PUSH2 0x1E74 JUMP JUMPDEST PUSH1 0x40 MLOAD DUP1 SWAP2 SUB SWAP1 REVERT JUMPDEST DUP1 PUSH1 0x5 PUSH1 0x0 DUP6 PUSH20 0xFFFFFFFFFFFFFFFFFFFFFFFFFFFFFFFFFFFFFFFF AND PUSH20 0xFFFFFFFFFFFFFFFFFFFFFFFFFFFFFFFFFFFFFFFF AND DUP2 MSTORE PUSH1 0x20 ADD SWAP1 DUP2 MSTORE PUSH1 0x20 ADD PUSH1 0x0 KECCAK256 PUSH1 0x0 DUP5 PUSH20 0xFFFFFFFFFFFFFFFFFFFFFFFFFFFFFFFFFFFFFFFF AND PUSH20 0xFFFFFFFFFFFFFFFFFFFFFFFFFFFFFFFFFFFFFFFF AND DUP2 MSTORE PUSH1 0x20 ADD SWAP1 DUP2 MSTORE PUSH1 0x20 ADD PUSH1 0x0 KECCAK256 PUSH1 0x0 PUSH2 0x100 EXP DUP2 SLOAD DUP2 PUSH1 0xFF MUL NOT AND SWAP1 DUP4 ISZERO ISZERO MUL OR SWAP1 SSTORE POP DUP2 PUSH20 0xFFFFFFFFFFFFFFFFFFFFFFFFFFFFFFFFFFFFFFFF AND DUP4 PUSH20 0xFFFFFFFFFFFFFFFFFFFFFFFFFFFFFFFFFFFFFFFF AND PUSH32 0x17307EAB39AB6107E8899845AD3D59BD9653F200F220920489CA2B5937696C31 DUP4 PUSH1 0x40 MLOAD PUSH2 0x1214 SWAP2 SWAP1 PUSH2 0x1DB7 JUMP JUMPDEST PUSH1 0x40 MLOAD DUP1 SWAP2 SUB SWAP1 LOG3 POP POP POP JUMP JUMPDEST PUSH2 0x122C DUP5 DUP5 DUP5 PUSH2 0xC4F JUMP JUMPDEST PUSH2 0x1238 DUP5 DUP5 DUP5 DUP5 PUSH2 0x146B JUMP JUMPDEST PUSH2 0x1277 JUMPI PUSH1 0x40 MLOAD PUSH32 0x8C379A000000000000000000000000000000000000000000000000000000000 DUP2 MSTORE PUSH1 0x4 ADD PUSH2 0x126E SWAP1 PUSH2 0x1DF4 JUMP JUMPDEST PUSH1 0x40 MLOAD DUP1 SWAP2 SUB SWAP1 REVERT JUMPDEST POP POP POP POP JUMP JUMPDEST PUSH1 0x60 PUSH1 0x40 MLOAD DUP1 PUSH1 0x20 ADD PUSH1 0x40 MSTORE DUP1 PUSH1 0x0 DUP2 MSTORE POP SWAP1 POP SWAP1 JUMP JUMPDEST PUSH1 0x60 PUSH1 0x0 DUP3 EQ ISZERO PUSH2 0x12DC JUMPI PUSH1 0x40 MLOAD DUP1 PUSH1 0x40 ADD PUSH1 0x40 MSTORE DUP1 PUSH1 0x1 DUP2 MSTORE PUSH1 0x20 ADD PUSH32 0x3000000000000000000000000000000000000000000000000000000000000000 DUP2 MSTORE POP SWAP1 POP PUSH2 0x13F0 JUMP JUMPDEST PUSH1 0x0 DUP3 SWAP1 POP PUSH1 0x0 JUMPDEST PUSH1 0x0 DUP3 EQ PUSH2 0x130E JUMPI DUP1 DUP1 PUSH2 0x12F7 SWAP1 PUSH2 0x2208 JUMP JUMPDEST SWAP2 POP POP PUSH1 0xA DUP3 PUSH2 0x1307 SWAP2 SWAP1 PUSH2 0x208A JUMP JUMPDEST SWAP2 POP PUSH2 0x12E4 JUMP JUMPDEST PUSH1 0x0 DUP2 PUSH8 0xFFFFFFFFFFFFFFFF DUP2 GT ISZERO PUSH2 0x132A JUMPI PUSH2 0x1329 PUSH2 0x233E JUMP JUMPDEST JUMPDEST PUSH1 0x40 MLOAD SWAP1 DUP1 DUP3 MSTORE DUP1 PUSH1 0x1F ADD PUSH1 0x1F NOT AND PUSH1 0x20 ADD DUP3 ADD PUSH1 0x40 MSTORE DUP1 ISZERO PUSH2 0x135C JUMPI DUP2 PUSH1 0x20 ADD PUSH1 0x1 DUP3 MUL DUP1 CALLDATASIZE DUP4 CALLDATACOPY DUP1 DUP3 ADD SWAP2 POP POP SWAP1 POP JUMPDEST POP SWAP1 POP JUMPDEST PUSH1 0x0 DUP6 EQ PUSH2 0x13E9 JUMPI PUSH1 0x1 DUP3 PUSH2 0x1375 SWAP2 SWAP1 PUSH2 0x20BB JUMP JUMPDEST SWAP2 POP PUSH1 0xA DUP6 PUSH2 0x1384 SWAP2 SWAP1 PUSH2 0x2251 JUMP JUMPDEST PUSH1 0x30 PUSH2 0x1390 SWAP2 SWAP1 PUSH2 0x2034 JUMP JUMPDEST PUSH1 0xF8 SHL DUP2 DUP4 DUP2 MLOAD DUP2 LT PUSH2 0x13A6 JUMPI PUSH2 0x13A5 PUSH2 0x230F JUMP JUMPDEST JUMPDEST PUSH1 0x20 ADD ADD SWAP1 PUSH31 0xFFFFFFFFFFFFFFFFFFFFFFFFFFFFFFFFFFFFFFFFFFFFFFFFFFFFFFFFFFFFFF NOT AND SWAP1 DUP2 PUSH1 0x0 BYTE SWAP1 MSTORE8 POP PUSH1 0xA DUP6 PUSH2 0x13E2 SWAP2 SWAP1 PUSH2 0x208A JUMP JUMPDEST SWAP5 POP PUSH2 0x1360 JUMP JUMPDEST DUP1 SWAP4 POP POP POP POP JUMPDEST SWAP2 SWAP1 POP JUMP JUMPDEST PUSH1 0x0 DUP1 PUSH20 0xFFFFFFFFFFFFFFFFFFFFFFFFFFFFFFFFFFFFFFFF AND PUSH1 0x2 PUSH1 0x0 DUP5 DUP2 MSTORE PUSH1 0x20 ADD SWAP1 DUP2 MSTORE PUSH1 0x20 ADD PUSH1 0x0 KECCAK256 PUSH1 0x0 SWAP1 SLOAD SWAP1 PUSH2 0x100 EXP SWAP1 DIV PUSH20 0xFFFFFFFFFFFFFFFFFFFFFFFFFFFFFFFFFFFFFFFF AND PUSH20 0xFFFFFFFFFFFFFFFFFFFFFFFFFFFFFFFFFFFFFFFF AND EQ ISZERO SWAP1 POP SWAP2 SWAP1 POP JUMP JUMPDEST POP POP POP JUMP JUMPDEST POP POP POP JUMP JUMPDEST PUSH1 0x0 PUSH2 0x148C DUP5 PUSH20 0xFFFFFFFFFFFFFFFFFFFFFFFFFFFFFFFFFFFFFFFF AND PUSH2 0x1602 JUMP JUMPDEST ISZERO PUSH2 0x15F5 JUMPI DUP4 PUSH20 0xFFFFFFFFFFFFFFFFFFFFFFFFFFFFFFFFFFFFFFFF AND PUSH4 0x150B7A02 PUSH2 0x14B5 PUSH2 0xAF9 JUMP JUMPDEST DUP8 DUP7 DUP7 PUSH1 0x40 MLOAD DUP6 PUSH4 0xFFFFFFFF AND PUSH1 0xE0 SHL DUP2 MSTORE PUSH1 0x4 ADD PUSH2 0x14D7 SWAP5 SWAP4 SWAP3 SWAP2 SWAP1 PUSH2 0x1D6B JUMP JUMPDEST PUSH1 0x20 PUSH1 0x40 MLOAD DUP1 DUP4 SUB DUP2 PUSH1 0x0 DUP8 DUP1 EXTCODESIZE ISZERO DUP1 ISZERO PUSH2 0x14F1 JUMPI PUSH1 0x0 DUP1 REVERT JUMPDEST POP GAS CALL SWAP3 POP POP POP DUP1 ISZERO PUSH2 0x1522 JUMPI POP PUSH1 0x40 MLOAD RETURNDATASIZE PUSH1 0x1F NOT PUSH1 0x1F DUP3 ADD AND DUP3 ADD DUP1 PUSH1 0x40 MSTORE POP DUP2 ADD SWAP1 PUSH2 0x151F SWAP2 SWAP1 PUSH2 0x1A81 JUMP JUMPDEST PUSH1 0x1 JUMPDEST PUSH2 0x15A5 JUMPI RETURNDATASIZE DUP1 PUSH1 0x0 DUP2 EQ PUSH2 0x1552 JUMPI PUSH1 0x40 MLOAD SWAP2 POP PUSH1 0x1F NOT PUSH1 0x3F RETURNDATASIZE ADD AND DUP3 ADD PUSH1 0x40 MSTORE RETURNDATASIZE DUP3 MSTORE RETURNDATASIZE PUSH1 0x0 PUSH1 0x20 DUP5 ADD RETURNDATACOPY PUSH2 0x1557 JUMP JUMPDEST PUSH1 0x60 SWAP2 POP JUMPDEST POP PUSH1 0x0 DUP2 MLOAD EQ ISZERO PUSH2 0x159D JUMPI PUSH1 0x40 MLOAD PUSH32 0x8C379A000000000000000000000000000000000000000000000000000000000 DUP2 MSTORE PUSH1 0x4 ADD PUSH2 0x1594 SWAP1 PUSH2 0x1DF4 JUMP JUMPDEST PUSH1 0x40 MLOAD DUP1 SWAP2 SUB SWAP1 REVERT JUMPDEST DUP1 MLOAD DUP2 PUSH1 0x20 ADD REVERT JUMPDEST PUSH4 0x150B7A02 PUSH1 0xE0 SHL PUSH28 0xFFFFFFFFFFFFFFFFFFFFFFFFFFFFFFFFFFFFFFFFFFFFFFFFFFFFFFFF NOT AND DUP2 PUSH28 0xFFFFFFFFFFFFFFFFFFFFFFFFFFFFFFFFFFFFFFFFFFFFFFFFFFFFFFFF NOT AND EQ SWAP2 POP POP PUSH2 0x15FA JUMP JUMPDEST PUSH1 0x1 SWAP1 POP JUMPDEST SWAP5 SWAP4 POP POP POP POP JUMP JUMPDEST PUSH1 0x0 DUP1 DUP3 PUSH20 0xFFFFFFFFFFFFFFFFFFFFFFFFFFFFFFFFFFFFFFFF AND EXTCODESIZE GT SWAP1 POP SWAP2 SWAP1 POP JUMP JUMPDEST PUSH1 0x0 PUSH2 0x1638 PUSH2 0x1633 DUP5 PUSH2 0x1F94 JUMP JUMPDEST PUSH2 0x1F6F JUMP JUMPDEST SWAP1 POP DUP1 DUP4 DUP3 MSTORE PUSH1 0x20 DUP3 ADD SWAP1 POP DUP3 DUP6 PUSH1 0x40 DUP7 MUL DUP3 ADD GT ISZERO PUSH2 0x165B JUMPI PUSH2 0x165A PUSH2 0x2377 JUMP JUMPDEST JUMPDEST PUSH1 0x0 JUMPDEST DUP6 DUP2 LT ISZERO PUSH2 0x168B JUMPI DUP2 PUSH2 0x1671 DUP9 DUP3 PUSH2 0x1787 JUMP JUMPDEST DUP5 MSTORE PUSH1 0x20 DUP5 ADD SWAP4 POP PUSH1 0x40 DUP4 ADD SWAP3 POP POP PUSH1 0x1 DUP2 ADD SWAP1 POP PUSH2 0x165E JUMP JUMPDEST POP POP POP SWAP4 SWAP3 POP POP POP JUMP JUMPDEST PUSH1 0x0 PUSH2 0x16A8 PUSH2 0x16A3 DUP5 PUSH2 0x1FC0 JUMP JUMPDEST PUSH2 0x1F6F JUMP JUMPDEST SWAP1 POP DUP3 DUP2 MSTORE PUSH1 0x20 DUP2 ADD DUP5 DUP5 DUP5 ADD GT ISZERO PUSH2 0x16C4 JUMPI PUSH2 0x16C3 PUSH2 0x237C JUMP JUMPDEST JUMPDEST PUSH2 0x16CF DUP5 DUP3 DUP6 PUSH2 0x2163 JUMP JUMPDEST POP SWAP4 SWAP3 POP POP POP JUMP JUMPDEST PUSH1 0x0 DUP2 CALLDATALOAD SWAP1 POP PUSH2 0x16E6 DUP2 PUSH2 0x2669 JUMP JUMPDEST SWAP3 SWAP2 POP POP JUMP JUMPDEST PUSH1 0x0 DUP3 PUSH1 0x1F DUP4 ADD SLT PUSH2 0x1701 JUMPI PUSH2 0x1700 PUSH2 0x236D JUMP JUMPDEST JUMPDEST DUP2 CALLDATALOAD PUSH2 0x1711 DUP5 DUP3 PUSH1 0x20 DUP7 ADD PUSH2 0x1625 JUMP JUMPDEST SWAP2 POP POP SWAP3 SWAP2 POP POP JUMP JUMPDEST PUSH1 0x0 DUP2 CALLDATALOAD SWAP1 POP PUSH2 0x1729 DUP2 PUSH2 0x2680 JUMP JUMPDEST SWAP3 SWAP2 POP POP JUMP JUMPDEST PUSH1 0x0 DUP2 CALLDATALOAD SWAP1 POP PUSH2 0x173E DUP2 PUSH2 0x2697 JUMP JUMPDEST SWAP3 SWAP2 POP POP JUMP JUMPDEST PUSH1 0x0 DUP2 MLOAD SWAP1 POP PUSH2 0x1753 DUP2 PUSH2 0x2697 JUMP JUMPDEST SWAP3 SWAP2 POP POP JUMP JUMPDEST PUSH1 0x0 DUP3 PUSH1 0x1F DUP4 ADD SLT PUSH2 0x176E JUMPI PUSH2 0x176D PUSH2 0x236D JUMP JUMPDEST JUMPDEST DUP2 CALLDATALOAD PUSH2 0x177E DUP5 DUP3 PUSH1 0x20 DUP7 ADD PUSH2 0x1695 JUMP JUMPDEST SWAP2 POP POP SWAP3 SWAP2 POP POP JUMP JUMPDEST PUSH1 0x0 PUSH1 0x40 DUP3 DUP5 SUB SLT ISZERO PUSH2 0x179D JUMPI PUSH2 0x179C PUSH2 0x2372 JUMP JUMPDEST JUMPDEST PUSH2 0x17A7 PUSH1 0x40 PUSH2 0x1F6F JUMP JUMPDEST SWAP1 POP PUSH1 0x0 PUSH2 0x17B7 DUP5 DUP3 DUP6 ADD PUSH2 0x16D7 JUMP JUMPDEST PUSH1 0x0 DUP4 ADD MSTORE POP PUSH1 0x20 PUSH2 0x17CB DUP5 DUP3 DUP6 ADD PUSH2 0x17D7 JUMP JUMPDEST PUSH1 0x20 DUP4 ADD MSTORE POP SWAP3 SWAP2 POP POP JUMP JUMPDEST PUSH1 0x0 DUP2 CALLDATALOAD SWAP1 POP PUSH2 0x17E6 DUP2 PUSH2 0x26AE JUMP JUMPDEST SWAP3 SWAP2 POP POP JUMP JUMPDEST PUSH1 0x0 PUSH1 0x20 DUP3 DUP5 SUB SLT ISZERO PUSH2 0x1802 JUMPI PUSH2 0x1801 PUSH2 0x2386 JUMP JUMPDEST JUMPDEST PUSH1 0x0 PUSH2 0x1810 DUP5 DUP3 DUP6 ADD PUSH2 0x16D7 JUMP JUMPDEST SWAP2 POP POP SWAP3 SWAP2 POP POP JUMP JUMPDEST PUSH1 0x0 DUP1 PUSH1 0x40 DUP4 DUP6 SUB SLT ISZERO PUSH2 0x1830 JUMPI PUSH2 0x182F PUSH2 0x2386 JUMP JUMPDEST JUMPDEST PUSH1 0x0 PUSH2 0x183E DUP6 DUP3 DUP7 ADD PUSH2 0x16D7 JUMP JUMPDEST SWAP3 POP POP PUSH1 0x20 PUSH2 0x184F DUP6 DUP3 DUP7 ADD PUSH2 0x16D7 JUMP JUMPDEST SWAP2 POP POP SWAP3 POP SWAP3 SWAP1 POP JUMP JUMPDEST PUSH1 0x0 DUP1 PUSH1 0x0 PUSH1 0x60 DUP5 DUP7 SUB SLT ISZERO PUSH2 0x1872 JUMPI PUSH2 0x1871 PUSH2 0x2386 JUMP JUMPDEST JUMPDEST PUSH1 0x0 PUSH2 0x1880 DUP7 DUP3 DUP8 ADD PUSH2 0x16D7 JUMP JUMPDEST SWAP4 POP POP PUSH1 0x20 PUSH2 0x1891 DUP7 DUP3 DUP8 ADD PUSH2 0x16D7 JUMP JUMPDEST SWAP3 POP POP PUSH1 0x40 PUSH2 0x18A2 DUP7 DUP3 DUP8 ADD PUSH2 0x17D7 JUMP JUMPDEST SWAP2 POP POP SWAP3 POP SWAP3 POP SWAP3 JUMP JUMPDEST PUSH1 0x0 DUP1 PUSH1 0x0 DUP1 PUSH1 0x80 DUP6 DUP8 SUB SLT ISZERO PUSH2 0x18C6 JUMPI PUSH2 0x18C5 PUSH2 0x2386 JUMP JUMPDEST JUMPDEST PUSH1 0x0 PUSH2 0x18D4 DUP8 DUP3 DUP9 ADD PUSH2 0x16D7 JUMP JUMPDEST SWAP5 POP POP PUSH1 0x20 PUSH2 0x18E5 DUP8 DUP3 DUP9 ADD PUSH2 0x16D7 JUMP JUMPDEST SWAP4 POP POP PUSH1 0x40 PUSH2 0x18F6 DUP8 DUP3 DUP9 ADD PUSH2 0x17D7 JUMP JUMPDEST SWAP3 POP POP PUSH1 0x60 DUP6 ADD CALLDATALOAD PUSH8 0xFFFFFFFFFFFFFFFF DUP2 GT ISZERO PUSH2 0x1917 JUMPI PUSH2 0x1916 PUSH2 0x2381 JUMP JUMPDEST JUMPDEST PUSH2 0x1923 DUP8 DUP3 DUP9 ADD PUSH2 0x1759 JUMP JUMPDEST SWAP2 POP POP SWAP3 SWAP6 SWAP2 SWAP5 POP SWAP3 POP JUMP JUMPDEST PUSH1 0x0 DUP1 PUSH1 0x40 DUP4 DUP6 SUB SLT ISZERO PUSH2 0x1946 JUMPI PUSH2 0x1945 PUSH2 0x2386 JUMP JUMPDEST JUMPDEST PUSH1 0x0 PUSH2 0x1954 DUP6 DUP3 DUP7 ADD PUSH2 0x16D7 JUMP JUMPDEST SWAP3 POP POP PUSH1 0x20 PUSH2 0x1965 DUP6 DUP3 DUP7 ADD PUSH2 0x171A JUMP JUMPDEST SWAP2 POP POP SWAP3 POP SWAP3 SWAP1 POP JUMP JUMPDEST PUSH1 0x0 DUP1 PUSH1 0x40 DUP4 DUP6 SUB SLT ISZERO PUSH2 0x1986 JUMPI PUSH2 0x1985 PUSH2 0x2386 JUMP JUMPDEST JUMPDEST PUSH1 0x0 PUSH2 0x1994 DUP6 DUP3 DUP7 ADD PUSH2 0x16D7 JUMP JUMPDEST SWAP3 POP POP PUSH1 0x20 PUSH2 0x19A5 DUP6 DUP3 DUP7 ADD PUSH2 0x17D7 JUMP JUMPDEST SWAP2 POP POP SWAP3 POP SWAP3 SWAP1 POP JUMP JUMPDEST PUSH1 0x0 PUSH1 0x20 DUP3 DUP5 SUB SLT ISZERO PUSH2 0x19C5 JUMPI PUSH2 0x19C4 PUSH2 0x2386 JUMP JUMPDEST JUMPDEST PUSH1 0x0 DUP3 ADD CALLDATALOAD PUSH8 0xFFFFFFFFFFFFFFFF DUP2 GT ISZERO PUSH2 0x19E3 JUMPI PUSH2 0x19E2 PUSH2 0x2381 JUMP JUMPDEST JUMPDEST PUSH2 0x19EF DUP5 DUP3 DUP6 ADD PUSH2 0x16EC JUMP JUMPDEST SWAP2 POP POP SWAP3 SWAP2 POP POP JUMP JUMPDEST PUSH1 0x0 DUP1 PUSH1 0x40 DUP4 DUP6 SUB SLT ISZERO PUSH2 0x1A0F JUMPI PUSH2 0x1A0E PUSH2 0x2386 JUMP JUMPDEST JUMPDEST PUSH1 0x0 DUP4 ADD CALLDATALOAD PUSH8 0xFFFFFFFFFFFFFFFF DUP2 GT ISZERO PUSH2 0x1A2D JUMPI PUSH2 0x1A2C PUSH2 0x2381 JUMP JUMPDEST JUMPDEST PUSH2 0x1A39 DUP6 DUP3 DUP7 ADD PUSH2 0x16EC JUMP JUMPDEST SWAP3 POP POP PUSH1 0x20 PUSH2 0x1A4A DUP6 DUP3 DUP7 ADD PUSH2 0x16D7 JUMP JUMPDEST SWAP2 POP POP SWAP3 POP SWAP3 SWAP1 POP JUMP JUMPDEST PUSH1 0x0 PUSH1 0x20 DUP3 DUP5 SUB SLT ISZERO PUSH2 0x1A6A JUMPI PUSH2 0x1A69 PUSH2 0x2386 JUMP JUMPDEST JUMPDEST PUSH1 0x0 PUSH2 0x1A78 DUP5 DUP3 DUP6 ADD PUSH2 0x172F JUMP JUMPDEST SWAP2 POP POP SWAP3 SWAP2 POP POP JUMP JUMPDEST PUSH1 0x0 PUSH1 0x20 DUP3 DUP5 SUB SLT ISZERO PUSH2 0x1A97 JUMPI PUSH2 0x1A96 PUSH2 0x2386 JUMP JUMPDEST JUMPDEST PUSH1 0x0 PUSH2 0x1AA5 DUP5 DUP3 DUP6 ADD PUSH2 0x1744 JUMP JUMPDEST SWAP2 POP POP SWAP3 SWAP2 POP POP JUMP JUMPDEST PUSH1 0x0 PUSH1 0x20 DUP3 DUP5 SUB SLT ISZERO PUSH2 0x1AC4 JUMPI PUSH2 0x1AC3 PUSH2 0x2386 JUMP JUMPDEST JUMPDEST PUSH1 0x0 PUSH2 0x1AD2 DUP5 DUP3 DUP6 ADD PUSH2 0x17D7 JUMP JUMPDEST SWAP2 POP POP SWAP3 SWAP2 POP POP JUMP JUMPDEST PUSH2 0x1AE4 DUP2 PUSH2 0x20EF JUMP JUMPDEST DUP3 MSTORE POP POP JUMP JUMPDEST PUSH2 0x1AF3 DUP2 PUSH2 0x2101 JUMP JUMPDEST DUP3 MSTORE POP POP JUMP JUMPDEST PUSH1 0x0 PUSH2 0x1B04 DUP3 PUSH2 0x1FF1 JUMP JUMPDEST PUSH2 0x1B0E DUP2 DUP6 PUSH2 0x2007 JUMP JUMPDEST SWAP4 POP PUSH2 0x1B1E DUP2 DUP6 PUSH1 0x20 DUP7 ADD PUSH2 0x2172 JUMP JUMPDEST PUSH2 0x1B27 DUP2 PUSH2 0x238B JUMP JUMPDEST DUP5 ADD SWAP2 POP POP SWAP3 SWAP2 POP POP JUMP JUMPDEST PUSH1 0x0 PUSH2 0x1B3D DUP3 PUSH2 0x1FFC JUMP JUMPDEST PUSH2 0x1B47 DUP2 DUP6 PUSH2 0x2018 JUMP JUMPDEST SWAP4 POP PUSH2 0x1B57 DUP2 DUP6 PUSH1 0x20 DUP7 ADD PUSH2 0x2172 JUMP JUMPDEST PUSH2 0x1B60 DUP2 PUSH2 0x238B JUMP JUMPDEST DUP5 ADD SWAP2 POP POP SWAP3 SWAP2 POP POP JUMP JUMPDEST PUSH1 0x0 PUSH2 0x1B76 DUP3 PUSH2 0x1FFC JUMP JUMPDEST PUSH2 0x1B80 DUP2 DUP6 PUSH2 0x2029 JUMP JUMPDEST SWAP4 POP PUSH2 0x1B90 DUP2 DUP6 PUSH1 0x20 DUP7 ADD PUSH2 0x2172 JUMP JUMPDEST DUP1 DUP5 ADD SWAP2 POP POP SWAP3 SWAP2 POP POP JUMP JUMPDEST PUSH1 0x0 PUSH2 0x1BA9 PUSH1 0x32 DUP4 PUSH2 0x2018 JUMP JUMPDEST SWAP2 POP PUSH2 0x1BB4 DUP3 PUSH2 0x239C JUMP JUMPDEST PUSH1 0x40 DUP3 ADD SWAP1 POP SWAP2 SWAP1 POP JUMP JUMPDEST PUSH1 0x0 PUSH2 0x1BCC PUSH1 0x25 DUP4 PUSH2 0x2018 JUMP JUMPDEST SWAP2 POP PUSH2 0x1BD7 DUP3 PUSH2 0x23EB JUMP JUMPDEST PUSH1 0x40 DUP3 ADD SWAP1 POP SWAP2 SWAP1 POP JUMP JUMPDEST PUSH1 0x0 PUSH2 0x1BEF PUSH1 0x1C DUP4 PUSH2 0x2018 JUMP JUMPDEST SWAP2 POP PUSH2 0x1BFA DUP3 PUSH2 0x243A JUMP JUMPDEST PUSH1 0x20 DUP3 ADD SWAP1 POP SWAP2 SWAP1 POP JUMP JUMPDEST PUSH1 0x0 PUSH2 0x1C12 PUSH1 0x24 DUP4 PUSH2 0x2018 JUMP JUMPDEST SWAP2 POP PUSH2 0x1C1D DUP3 PUSH2 0x2463 JUMP JUMPDEST PUSH1 0x40 DUP3 ADD SWAP1 POP SWAP2 SWAP1 POP JUMP JUMPDEST PUSH1 0x0 PUSH2 0x1C35 PUSH1 0x19 DUP4 PUSH2 0x2018 JUMP JUMPDEST SWAP2 POP PUSH2 0x1C40 DUP3 PUSH2 0x24B2 JUMP JUMPDEST PUSH1 0x20 DUP3 ADD SWAP1 POP SWAP2 SWAP1 POP JUMP JUMPDEST PUSH1 0x0 PUSH2 0x1C58 PUSH1 0x29 DUP4 PUSH2 0x2018 JUMP JUMPDEST SWAP2 POP PUSH2 0x1C63 DUP3 PUSH2 0x24DB JUMP JUMPDEST PUSH1 0x40 DUP3 ADD SWAP1 POP SWAP2 SWAP1 POP JUMP JUMPDEST PUSH1 0x0 PUSH2 0x1C7B PUSH1 0x3E DUP4 PUSH2 0x2018 JUMP JUMPDEST SWAP2 POP PUSH2 0x1C86 DUP3 PUSH2 0x252A JUMP JUMPDEST PUSH1 0x40 DUP3 ADD SWAP1 POP SWAP2 SWAP1 POP JUMP JUMPDEST PUSH1 0x0 PUSH2 0x1C9E PUSH1 0x20 DUP4 PUSH2 0x2018 JUMP JUMPDEST SWAP2 POP PUSH2 0x1CA9 DUP3 PUSH2 0x2579 JUMP JUMPDEST PUSH1 0x20 DUP3 ADD SWAP1 POP SWAP2 SWAP1 POP JUMP JUMPDEST PUSH1 0x0 PUSH2 0x1CC1 PUSH1 0x18 DUP4 PUSH2 0x2018 JUMP JUMPDEST SWAP2 POP PUSH2 0x1CCC DUP3 PUSH2 0x25A2 JUMP JUMPDEST PUSH1 0x20 DUP3 ADD SWAP1 POP SWAP2 SWAP1 POP JUMP JUMPDEST PUSH1 0x0 PUSH2 0x1CE4 PUSH1 0x21 DUP4 PUSH2 0x2018 JUMP JUMPDEST SWAP2 POP PUSH2 0x1CEF DUP3 PUSH2 0x25CB JUMP JUMPDEST PUSH1 0x40 DUP3 ADD SWAP1 POP SWAP2 SWAP1 POP JUMP JUMPDEST PUSH1 0x0 PUSH2 0x1D07 PUSH1 0x2E DUP4 PUSH2 0x2018 JUMP JUMPDEST SWAP2 POP PUSH2 0x1D12 DUP3 PUSH2 0x261A JUMP JUMPDEST PUSH1 0x40 DUP3 ADD SWAP1 POP SWAP2 SWAP1 POP JUMP JUMPDEST PUSH2 0x1D26 DUP2 PUSH2 0x2159 JUMP JUMPDEST DUP3 MSTORE POP POP JUMP JUMPDEST PUSH1 0x0 PUSH2 0x1D38 DUP3 DUP6 PUSH2 0x1B6B JUMP JUMPDEST SWAP2 POP PUSH2 0x1D44 DUP3 DUP5 PUSH2 0x1B6B JUMP JUMPDEST SWAP2 POP DUP2 SWAP1 POP SWAP4 SWAP3 POP POP POP JUMP JUMPDEST PUSH1 0x0 PUSH1 0x20 DUP3 ADD SWAP1 POP PUSH2 0x1D65 PUSH1 0x0 DUP4 ADD DUP5 PUSH2 0x1ADB JUMP JUMPDEST SWAP3 SWAP2 POP POP JUMP JUMPDEST PUSH1 0x0 PUSH1 0x80 DUP3 ADD SWAP1 POP PUSH2 0x1D80 PUSH1 0x0 DUP4 ADD DUP8 PUSH2 0x1ADB JUMP JUMPDEST PUSH2 0x1D8D PUSH1 0x20 DUP4 ADD DUP7 PUSH2 0x1ADB JUMP JUMPDEST PUSH2 0x1D9A PUSH1 0x40 DUP4 ADD DUP6 PUSH2 0x1D1D JUMP JUMPDEST DUP2 DUP2 SUB PUSH1 0x60 DUP4 ADD MSTORE PUSH2 0x1DAC DUP2 DUP5 PUSH2 0x1AF9 JUMP JUMPDEST SWAP1 POP SWAP6 SWAP5 POP POP POP POP POP JUMP JUMPDEST PUSH1 0x0 PUSH1 0x20 DUP3 ADD SWAP1 POP PUSH2 0x1DCC PUSH1 0x0 DUP4 ADD DUP5 PUSH2 0x1AEA JUMP JUMPDEST SWAP3 SWAP2 POP POP JUMP JUMPDEST PUSH1 0x0 PUSH1 0x20 DUP3 ADD SWAP1 POP DUP2 DUP2 SUB PUSH1 0x0 DUP4 ADD MSTORE PUSH2 0x1DEC DUP2 DUP5 PUSH2 0x1B32 JUMP JUMPDEST SWAP1 POP SWAP3 SWAP2 POP POP JUMP JUMPDEST PUSH1 0x0 PUSH1 0x20 DUP3 ADD SWAP1 POP DUP2 DUP2 SUB PUSH1 0x0 DUP4 ADD MSTORE PUSH2 0x1E0D DUP2 PUSH2 0x1B9C JUMP JUMPDEST SWAP1 POP SWAP2 SWAP1 POP JUMP JUMPDEST PUSH1 0x0 PUSH1 0x20 DUP3 ADD SWAP1 POP DUP2 DUP2 SUB PUSH1 0x0 DUP4 ADD MSTORE PUSH2 0x1E2D DUP2 PUSH2 0x1BBF JUMP JUMPDEST SWAP1 POP SWAP2 SWAP1 POP JUMP JUMPDEST PUSH1 0x0 PUSH1 0x20 DUP3 ADD SWAP1 POP DUP2 DUP2 SUB PUSH1 0x0 DUP4 ADD MSTORE PUSH2 0x1E4D DUP2 PUSH2 0x1BE2 JUMP JUMPDEST SWAP1 POP SWAP2 SWAP1 POP JUMP JUMPDEST PUSH1 0x0 PUSH1 0x20 DUP3 ADD SWAP1 POP DUP2 DUP2 SUB PUSH1 0x0 DUP4 ADD MSTORE PUSH2 0x1E6D DUP2 PUSH2 0x1C05 JUMP JUMPDEST SWAP1 POP SWAP2 SWAP1 POP JUMP JUMPDEST PUSH1 0x0 PUSH1 0x20 DUP3 ADD SWAP1 POP DUP2 DUP2 SUB PUSH1 0x0 DUP4 ADD MSTORE PUSH2 0x1E8D DUP2 PUSH2 0x1C28 JUMP JUMPDEST SWAP1 POP SWAP2 SWAP1 POP JUMP JUMPDEST PUSH1 0x0 PUSH1 0x20 DUP3 ADD SWAP1 POP DUP2 DUP2 SUB PUSH1 0x0 DUP4 ADD MSTORE PUSH2 0x1EAD DUP2 PUSH2 0x1C4B JUMP JUMPDEST SWAP1 POP SWAP2 SWAP1 POP JUMP JUMPDEST PUSH1 0x0 PUSH1 0x20 DUP3 ADD SWAP1 POP DUP2 DUP2 SUB PUSH1 0x0 DUP4 ADD MSTORE PUSH2 0x1ECD DUP2 PUSH2 0x1C6E JUMP JUMPDEST SWAP1 POP SWAP2 SWAP1 POP JUMP JUMPDEST PUSH1 0x0 PUSH1 0x20 DUP3 ADD SWAP1 POP DUP2 DUP2 SUB PUSH1 0x0 DUP4 ADD MSTORE PUSH2 0x1EED DUP2 PUSH2 0x1C91 JUMP JUMPDEST SWAP1 POP SWAP2 SWAP1 POP JUMP JUMPDEST PUSH1 0x0 PUSH1 0x20 DUP3 ADD SWAP1 POP DUP2 DUP2 SUB PUSH1 0x0 DUP4 ADD MSTORE PUSH2 0x1F0D DUP2 PUSH2 0x1CB4 JUMP JUMPDEST SWAP1 POP SWAP2 SWAP1 POP JUMP JUMPDEST PUSH1 0x0 PUSH1 0x20 DUP3 ADD SWAP1 POP DUP2 DUP2 SUB PUSH1 0x0 DUP4 ADD MSTORE PUSH2 0x1F2D DUP2 PUSH2 0x1CD7 JUMP JUMPDEST SWAP1 POP SWAP2 SWAP1 POP JUMP JUMPDEST PUSH1 0x0 PUSH1 0x20 DUP3 ADD SWAP1 POP DUP2 DUP2 SUB PUSH1 0x0 DUP4 ADD MSTORE PUSH2 0x1F4D DUP2 PUSH2 0x1CFA JUMP JUMPDEST SWAP1 POP SWAP2 SWAP1 POP JUMP JUMPDEST PUSH1 0x0 PUSH1 0x20 DUP3 ADD SWAP1 POP PUSH2 0x1F69 PUSH1 0x0 DUP4 ADD DUP5 PUSH2 0x1D1D JUMP JUMPDEST SWAP3 SWAP2 POP POP JUMP JUMPDEST PUSH1 0x0 PUSH2 0x1F79 PUSH2 0x1F8A JUMP JUMPDEST SWAP1 POP PUSH2 0x1F85 DUP3 DUP3 PUSH2 0x21D7 JUMP JUMPDEST SWAP2 SWAP1 POP JUMP JUMPDEST PUSH1 0x0 PUSH1 0x40 MLOAD SWAP1 POP SWAP1 JUMP JUMPDEST PUSH1 0x0 PUSH8 0xFFFFFFFFFFFFFFFF DUP3 GT ISZERO PUSH2 0x1FAF JUMPI PUSH2 0x1FAE PUSH2 0x233E JUMP JUMPDEST JUMPDEST PUSH1 0x20 DUP3 MUL SWAP1 POP PUSH1 0x20 DUP2 ADD SWAP1 POP SWAP2 SWAP1 POP JUMP JUMPDEST PUSH1 0x0 PUSH8 0xFFFFFFFFFFFFFFFF DUP3 GT ISZERO PUSH2 0x1FDB JUMPI PUSH2 0x1FDA PUSH2 0x233E JUMP JUMPDEST JUMPDEST PUSH2 0x1FE4 DUP3 PUSH2 0x238B JUMP JUMPDEST SWAP1 POP PUSH1 0x20 DUP2 ADD SWAP1 POP SWAP2 SWAP1 POP JUMP JUMPDEST PUSH1 0x0 DUP2 MLOAD SWAP1 POP SWAP2 SWAP1 POP JUMP JUMPDEST PUSH1 0x0 DUP2 MLOAD SWAP1 POP SWAP2 SWAP1 POP JUMP JUMPDEST PUSH1 0x0 DUP3 DUP3 MSTORE PUSH1 0x20 DUP3 ADD SWAP1 POP SWAP3 SWAP2 POP POP JUMP JUMPDEST PUSH1 0x0 DUP3 DUP3 MSTORE PUSH1 0x20 DUP3 ADD SWAP1 POP SWAP3 SWAP2 POP POP JUMP JUMPDEST PUSH1 0x0 DUP2 SWAP1 POP SWAP3 SWAP2 POP POP JUMP JUMPDEST PUSH1 0x0 PUSH2 0x203F DUP3 PUSH2 0x2159 JUMP JUMPDEST SWAP2 POP PUSH2 0x204A DUP4 PUSH2 0x2159 JUMP JUMPDEST SWAP3 POP DUP3 PUSH32 0xFFFFFFFFFFFFFFFFFFFFFFFFFFFFFFFFFFFFFFFFFFFFFFFFFFFFFFFFFFFFFFFF SUB DUP3 GT ISZERO PUSH2 0x207F JUMPI PUSH2 0x207E PUSH2 0x2282 JUMP JUMPDEST JUMPDEST DUP3 DUP3 ADD SWAP1 POP SWAP3 SWAP2 POP POP JUMP JUMPDEST PUSH1 0x0 PUSH2 0x2095 DUP3 PUSH2 0x2159 JUMP JUMPDEST SWAP2 POP PUSH2 0x20A0 DUP4 PUSH2 0x2159 JUMP JUMPDEST SWAP3 POP DUP3 PUSH2 0x20B0 JUMPI PUSH2 0x20AF PUSH2 0x22B1 JUMP JUMPDEST JUMPDEST DUP3 DUP3 DIV SWAP1 POP SWAP3 SWAP2 POP POP JUMP JUMPDEST PUSH1 0x0 PUSH2 0x20C6 DUP3 PUSH2 0x2159 JUMP JUMPDEST SWAP2 POP PUSH2 0x20D1 DUP4 PUSH2 0x2159 JUMP JUMPDEST SWAP3 POP DUP3 DUP3 LT ISZERO PUSH2 0x20E4 JUMPI PUSH2 0x20E3 PUSH2 0x2282 JUMP JUMPDEST JUMPDEST DUP3 DUP3 SUB SWAP1 POP SWAP3 SWAP2 POP POP JUMP JUMPDEST PUSH1 0x0 PUSH2 0x20FA DUP3 PUSH2 0x2139 JUMP JUMPDEST SWAP1 POP SWAP2 SWAP1 POP JUMP JUMPDEST PUSH1 0x0 DUP2 ISZERO ISZERO SWAP1 POP SWAP2 SWAP1 POP JUMP JUMPDEST PUSH1 0x0 PUSH32 0xFFFFFFFF00000000000000000000000000000000000000000000000000000000 DUP3 AND SWAP1 POP SWAP2 SWAP1 POP JUMP JUMPDEST PUSH1 0x0 PUSH20 0xFFFFFFFFFFFFFFFFFFFFFFFFFFFFFFFFFFFFFFFF DUP3 AND SWAP1 POP SWAP2 SWAP1 POP JUMP JUMPDEST PUSH1 0x0 DUP2 SWAP1 POP SWAP2 SWAP1 POP JUMP JUMPDEST DUP3 DUP2 DUP4 CALLDATACOPY PUSH1 0x0 DUP4 DUP4 ADD MSTORE POP POP POP JUMP JUMPDEST PUSH1 0x0 JUMPDEST DUP4 DUP2 LT ISZERO PUSH2 0x2190 JUMPI DUP1 DUP3 ADD MLOAD DUP2 DUP5 ADD MSTORE PUSH1 0x20 DUP2 ADD SWAP1 POP PUSH2 0x2175 JUMP JUMPDEST DUP4 DUP2 GT ISZERO PUSH2 0x219F JUMPI PUSH1 0x0 DUP5 DUP5 ADD MSTORE JUMPDEST POP POP POP POP JUMP JUMPDEST PUSH1 0x0 PUSH1 0x2 DUP3 DIV SWAP1 POP PUSH1 0x1 DUP3 AND DUP1 PUSH2 0x21BD JUMPI PUSH1 0x7F DUP3 AND SWAP2 POP JUMPDEST PUSH1 0x20 DUP3 LT DUP2 EQ ISZERO PUSH2 0x21D1 JUMPI PUSH2 0x21D0 PUSH2 0x22E0 JUMP JUMPDEST JUMPDEST POP SWAP2 SWAP1 POP JUMP JUMPDEST PUSH2 0x21E0 DUP3 PUSH2 0x238B JUMP JUMPDEST DUP2 ADD DUP2 DUP2 LT PUSH8 0xFFFFFFFFFFFFFFFF DUP3 GT OR ISZERO PUSH2 0x21FF JUMPI PUSH2 0x21FE PUSH2 0x233E JUMP JUMPDEST JUMPDEST DUP1 PUSH1 0x40 MSTORE POP POP POP JUMP JUMPDEST PUSH1 0x0 PUSH2 0x2213 DUP3 PUSH2 0x2159 JUMP JUMPDEST SWAP2 POP PUSH32 0xFFFFFFFFFFFFFFFFFFFFFFFFFFFFFFFFFFFFFFFFFFFFFFFFFFFFFFFFFFFFFFFF DUP3 EQ ISZERO PUSH2 0x2246 JUMPI PUSH2 0x2245 PUSH2 0x2282 JUMP JUMPDEST JUMPDEST PUSH1 0x1 DUP3 ADD SWAP1 POP SWAP2 SWAP1 POP JUMP JUMPDEST PUSH1 0x0 PUSH2 0x225C DUP3 PUSH2 0x2159 JUMP JUMPDEST SWAP2 POP PUSH2 0x2267 DUP4 PUSH2 0x2159 JUMP JUMPDEST SWAP3 POP DUP3 PUSH2 0x2277 JUMPI PUSH2 0x2276 PUSH2 0x22B1 JUMP JUMPDEST JUMPDEST DUP3 DUP3 MOD SWAP1 POP SWAP3 SWAP2 POP POP JUMP JUMPDEST PUSH32 0x4E487B7100000000000000000000000000000000000000000000000000000000 PUSH1 0x0 MSTORE PUSH1 0x11 PUSH1 0x4 MSTORE PUSH1 0x24 PUSH1 0x0 REVERT JUMPDEST PUSH32 0x4E487B7100000000000000000000000000000000000000000000000000000000 PUSH1 0x0 MSTORE PUSH1 0x12 PUSH1 0x4 MSTORE PUSH1 0x24 PUSH1 0x0 REVERT JUMPDEST PUSH32 0x4E487B7100000000000000000000000000000000000000000000000000000000 PUSH1 0x0 MSTORE PUSH1 0x22 PUSH1 0x4 MSTORE PUSH1 0x24 PUSH1 0x0 REVERT JUMPDEST PUSH32 0x4E487B7100000000000000000000000000000000000000000000000000000000 PUSH1 0x0 MSTORE PUSH1 0x32 PUSH1 0x4 MSTORE PUSH1 0x24 PUSH1 0x0 REVERT JUMPDEST PUSH32 0x4E487B7100000000000000000000000000000000000000000000000000000000 PUSH1 0x0 MSTORE PUSH1 0x41 PUSH1 0x4 MSTORE PUSH1 0x24 PUSH1 0x0 REVERT JUMPDEST PUSH1 0x0 DUP1 REVERT JUMPDEST PUSH1 0x0 DUP1 REVERT JUMPDEST PUSH1 0x0 DUP1 REVERT JUMPDEST PUSH1 0x0 DUP1 REVERT JUMPDEST PUSH1 0x0 DUP1 REVERT JUMPDEST PUSH1 0x0 DUP1 REVERT JUMPDEST PUSH1 0x0 PUSH1 0x1F NOT PUSH1 0x1F DUP4 ADD AND SWAP1 POP SWAP2 SWAP1 POP JUMP JUMPDEST PUSH32 0x4552433732313A207472616E7366657220746F206E6F6E204552433732315265 PUSH1 0x0 DUP3 ADD MSTORE PUSH32 0x63656976657220696D706C656D656E7465720000000000000000000000000000 PUSH1 0x20 DUP3 ADD MSTORE POP JUMP JUMPDEST PUSH32 0x4552433732313A207472616E736665722066726F6D20696E636F727265637420 PUSH1 0x0 DUP3 ADD MSTORE PUSH32 0x6F776E6572000000000000000000000000000000000000000000000000000000 PUSH1 0x20 DUP3 ADD MSTORE POP JUMP JUMPDEST PUSH32 0x4552433732313A20746F6B656E20616C7265616479206D696E74656400000000 PUSH1 0x0 DUP3 ADD MSTORE POP JUMP JUMPDEST PUSH32 0x4552433732313A207472616E7366657220746F20746865207A65726F20616464 PUSH1 0x0 DUP3 ADD MSTORE PUSH32 0x7265737300000000000000000000000000000000000000000000000000000000 PUSH1 0x20 DUP3 ADD MSTORE POP JUMP JUMPDEST PUSH32 0x4552433732313A20617070726F766520746F2063616C6C657200000000000000 PUSH1 0x0 DUP3 ADD MSTORE POP JUMP JUMPDEST PUSH32 0x4552433732313A2061646472657373207A65726F206973206E6F742061207661 PUSH1 0x0 DUP3 ADD MSTORE PUSH32 0x6C6964206F776E65720000000000000000000000000000000000000000000000 PUSH1 0x20 DUP3 ADD MSTORE POP JUMP JUMPDEST PUSH32 0x4552433732313A20617070726F76652063616C6C6572206973206E6F7420746F PUSH1 0x0 DUP3 ADD MSTORE PUSH32 0x6B656E206F776E6572206E6F7220617070726F76656420666F7220616C6C0000 PUSH1 0x20 DUP3 ADD MSTORE POP JUMP JUMPDEST PUSH32 0x4552433732313A206D696E7420746F20746865207A65726F2061646472657373 PUSH1 0x0 DUP3 ADD MSTORE POP JUMP JUMPDEST PUSH32 0x4552433732313A20696E76616C696420746F6B656E2049440000000000000000 PUSH1 0x0 DUP3 ADD MSTORE POP JUMP JUMPDEST PUSH32 0x4552433732313A20617070726F76616C20746F2063757272656E74206F776E65 PUSH1 0x0 DUP3 ADD MSTORE PUSH32 0x7200000000000000000000000000000000000000000000000000000000000000 PUSH1 0x20 DUP3 ADD MSTORE POP JUMP JUMPDEST PUSH32 0x4552433732313A2063616C6C6572206973206E6F7420746F6B656E206F776E65 PUSH1 0x0 DUP3 ADD MSTORE PUSH32 0x72206E6F7220617070726F766564000000000000000000000000000000000000 PUSH1 0x20 DUP3 ADD MSTORE POP JUMP JUMPDEST PUSH2 0x2672 DUP2 PUSH2 0x20EF JUMP JUMPDEST DUP2 EQ PUSH2 0x267D JUMPI PUSH1 0x0 DUP1 REVERT JUMPDEST POP JUMP JUMPDEST PUSH2 0x2689 DUP2 PUSH2 0x2101 JUMP JUMPDEST DUP2 EQ PUSH2 0x2694 JUMPI PUSH1 0x0 DUP1 REVERT JUMPDEST POP JUMP JUMPDEST PUSH2 0x26A0 DUP2 PUSH2 0x210D JUMP JUMPDEST DUP2 EQ PUSH2 0x26AB JUMPI PUSH1 0x0 DUP1 REVERT JUMPDEST POP JUMP JUMPDEST PUSH2 0x26B7 DUP2 PUSH2 0x2159 JUMP JUMPDEST DUP2 EQ PUSH2 0x26C2 JUMPI PUSH1 0x0 DUP1 REVERT JUMPDEST POP JUMP INVALID LOG2 PUSH5 0x6970667358 0x22 SLT KECCAK256 0x4B 0xEB SIGNEXTEND PUSH26 0x92A4A2EB2419350DFCF585FCFBB8000129E7D8A33C3E7A584C99 SWAP9 PUSH18 0x64736F6C6343000807003300000000000000 "
				},
				"gasEstimates": {
					"creation": {
						"codeDepositCost": "1995800",
						"executionCost": "infinite",
						"totalCost": "infinite"
					},
					"external": {
						"approve(address,uint256)": "infinite",
						"balanceOf(address)": "2924",
						"create((address,uint256)[])": "infinite",
						"create((address,uint256)[],address)": "infinite",
						"getApproved(uint256)": "5257",
						"isApprovedForAll(address,address)": "infinite",
						"name()": "infinite",
						"ownerOf(uint256)": "2982",
						"safeTransferFrom(address,address,uint256)": "infinite",
						"safeTransferFrom(address,address,uint256,bytes)": "infinite",
						"setApprovalForAll(address,bool)": "infinite",
						"supportsInterface(bytes4)": "797",
						"symbol()": "infinite",
						"tokenURI(uint256)": "3424",
						"transferFrom(address,address,uint256)": "infinite"
					}
				},
				"methodIdentifiers": {
					"approve(address,uint256)": "095ea7b3",
					"balanceOf(address)": "70a08231",
					"create((address,uint256)[])": "b21b89bd",
					"create((address,uint256)[],address)": "5b912b96",
					"getApproved(uint256)": "081812fc",
					"isApprovedForAll(address,address)": "e985e9c5",
					"name()": "06fdde03",
					"ownerOf(uint256)": "6352211e",
					"safeTransferFrom(address,address,uint256)": "42842e0e",
					"safeTransferFrom(address,address,uint256,bytes)": "b88d4fde",
					"setApprovalForAll(address,bool)": "a22cb465",
					"supportsInterface(bytes4)": "01ffc9a7",
					"symbol()": "95d89b41",
					"tokenURI(uint256)": "c87b56dd",
					"transferFrom(address,address,uint256)": "23b872dd"
				}
			},
			"storageLayout": {
				"storage": [
					{
						"astId": 25,
						"contract": "contracts/BillingRequest.sol:BillingRequest",
						"label": "_name",
						"offset": 0,
						"slot": "0",
						"type": "t_string_storage"
					},
					{
						"astId": 27,
						"contract": "contracts/BillingRequest.sol:BillingRequest",
						"label": "_symbol",
						"offset": 0,
						"slot": "1",
						"type": "t_string_storage"
					},
					{
						"astId": 31,
						"contract": "contracts/BillingRequest.sol:BillingRequest",
						"label": "_owners",
						"offset": 0,
						"slot": "2",
						"type": "t_mapping(t_uint256,t_address)"
					},
					{
						"astId": 35,
						"contract": "contracts/BillingRequest.sol:BillingRequest",
						"label": "_balances",
						"offset": 0,
						"slot": "3",
						"type": "t_mapping(t_address,t_uint256)"
					},
					{
						"astId": 39,
						"contract": "contracts/BillingRequest.sol:BillingRequest",
						"label": "_tokenApprovals",
						"offset": 0,
						"slot": "4",
						"type": "t_mapping(t_uint256,t_address)"
					},
					{
						"astId": 45,
						"contract": "contracts/BillingRequest.sol:BillingRequest",
						"label": "_operatorApprovals",
						"offset": 0,
						"slot": "5",
						"type": "t_mapping(t_address,t_mapping(t_address,t_bool))"
					},
					{
						"astId": 1695,
						"contract": "contracts/BillingRequest.sol:BillingRequest",
						"label": "_tokenId",
						"offset": 0,
						"slot": "6",
						"type": "t_struct(Counter)1350_storage"
					}
				],
				"types": {
					"t_address": {
						"encoding": "inplace",
						"label": "address",
						"numberOfBytes": "20"
					},
					"t_bool": {
						"encoding": "inplace",
						"label": "bool",
						"numberOfBytes": "1"
					},
					"t_mapping(t_address,t_bool)": {
						"encoding": "mapping",
						"key": "t_address",
						"label": "mapping(address => bool)",
						"numberOfBytes": "32",
						"value": "t_bool"
					},
					"t_mapping(t_address,t_mapping(t_address,t_bool))": {
						"encoding": "mapping",
						"key": "t_address",
						"label": "mapping(address => mapping(address => bool))",
						"numberOfBytes": "32",
						"value": "t_mapping(t_address,t_bool)"
					},
					"t_mapping(t_address,t_uint256)": {
						"encoding": "mapping",
						"key": "t_address",
						"label": "mapping(address => uint256)",
						"numberOfBytes": "32",
						"value": "t_uint256"
					},
					"t_mapping(t_uint256,t_address)": {
						"encoding": "mapping",
						"key": "t_uint256",
						"label": "mapping(uint256 => address)",
						"numberOfBytes": "32",
						"value": "t_address"
					},
					"t_string_storage": {
						"encoding": "bytes",
						"label": "string",
						"numberOfBytes": "32"
					},
					"t_struct(Counter)1350_storage": {
						"encoding": "inplace",
						"label": "struct Counters.Counter",
						"members": [
							{
								"astId": 1349,
								"contract": "contracts/BillingRequest.sol:BillingRequest",
								"label": "_value",
								"offset": 0,
								"slot": "0",
								"type": "t_uint256"
							}
						],
						"numberOfBytes": "32"
					},
					"t_uint256": {
						"encoding": "inplace",
						"label": "uint256",
						"numberOfBytes": "32"
					}
				}
			},
			"userdoc": {
				"kind": "user",
				"methods": {},
				"version": 1
			}
		}
	}
}