{
	"data": {
		"bytecode": {
			"linkReferences": {},
			"object": "608060405234801561001057600080fd5b50610a27806100206000396000f3fe608060405234801561001057600080fd5b506004361061002b5760003560e01c8063cc02ffa214610030575b600080fd5b61004a60048036038101906100459190610477565b61004c565b005b600082905060008173ffffffffffffffffffffffffffffffffffffffff1663a039cddf846040518263ffffffff1660e01b815260040161008c91906104c6565b60c060405180830381865afa1580156100a9573d6000803e3d6000fd5b505050506040513d601f19601f820116820180604052508101906100cd919061063c565b905060008160400151905060008260600151905060008360800151905060008460a001519050600085600001519050600086602001519050600082905060008173ffffffffffffffffffffffffffffffffffffffff16631f7d2fad846040518263ffffffff1660e01b815260040161014591906104c6565b602060405180830381865afa158015610162573d6000803e3d6000fd5b505050506040513d601f19601f820116820180604052508101906101869190610669565b90508173ffffffffffffffffffffffffffffffffffffffff166331680c43846040518263ffffffff1660e01b81526004016101c191906104c6565b602060405180830381865afa1580156101de573d6000803e3d6000fd5b505050506040513d601f19601f8201168201806040525081019061020291906106ce565b1561037d5760008273ffffffffffffffffffffffffffffffffffffffff1663b772b619856040518263ffffffff1660e01b815260040161024291906104c6565b600060405180830381865afa15801561025f573d6000803e3d6000fd5b505050506040513d6000823e3d601f19601f820116820180604052508101906102889190610818565b90506000816000815181106102a05761029f610861565b5b602002602001015160000151905060008473ffffffffffffffffffffffffffffffffffffffff1663155844b687846040518363ffffffff1660e01b81526004016102eb92919061089f565b602060405180830381865afa158015610308573d6000803e3d6000fd5b505050506040513d601f19601f8201168201806040525081019061032c91906108c8565b90507f84296e60f4be5d031e026c9813e67c7ccce90b259d2b1a768919dbaf96dc37948f8f8d8d8d8d8a898960405161036d999897969594939291906108f5565b60405180910390a15050506103c1565b7fdcc28c75868496344f79231dec52e15d56f55b3928e6d9aec66fc7f42e137e7a8c8c8a8a8a8a876040516103b89796959493929190610982565b60405180910390a15b505050505050505050505050565b6000604051905090565b600080fd5b600080fd5b600073ffffffffffffffffffffffffffffffffffffffff82169050919050565b600061040e826103e3565b9050919050565b61041e81610403565b811461042957600080fd5b50565b60008135905061043b81610415565b92915050565b6000819050919050565b61045481610441565b811461045f57600080fd5b50565b6000813590506104718161044b565b92915050565b6000806040838503121561048e5761048d6103d9565b5b600061049c8582860161042c565b92505060206104ad85828601610462565b9150509250929050565b6104c081610441565b82525050565b60006020820190506104db60008301846104b7565b92915050565b600080fd5b6000601f19601f8301169050919050565b7f4e487b7100000000000000000000000000000000000000000000000000000000600052604160045260246000fd5b61052f826104e6565b810181811067ffffffffffffffff8211171561054e5761054d6104f7565b5b80604052505050565b60006105616103cf565b905061056d8282610526565b919050565b60008151905061058181610415565b92915050565b6000815190506105968161044b565b92915050565b600060c082840312156105b2576105b16104e1565b5b6105bc60c0610557565b905060006105cc84828501610572565b60008301525060206105e084828501610587565b60208301525060406105f484828501610572565b604083015250606061060884828501610587565b606083015250608061061c84828501610572565b60808301525060a061063084828501610572565b60a08301525092915050565b600060c08284031215610652576106516103d9565b5b60006106608482850161059c565b91505092915050565b60006020828403121561067f5761067e6103d9565b5b600061068d84828501610572565b91505092915050565b60008115159050919050565b6106ab81610696565b81146106b657600080fd5b50565b6000815190506106c8816106a2565b92915050565b6000602082840312156106e4576106e36103d9565b5b60006106f2848285016106b9565b91505092915050565b600080fd5b600067ffffffffffffffff82111561071b5761071a6104f7565b5b602082029050602081019050919050565b600080fd5b600060408284031215610747576107466104e1565b5b6107516040610557565b9050600061076184828501610572565b600083015250602061077584828501610587565b60208301525092915050565b600061079461078f84610700565b610557565b905080838252602082019050604084028301858111156107b7576107b661072c565b5b835b818110156107e057806107cc8882610731565b8452602084019350506040810190506107b9565b5050509392505050565b600082601f8301126107ff576107fe6106fb565b5b815161080f848260208601610781565b91505092915050565b60006020828403121561082e5761082d6103d9565b5b600082015167ffffffffffffffff81111561084c5761084b6103de565b5b610858848285016107ea565b91505092915050565b7f4e487b7100000000000000000000000000000000000000000000000000000000600052603260045260246000fd5b61089981610403565b82525050565b60006040820190506108b460008301856104b7565b6108c16020830184610890565b9392505050565b6000602082840312156108de576108dd6103d9565b5b60006108ec84828501610587565b91505092915050565b60006101208201905061090b600083018c610890565b610918602083018b6104b7565b610925604083018a610890565b61093260608301896104b7565b61093f6080830188610890565b61094c60a0830187610890565b61095960c0830186610890565b61096660e0830185610890565b6109746101008301846104b7565b9a9950505050505050505050565b600060e082019050610997600083018a610890565b6109a460208301896104b7565b6109b16040830188610890565b6109be60608301876104b7565b6109cb6080830186610890565b6109d860a0830185610890565b6109e560c0830184610890565b9897505050505050505056fea26469706673582212202781e1f6535882ce30d0990e163c1c17e74ad6c7daefaa8f64ee49127409511864736f6c63430008110033",
			"opcodes": "PUSH1 0x80 PUSH1 0x40 MSTORE CALLVALUE DUP1 ISZERO PUSH2 0x10 JUMPI PUSH1 0x0 DUP1 REVERT JUMPDEST POP PUSH2 0xA27 DUP1 PUSH2 0x20 PUSH1 0x0 CODECOPY PUSH1 0x0 RETURN INVALID PUSH1 0x80 PUSH1 0x40 MSTORE CALLVALUE DUP1 ISZERO PUSH2 0x10 JUMPI PUSH1 0x0 DUP1 REVERT JUMPDEST POP PUSH1 0x4 CALLDATASIZE LT PUSH2 0x2B JUMPI PUSH1 0x0 CALLDATALOAD PUSH1 0xE0 SHR DUP1 PUSH4 0xCC02FFA2 EQ PUSH2 0x30 JUMPI JUMPDEST PUSH1 0x0 DUP1 REVERT JUMPDEST PUSH2 0x4A PUSH1 0x4 DUP1 CALLDATASIZE SUB DUP2 ADD SWAP1 PUSH2 0x45 SWAP2 SWAP1 PUSH2 0x477 JUMP JUMPDEST PUSH2 0x4C JUMP JUMPDEST STOP JUMPDEST PUSH1 0x0 DUP3 SWAP1 POP PUSH1 0x0 DUP2 PUSH20 0xFFFFFFFFFFFFFFFFFFFFFFFFFFFFFFFFFFFFFFFF AND PUSH4 0xA039CDDF DUP5 PUSH1 0x40 MLOAD DUP3 PUSH4 0xFFFFFFFF AND PUSH1 0xE0 SHL DUP2 MSTORE PUSH1 0x4 ADD PUSH2 0x8C SWAP2 SWAP1 PUSH2 0x4C6 JUMP JUMPDEST PUSH1 0xC0 PUSH1 0x40 MLOAD DUP1 DUP4 SUB DUP2 DUP7 GAS STATICCALL ISZERO DUP1 ISZERO PUSH2 0xA9 JUMPI RETURNDATASIZE PUSH1 0x0 DUP1 RETURNDATACOPY RETURNDATASIZE PUSH1 0x0 REVERT JUMPDEST POP POP POP POP PUSH1 0x40 MLOAD RETURNDATASIZE PUSH1 0x1F NOT PUSH1 0x1F DUP3 ADD AND DUP3 ADD DUP1 PUSH1 0x40 MSTORE POP DUP2 ADD SWAP1 PUSH2 0xCD SWAP2 SWAP1 PUSH2 0x63C JUMP JUMPDEST SWAP1 POP PUSH1 0x0 DUP2 PUSH1 0x40 ADD MLOAD SWAP1 POP PUSH1 0x0 DUP3 PUSH1 0x60 ADD MLOAD SWAP1 POP PUSH1 0x0 DUP4 PUSH1 0x80 ADD MLOAD SWAP1 POP PUSH1 0x0 DUP5 PUSH1 0xA0 ADD MLOAD SWAP1 POP PUSH1 0x0 DUP6 PUSH1 0x0 ADD MLOAD SWAP1 POP PUSH1 0x0 DUP7 PUSH1 0x20 ADD MLOAD SWAP1 POP PUSH1 0x0 DUP3 SWAP1 POP PUSH1 0x0 DUP2 PUSH20 0xFFFFFFFFFFFFFFFFFFFFFFFFFFFFFFFFFFFFFFFF AND PUSH4 0x1F7D2FAD DUP5 PUSH1 0x40 MLOAD DUP3 PUSH4 0xFFFFFFFF AND PUSH1 0xE0 SHL DUP2 MSTORE PUSH1 0x4 ADD PUSH2 0x145 SWAP2 SWAP1 PUSH2 0x4C6 JUMP JUMPDEST PUSH1 0x20 PUSH1 0x40 MLOAD DUP1 DUP4 SUB DUP2 DUP7 GAS STATICCALL ISZERO DUP1 ISZERO PUSH2 0x162 JUMPI RETURNDATASIZE PUSH1 0x0 DUP1 RETURNDATACOPY RETURNDATASIZE PUSH1 0x0 REVERT JUMPDEST POP POP POP POP PUSH1 0x40 MLOAD RETURNDATASIZE PUSH1 0x1F NOT PUSH1 0x1F DUP3 ADD AND DUP3 ADD DUP1 PUSH1 0x40 MSTORE POP DUP2 ADD SWAP1 PUSH2 0x186 SWAP2 SWAP1 PUSH2 0x669 JUMP JUMPDEST SWAP1 POP DUP2 PUSH20 0xFFFFFFFFFFFFFFFFFFFFFFFFFFFFFFFFFFFFFFFF AND PUSH4 0x31680C43 DUP5 PUSH1 0x40 MLOAD DUP3 PUSH4 0xFFFFFFFF AND PUSH1 0xE0 SHL DUP2 MSTORE PUSH1 0x4 ADD PUSH2 0x1C1 SWAP2 SWAP1 PUSH2 0x4C6 JUMP JUMPDEST PUSH1 0x20 PUSH1 0x40 MLOAD DUP1 DUP4 SUB DUP2 DUP7 GAS STATICCALL ISZERO DUP1 ISZERO PUSH2 0x1DE JUMPI RETURNDATASIZE PUSH1 0x0 DUP1 RETURNDATACOPY RETURNDATASIZE PUSH1 0x0 REVERT JUMPDEST POP POP POP POP PUSH1 0x40 MLOAD RETURNDATASIZE PUSH1 0x1F NOT PUSH1 0x1F DUP3 ADD AND DUP3 ADD DUP1 PUSH1 0x40 MSTORE POP DUP2 ADD SWAP1 PUSH2 0x202 SWAP2 SWAP1 PUSH2 0x6CE JUMP JUMPDEST ISZERO PUSH2 0x37D JUMPI PUSH1 0x0 DUP3 PUSH20 0xFFFFFFFFFFFFFFFFFFFFFFFFFFFFFFFFFFFFFFFF AND PUSH4 0xB772B619 DUP6 PUSH1 0x40 MLOAD DUP3 PUSH4 0xFFFFFFFF AND PUSH1 0xE0 SHL DUP2 MSTORE PUSH1 0x4 ADD PUSH2 0x242 SWAP2 SWAP1 PUSH2 0x4C6 JUMP JUMPDEST PUSH1 0x0 PUSH1 0x40 MLOAD DUP1 DUP4 SUB DUP2 DUP7 GAS STATICCALL ISZERO DUP1 ISZERO PUSH2 0x25F JUMPI RETURNDATASIZE PUSH1 0x0 DUP1 RETURNDATACOPY RETURNDATASIZE PUSH1 0x0 REVERT JUMPDEST POP POP POP POP PUSH1 0x40 MLOAD RETURNDATASIZE PUSH1 0x0 DUP3 RETURNDATACOPY RETURNDATASIZE PUSH1 0x1F NOT PUSH1 0x1F DUP3 ADD AND DUP3 ADD DUP1 PUSH1 0x40 MSTORE POP DUP2 ADD SWAP1 PUSH2 0x288 SWAP2 SWAP1 PUSH2 0x818 JUMP JUMPDEST SWAP1 POP PUSH1 0x0 DUP2 PUSH1 0x0 DUP2 MLOAD DUP2 LT PUSH2 0x2A0 JUMPI PUSH2 0x29F PUSH2 0x861 JUMP JUMPDEST JUMPDEST PUSH1 0x20 MUL PUSH1 0x20 ADD ADD MLOAD PUSH1 0x0 ADD MLOAD SWAP1 POP PUSH1 0x0 DUP5 PUSH20 0xFFFFFFFFFFFFFFFFFFFFFFFFFFFFFFFFFFFFFFFF AND PUSH4 0x155844B6 DUP8 DUP5 PUSH1 0x40 MLOAD DUP4 PUSH4 0xFFFFFFFF AND PUSH1 0xE0 SHL DUP2 MSTORE PUSH1 0x4 ADD PUSH2 0x2EB SWAP3 SWAP2 SWAP1 PUSH2 0x89F JUMP JUMPDEST PUSH1 0x20 PUSH1 0x40 MLOAD DUP1 DUP4 SUB DUP2 DUP7 GAS STATICCALL ISZERO DUP1 ISZERO PUSH2 0x308 JUMPI RETURNDATASIZE PUSH1 0x0 DUP1 RETURNDATACOPY RETURNDATASIZE PUSH1 0x0 REVERT JUMPDEST POP POP POP POP PUSH1 0x40 MLOAD RETURNDATASIZE PUSH1 0x1F NOT PUSH1 0x1F DUP3 ADD AND DUP3 ADD DUP1 PUSH1 0x40 MSTORE POP DUP2 ADD SWAP1 PUSH2 0x32C SWAP2 SWAP1 PUSH2 0x8C8 JUMP JUMPDEST SWAP1 POP PUSH32 0x84296E60F4BE5D031E026C9813E67C7CCCE90B259D2B1A768919DBAF96DC3794 DUP16 DUP16 DUP14 DUP14 DUP14 DUP14 DUP11 DUP10 DUP10 PUSH1 0x40 MLOAD PUSH2 0x36D SWAP10 SWAP9 SWAP8 SWAP7 SWAP6 SWAP5 SWAP4 SWAP3 SWAP2 SWAP1 PUSH2 0x8F5 JUMP JUMPDEST PUSH1 0x40 MLOAD DUP1 SWAP2 SUB SWAP1 LOG1 POP POP POP PUSH2 0x3C1 JUMP JUMPDEST PUSH32 0xDCC28C75868496344F79231DEC52E15D56F55B3928E6D9AEC66FC7F42E137E7A DUP13 DUP13 DUP11 DUP11 DUP11 DUP11 DUP8 PUSH1 0x40 MLOAD PUSH2 0x3B8 SWAP8 SWAP7 SWAP6 SWAP5 SWAP4 SWAP3 SWAP2 SWAP1 PUSH2 0x982 JUMP JUMPDEST PUSH1 0x40 MLOAD DUP1 SWAP2 SUB SWAP1 LOG1 JUMPDEST POP POP POP POP POP POP POP POP POP POP POP POP JUMP JUMPDEST PUSH1 0x0 PUSH1 0x40 MLOAD SWAP1 POP SWAP1 JUMP JUMPDEST PUSH1 0x0 DUP1 REVERT JUMPDEST PUSH1 0x0 DUP1 REVERT JUMPDEST PUSH1 0x0 PUSH20 0xFFFFFFFFFFFFFFFFFFFFFFFFFFFFFFFFFFFFFFFF DUP3 AND SWAP1 POP SWAP2 SWAP1 POP JUMP JUMPDEST PUSH1 0x0 PUSH2 0x40E DUP3 PUSH2 0x3E3 JUMP JUMPDEST SWAP1 POP SWAP2 SWAP1 POP JUMP JUMPDEST PUSH2 0x41E DUP2 PUSH2 0x403 JUMP JUMPDEST DUP2 EQ PUSH2 0x429 JUMPI PUSH1 0x0 DUP1 REVERT JUMPDEST POP JUMP JUMPDEST PUSH1 0x0 DUP2 CALLDATALOAD SWAP1 POP PUSH2 0x43B DUP2 PUSH2 0x415 JUMP JUMPDEST SWAP3 SWAP2 POP POP JUMP JUMPDEST PUSH1 0x0 DUP2 SWAP1 POP SWAP2 SWAP1 POP JUMP JUMPDEST PUSH2 0x454 DUP2 PUSH2 0x441 JUMP JUMPDEST DUP2 EQ PUSH2 0x45F JUMPI PUSH1 0x0 DUP1 REVERT JUMPDEST POP JUMP JUMPDEST PUSH1 0x0 DUP2 CALLDATALOAD SWAP1 POP PUSH2 0x471 DUP2 PUSH2 0x44B JUMP JUMPDEST SWAP3 SWAP2 POP POP JUMP JUMPDEST PUSH1 0x0 DUP1 PUSH1 0x40 DUP4 DUP6 SUB SLT ISZERO PUSH2 0x48E JUMPI PUSH2 0x48D PUSH2 0x3D9 JUMP JUMPDEST JUMPDEST PUSH1 0x0 PUSH2 0x49C DUP6 DUP3 DUP7 ADD PUSH2 0x42C JUMP JUMPDEST SWAP3 POP POP PUSH1 0x20 PUSH2 0x4AD DUP6 DUP3 DUP7 ADD PUSH2 0x462 JUMP JUMPDEST SWAP2 POP POP SWAP3 POP SWAP3 SWAP1 POP JUMP JUMPDEST PUSH2 0x4C0 DUP2 PUSH2 0x441 JUMP JUMPDEST DUP3 MSTORE POP POP JUMP JUMPDEST PUSH1 0x0 PUSH1 0x20 DUP3 ADD SWAP1 POP PUSH2 0x4DB PUSH1 0x0 DUP4 ADD DUP5 PUSH2 0x4B7 JUMP JUMPDEST SWAP3 SWAP2 POP POP JUMP JUMPDEST PUSH1 0x0 DUP1 REVERT JUMPDEST PUSH1 0x0 PUSH1 0x1F NOT PUSH1 0x1F DUP4 ADD AND SWAP1 POP SWAP2 SWAP1 POP JUMP JUMPDEST PUSH32 0x4E487B7100000000000000000000000000000000000000000000000000000000 PUSH1 0x0 MSTORE PUSH1 0x41 PUSH1 0x4 MSTORE PUSH1 0x24 PUSH1 0x0 REVERT JUMPDEST PUSH2 0x52F DUP3 PUSH2 0x4E6 JUMP JUMPDEST DUP2 ADD DUP2 DUP2 LT PUSH8 0xFFFFFFFFFFFFFFFF DUP3 GT OR ISZERO PUSH2 0x54E JUMPI PUSH2 0x54D PUSH2 0x4F7 JUMP JUMPDEST JUMPDEST DUP1 PUSH1 0x40 MSTORE POP POP POP JUMP JUMPDEST PUSH1 0x0 PUSH2 0x561 PUSH2 0x3CF JUMP JUMPDEST SWAP1 POP PUSH2 0x56D DUP3 DUP3 PUSH2 0x526 JUMP JUMPDEST SWAP2 SWAP1 POP JUMP JUMPDEST PUSH1 0x0 DUP2 MLOAD SWAP1 POP PUSH2 0x581 DUP2 PUSH2 0x415 JUMP JUMPDEST SWAP3 SWAP2 POP POP JUMP JUMPDEST PUSH1 0x0 DUP2 MLOAD SWAP1 POP PUSH2 0x596 DUP2 PUSH2 0x44B JUMP JUMPDEST SWAP3 SWAP2 POP POP JUMP JUMPDEST PUSH1 0x0 PUSH1 0xC0 DUP3 DUP5 SUB SLT ISZERO PUSH2 0x5B2 JUMPI PUSH2 0x5B1 PUSH2 0x4E1 JUMP JUMPDEST JUMPDEST PUSH2 0x5BC PUSH1 0xC0 PUSH2 0x557 JUMP JUMPDEST SWAP1 POP PUSH1 0x0 PUSH2 0x5CC DUP5 DUP3 DUP6 ADD PUSH2 0x572 JUMP JUMPDEST PUSH1 0x0 DUP4 ADD MSTORE POP PUSH1 0x20 PUSH2 0x5E0 DUP5 DUP3 DUP6 ADD PUSH2 0x587 JUMP JUMPDEST PUSH1 0x20 DUP4 ADD MSTORE POP PUSH1 0x40 PUSH2 0x5F4 DUP5 DUP3 DUP6 ADD PUSH2 0x572 JUMP JUMPDEST PUSH1 0x40 DUP4 ADD MSTORE POP PUSH1 0x60 PUSH2 0x608 DUP5 DUP3 DUP6 ADD PUSH2 0x587 JUMP JUMPDEST PUSH1 0x60 DUP4 ADD MSTORE POP PUSH1 0x80 PUSH2 0x61C DUP5 DUP3 DUP6 ADD PUSH2 0x572 JUMP JUMPDEST PUSH1 0x80 DUP4 ADD MSTORE POP PUSH1 0xA0 PUSH2 0x630 DUP5 DUP3 DUP6 ADD PUSH2 0x572 JUMP JUMPDEST PUSH1 0xA0 DUP4 ADD MSTORE POP SWAP3 SWAP2 POP POP JUMP JUMPDEST PUSH1 0x0 PUSH1 0xC0 DUP3 DUP5 SUB SLT ISZERO PUSH2 0x652 JUMPI PUSH2 0x651 PUSH2 0x3D9 JUMP JUMPDEST JUMPDEST PUSH1 0x0 PUSH2 0x660 DUP5 DUP3 DUP6 ADD PUSH2 0x59C JUMP JUMPDEST SWAP2 POP POP SWAP3 SWAP2 POP POP JUMP JUMPDEST PUSH1 0x0 PUSH1 0x20 DUP3 DUP5 SUB SLT ISZERO PUSH2 0x67F JUMPI PUSH2 0x67E PUSH2 0x3D9 JUMP JUMPDEST JUMPDEST PUSH1 0x0 PUSH2 0x68D DUP5 DUP3 DUP6 ADD PUSH2 0x572 JUMP JUMPDEST SWAP2 POP POP SWAP3 SWAP2 POP POP JUMP JUMPDEST PUSH1 0x0 DUP2 ISZERO ISZERO SWAP1 POP SWAP2 SWAP1 POP JUMP JUMPDEST PUSH2 0x6AB DUP2 PUSH2 0x696 JUMP JUMPDEST DUP2 EQ PUSH2 0x6B6 JUMPI PUSH1 0x0 DUP1 REVERT JUMPDEST POP JUMP JUMPDEST PUSH1 0x0 DUP2 MLOAD SWAP1 POP PUSH2 0x6C8 DUP2 PUSH2 0x6A2 JUMP JUMPDEST SWAP3 SWAP2 POP POP JUMP JUMPDEST PUSH1 0x0 PUSH1 0x20 DUP3 DUP5 SUB SLT ISZERO PUSH2 0x6E4 JUMPI PUSH2 0x6E3 PUSH2 0x3D9 JUMP JUMPDEST JUMPDEST PUSH1 0x0 PUSH2 0x6F2 DUP5 DUP3 DUP6 ADD PUSH2 0x6B9 JUMP JUMPDEST SWAP2 POP POP SWAP3 SWAP2 POP POP JUMP JUMPDEST PUSH1 0x0 DUP1 REVERT JUMPDEST PUSH1 0x0 PUSH8 0xFFFFFFFFFFFFFFFF DUP3 GT ISZERO PUSH2 0x71B JUMPI PUSH2 0x71A PUSH2 0x4F7 JUMP JUMPDEST JUMPDEST PUSH1 0x20 DUP3 MUL SWAP1 POP PUSH1 0x20 DUP2 ADD SWAP1 POP SWAP2 SWAP1 POP JUMP JUMPDEST PUSH1 0x0 DUP1 REVERT JUMPDEST PUSH1 0x0 PUSH1 0x40 DUP3 DUP5 SUB SLT ISZERO PUSH2 0x747 JUMPI PUSH2 0x746 PUSH2 0x4E1 JUMP JUMPDEST JUMPDEST PUSH2 0x751 PUSH1 0x40 PUSH2 0x557 JUMP JUMPDEST SWAP1 POP PUSH1 0x0 PUSH2 0x761 DUP5 DUP3 DUP6 ADD PUSH2 0x572 JUMP JUMPDEST PUSH1 0x0 DUP4 ADD MSTORE POP PUSH1 0x20 PUSH2 0x775 DUP5 DUP3 DUP6 ADD PUSH2 0x587 JUMP JUMPDEST PUSH1 0x20 DUP4 ADD MSTORE POP SWAP3 SWAP2 POP POP JUMP JUMPDEST PUSH1 0x0 PUSH2 0x794 PUSH2 0x78F DUP5 PUSH2 0x700 JUMP JUMPDEST PUSH2 0x557 JUMP JUMPDEST SWAP1 POP DUP1 DUP4 DUP3 MSTORE PUSH1 0x20 DUP3 ADD SWAP1 POP PUSH1 0x40 DUP5 MUL DUP4 ADD DUP6 DUP2 GT ISZERO PUSH2 0x7B7 JUMPI PUSH2 0x7B6 PUSH2 0x72C JUMP JUMPDEST JUMPDEST DUP4 JUMPDEST DUP2 DUP2 LT ISZERO PUSH2 0x7E0 JUMPI DUP1 PUSH2 0x7CC DUP9 DUP3 PUSH2 0x731 JUMP JUMPDEST DUP5 MSTORE PUSH1 0x20 DUP5 ADD SWAP4 POP POP PUSH1 0x40 DUP2 ADD SWAP1 POP PUSH2 0x7B9 JUMP JUMPDEST POP POP POP SWAP4 SWAP3 POP POP POP JUMP JUMPDEST PUSH1 0x0 DUP3 PUSH1 0x1F DUP4 ADD SLT PUSH2 0x7FF JUMPI PUSH2 0x7FE PUSH2 0x6FB JUMP JUMPDEST JUMPDEST DUP2 MLOAD PUSH2 0x80F DUP5 DUP3 PUSH1 0x20 DUP7 ADD PUSH2 0x781 JUMP JUMPDEST SWAP2 POP POP SWAP3 SWAP2 POP POP JUMP JUMPDEST PUSH1 0x0 PUSH1 0x20 DUP3 DUP5 SUB SLT ISZERO PUSH2 0x82E JUMPI PUSH2 0x82D PUSH2 0x3D9 JUMP JUMPDEST JUMPDEST PUSH1 0x0 DUP3 ADD MLOAD PUSH8 0xFFFFFFFFFFFFFFFF DUP2 GT ISZERO PUSH2 0x84C JUMPI PUSH2 0x84B PUSH2 0x3DE JUMP JUMPDEST JUMPDEST PUSH2 0x858 DUP5 DUP3 DUP6 ADD PUSH2 0x7EA JUMP JUMPDEST SWAP2 POP POP SWAP3 SWAP2 POP POP JUMP JUMPDEST PUSH32 0x4E487B7100000000000000000000000000000000000000000000000000000000 PUSH1 0x0 MSTORE PUSH1 0x32 PUSH1 0x4 MSTORE PUSH1 0x24 PUSH1 0x0 REVERT JUMPDEST PUSH2 0x899 DUP2 PUSH2 0x403 JUMP JUMPDEST DUP3 MSTORE POP POP JUMP JUMPDEST PUSH1 0x0 PUSH1 0x40 DUP3 ADD SWAP1 POP PUSH2 0x8B4 PUSH1 0x0 DUP4 ADD DUP6 PUSH2 0x4B7 JUMP JUMPDEST PUSH2 0x8C1 PUSH1 0x20 DUP4 ADD DUP5 PUSH2 0x890 JUMP JUMPDEST SWAP4 SWAP3 POP POP POP JUMP JUMPDEST PUSH1 0x0 PUSH1 0x20 DUP3 DUP5 SUB SLT ISZERO PUSH2 0x8DE JUMPI PUSH2 0x8DD PUSH2 0x3D9 JUMP JUMPDEST JUMPDEST PUSH1 0x0 PUSH2 0x8EC DUP5 DUP3 DUP6 ADD PUSH2 0x587 JUMP JUMPDEST SWAP2 POP POP SWAP3 SWAP2 POP POP JUMP JUMPDEST PUSH1 0x0 PUSH2 0x120 DUP3 ADD SWAP1 POP PUSH2 0x90B PUSH1 0x0 DUP4 ADD DUP13 PUSH2 0x890 JUMP JUMPDEST PUSH2 0x918 PUSH1 0x20 DUP4 ADD DUP12 PUSH2 0x4B7 JUMP JUMPDEST PUSH2 0x925 PUSH1 0x40 DUP4 ADD DUP11 PUSH2 0x890 JUMP JUMPDEST PUSH2 0x932 PUSH1 0x60 DUP4 ADD DUP10 PUSH2 0x4B7 JUMP JUMPDEST PUSH2 0x93F PUSH1 0x80 DUP4 ADD DUP9 PUSH2 0x890 JUMP JUMPDEST PUSH2 0x94C PUSH1 0xA0 DUP4 ADD DUP8 PUSH2 0x890 JUMP JUMPDEST PUSH2 0x959 PUSH1 0xC0 DUP4 ADD DUP7 PUSH2 0x890 JUMP JUMPDEST PUSH2 0x966 PUSH1 0xE0 DUP4 ADD DUP6 PUSH2 0x890 JUMP JUMPDEST PUSH2 0x974 PUSH2 0x100 DUP4 ADD DUP5 PUSH2 0x4B7 JUMP JUMPDEST SWAP11 SWAP10 POP POP POP POP POP POP POP POP POP POP JUMP JUMPDEST PUSH1 0x0 PUSH1 0xE0 DUP3 ADD SWAP1 POP PUSH2 0x997 PUSH1 0x0 DUP4 ADD DUP11 PUSH2 0x890 JUMP JUMPDEST PUSH2 0x9A4 PUSH1 0x20 DUP4 ADD DUP10 PUSH2 0x4B7 JUMP JUMPDEST PUSH2 0x9B1 PUSH1 0x40 DUP4 ADD DUP9 PUSH2 0x890 JUMP JUMPDEST PUSH2 0x9BE PUSH1 0x60 DUP4 ADD DUP8 PUSH2 0x4B7 JUMP JUMPDEST PUSH2 0x9CB PUSH1 0x80 DUP4 ADD DUP7 PUSH2 0x890 JUMP JUMPDEST PUSH2 0x9D8 PUSH1 0xA0 DUP4 ADD DUP6 PUSH2 0x890 JUMP JUMPDEST PUSH2 0x9E5 PUSH1 0xC0 DUP4 ADD DUP5 PUSH2 0x890 JUMP JUMPDEST SWAP9 SWAP8 POP POP POP POP POP POP POP POP JUMP INVALID LOG2 PUSH5 0x6970667358 0x22 SLT KECCAK256 0x27 DUP2 0xE1 0xF6 MSTORE8 PC DUP3 0xCE ADDRESS 0xD0 SWAP10 0xE AND EXTCODECOPY SHR OR 0xE7 0x4A 0xD6 0xC7 0xDA 0xEF 0xAA DUP16 PUSH5 0xEE49127409 MLOAD XOR PUSH5 0x736F6C6343 STOP ADDMOD GT STOP CALLER "
		},
		"gasEstimates": {
			"creation": {
				"codeDepositCost": "519800",
				"executionCost": "556",
				"totalCost": "520356"
			},
			"external": {
				"onPostPayment(address,uint256)": "infinite"
			}
		},
		"methodIdentifiers": {
			"onPostPayment(address,uint256)": "cc02ffa2"
		}
	},
	"abi": [
		{
			"anonymous": false,
			"inputs": [
				{
					"indexed": false,
					"internalType": "address",
					"name": "receipt",
					"type": "address"
				},
				{
					"indexed": false,
					"internalType": "uint256",
					"name": "receiptId",
					"type": "uint256"
				},
				{
					"indexed": false,
					"internalType": "address",
					"name": "receiptToken",
					"type": "address"
				},
				{
					"indexed": false,
					"internalType": "uint256",
					"name": "receiptTokenAmount",
					"type": "uint256"
				},
				{
					"indexed": false,
					"internalType": "address",
					"name": "payer",
					"type": "address"
				},
				{
					"indexed": false,
					"internalType": "address",
					"name": "payee",
					"type": "address"
				},
				{
					"indexed": false,
					"internalType": "address",
					"name": "paymentPrecondition",
					"type": "address"
				}
			],
			"name": "DynamicTokenAmountPPAExecuted",
			"type": "event"
		},
		{
			"anonymous": false,
			"inputs": [
				{
					"indexed": false,
					"internalType": "address",
					"name": "receipt",
					"type": "address"
				},
				{
					"indexed": false,
					"internalType": "uint256",
					"name": "receiptId",
					"type": "uint256"
				},
				{
					"indexed": false,
					"internalType": "address",
					"name": "receiptToken",
					"type": "address"
				},
				{
					"indexed": false,
					"internalType": "uint256",
					"name": "receiptTokenAmount",
					"type": "uint256"
				},
				{
					"indexed": false,
					"internalType": "address",
					"name": "payer",
					"type": "address"
				},
				{
					"indexed": false,
					"internalType": "address",
					"name": "payee",
					"type": "address"
				},
				{
					"indexed": false,
					"internalType": "address",
					"name": "paymentPrecondition",
					"type": "address"
				},
				{
					"indexed": false,
					"internalType": "address",
					"name": "paymentRequestToken",
					"type": "address"
				},
				{
					"indexed": false,
					"internalType": "uint256",
					"name": "paymentRequestTokenAmount",
					"type": "uint256"
				}
			],
			"name": "StaticTokenAmountPPAExecuted",
			"type": "event"
		},
		{
			"inputs": [
				{
					"internalType": "address",
					"name": "receipt",
					"type": "address"
				},
				{
					"internalType": "uint256",
					"name": "receiptId",
					"type": "uint256"
				}
			],
			"name": "onPostPayment",
			"outputs": [],
			"stateMutability": "nonpayable",
			"type": "function"
		}
	]
}